{"abi":[{"type":"constructor","inputs":[{"name":"uri","type":"string","internalType":"string"}],"stateMutability":"nonpayable"},{"type":"function","name":"balanceOf","inputs":[{"name":"account","type":"address","internalType":"address"},{"name":"id","type":"uint256","internalType":"uint256"}],"outputs":[{"name":"","type":"uint256","internalType":"uint256"}],"stateMutability":"view"},{"type":"function","name":"balanceOfBatch","inputs":[{"name":"accounts","type":"address[]","internalType":"address[]"},{"name":"ids","type":"uint256[]","internalType":"uint256[]"}],"outputs":[{"name":"","type":"uint256[]","internalType":"uint256[]"}],"stateMutability":"view"},{"type":"function","name":"burn","inputs":[{"name":"from","type":"address","internalType":"address"},{"name":"amount","type":"uint256","internalType":"uint256"}],"outputs":[],"stateMutability":"nonpayable"},{"type":"function","name":"burnBatch","inputs":[{"name":"from","type":"address[]","internalType":"address[]"},{"name":"amounts","type":"uint256[]","internalType":"uint256[]"}],"outputs":[],"stateMutability":"nonpayable"},{"type":"function","name":"isApprovedForAll","inputs":[{"name":"account","type":"address","internalType":"address"},{"name":"operator","type":"address","internalType":"address"}],"outputs":[{"name":"","type":"bool","internalType":"bool"}],"stateMutability":"view"},{"type":"function","name":"isTransferEnabled","inputs":[],"outputs":[{"name":"","type":"bool","internalType":"bool"}],"stateMutability":"view"},{"type":"function","name":"mint","inputs":[{"name":"to","type":"address","internalType":"address"},{"name":"amount","type":"uint256","internalType":"uint256"}],"outputs":[],"stateMutability":"nonpayable"},{"type":"function","name":"mintBatch","inputs":[{"name":"to","type":"address[]","internalType":"address[]"},{"name":"amounts","type":"uint256[]","internalType":"uint256[]"}],"outputs":[],"stateMutability":"nonpayable"},{"type":"function","name":"mintSingleBatch","inputs":[{"name":"to","type":"address[]","internalType":"address[]"}],"outputs":[],"stateMutability":"nonpayable"},{"type":"function","name":"owner","inputs":[],"outputs":[{"name":"","type":"address","internalType":"address"}],"stateMutability":"view"},{"type":"function","name":"renounceOwnership","inputs":[],"outputs":[],"stateMutability":"nonpayable"},{"type":"function","name":"safeBatchTransferFrom","inputs":[{"name":"from","type":"address","internalType":"address"},{"name":"to","type":"address","internalType":"address"},{"name":"ids","type":"uint256[]","internalType":"uint256[]"},{"name":"values","type":"uint256[]","internalType":"uint256[]"},{"name":"data","type":"bytes","internalType":"bytes"}],"outputs":[],"stateMutability":"nonpayable"},{"type":"function","name":"safeTransferFrom","inputs":[{"name":"from","type":"address","internalType":"address"},{"name":"to","type":"address","internalType":"address"},{"name":"id","type":"uint256","internalType":"uint256"},{"name":"value","type":"uint256","internalType":"uint256"},{"name":"data","type":"bytes","internalType":"bytes"}],"outputs":[],"stateMutability":"nonpayable"},{"type":"function","name":"setApprovalForAll","inputs":[{"name":"operator","type":"address","internalType":"address"},{"name":"approved","type":"bool","internalType":"bool"}],"outputs":[],"stateMutability":"nonpayable"},{"type":"function","name":"setTransferable","inputs":[{"name":"isTransferable","type":"bool","internalType":"bool"}],"outputs":[],"stateMutability":"nonpayable"},{"type":"function","name":"setURI","inputs":[{"name":"newUri","type":"string","internalType":"string"}],"outputs":[],"stateMutability":"nonpayable"},{"type":"function","name":"supportsInterface","inputs":[{"name":"interfaceId","type":"bytes4","internalType":"bytes4"}],"outputs":[{"name":"","type":"bool","internalType":"bool"}],"stateMutability":"view"},{"type":"function","name":"transferOwnership","inputs":[{"name":"newOwner","type":"address","internalType":"address"}],"outputs":[],"stateMutability":"nonpayable"},{"type":"function","name":"uri","inputs":[{"name":"","type":"uint256","internalType":"uint256"}],"outputs":[{"name":"","type":"string","internalType":"string"}],"stateMutability":"view"},{"type":"event","name":"ApprovalForAll","inputs":[{"name":"account","type":"address","indexed":true,"internalType":"address"},{"name":"operator","type":"address","indexed":true,"internalType":"address"},{"name":"approved","type":"bool","indexed":false,"internalType":"bool"}],"anonymous":false},{"type":"event","name":"OwnershipTransferred","inputs":[{"name":"previousOwner","type":"address","indexed":true,"internalType":"address"},{"name":"newOwner","type":"address","indexed":true,"internalType":"address"}],"anonymous":false},{"type":"event","name":"TransferBatch","inputs":[{"name":"operator","type":"address","indexed":true,"internalType":"address"},{"name":"from","type":"address","indexed":true,"internalType":"address"},{"name":"to","type":"address","indexed":true,"internalType":"address"},{"name":"ids","type":"uint256[]","indexed":false,"internalType":"uint256[]"},{"name":"values","type":"uint256[]","indexed":false,"internalType":"uint256[]"}],"anonymous":false},{"type":"event","name":"TransferSingle","inputs":[{"name":"operator","type":"address","indexed":true,"internalType":"address"},{"name":"from","type":"address","indexed":true,"internalType":"address"},{"name":"to","type":"address","indexed":true,"internalType":"address"},{"name":"id","type":"uint256","indexed":false,"internalType":"uint256"},{"name":"value","type":"uint256","indexed":false,"internalType":"uint256"}],"anonymous":false},{"type":"event","name":"URI","inputs":[{"name":"value","type":"string","indexed":false,"internalType":"string"},{"name":"id","type":"uint256","indexed":true,"internalType":"uint256"}],"anonymous":false},{"type":"error","name":"ERC1155InsufficientBalance","inputs":[{"name":"sender","type":"address","internalType":"address"},{"name":"balance","type":"uint256","internalType":"uint256"},{"name":"needed","type":"uint256","internalType":"uint256"},{"name":"tokenId","type":"uint256","internalType":"uint256"}]},{"type":"error","name":"ERC1155InvalidApprover","inputs":[{"name":"approver","type":"address","internalType":"address"}]},{"type":"error","name":"ERC1155InvalidArrayLength","inputs":[{"name":"idsLength","type":"uint256","internalType":"uint256"},{"name":"valuesLength","type":"uint256","internalType":"uint256"}]},{"type":"error","name":"ERC1155InvalidOperator","inputs":[{"name":"operator","type":"address","internalType":"address"}]},{"type":"error","name":"ERC1155InvalidReceiver","inputs":[{"name":"receiver","type":"address","internalType":"address"}]},{"type":"error","name":"ERC1155InvalidSender","inputs":[{"name":"sender","type":"address","internalType":"address"}]},{"type":"error","name":"ERC1155MissingApprovalForAll","inputs":[{"name":"operator","type":"address","internalType":"address"},{"name":"owner","type":"address","internalType":"address"}]},{"type":"error","name":"OwnableInvalidOwner","inputs":[{"name":"owner","type":"address","internalType":"address"}]},{"type":"error","name":"OwnableUnauthorizedAccount","inputs":[{"name":"account","type":"address","internalType":"address"}]}],"bytecode":{"object":"0x60806040526003805460ff60a01b1916905534801561001c575f80fd5b50604051611e7e380380611e7e83398101604081905261003b916100f9565b338161004681610084565b506001600160a01b03811661007457604051631e4fbdf760e01b81525f600482015260240160405180910390fd5b61007d81610094565b50506102e7565b6002610090828261022d565b5050565b600380546001600160a01b038381166001600160a01b0319831681179093556040519116919082907f8be0079c531659141344cd1fd0a4f28419497f9722a3daafe3b4186f6b6457e0905f90a35050565b634e487b7160e01b5f52604160045260245ffd5b5f60208284031215610109575f80fd5b81516001600160401b0381111561011e575f80fd5b8201601f8101841361012e575f80fd5b80516001600160401b03811115610147576101476100e5565b604051601f8201601f19908116603f011681016001600160401b0381118282101715610175576101756100e5565b60405281815282820160200186101561018c575f80fd5b8160208401602083015e5f91810160200191909152949350505050565b600181811c908216806101bd57607f821691505b6020821081036101db57634e487b7160e01b5f52602260045260245ffd5b50919050565b601f82111561022857805f5260205f20601f840160051c810160208510156102065750805b601f840160051c820191505b81811015610225575f8155600101610212565b50505b505050565b81516001600160401b03811115610246576102466100e5565b61025a8161025484546101a9565b846101e1565b6020601f82116001811461028c575f83156102755750848201515b5f19600385901b1c1916600184901b178455610225565b5f84815260208120601f198516915b828110156102bb578785015182556020948501946001909201910161029b565b50848210156102d857868401515f19600387901b60f8161c191681555b50505050600190811b01905550565b611b8a806102f45f395ff3fe608060405234801561000f575f80fd5b5060043610610148575f3560e01c80637c88e3d9116100c7578063a7244eb61161007d578063e985e9c511610063578063e985e9c5146102b9578063f242432a146102f4578063f2fde38b14610307575f80fd5b8063a7244eb614610292578063cca5dcb6146102a5575f80fd5b80639cd23707116100ad5780639cd23707146102595780639dc29fac1461026c578063a22cb4651461027f575f80fd5b80637c88e3d91461022b5780638da5cb5b1461023e575f80fd5b80632eb2c2d61161011c57806340c10f191161010257806340c10f19146101f05780634e1273f414610203578063715018a614610223575f80fd5b80632eb2c2d6146101ca5780633e1589c9146101dd575f80fd5b8062fdd58e1461014c57806301ffc9a71461017257806302fe5305146101955780630e89341c146101aa575b5f80fd5b61015f61015a3660046112f1565b61031a565b6040519081526020015b60405180910390f35b610185610180366004611346565b610341565b6040519015158152602001610169565b6101a86101a3366004611406565b610423565b005b6101bd6101b8366004611453565b610437565b6040516101699190611498565b6101a86101d8366004611555565b6104c9565b6101a86101eb366004611604565b610541565b6101a86101fe3660046112f1565b6105f0565b610216610211366004611604565b610616565b6040516101699190611701565b6101a86106fa565b6101a861023936600461175b565b61070d565b6003546040516001600160a01b039091168152602001610169565b6101a86102673660046117d6565b6107d7565b6101a861027a3660046112f1565b610818565b6101a861028d3660046117ef565b61082b565b6101a86102a0366004611820565b610836565b60035461018590600160a01b900460ff1681565b6101856102c736600461185f565b6001600160a01b039182165f90815260016020908152604080832093909416825291909152205460ff1690565b6101a8610302366004611887565b610892565b6101a86103153660046118db565b6108f9565b5f818152602081815260408083206001600160a01b03861684529091529020545b92915050565b5f7fffffffff0000000000000000000000000000000000000000000000000000000082167fd9b67a260000000000000000000000000000000000000000000000000000000014806103d357507fffffffff0000000000000000000000000000000000000000000000000000000082167f0e89341c00000000000000000000000000000000000000000000000000000000145b8061033b57507f01ffc9a7000000000000000000000000000000000000000000000000000000007fffffffff0000000000000000000000000000000000000000000000000000000083161461033b565b61042b61094c565b61043481610992565b50565b606060028054610446906118f4565b80601f0160208091040260200160405190810160405280929190818152602001828054610472906118f4565b80156104bd5780601f10610494576101008083540402835291602001916104bd565b820191905f5260205f20905b8154815290600101906020018083116104a057829003601f168201915b50505050509050919050565b600354600160a01b900460ff16156104ed576104e8858585858561099e565b61053a565b60405162461bcd60e51b815260206004820152601f60248201527f4261746368207472616e736665727320617265206e6f7420616c6c6f7765640060448201526064015b60405180910390fd5b5050505050565b61054961094c565b81518151811461059b5760405162461bcd60e51b815260206004820152601c60248201527f496e70757473206d75737420686176652073616d65206c656e677468000000006044820152606401610531565b5f5b818110156105ea576105e28482815181106105ba576105ba61192c565b60200260200101515f8584815181106105d5576105d561192c565b6020026020010151610a34565b60010161059d565b50505050565b6105f861094c565b610612825f8360405180602001604052805f815250610a9a565b5050565b6060815183511461066057815183516040517f5b05999100000000000000000000000000000000000000000000000000000000815260048101929092526024820152604401610531565b5f835167ffffffffffffffff81111561067b5761067b611368565b6040519080825280602002602001820160405280156106a4578160200160208202803683370190505b5090505f5b84518110156106f2576020808202860101516106cd9060208084028701015161031a565b8282815181106106df576106df61192c565b60209081029190910101526001016106a9565b509392505050565b61070261094c565b61070b5f610af5565b565b61071561094c565b828181146107655760405162461bcd60e51b815260206004820152601c60248201527f496e70757473206d75737420686176652073616d65206c656e677468000000006044820152606401610531565b5f5b818110156107cf576107c78686838181106107845761078461192c565b905060200201602081019061079991906118db565b5f8686858181106107ac576107ac61192c565b9050602002013560405180602001604052805f815250610a9a565b600101610767565b505050505050565b6107df61094c565b60038054911515600160a01b027fffffffffffffffffffffff00ffffffffffffffffffffffffffffffffffffffff909216919091179055565b61082061094c565b610612825f83610a34565b610612338383610b5e565b61083e61094c565b805f5b818110156105ea5761088a84848381811061085e5761085e61192c565b905060200201602081019061087391906118db565b5f600160405180602001604052805f815250610a9a565b600101610841565b600354600160a01b900460ff16156108b1576104e88585858585610c2a565b60405162461bcd60e51b815260206004820152601960248201527f5472616e736665727320617265206e6f7420616c6c6f776564000000000000006044820152606401610531565b61090161094c565b6001600160a01b038116610943576040517f1e4fbdf70000000000000000000000000000000000000000000000000000000081525f6004820152602401610531565b61043481610af5565b6003546001600160a01b0316331461070b576040517f118cdaa7000000000000000000000000000000000000000000000000000000008152336004820152602401610531565b60026106128282611989565b336001600160a01b03861681148015906109dd57506001600160a01b038087165f9081526001602090815260408083209385168352929052205460ff16155b15610a27576040517fe237d9220000000000000000000000000000000000000000000000000000000081526001600160a01b03808316600483015287166024820152604401610531565b6107cf8686868686610cc0565b6001600160a01b038316610a5c57604051626a0d4560e21b81525f6004820152602401610531565b604080516001808252602082018590528183019081526060820184905260a082019092525f6080820181815291929161053a91879185908590610d1a565b6001600160a01b038416610ac357604051632bfa23e760e11b81525f6004820152602401610531565b604080516001808252602082018690528183019081526060820185905260808201909252906107cf5f87848487610d1a565b600380546001600160a01b038381167fffffffffffffffffffffffff0000000000000000000000000000000000000000831681179093556040519116919082907f8be0079c531659141344cd1fd0a4f28419497f9722a3daafe3b4186f6b6457e0905f90a35050565b6001600160a01b038216610ba0576040517fced3e1000000000000000000000000000000000000000000000000000000000081525f6004820152602401610531565b6001600160a01b038381165f8181526001602090815260408083209487168084529482529182902080547fffffffffffffffffffffffffffffffffffffffffffffffffffffffffffffff001686151590811790915591519182527f17307eab39ab6107e8899845ad3d59bd9653f200f220920489ca2b5937696c31910160405180910390a3505050565b336001600160a01b0386168114801590610c6957506001600160a01b038087165f9081526001602090815260408083209385168352929052205460ff16155b15610cb3576040517fe237d9220000000000000000000000000000000000000000000000000000000081526001600160a01b03808316600483015287166024820152604401610531565b6107cf8686868686610d6d565b6001600160a01b038416610ce957604051632bfa23e760e11b81525f6004820152602401610531565b6001600160a01b038516610d1157604051626a0d4560e21b81525f6004820152602401610531565b61053a85858585855b610d2685858585610df9565b6001600160a01b0384161561053a5782513390600103610d5f5760208481015190840151610d5883898985858961103a565b50506107cf565b6107cf8187878787876111a5565b6001600160a01b038416610d9657604051632bfa23e760e11b81525f6004820152602401610531565b6001600160a01b038516610dbe57604051626a0d4560e21b81525f6004820152602401610531565b60408051600180825260208201869052818301908152606082018590526080820190925290610df08787848487610d1a565b50505050505050565b8051825114610e4157815181516040517f5b05999100000000000000000000000000000000000000000000000000000000815260048101929092526024820152604401610531565b335f5b8351811015610f5c576020818102858101820151908501909101516001600160a01b03881615610f0e575f828152602081815260408083206001600160a01b038c16845290915290205481811015610ee8576040517f03dee4c50000000000000000000000000000000000000000000000000000000081526001600160a01b038a166004820152602481018290526044810183905260648101849052608401610531565b5f838152602081815260408083206001600160a01b038d16845290915290209082900390555b6001600160a01b03871615610f52575f828152602081815260408083206001600160a01b038b16845290915281208054839290610f4c908490611a44565b90915550505b5050600101610e44565b508251600103610fdc5760208301515f906020840151909150856001600160a01b0316876001600160a01b0316846001600160a01b03167fc3d58168c5ae7397731d063d5bbf3d657854427343f4c083240f7aacaa2d0f628585604051610fcd929190918252602082015260400190565b60405180910390a4505061053a565b836001600160a01b0316856001600160a01b0316826001600160a01b03167f4a39dc06d4c0dbc64b70af90fd698a233a518aa5d07e595d983b8c0526c8f7fb868660405161102b929190611a63565b60405180910390a45050505050565b6001600160a01b0384163b156107cf576040517ff23a6e610000000000000000000000000000000000000000000000000000000081526001600160a01b0385169063f23a6e61906110979089908990889088908890600401611a90565b6020604051808303815f875af19250505080156110d1575060408051601f3d908101601f191682019092526110ce91810190611ad7565b60015b611138573d8080156110fe576040519150601f19603f3d011682016040523d82523d5f602084013e611103565b606091505b5080515f0361113057604051632bfa23e760e11b81526001600160a01b0386166004820152602401610531565b805181602001fd5b7fffffffff0000000000000000000000000000000000000000000000000000000081167ff23a6e610000000000000000000000000000000000000000000000000000000014610df057604051632bfa23e760e11b81526001600160a01b0386166004820152602401610531565b6001600160a01b0384163b156107cf576040517fbc197c810000000000000000000000000000000000000000000000000000000081526001600160a01b0385169063bc197c81906112029089908990889088908890600401611af2565b6020604051808303815f875af192505050801561123c575060408051601f3d908101601f1916820190925261123991810190611ad7565b60015b611269573d8080156110fe576040519150601f19603f3d011682016040523d82523d5f602084013e611103565b7fffffffff0000000000000000000000000000000000000000000000000000000081167fbc197c810000000000000000000000000000000000000000000000000000000014610df057604051632bfa23e760e11b81526001600160a01b0386166004820152602401610531565b80356001600160a01b03811681146112ec575f80fd5b919050565b5f8060408385031215611302575f80fd5b61130b836112d6565b946020939093013593505050565b7fffffffff0000000000000000000000000000000000000000000000000000000081168114610434575f80fd5b5f60208284031215611356575f80fd5b813561136181611319565b9392505050565b634e487b7160e01b5f52604160045260245ffd5b604051601f8201601f1916810167ffffffffffffffff811182821017156113a5576113a5611368565b604052919050565b5f8067ffffffffffffffff8411156113c7576113c7611368565b50601f8301601f19166020016113dc8161137c565b9150508281528383830111156113f0575f80fd5b828260208301375f602084830101529392505050565b5f60208284031215611416575f80fd5b813567ffffffffffffffff81111561142c575f80fd5b8201601f8101841361143c575f80fd5b61144b848235602084016113ad565b949350505050565b5f60208284031215611463575f80fd5b5035919050565b5f81518084528060208401602086015e5f602082860101526020601f19601f83011685010191505092915050565b602081525f611361602083018461146a565b5f67ffffffffffffffff8211156114c3576114c3611368565b5060051b60200190565b5f82601f8301126114dc575f80fd5b81356114ef6114ea826114aa565b61137c565b8082825260208201915060208360051b860101925085831115611510575f80fd5b602085015b8381101561152d578035835260209283019201611515565b5095945050505050565b5f82601f830112611546575f80fd5b611361838335602085016113ad565b5f805f805f60a08688031215611569575f80fd5b611572866112d6565b9450611580602087016112d6565b9350604086013567ffffffffffffffff81111561159b575f80fd5b6115a7888289016114cd565b935050606086013567ffffffffffffffff8111156115c3575f80fd5b6115cf888289016114cd565b925050608086013567ffffffffffffffff8111156115eb575f80fd5b6115f788828901611537565b9150509295509295909350565b5f8060408385031215611615575f80fd5b823567ffffffffffffffff81111561162b575f80fd5b8301601f8101851361163b575f80fd5b80356116496114ea826114aa565b8082825260208201915060208360051b85010192508783111561166a575f80fd5b6020840193505b8284101561169357611682846112d6565b825260209384019390910190611671565b9450505050602083013567ffffffffffffffff8111156116b1575f80fd5b6116bd858286016114cd565b9150509250929050565b5f8151808452602084019350602083015f5b828110156116f75781518652602095860195909101906001016116d9565b5093949350505050565b602081525f61136160208301846116c7565b5f8083601f840112611723575f80fd5b50813567ffffffffffffffff81111561173a575f80fd5b6020830191508360208260051b8501011115611754575f80fd5b9250929050565b5f805f806040858703121561176e575f80fd5b843567ffffffffffffffff811115611784575f80fd5b61179087828801611713565b909550935050602085013567ffffffffffffffff8111156117af575f80fd5b6117bb87828801611713565b95989497509550505050565b803580151581146112ec575f80fd5b5f602082840312156117e6575f80fd5b611361826117c7565b5f8060408385031215611800575f80fd5b611809836112d6565b9150611817602084016117c7565b90509250929050565b5f8060208385031215611831575f80fd5b823567ffffffffffffffff811115611847575f80fd5b61185385828601611713565b90969095509350505050565b5f8060408385031215611870575f80fd5b611879836112d6565b9150611817602084016112d6565b5f805f805f60a0868803121561189b575f80fd5b6118a4866112d6565b94506118b2602087016112d6565b93506040860135925060608601359150608086013567ffffffffffffffff8111156115eb575f80fd5b5f602082840312156118eb575f80fd5b611361826112d6565b600181811c9082168061190857607f821691505b60208210810361192657634e487b7160e01b5f52602260045260245ffd5b50919050565b634e487b7160e01b5f52603260045260245ffd5b601f82111561198457805f5260205f20601f840160051c810160208510156119655750805b601f840160051c820191505b8181101561053a575f8155600101611971565b505050565b815167ffffffffffffffff8111156119a3576119a3611368565b6119b7816119b184546118f4565b84611940565b6020601f8211600181146119e9575f83156119d25750848201515b5f19600385901b1c1916600184901b17845561053a565b5f84815260208120601f198516915b82811015611a1857878501518255602094850194600190920191016119f8565b5084821015611a3557868401515f19600387901b60f8161c191681555b50505050600190811b01905550565b8082018082111561033b57634e487b7160e01b5f52601160045260245ffd5b604081525f611a7560408301856116c7565b8281036020840152611a8781856116c7565b95945050505050565b6001600160a01b03861681526001600160a01b038516602082015283604082015282606082015260a060808201525f611acc60a083018461146a565b979650505050505050565b5f60208284031215611ae7575f80fd5b815161136181611319565b6001600160a01b03861681526001600160a01b038516602082015260a060408201525f611b2260a08301866116c7565b8281036060840152611b3481866116c7565b90508281036080840152611b48818561146a565b9897505050505050505056fea2646970667358221220d55e1980472c4a7b746d9bae92f2bc33138b8d0794292b887065161ce706e6a664736f6c634300081a0033","linkReferences":{}},"methodIdentifiers":{"balanceOf(address,uint256)":"00fdd58e","balanceOfBatch(address[],uint256[])":"4e1273f4","burn(address,uint256)":"9dc29fac","burnBatch(address[],uint256[])":"3e1589c9","isApprovedForAll(address,address)":"e985e9c5","isTransferEnabled()":"cca5dcb6","mint(address,uint256)":"40c10f19","mintBatch(address[],uint256[])":"7c88e3d9","mintSingleBatch(address[])":"a7244eb6","owner()":"8da5cb5b","renounceOwnership()":"715018a6","safeBatchTransferFrom(address,address,uint256[],uint256[],bytes)":"2eb2c2d6","safeTransferFrom(address,address,uint256,uint256,bytes)":"f242432a","setApprovalForAll(address,bool)":"a22cb465","setTransferable(bool)":"9cd23707","setURI(string)":"02fe5305","supportsInterface(bytes4)":"01ffc9a7","transferOwnership(address)":"f2fde38b","uri(uint256)":"0e89341c"},"id":55}