{"abi":[{"type":"constructor","inputs":[{"name":"maxSplits","type":"uint256","internalType":"uint256"},{"name":"initialAdmin","type":"address","internalType":"address"},{"name":"initialSplits","type":"tuple[]","internalType":"struct Splitter.Split[]","components":[{"name":"bips","type":"uint16","internalType":"uint16"},{"name":"_target","type":"address","internalType":"address"},{"name":"_calldata","type":"bytes","internalType":"bytes"}]}],"stateMutability":"nonpayable"},{"type":"receive","stateMutability":"payable"},{"type":"function","name":"DEFAULT_ADMIN_ROLE","inputs":[],"outputs":[{"name":"","type":"bytes32","internalType":"bytes32"}],"stateMutability":"view"},{"type":"function","name":"MAX_SPLITS","inputs":[],"outputs":[{"name":"","type":"uint256","internalType":"uint256"}],"stateMutability":"view"},{"type":"function","name":"ROLE_SPLIT_CREATE","inputs":[],"outputs":[{"name":"","type":"bytes32","internalType":"bytes32"}],"stateMutability":"view"},{"type":"function","name":"ROLE_SPLIT_DELETE","inputs":[],"outputs":[{"name":"","type":"bytes32","internalType":"bytes32"}],"stateMutability":"view"},{"type":"function","name":"ROLE_SPLIT_UPDATE","inputs":[],"outputs":[{"name":"","type":"bytes32","internalType":"bytes32"}],"stateMutability":"view"},{"type":"function","name":"getActiveSplits","inputs":[],"outputs":[{"name":"indexes","type":"uint256[]","internalType":"uint256[]"},{"name":"activeSplits","type":"tuple[]","internalType":"struct Splitter.Split[]","components":[{"name":"bips","type":"uint16","internalType":"uint16"},{"name":"_target","type":"address","internalType":"address"},{"name":"_calldata","type":"bytes","internalType":"bytes"}]}],"stateMutability":"view"},{"type":"function","name":"getNextAvailableIndex","inputs":[],"outputs":[{"name":"","type":"uint256","internalType":"uint256"}],"stateMutability":"view"},{"type":"function","name":"getRoleAdmin","inputs":[{"name":"role","type":"bytes32","internalType":"bytes32"}],"outputs":[{"name":"","type":"bytes32","internalType":"bytes32"}],"stateMutability":"view"},{"type":"function","name":"grantRole","inputs":[{"name":"role","type":"bytes32","internalType":"bytes32"},{"name":"account","type":"address","internalType":"address"}],"outputs":[],"stateMutability":"nonpayable"},{"type":"function","name":"hasRole","inputs":[{"name":"role","type":"bytes32","internalType":"bytes32"},{"name":"account","type":"address","internalType":"address"}],"outputs":[{"name":"","type":"bool","internalType":"bool"}],"stateMutability":"view"},{"type":"function","name":"renounceRole","inputs":[{"name":"role","type":"bytes32","internalType":"bytes32"},{"name":"callerConfirmation","type":"address","internalType":"address"}],"outputs":[],"stateMutability":"nonpayable"},{"type":"function","name":"revokeRole","inputs":[{"name":"role","type":"bytes32","internalType":"bytes32"},{"name":"account","type":"address","internalType":"address"}],"outputs":[],"stateMutability":"nonpayable"},{"type":"function","name":"splitCount","inputs":[],"outputs":[{"name":"","type":"uint256","internalType":"uint256"}],"stateMutability":"view"},{"type":"function","name":"splits","inputs":[{"name":"","type":"uint256","internalType":"uint256"}],"outputs":[{"name":"bips","type":"uint16","internalType":"uint16"},{"name":"_target","type":"address","internalType":"address"},{"name":"_calldata","type":"bytes","internalType":"bytes"}],"stateMutability":"view"},{"type":"function","name":"supportsInterface","inputs":[{"name":"interfaceId","type":"bytes4","internalType":"bytes4"}],"outputs":[{"name":"","type":"bool","internalType":"bool"}],"stateMutability":"view"},{"type":"function","name":"updateSplits","inputs":[{"name":"splitIndexes","type":"uint256[]","internalType":"uint256[]"},{"name":"newSplits","type":"tuple[]","internalType":"struct Splitter.Split[]","components":[{"name":"bips","type":"uint16","internalType":"uint16"},{"name":"_target","type":"address","internalType":"address"},{"name":"_calldata","type":"bytes","internalType":"bytes"}]}],"outputs":[],"stateMutability":"nonpayable"},{"type":"function","name":"withdraw","inputs":[],"outputs":[],"stateMutability":"nonpayable"},{"type":"event","name":"RoleAdminChanged","inputs":[{"name":"role","type":"bytes32","indexed":true,"internalType":"bytes32"},{"name":"previousAdminRole","type":"bytes32","indexed":true,"internalType":"bytes32"},{"name":"newAdminRole","type":"bytes32","indexed":true,"internalType":"bytes32"}],"anonymous":false},{"type":"event","name":"RoleGranted","inputs":[{"name":"role","type":"bytes32","indexed":true,"internalType":"bytes32"},{"name":"account","type":"address","indexed":true,"internalType":"address"},{"name":"sender","type":"address","indexed":true,"internalType":"address"}],"anonymous":false},{"type":"event","name":"RoleRevoked","inputs":[{"name":"role","type":"bytes32","indexed":true,"internalType":"bytes32"},{"name":"account","type":"address","indexed":true,"internalType":"address"},{"name":"sender","type":"address","indexed":true,"internalType":"address"}],"anonymous":false},{"type":"event","name":"SplitApplied","inputs":[{"name":"index","type":"uint256","indexed":false,"internalType":"uint256"},{"name":"_target","type":"address","indexed":false,"internalType":"address"},{"name":"_calldata","type":"bytes","indexed":false,"internalType":"bytes"},{"name":"_value","type":"uint256","indexed":false,"internalType":"uint256"}],"anonymous":false},{"type":"event","name":"SplitCreated","inputs":[{"name":"index","type":"uint256","indexed":false,"internalType":"uint256"},{"name":"split","type":"tuple","indexed":false,"internalType":"struct Splitter.Split","components":[{"name":"bips","type":"uint16","internalType":"uint16"},{"name":"_target","type":"address","internalType":"address"},{"name":"_calldata","type":"bytes","internalType":"bytes"}]}],"anonymous":false},{"type":"event","name":"SplitDeleted","inputs":[{"name":"index","type":"uint256","indexed":false,"internalType":"uint256"},{"name":"oldSplit","type":"tuple","indexed":false,"internalType":"struct Splitter.Split","components":[{"name":"bips","type":"uint16","internalType":"uint16"},{"name":"_target","type":"address","internalType":"address"},{"name":"_calldata","type":"bytes","internalType":"bytes"}]}],"anonymous":false},{"type":"event","name":"SplitUpdated","inputs":[{"name":"index","type":"uint256","indexed":false,"internalType":"uint256"},{"name":"oldSplit","type":"tuple","indexed":false,"internalType":"struct Splitter.Split","components":[{"name":"bips","type":"uint16","internalType":"uint16"},{"name":"_target","type":"address","internalType":"address"},{"name":"_calldata","type":"bytes","internalType":"bytes"}]},{"name":"newSplit","type":"tuple","indexed":false,"internalType":"struct Splitter.Split","components":[{"name":"bips","type":"uint16","internalType":"uint16"},{"name":"_target","type":"address","internalType":"address"},{"name":"_calldata","type":"bytes","internalType":"bytes"}]}],"anonymous":false},{"type":"error","name":"AccessControlBadConfirmation","inputs":[]},{"type":"error","name":"AccessControlUnauthorizedAccount","inputs":[{"name":"account","type":"address","internalType":"address"},{"name":"neededRole","type":"bytes32","internalType":"bytes32"}]},{"type":"error","name":"ReentrancyGuardReentrantCall","inputs":[]}],"bytecode":{"object":"0x60a060405234801561000f575f5ffd5b5060405161280d38038061280d83398101604081905261002e91610958565b60018055826100785760405162461bcd60e51b81526020600482015260116024820152704e6f7420656e6f7567682073706c69747360781b60448201526064015b60405180910390fd5b60208311156100bb5760405162461bcd60e51b815260206004820152600f60248201526e546f6f206d616e792073706c69747360881b604482015260640161006f565b60808390526100ca5f836101ef565b506100e25f5160206127ed5f395f51905f52836101ef565b506100fa5f5160206127cd5f395f51905f52836101ef565b506101125f5160206127ad5f395f51905f52836101ef565b50805180156101e657336001600160a01b0384161480610145576101435f5160206127ed5f395f51905f52336101ef565b505b5f826001600160401b0381111561015e5761015e6108ec565b604051908082528060200260200182016040528015610187578160200160208202803683370190505b5090505f5b838110156101ba57808282815181106101a7576101a7610aff565b602090810291909101015260010161018c565b506101c58185610298565b816101e3576101e15f5160206127ed5f395f51905f52336107a8565b505b50505b50505050610d64565b5f828152602081815260408083206001600160a01b038516845290915281205460ff1661028f575f838152602081815260408083206001600160a01b03861684529091529020805460ff191660011790556102473390565b6001600160a01b0316826001600160a01b0316847f2f8788117e7eff1d82e926ec794901d17c78024a50270940304540a733656f0d60405160405180910390a4506001610292565b505f5b92915050565b8151815181146102ea5760405162461bcd60e51b815260206004820152601460248201527f4d69736d61746368656420617267756d656e7473000000000000000000000000604482015260640161006f565b6002545f5b8281101561074e575f85828151811061030a5761030a610aff565b6020026020010151905060805181106103655760405162461bcd60e51b815260206004820152601360248201527f496e76616c69642073706c697420696e64657800000000000000000000000000604482015260640161006f565b5f85838151811061037857610378610aff565b6020026020010151905061271061ffff16815f015161ffff1611156103d45760405162461bcd60e51b8152602060048201526012602482015271496e76616c69642073706c6974206269707360701b604482015260640161006f565b5f8281526003602090815260408083208151606081018352815461ffff811682526201000090046001600160a01b031693810193909352600181018054919284019161041f90610b13565b80601f016020809104026020016040519081016040528092919081815260200182805461044b90610b13565b80156104965780601f1061046d57610100808354040283529160200191610496565b820191905f5260205f20905b81548152906001019060200180831161047957829003601f168201915b5050509190925250508351825192935061ffff908116926104b992501687610b5f565b6104c39190610b72565b825190955061ffff16158015906104dd5750805161ffff16155b156105a4576104f95f5160206127ed5f395f51905f5233610829565b5f8381526003602090815260409182902084518154928601516001600160a01b031662010000026001600160b01b031990931661ffff9091161791909117815590830151839190600182019061054f9082610bd1565b5090505060045f815461056190610c8b565b909155506040517fd0ac721b4ab85e787dd3a05968c695d3902b95a2dde328f42d33cdbd0adfe9b6906105979085908590610cfb565b60405180910390a1610740565b815161ffff161580156105bb5750805161ffff1615155b15610646576105d75f5160206127ad5f395f51905f5233610829565b5f83815260036020526040812080546001600160b01b031916815590610600600183018261087f565b505060045f815461061090610d1b565b909155506040517f4d267bb6302fdb0059b698e794b49bb98eafc7b12b40d9ef3bf50381b98648c1906105979085908490610cfb565b805161ffff161580159061065e5750815161ffff1615155b156107075761067a5f5160206127cd5f395f51905f5233610829565b5f8381526003602090815260409182902084518154928601516001600160a01b031662010000026001600160b01b031990931661ffff909116179190911781559083015183919060018201906106d09082610bd1565b509050507f92cc86196bbbce49f7961ddc408146bd2da46bda8b338b9c86d755b75bd76fe383828460405161059793929190610d30565b60405162461bcd60e51b815260206004820152600e60248201526d496e76616c69642075706461746560901b604482015260640161006f565b5050508060010190506102ef565b5061271081146107a05760405162461bcd60e51b815260206004820152601860248201527f496e73756666696369656e7420616c6c6f636174696f6e730000000000000000604482015260640161006f565b600255505050565b5f828152602081815260408083206001600160a01b038516845290915281205460ff161561028f575f838152602081815260408083206001600160a01b0386168085529252808320805460ff1916905551339286917ff6391f5c32d9c69d2a47ea670b442974b53935d1edc7fd64eb21e047a839171b9190a4506001610292565b5f828152602081815260408083206001600160a01b038516845290915290205460ff1661087b5760405163e2517d3f60e01b81526001600160a01b03821660048201526024810183905260440161006f565b5050565b50805461088b90610b13565b5f825580601f1061089a575050565b601f0160209004905f5260205f20908101906108b691906108b9565b50565b5b808211156108cd575f81556001016108ba565b5090565b80516001600160a01b03811681146108e7575f5ffd5b919050565b634e487b7160e01b5f52604160045260245ffd5b604051606081016001600160401b0381118282101715610922576109226108ec565b60405290565b604051601f8201601f191681016001600160401b0381118282101715610950576109506108ec565b604052919050565b5f5f5f6060848603121561096a575f5ffd5b8351925061097a602085016108d1565b60408501519092506001600160401b03811115610995575f5ffd5b8401601f810186136109a5575f5ffd5b80516001600160401b038111156109be576109be6108ec565b8060051b6109ce60208201610928565b918252602081840181019290810190898411156109e9575f5ffd5b6020850192505b83831015610af05782516001600160401b03811115610a0d575f5ffd5b85016060818c03601f19011215610a22575f5ffd5b610a2a610900565b602082015161ffff81168114610a3e575f5ffd5b8152610a4c604083016108d1565b602082015260608201516001600160401b03811115610a69575f5ffd5b6020818401019250508b601f830112610a80575f5ffd5b81516001600160401b03811115610a9957610a996108ec565b610aac601f8201601f1916602001610928565b8181528d6020838601011115610ac0575f5ffd5b8160208501602083015e5f60208383010152806040840152505080845250506020820191506020830192506109f0565b80955050505050509250925092565b634e487b7160e01b5f52603260045260245ffd5b600181811c90821680610b2757607f821691505b602082108103610b4557634e487b7160e01b5f52602260045260245ffd5b50919050565b634e487b7160e01b5f52601160045260245ffd5b8181038181111561029257610292610b4b565b8082018082111561029257610292610b4b565b601f821115610bcc57805f5260205f20601f840160051c81016020851015610baa5750805b601f840160051c820191505b81811015610bc9575f8155600101610bb6565b50505b505050565b81516001600160401b03811115610bea57610bea6108ec565b610bfe81610bf88454610b13565b84610b85565b6020601f821160018114610c30575f8315610c195750848201515b5f19600385901b1c1916600184901b178455610bc9565b5f84815260208120601f198516915b82811015610c5f5787850151825560209485019460019092019101610c3f565b5084821015610c7c57868401515f19600387901b60f8161c191681555b50505050600190811b01905550565b5f60018201610c9c57610c9c610b4b565b5060010190565b61ffff815116825260018060a01b0360208201511660208301525f60408201516060604085015280518060608601528060208301608087015e5f608082870101526080601f19601f8301168601019250505092915050565b828152604060208201525f610d136040830184610ca3565b949350505050565b5f81610d2957610d29610b4b565b505f190190565b838152606060208201525f610d486060830185610ca3565b8281036040840152610d5a8185610ca3565b9695505050505050565b608051611a15610d985f395f818161032b015281816104ce01528181610aa601528181610e85015261100e0152611a155ff3fe60806040526004361061010c575f3560e01c8063626d6be2116100a1578063a217fddf11610071578063befbc51611610057578063befbc5161461034d578063d547741f14610380578063e69ed5671461039f575f5ffd5b8063a217fddf14610307578063b48210ca1461031a575f5ffd5b8063626d6be214610242578063884c30061461027557806391d14854146102a35780639dc49586146102e5575f5ffd5b80632f2ff15d116100dc5780632f2ff15d146101bd57806336568abe146101dc5780633ccfd60b146101fb578063420cbc201461020f575f5ffd5b806301ffc9a714610117578063248a9ca31461014b57806326825056146101875780632c68ded11461019c575f5ffd5b3661011357005b5f5ffd5b348015610122575f5ffd5b506101366101313660046112d3565b6103b3565b60405190151581526020015b60405180910390f35b348015610156575f5ffd5b50610179610165366004611319565b5f9081526020819052604090206001015490565b604051908152602001610142565b348015610192575f5ffd5b5061017960045481565b3480156101a7575f5ffd5b506101bb6101b6366004611531565b61044b565b005b3480156101c8575f5ffd5b506101bb6101d73660046115ed565b610a19565b3480156101e7575f5ffd5b506101bb6101f63660046115ed565b610a43565b348015610206575f5ffd5b506101bb610a94565b34801561021a575f5ffd5b506101797f36eea88e2a613da43e89b9a18d8ec6dad0577ab12f0367a5506fcb5d3e9d251e81565b34801561024d575f5ffd5b506101797f1a3232fd004fbc3b1a462de2ee022093865fb982f02c27db782f8f406ff099c581565b348015610280575f5ffd5b5061029461028f366004611319565b610d14565b60405161014293929190611645565b3480156102ae575f5ffd5b506101366102bd3660046115ed565b5f918252602082815260408084206001600160a01b0393909316845291905290205460ff1690565b3480156102f0575f5ffd5b506102f9610dcc565b6040516101429291906116b6565b348015610312575f5ffd5b506101795f81565b348015610325575f5ffd5b506101797f000000000000000000000000000000000000000000000000000000000000000081565b348015610358575f5ffd5b506101797f735212744aaf538da4341f7b6ed94538b4af9d1e74b7a3d37658c0dfea0063fa81565b34801561038b575f5ffd5b506101bb61039a3660046115ed565b610fe5565b3480156103aa575f5ffd5b50610179611009565b5f7fffffffff0000000000000000000000000000000000000000000000000000000082167f7965db0b00000000000000000000000000000000000000000000000000000000148061044557507f01ffc9a7000000000000000000000000000000000000000000000000000000007fffffffff000000000000000000000000000000000000000000000000000000008316145b92915050565b8151815181146104a25760405162461bcd60e51b815260206004820152601460248201527f4d69736d61746368656420617267756d656e747300000000000000000000000060448201526064015b60405180910390fd5b6002545f5b828110156109bf575f8582815181106104c2576104c2611756565b602002602001015190507f0000000000000000000000000000000000000000000000000000000000000000811061053b5760405162461bcd60e51b815260206004820152601360248201527f496e76616c69642073706c697420696e646578000000000000000000000000006044820152606401610499565b5f85838151811061054e5761054e611756565b6020026020010151905061271061ffff16815f015161ffff1611156105b55760405162461bcd60e51b815260206004820152601260248201527f496e76616c69642073706c6974206269707300000000000000000000000000006044820152606401610499565b5f8281526003602090815260408083208151606081018352815461ffff811682526201000090046001600160a01b03169381019390935260018101805491928401916106009061176a565b80601f016020809104026020016040519081016040528092919081815260200182805461062c9061176a565b80156106775780601f1061064e57610100808354040283529160200191610677565b820191905f5260205f20905b81548152906001019060200180831161065a57829003601f168201915b5050509190925250508351825192935061ffff9081169261069a925016876117b6565b6106a491906117c9565b825190955061ffff16158015906106be5750805161ffff16155b156107b0576106ed7f735212744aaf538da4341f7b6ed94538b4af9d1e74b7a3d37658c0dfea0063fa336110a2565b5f8381526003602090815260409182902084518154928601516001600160a01b031662010000027fffffffffffffffffffff0000000000000000000000000000000000000000000090931661ffff9091161791909117815590830151839190600182019061075b9082611827565b5090505060045f815461076d906118e2565b909155506040517fd0ac721b4ab85e787dd3a05968c695d3902b95a2dde328f42d33cdbd0adfe9b6906107a390859085906118fa565b60405180910390a16109b1565b815161ffff161580156107c75750805161ffff1615155b1561087d576107f67f36eea88e2a613da43e89b9a18d8ec6dad0577ab12f0367a5506fcb5d3e9d251e336110a2565b5f83815260036020526040812080547fffffffffffffffffffff00000000000000000000000000000000000000000000168155906108376001830182611289565b505060045f815461084790611912565b909155506040517f4d267bb6302fdb0059b698e794b49bb98eafc7b12b40d9ef3bf50381b98648c1906107a390859084906118fa565b805161ffff16158015906108955750815161ffff1615155b15610969576108c47f1a3232fd004fbc3b1a462de2ee022093865fb982f02c27db782f8f406ff099c5336110a2565b5f8381526003602090815260409182902084518154928601516001600160a01b031662010000027fffffffffffffffffffff0000000000000000000000000000000000000000000090931661ffff909116179190911781559083015183919060018201906109329082611827565b509050507f92cc86196bbbce49f7961ddc408146bd2da46bda8b338b9c86d755b75bd76fe38382846040516107a393929190611927565b60405162461bcd60e51b815260206004820152600e60248201527f496e76616c6964207570646174650000000000000000000000000000000000006044820152606401610499565b5050508060010190506104a7565b506127108114610a115760405162461bcd60e51b815260206004820152601860248201527f496e73756666696369656e7420616c6c6f636174696f6e7300000000000000006044820152606401610499565b600255505050565b5f82815260208190526040902060010154610a3381611111565b610a3d838361111e565b50505050565b6001600160a01b0381163314610a85576040517f6697b23200000000000000000000000000000000000000000000000000000000815260040160405180910390fd5b610a8f82826111c5565b505050565b610a9c611246565b60045447905f805b7f0000000000000000000000000000000000000000000000000000000000000000811015610d04575f8181526003602090815260408083208151606081018352815461ffff811682526201000090046001600160a01b0316938101939093526001810180549192840191610b179061176a565b80601f0160208091040260200160405190810160405280929190818152602001828054610b439061176a565b8015610b8e5780601f10610b6557610100808354040283529160200191610b8e565b820191905f5260205f20905b815481529060010190602001808311610b7157829003601f168201915b5050505050815250509050805f015161ffff165f03610bad5750610cfc565b80515f9061271090610bc39061ffff168861195b565b610bcd9190611972565b90505f5f83602001516001600160a01b0316838560400151604051610bf29190611991565b5f6040518083038185875af1925050503d805f8114610c2c576040519150601f19603f3d011682016040523d82523d5f602084013e610c31565b606091505b509150915081610c935780515f03610c8b5760405162461bcd60e51b815260206004820152601e60248201527f5472616e73616374696f6e20657865637574696f6e20726576657274656400006044820152606401610499565b805181602001fd5b7f9f51a615c68fee2a41ff8e5a80895f4e150653bfddc365ef92f37fbac3107df1858560200151866040015186604051610cd094939291906119a7565b60405180910390a186610ce2876118e2565b96508610610cf7575050505050505050610d09565b505050505b600101610aa4565b505050505b610d1260018055565b565b60036020525f90815260409020805460018201805461ffff831693620100009093046001600160a01b0316929190610d4b9061176a565b80601f0160208091040260200160405190810160405280929190818152602001828054610d779061176a565b8015610dc25780601f10610d9957610100808354040283529160200191610dc2565b820191905f5260205f20905b815481529060010190602001808311610da557829003601f168201915b5050505050905083565b60608060045467ffffffffffffffff811115610dea57610dea611330565b604051908082528060200260200182016040528015610e13578160200160208202803683370190505b50915060045467ffffffffffffffff811115610e3157610e31611330565b604051908082528060200260200182016040528015610e7d57816020015b60408051606080820183525f808352602083015291810191909152815260200190600190039081610e4f5790505b5090505f5f5b7f0000000000000000000000000000000000000000000000000000000000000000811015610fdf575f8181526003602052604090205461ffff1615610fd75780848381518110610ed557610ed5611756565b6020908102919091018101919091525f828152600382526040908190208151606081018352815461ffff811682526201000090046001600160a01b0316938101939093526001810180549192840191610f2d9061176a565b80601f0160208091040260200160405190810160405280929190818152602001828054610f599061176a565b8015610fa45780601f10610f7b57610100808354040283529160200191610fa4565b820191905f5260205f20905b815481529060010190602001808311610f8757829003601f168201915b505050505081525050838381518110610fbf57610fbf611756565b602002602001018190525081610fd4906118e2565b91505b600101610e83565b50509091565b5f82815260208190526040902060010154610fff81611111565b610a3d83836111c5565b5f5f5b7f0000000000000000000000000000000000000000000000000000000000000000811015611059575f8181526003602052604081205461ffff16900361105157919050565b60010161100c565b5060405162461bcd60e51b815260206004820152601260248201527f4e6f20617661696c61626c6520696e64657800000000000000000000000000006044820152606401610499565b5f828152602081815260408083206001600160a01b038516845290915290205460ff1661110d576040517fe2517d3f0000000000000000000000000000000000000000000000000000000081526001600160a01b038216600482015260248101839052604401610499565b5050565b61111b81336110a2565b50565b5f828152602081815260408083206001600160a01b038516845290915281205460ff166111be575f838152602081815260408083206001600160a01b03861684529091529020805460ff191660011790556111763390565b6001600160a01b0316826001600160a01b0316847f2f8788117e7eff1d82e926ec794901d17c78024a50270940304540a733656f0d60405160405180910390a4506001610445565b505f610445565b5f828152602081815260408083206001600160a01b038516845290915281205460ff16156111be575f838152602081815260408083206001600160a01b0386168085529252808320805460ff1916905551339286917ff6391f5c32d9c69d2a47ea670b442974b53935d1edc7fd64eb21e047a839171b9190a4506001610445565b600260015403611282576040517f3ee5aeb500000000000000000000000000000000000000000000000000000000815260040160405180910390fd5b6002600155565b5080546112959061176a565b5f825580601f106112a4575050565b601f0160209004905f5260205f209081019061111b91905b808211156112cf575f81556001016112bc565b5090565b5f602082840312156112e3575f5ffd5b81357fffffffff0000000000000000000000000000000000000000000000000000000081168114611312575f5ffd5b9392505050565b5f60208284031215611329575f5ffd5b5035919050565b634e487b7160e01b5f52604160045260245ffd5b6040516060810167ffffffffffffffff8111828210171561136757611367611330565b60405290565b604051601f8201601f1916810167ffffffffffffffff8111828210171561139657611396611330565b604052919050565b5f67ffffffffffffffff8211156113b7576113b7611330565b5060051b60200190565b80356001600160a01b03811681146113d7575f5ffd5b919050565b5f82601f8301126113eb575f5ffd5b81356113fe6113f98261139e565b61136d565b8082825260208201915060208360051b86010192508583111561141f575f5ffd5b602085015b8381101561152757803567ffffffffffffffff811115611442575f5ffd5b86016060818903601f19011215611457575f5ffd5b61145f611344565b602082013561ffff81168114611473575f5ffd5b8152611481604083016113c1565b6020820152606082013567ffffffffffffffff81111561149f575f5ffd5b60208184010192505088601f8301126114b6575f5ffd5b813567ffffffffffffffff8111156114d0576114d0611330565b6114e36020601f19601f8401160161136d565b8181528a60208386010111156114f7575f5ffd5b816020850160208301375f6020838301015280604084015250508085525050602083019250602081019050611424565b5095945050505050565b5f5f60408385031215611542575f5ffd5b823567ffffffffffffffff811115611558575f5ffd5b8301601f81018513611568575f5ffd5b80356115766113f98261139e565b8082825260208201915060208360051b850101925087831115611597575f5ffd5b6020840193505b828410156115b957833582526020938401939091019061159e565b9450505050602083013567ffffffffffffffff8111156115d7575f5ffd5b6115e3858286016113dc565b9150509250929050565b5f5f604083850312156115fe575f5ffd5b8235915061160e602084016113c1565b90509250929050565b5f81518084528060208401602086015e5f602082860101526020601f19601f83011685010191505092915050565b61ffff841681526001600160a01b0383166020820152606060408201525f6116706060830184611617565b95945050505050565b61ffff81511682526001600160a01b0360208201511660208301525f6040820151606060408501526116ae6060850182611617565b949350505050565b604080825283519082018190525f9060208501906060840190835b818110156116ef5783518352602093840193909201916001016116d1565b50508381036020850152809150845180825260208201925060208160051b830101602087015f5b8381101561174857601f19858403018652611732838351611679565b6020968701969093509190910190600101611716565b509098975050505050505050565b634e487b7160e01b5f52603260045260245ffd5b600181811c9082168061177e57607f821691505b60208210810361179c57634e487b7160e01b5f52602260045260245ffd5b50919050565b634e487b7160e01b5f52601160045260245ffd5b81810381811115610445576104456117a2565b80820180821115610445576104456117a2565b601f821115610a8f57805f5260205f20601f840160051c810160208510156118015750805b601f840160051c820191505b81811015611820575f815560010161180d565b5050505050565b815167ffffffffffffffff81111561184157611841611330565b6118558161184f845461176a565b846117dc565b6020601f821160018114611887575f83156118705750848201515b5f19600385901b1c1916600184901b178455611820565b5f84815260208120601f198516915b828110156118b65787850151825560209485019460019092019101611896565b50848210156118d357868401515f19600387901b60f8161c191681555b50505050600190811b01905550565b5f600182016118f3576118f36117a2565b5060010190565b828152604060208201525f6116ae6040830184611679565b5f81611920576119206117a2565b505f190190565b838152606060208201525f61193f6060830185611679565b82810360408401526119518185611679565b9695505050505050565b8082028115828204841417610445576104456117a2565b5f8261198c57634e487b7160e01b5f52601260045260245ffd5b500490565b5f82518060208501845e5f920191825250919050565b8481526001600160a01b0384166020820152608060408201525f6119ce6080830185611617565b90508260608301529594505050505056fea2646970667358221220658b047cb0e56a6823fde8ae8ea742254cb8aabf6e1f8e587993c60bc2ac022064736f6c634300081e003336eea88e2a613da43e89b9a18d8ec6dad0577ab12f0367a5506fcb5d3e9d251e1a3232fd004fbc3b1a462de2ee022093865fb982f02c27db782f8f406ff099c5735212744aaf538da4341f7b6ed94538b4af9d1e74b7a3d37658c0dfea0063fa","linkReferences":{}},"methodIdentifiers":{"DEFAULT_ADMIN_ROLE()":"a217fddf","MAX_SPLITS()":"b48210ca","ROLE_SPLIT_CREATE()":"befbc516","ROLE_SPLIT_DELETE()":"420cbc20","ROLE_SPLIT_UPDATE()":"626d6be2","getActiveSplits()":"9dc49586","getNextAvailableIndex()":"e69ed567","getRoleAdmin(bytes32)":"248a9ca3","grantRole(bytes32,address)":"2f2ff15d","hasRole(bytes32,address)":"91d14854","renounceRole(bytes32,address)":"36568abe","revokeRole(bytes32,address)":"d547741f","splitCount()":"26825056","splits(uint256)":"884c3006","supportsInterface(bytes4)":"01ffc9a7","updateSplits(uint256[],(uint16,address,bytes)[])":"2c68ded1","withdraw()":"3ccfd60b"},"id":22}