{"abi":[{"type":"constructor","inputs":[{"name":"maxSplits","type":"uint256","internalType":"uint256"},{"name":"initialAdmin","type":"address","internalType":"address"}],"stateMutability":"nonpayable"},{"type":"receive","stateMutability":"payable"},{"type":"function","name":"DEFAULT_ADMIN_ROLE","inputs":[],"outputs":[{"name":"","type":"bytes32","internalType":"bytes32"}],"stateMutability":"view"},{"type":"function","name":"MAX_SPLITS","inputs":[],"outputs":[{"name":"","type":"uint256","internalType":"uint256"}],"stateMutability":"view"},{"type":"function","name":"ROLE_SPLIT_CREATE","inputs":[],"outputs":[{"name":"","type":"bytes32","internalType":"bytes32"}],"stateMutability":"view"},{"type":"function","name":"ROLE_SPLIT_DELETE","inputs":[],"outputs":[{"name":"","type":"bytes32","internalType":"bytes32"}],"stateMutability":"view"},{"type":"function","name":"ROLE_SPLIT_UPDATE","inputs":[],"outputs":[{"name":"","type":"bytes32","internalType":"bytes32"}],"stateMutability":"view"},{"type":"function","name":"getActiveSplits","inputs":[],"outputs":[{"name":"indexes","type":"uint256[]","internalType":"uint256[]"},{"name":"activeSplits","type":"tuple[]","internalType":"struct Splitter.Split[]","components":[{"name":"bips","type":"uint16","internalType":"uint16"},{"name":"_target","type":"address","internalType":"address"},{"name":"_calldata","type":"bytes","internalType":"bytes"}]}],"stateMutability":"view"},{"type":"function","name":"getNextAvailableIndex","inputs":[],"outputs":[{"name":"","type":"uint256","internalType":"uint256"}],"stateMutability":"view"},{"type":"function","name":"getRoleAdmin","inputs":[{"name":"role","type":"bytes32","internalType":"bytes32"}],"outputs":[{"name":"","type":"bytes32","internalType":"bytes32"}],"stateMutability":"view"},{"type":"function","name":"grantRole","inputs":[{"name":"role","type":"bytes32","internalType":"bytes32"},{"name":"account","type":"address","internalType":"address"}],"outputs":[],"stateMutability":"nonpayable"},{"type":"function","name":"hasRole","inputs":[{"name":"role","type":"bytes32","internalType":"bytes32"},{"name":"account","type":"address","internalType":"address"}],"outputs":[{"name":"","type":"bool","internalType":"bool"}],"stateMutability":"view"},{"type":"function","name":"renounceRole","inputs":[{"name":"role","type":"bytes32","internalType":"bytes32"},{"name":"callerConfirmation","type":"address","internalType":"address"}],"outputs":[],"stateMutability":"nonpayable"},{"type":"function","name":"revokeRole","inputs":[{"name":"role","type":"bytes32","internalType":"bytes32"},{"name":"account","type":"address","internalType":"address"}],"outputs":[],"stateMutability":"nonpayable"},{"type":"function","name":"splitCount","inputs":[],"outputs":[{"name":"","type":"uint256","internalType":"uint256"}],"stateMutability":"view"},{"type":"function","name":"splits","inputs":[{"name":"","type":"uint256","internalType":"uint256"}],"outputs":[{"name":"bips","type":"uint16","internalType":"uint16"},{"name":"_target","type":"address","internalType":"address"},{"name":"_calldata","type":"bytes","internalType":"bytes"}],"stateMutability":"view"},{"type":"function","name":"supportsInterface","inputs":[{"name":"interfaceId","type":"bytes4","internalType":"bytes4"}],"outputs":[{"name":"","type":"bool","internalType":"bool"}],"stateMutability":"view"},{"type":"function","name":"updateSplits","inputs":[{"name":"splitIndexes","type":"uint256[]","internalType":"uint256[]"},{"name":"newSplits","type":"tuple[]","internalType":"struct Splitter.Split[]","components":[{"name":"bips","type":"uint16","internalType":"uint16"},{"name":"_target","type":"address","internalType":"address"},{"name":"_calldata","type":"bytes","internalType":"bytes"}]}],"outputs":[],"stateMutability":"nonpayable"},{"type":"function","name":"withdraw","inputs":[],"outputs":[],"stateMutability":"nonpayable"},{"type":"event","name":"RoleAdminChanged","inputs":[{"name":"role","type":"bytes32","indexed":true,"internalType":"bytes32"},{"name":"previousAdminRole","type":"bytes32","indexed":true,"internalType":"bytes32"},{"name":"newAdminRole","type":"bytes32","indexed":true,"internalType":"bytes32"}],"anonymous":false},{"type":"event","name":"RoleGranted","inputs":[{"name":"role","type":"bytes32","indexed":true,"internalType":"bytes32"},{"name":"account","type":"address","indexed":true,"internalType":"address"},{"name":"sender","type":"address","indexed":true,"internalType":"address"}],"anonymous":false},{"type":"event","name":"RoleRevoked","inputs":[{"name":"role","type":"bytes32","indexed":true,"internalType":"bytes32"},{"name":"account","type":"address","indexed":true,"internalType":"address"},{"name":"sender","type":"address","indexed":true,"internalType":"address"}],"anonymous":false},{"type":"event","name":"SplitApplied","inputs":[{"name":"index","type":"uint256","indexed":false,"internalType":"uint256"},{"name":"_target","type":"address","indexed":false,"internalType":"address"},{"name":"_calldata","type":"bytes","indexed":false,"internalType":"bytes"},{"name":"_value","type":"uint256","indexed":false,"internalType":"uint256"}],"anonymous":false},{"type":"event","name":"SplitCreated","inputs":[{"name":"index","type":"uint256","indexed":false,"internalType":"uint256"},{"name":"split","type":"tuple","indexed":false,"internalType":"struct Splitter.Split","components":[{"name":"bips","type":"uint16","internalType":"uint16"},{"name":"_target","type":"address","internalType":"address"},{"name":"_calldata","type":"bytes","internalType":"bytes"}]}],"anonymous":false},{"type":"event","name":"SplitDeleted","inputs":[{"name":"index","type":"uint256","indexed":false,"internalType":"uint256"},{"name":"oldSplit","type":"tuple","indexed":false,"internalType":"struct Splitter.Split","components":[{"name":"bips","type":"uint16","internalType":"uint16"},{"name":"_target","type":"address","internalType":"address"},{"name":"_calldata","type":"bytes","internalType":"bytes"}]}],"anonymous":false},{"type":"event","name":"SplitUpdated","inputs":[{"name":"index","type":"uint256","indexed":false,"internalType":"uint256"},{"name":"oldSplit","type":"tuple","indexed":false,"internalType":"struct Splitter.Split","components":[{"name":"bips","type":"uint16","internalType":"uint16"},{"name":"_target","type":"address","internalType":"address"},{"name":"_calldata","type":"bytes","internalType":"bytes"}]},{"name":"newSplit","type":"tuple","indexed":false,"internalType":"struct Splitter.Split","components":[{"name":"bips","type":"uint16","internalType":"uint16"},{"name":"_target","type":"address","internalType":"address"},{"name":"_calldata","type":"bytes","internalType":"bytes"}]}],"anonymous":false},{"type":"error","name":"AccessControlBadConfirmation","inputs":[]},{"type":"error","name":"AccessControlUnauthorizedAccount","inputs":[{"name":"account","type":"address","internalType":"address"},{"name":"neededRole","type":"bytes32","internalType":"bytes32"}]},{"type":"error","name":"ReentrancyGuardReentrantCall","inputs":[]}],"bytecode":{"object":"0x60a060405234801561000f575f5ffd5b50604051611c8c380380611c8c83398101604081905261002e916101fc565b60018055816100785760405162461bcd60e51b81526020600482015260116024820152704e6f7420656e6f7567682073706c69747360781b60448201526064015b60405180910390fd5b60208211156100bb5760405162461bcd60e51b815260206004820152600f60248201526e546f6f206d616e792073706c69747360881b604482015260640161006f565b60808290526100ca5f82610153565b506100f57f735212744aaf538da4341f7b6ed94538b4af9d1e74b7a3d37658c0dfea0063fa82610153565b506101207f1a3232fd004fbc3b1a462de2ee022093865fb982f02c27db782f8f406ff099c582610153565b5061014b7f36eea88e2a613da43e89b9a18d8ec6dad0577ab12f0367a5506fcb5d3e9d251e82610153565b505050610236565b5f828152602081815260408083206001600160a01b038516845290915281205460ff166101f3575f838152602081815260408083206001600160a01b03861684529091529020805460ff191660011790556101ab3390565b6001600160a01b0316826001600160a01b0316847f2f8788117e7eff1d82e926ec794901d17c78024a50270940304540a733656f0d60405160405180910390a45060016101f6565b505f5b92915050565b5f5f6040838503121561020d575f5ffd5b825160208401519092506001600160a01b038116811461022b575f5ffd5b809150509250929050565b608051611a2261026a5f395f818161032b015281816104d601528181610ab701528181610e96015261101f0152611a225ff3fe60806040526004361061010c575f3560e01c8063626d6be2116100a1578063a217fddf11610071578063befbc51611610057578063befbc5161461034d578063d547741f14610380578063e69ed5671461039f575f5ffd5b8063a217fddf14610307578063b48210ca1461031a575f5ffd5b8063626d6be214610242578063884c30061461027557806391d14854146102a35780639dc49586146102e5575f5ffd5b80632f2ff15d116100dc5780632f2ff15d146101bd57806336568abe146101dc5780633ccfd60b146101fb578063420cbc201461020f575f5ffd5b806301ffc9a714610117578063248a9ca31461014b57806326825056146101875780632c68ded11461019c575f5ffd5b3661011357005b5f5ffd5b348015610122575f5ffd5b506101366101313660046112e0565b6103b3565b60405190151581526020015b60405180910390f35b348015610156575f5ffd5b50610179610165366004611326565b5f9081526020819052604090206001015490565b604051908152602001610142565b348015610192575f5ffd5b5061017960045481565b3480156101a7575f5ffd5b506101bb6101b636600461153e565b61044b565b005b3480156101c8575f5ffd5b506101bb6101d73660046115fa565b610a2a565b3480156101e7575f5ffd5b506101bb6101f63660046115fa565b610a54565b348015610206575f5ffd5b506101bb610aa5565b34801561021a575f5ffd5b506101797f36eea88e2a613da43e89b9a18d8ec6dad0577ab12f0367a5506fcb5d3e9d251e81565b34801561024d575f5ffd5b506101797f1a3232fd004fbc3b1a462de2ee022093865fb982f02c27db782f8f406ff099c581565b348015610280575f5ffd5b5061029461028f366004611326565b610d25565b60405161014293929190611652565b3480156102ae575f5ffd5b506101366102bd3660046115fa565b5f918252602082815260408084206001600160a01b0393909316845291905290205460ff1690565b3480156102f0575f5ffd5b506102f9610ddd565b6040516101429291906116c3565b348015610312575f5ffd5b506101795f81565b348015610325575f5ffd5b506101797f000000000000000000000000000000000000000000000000000000000000000081565b348015610358575f5ffd5b506101797f735212744aaf538da4341f7b6ed94538b4af9d1e74b7a3d37658c0dfea0063fa81565b34801561038b575f5ffd5b506101bb61039a3660046115fa565b610ff6565b3480156103aa575f5ffd5b5061017961101a565b5f7fffffffff0000000000000000000000000000000000000000000000000000000082167f7965db0b00000000000000000000000000000000000000000000000000000000148061044557507f01ffc9a7000000000000000000000000000000000000000000000000000000007fffffffff000000000000000000000000000000000000000000000000000000008316145b92915050565b6104536110b3565b8151815181146104aa5760405162461bcd60e51b815260206004820152601460248201527f4d69736d61746368656420617267756d656e747300000000000000000000000060448201526064015b60405180910390fd5b6002545f5b828110156109c7575f8582815181106104ca576104ca611763565b602002602001015190507f000000000000000000000000000000000000000000000000000000000000000081106105435760405162461bcd60e51b815260206004820152601360248201527f496e76616c69642073706c697420696e6465780000000000000000000000000060448201526064016104a1565b5f85838151811061055657610556611763565b6020026020010151905061271061ffff16815f015161ffff1611156105bd5760405162461bcd60e51b815260206004820152601260248201527f496e76616c69642073706c69742062697073000000000000000000000000000060448201526064016104a1565b5f8281526003602090815260408083208151606081018352815461ffff811682526201000090046001600160a01b031693810193909352600181018054919284019161060890611777565b80601f016020809104026020016040519081016040528092919081815260200182805461063490611777565b801561067f5780601f106106565761010080835404028352916020019161067f565b820191905f5260205f20905b81548152906001019060200180831161066257829003601f168201915b5050509190925250508351825192935061ffff908116926106a2925016876117c3565b6106ac91906117d6565b825190955061ffff16158015906106c65750805161ffff16155b156107b8576106f57f735212744aaf538da4341f7b6ed94538b4af9d1e74b7a3d37658c0dfea0063fa336110f6565b5f8381526003602090815260409182902084518154928601516001600160a01b031662010000027fffffffffffffffffffff0000000000000000000000000000000000000000000090931661ffff909116179190911781559083015183919060018201906107639082611834565b5090505060045f8154610775906118ef565b909155506040517fd0ac721b4ab85e787dd3a05968c695d3902b95a2dde328f42d33cdbd0adfe9b6906107ab9085908590611907565b60405180910390a16109b9565b815161ffff161580156107cf5750805161ffff1615155b15610885576107fe7f36eea88e2a613da43e89b9a18d8ec6dad0577ab12f0367a5506fcb5d3e9d251e336110f6565b5f83815260036020526040812080547fffffffffffffffffffff000000000000000000000000000000000000000000001681559061083f6001830182611296565b505060045f815461084f9061191f565b909155506040517f4d267bb6302fdb0059b698e794b49bb98eafc7b12b40d9ef3bf50381b98648c1906107ab9085908490611907565b805161ffff161580159061089d5750815161ffff1615155b15610971576108cc7f1a3232fd004fbc3b1a462de2ee022093865fb982f02c27db782f8f406ff099c5336110f6565b5f8381526003602090815260409182902084518154928601516001600160a01b031662010000027fffffffffffffffffffff0000000000000000000000000000000000000000000090931661ffff9091161791909117815590830151839190600182019061093a9082611834565b509050507f92cc86196bbbce49f7961ddc408146bd2da46bda8b338b9c86d755b75bd76fe38382846040516107ab93929190611934565b60405162461bcd60e51b815260206004820152600e60248201527f496e76616c69642075706461746500000000000000000000000000000000000060448201526064016104a1565b5050508060010190506104af565b506127108114610a195760405162461bcd60e51b815260206004820152601860248201527f496e73756666696369656e7420616c6c6f636174696f6e73000000000000000060448201526064016104a1565b60025550610a2660018055565b5050565b5f82815260208190526040902060010154610a4481611161565b610a4e838361116e565b50505050565b6001600160a01b0381163314610a96576040517f6697b23200000000000000000000000000000000000000000000000000000000815260040160405180910390fd5b610aa08282611215565b505050565b610aad6110b3565b60045447905f805b7f0000000000000000000000000000000000000000000000000000000000000000811015610d15575f8181526003602090815260408083208151606081018352815461ffff811682526201000090046001600160a01b0316938101939093526001810180549192840191610b2890611777565b80601f0160208091040260200160405190810160405280929190818152602001828054610b5490611777565b8015610b9f5780601f10610b7657610100808354040283529160200191610b9f565b820191905f5260205f20905b815481529060010190602001808311610b8257829003601f168201915b5050505050815250509050805f015161ffff165f03610bbe5750610d0d565b80515f9061271090610bd49061ffff1688611968565b610bde919061197f565b90505f5f83602001516001600160a01b0316838560400151604051610c03919061199e565b5f6040518083038185875af1925050503d805f8114610c3d576040519150601f19603f3d011682016040523d82523d5f602084013e610c42565b606091505b509150915081610ca45780515f03610c9c5760405162461bcd60e51b815260206004820152601e60248201527f5472616e73616374696f6e20657865637574696f6e207265766572746564000060448201526064016104a1565b805181602001fd5b7f9f51a615c68fee2a41ff8e5a80895f4e150653bfddc365ef92f37fbac3107df1858560200151866040015186604051610ce194939291906119b4565b60405180910390a186610cf3876118ef565b96508610610d08575050505050505050610d1a565b505050505b600101610ab5565b505050505b610d2360018055565b565b60036020525f90815260409020805460018201805461ffff831693620100009093046001600160a01b0316929190610d5c90611777565b80601f0160208091040260200160405190810160405280929190818152602001828054610d8890611777565b8015610dd35780601f10610daa57610100808354040283529160200191610dd3565b820191905f5260205f20905b815481529060010190602001808311610db657829003601f168201915b5050505050905083565b60608060045467ffffffffffffffff811115610dfb57610dfb61133d565b604051908082528060200260200182016040528015610e24578160200160208202803683370190505b50915060045467ffffffffffffffff811115610e4257610e4261133d565b604051908082528060200260200182016040528015610e8e57816020015b60408051606080820183525f808352602083015291810191909152815260200190600190039081610e605790505b5090505f5f5b7f0000000000000000000000000000000000000000000000000000000000000000811015610ff0575f8181526003602052604090205461ffff1615610fe85780848381518110610ee657610ee6611763565b6020908102919091018101919091525f828152600382526040908190208151606081018352815461ffff811682526201000090046001600160a01b0316938101939093526001810180549192840191610f3e90611777565b80601f0160208091040260200160405190810160405280929190818152602001828054610f6a90611777565b8015610fb55780601f10610f8c57610100808354040283529160200191610fb5565b820191905f5260205f20905b815481529060010190602001808311610f9857829003601f168201915b505050505081525050838381518110610fd057610fd0611763565b602002602001018190525081610fe5906118ef565b91505b600101610e94565b50509091565b5f8281526020819052604090206001015461101081611161565b610a4e8383611215565b5f5f5b7f000000000000000000000000000000000000000000000000000000000000000081101561106a575f8181526003602052604081205461ffff16900361106257919050565b60010161101d565b5060405162461bcd60e51b815260206004820152601260248201527f4e6f20617661696c61626c6520696e646578000000000000000000000000000060448201526064016104a1565b6002600154036110ef576040517f3ee5aeb500000000000000000000000000000000000000000000000000000000815260040160405180910390fd5b6002600155565b5f828152602081815260408083206001600160a01b038516845290915290205460ff16610a26576040517fe2517d3f0000000000000000000000000000000000000000000000000000000081526001600160a01b0382166004820152602481018390526044016104a1565b61116b81336110f6565b50565b5f828152602081815260408083206001600160a01b038516845290915281205460ff1661120e575f838152602081815260408083206001600160a01b03861684529091529020805460ff191660011790556111c63390565b6001600160a01b0316826001600160a01b0316847f2f8788117e7eff1d82e926ec794901d17c78024a50270940304540a733656f0d60405160405180910390a4506001610445565b505f610445565b5f828152602081815260408083206001600160a01b038516845290915281205460ff161561120e575f838152602081815260408083206001600160a01b0386168085529252808320805460ff1916905551339286917ff6391f5c32d9c69d2a47ea670b442974b53935d1edc7fd64eb21e047a839171b9190a4506001610445565b5080546112a290611777565b5f825580601f106112b1575050565b601f0160209004905f5260205f209081019061116b91905b808211156112dc575f81556001016112c9565b5090565b5f602082840312156112f0575f5ffd5b81357fffffffff000000000000000000000000000000000000000000000000000000008116811461131f575f5ffd5b9392505050565b5f60208284031215611336575f5ffd5b5035919050565b634e487b7160e01b5f52604160045260245ffd5b6040516060810167ffffffffffffffff811182821017156113745761137461133d565b60405290565b604051601f8201601f1916810167ffffffffffffffff811182821017156113a3576113a361133d565b604052919050565b5f67ffffffffffffffff8211156113c4576113c461133d565b5060051b60200190565b80356001600160a01b03811681146113e4575f5ffd5b919050565b5f82601f8301126113f8575f5ffd5b813561140b611406826113ab565b61137a565b8082825260208201915060208360051b86010192508583111561142c575f5ffd5b602085015b8381101561153457803567ffffffffffffffff81111561144f575f5ffd5b86016060818903601f19011215611464575f5ffd5b61146c611351565b602082013561ffff81168114611480575f5ffd5b815261148e604083016113ce565b6020820152606082013567ffffffffffffffff8111156114ac575f5ffd5b60208184010192505088601f8301126114c3575f5ffd5b813567ffffffffffffffff8111156114dd576114dd61133d565b6114f06020601f19601f8401160161137a565b8181528a6020838601011115611504575f5ffd5b816020850160208301375f6020838301015280604084015250508085525050602083019250602081019050611431565b5095945050505050565b5f5f6040838503121561154f575f5ffd5b823567ffffffffffffffff811115611565575f5ffd5b8301601f81018513611575575f5ffd5b8035611583611406826113ab565b8082825260208201915060208360051b8501019250878311156115a4575f5ffd5b6020840193505b828410156115c65783358252602093840193909101906115ab565b9450505050602083013567ffffffffffffffff8111156115e4575f5ffd5b6115f0858286016113e9565b9150509250929050565b5f5f6040838503121561160b575f5ffd5b8235915061161b602084016113ce565b90509250929050565b5f81518084528060208401602086015e5f602082860101526020601f19601f83011685010191505092915050565b61ffff841681526001600160a01b0383166020820152606060408201525f61167d6060830184611624565b95945050505050565b61ffff81511682526001600160a01b0360208201511660208301525f6040820151606060408501526116bb6060850182611624565b949350505050565b604080825283519082018190525f9060208501906060840190835b818110156116fc5783518352602093840193909201916001016116de565b50508381036020850152809150845180825260208201925060208160051b830101602087015f5b8381101561175557601f1985840301865261173f838351611686565b6020968701969093509190910190600101611723565b509098975050505050505050565b634e487b7160e01b5f52603260045260245ffd5b600181811c9082168061178b57607f821691505b6020821081036117a957634e487b7160e01b5f52602260045260245ffd5b50919050565b634e487b7160e01b5f52601160045260245ffd5b81810381811115610445576104456117af565b80820180821115610445576104456117af565b601f821115610aa057805f5260205f20601f840160051c8101602085101561180e5750805b601f840160051c820191505b8181101561182d575f815560010161181a565b5050505050565b815167ffffffffffffffff81111561184e5761184e61133d565b6118628161185c8454611777565b846117e9565b6020601f821160018114611894575f831561187d5750848201515b5f19600385901b1c1916600184901b17845561182d565b5f84815260208120601f198516915b828110156118c357878501518255602094850194600190920191016118a3565b50848210156118e057868401515f19600387901b60f8161c191681555b50505050600190811b01905550565b5f60018201611900576119006117af565b5060010190565b828152604060208201525f6116bb6040830184611686565b5f8161192d5761192d6117af565b505f190190565b838152606060208201525f61194c6060830185611686565b828103604084015261195e8185611686565b9695505050505050565b8082028115828204841417610445576104456117af565b5f8261199957634e487b7160e01b5f52601260045260245ffd5b500490565b5f82518060208501845e5f920191825250919050565b8481526001600160a01b0384166020820152608060408201525f6119db6080830185611624565b90508260608301529594505050505056fea2646970667358221220acf1b574975eb426d29776835f61586fd669553728afcf6c934cec3964d403e864736f6c634300081e0033","linkReferences":{}},"methodIdentifiers":{"DEFAULT_ADMIN_ROLE()":"a217fddf","MAX_SPLITS()":"b48210ca","ROLE_SPLIT_CREATE()":"befbc516","ROLE_SPLIT_DELETE()":"420cbc20","ROLE_SPLIT_UPDATE()":"626d6be2","getActiveSplits()":"9dc49586","getNextAvailableIndex()":"e69ed567","getRoleAdmin(bytes32)":"248a9ca3","grantRole(bytes32,address)":"2f2ff15d","hasRole(bytes32,address)":"91d14854","renounceRole(bytes32,address)":"36568abe","revokeRole(bytes32,address)":"d547741f","splitCount()":"26825056","splits(uint256)":"884c3006","supportsInterface(bytes4)":"01ffc9a7","updateSplits(uint256[],(uint16,address,bytes)[])":"2c68ded1","withdraw()":"3ccfd60b"},"id":49}