{"abi":[{"type":"constructor","inputs":[],"stateMutability":"nonpayable"},{"type":"receive","stateMutability":"payable"},{"type":"function","name":"DEFAULT_ADMIN_ROLE","inputs":[],"outputs":[{"name":"","type":"bytes32","internalType":"bytes32"}],"stateMutability":"view"},{"type":"function","name":"MINIMUM_CONTRIBUTE_THRESHOLD","inputs":[],"outputs":[{"name":"","type":"uint256","internalType":"uint256"}],"stateMutability":"view"},{"type":"function","name":"ROLE_ADD_NODE","inputs":[],"outputs":[{"name":"","type":"bytes32","internalType":"bytes32"}],"stateMutability":"view"},{"type":"function","name":"ROLE_DISABLE_NODE","inputs":[],"outputs":[{"name":"","type":"bytes32","internalType":"bytes32"}],"stateMutability":"view"},{"type":"function","name":"ROLE_FEE_CLAIMER","inputs":[],"outputs":[{"name":"","type":"bytes32","internalType":"bytes32"}],"stateMutability":"view"},{"type":"function","name":"ROLE_FEE_EXEMPTION","inputs":[],"outputs":[{"name":"","type":"bytes32","internalType":"bytes32"}],"stateMutability":"view"},{"type":"function","name":"ROLE_FEE_SETTER","inputs":[],"outputs":[{"name":"","type":"bytes32","internalType":"bytes32"}],"stateMutability":"view"},{"type":"function","name":"ROLE_PAUSE","inputs":[],"outputs":[{"name":"","type":"bytes32","internalType":"bytes32"}],"stateMutability":"view"},{"type":"function","name":"ROLE_REMOVE_NODE","inputs":[],"outputs":[{"name":"","type":"bytes32","internalType":"bytes32"}],"stateMutability":"view"},{"type":"function","name":"ROLE_UPDATE_WEIGHTS","inputs":[],"outputs":[{"name":"","type":"bytes32","internalType":"bytes32"}],"stateMutability":"view"},{"type":"function","name":"ROLE_UPGRADE","inputs":[],"outputs":[{"name":"","type":"bytes32","internalType":"bytes32"}],"stateMutability":"view"},{"type":"function","name":"UPGRADE_INTERFACE_VERSION","inputs":[],"outputs":[{"name":"","type":"string","internalType":"string"}],"stateMutability":"view"},{"type":"function","name":"addNode","inputs":[{"name":"nodeId","type":"uint64","internalType":"uint64"}],"outputs":[],"stateMutability":"nonpayable"},{"type":"function","name":"allowance","inputs":[{"name":"owner","type":"address","internalType":"address"},{"name":"spender","type":"address","internalType":"address"}],"outputs":[{"name":"","type":"uint256","internalType":"uint256"}],"stateMutability":"view"},{"type":"function","name":"approve","inputs":[{"name":"spender","type":"address","internalType":"address"},{"name":"value","type":"uint256","internalType":"uint256"}],"outputs":[{"name":"","type":"bool","internalType":"bool"}],"stateMutability":"nonpayable"},{"type":"function","name":"balanceOf","inputs":[{"name":"account","type":"address","internalType":"address"}],"outputs":[{"name":"","type":"uint256","internalType":"uint256"}],"stateMutability":"view"},{"type":"function","name":"batchDepositRequests","inputs":[{"name":"","type":"uint256","internalType":"uint256"}],"outputs":[{"name":"assets","type":"uint96","internalType":"uint96"},{"name":"shares","type":"uint96","internalType":"uint96"}],"stateMutability":"view"},{"type":"function","name":"batchSubmissions","inputs":[{"name":"","type":"uint256","internalType":"uint256"}],"outputs":[{"name":"submissionEpoch","type":"uint64","internalType":"uint64"},{"name":"activationEpoch","type":"uint64","internalType":"uint64"}],"stateMutability":"view"},{"type":"function","name":"batchWithdrawRequests","inputs":[{"name":"","type":"uint256","internalType":"uint256"}],"outputs":[{"name":"assets","type":"uint96","internalType":"uint96"},{"name":"shares","type":"uint96","internalType":"uint96"}],"stateMutability":"view"},{"type":"function","name":"calculateStakeDeltas","inputs":[{"name":"newTotalStaked","type":"uint96","internalType":"uint96"}],"outputs":[{"name":"totalExcess","type":"uint96","internalType":"uint96"},{"name":"totalDeficit","type":"uint96","internalType":"uint96"},{"name":"nodeExcesses","type":"uint96[]","internalType":"uint96[]"},{"name":"nodeDeficits","type":"uint96[]","internalType":"uint96[]"}],"stateMutability":"view"},{"type":"function","name":"cancelUnlockRequest","inputs":[{"name":"unlockIndex","type":"uint256","internalType":"uint256"}],"outputs":[],"stateMutability":"nonpayable"},{"type":"function","name":"claimProtocolFees","inputs":[{"name":"to","type":"address","internalType":"address"}],"outputs":[],"stateMutability":"nonpayable"},{"type":"function","name":"compound","inputs":[{"name":"nodeIds","type":"uint64[]","internalType":"uint64[]"}],"outputs":[],"stateMutability":"nonpayable"},{"type":"function","name":"contributeToPool","inputs":[{"name":"benefactor","type":"address","internalType":"address"}],"outputs":[],"stateMutability":"payable"},{"type":"function","name":"convertToAssets","inputs":[{"name":"shares","type":"uint96","internalType":"uint96"}],"outputs":[{"name":"assets","type":"uint96","internalType":"uint96"}],"stateMutability":"view"},{"type":"function","name":"convertToShares","inputs":[{"name":"assets","type":"uint96","internalType":"uint96"}],"outputs":[{"name":"shares","type":"uint96","internalType":"uint96"}],"stateMutability":"view"},{"type":"function","name":"currentBatchId","inputs":[],"outputs":[{"name":"","type":"uint40","internalType":"uint40"}],"stateMutability":"view"},{"type":"function","name":"decimals","inputs":[],"outputs":[{"name":"","type":"uint8","internalType":"uint8"}],"stateMutability":"view"},{"type":"function","name":"deposit","inputs":[{"name":"minShares","type":"uint96","internalType":"uint96"},{"name":"receiver","type":"address","internalType":"address"}],"outputs":[{"name":"shares","type":"uint96","internalType":"uint96"}],"stateMutability":"payable"},{"type":"function","name":"disableNode","inputs":[{"name":"nodeId","type":"uint64","internalType":"uint64"}],"outputs":[],"stateMutability":"nonpayable"},{"type":"function","name":"getAllUserUnlockRequests","inputs":[{"name":"user","type":"address","internalType":"address"}],"outputs":[{"name":"","type":"tuple[]","internalType":"struct StakedMonad.UnlockRequest[]","components":[{"name":"shares","type":"uint96","internalType":"uint96"},{"name":"spotValue","type":"uint96","internalType":"uint96"},{"name":"batchId","type":"uint40","internalType":"uint40"},{"name":"exitFeeInBips","type":"uint16","internalType":"uint16"}]}],"stateMutability":"view"},{"type":"function","name":"getDelegator","inputs":[{"name":"val_id","type":"uint64","internalType":"uint64"},{"name":"delegator","type":"address","internalType":"address"}],"outputs":[{"name":"stake","type":"uint256","internalType":"uint256"},{"name":"acc_reward_per_token","type":"uint256","internalType":"uint256"},{"name":"rewards","type":"uint256","internalType":"uint256"},{"name":"delta_stake","type":"uint256","internalType":"uint256"},{"name":"next_delta_stake","type":"uint256","internalType":"uint256"},{"name":"delta_epoch","type":"uint256","internalType":"uint256"},{"name":"next_delta_epoch","type":"uint256","internalType":"uint256"}],"stateMutability":"nonpayable"},{"type":"function","name":"getExitFeeBips","inputs":[],"outputs":[{"name":"","type":"uint16","internalType":"uint16"}],"stateMutability":"view"},{"type":"function","name":"getManagementFeeBips","inputs":[],"outputs":[{"name":"","type":"uint16","internalType":"uint16"}],"stateMutability":"view"},{"type":"function","name":"getMintableProtocolShares","inputs":[],"outputs":[{"name":"shares","type":"uint96","internalType":"uint96"}],"stateMutability":"view"},{"type":"function","name":"getNodeIds","inputs":[],"outputs":[{"name":"","type":"uint256[]","internalType":"uint256[]"}],"stateMutability":"view"},{"type":"function","name":"getNodes","inputs":[],"outputs":[{"name":"","type":"tuple[]","internalType":"struct Registry.Node[]","components":[{"name":"id","type":"uint64","internalType":"uint64"},{"name":"weight","type":"uint96","internalType":"uint96"},{"name":"staked","type":"uint96","internalType":"uint96"}]}],"stateMutability":"view"},{"type":"function","name":"getRoleAdmin","inputs":[{"name":"role","type":"bytes32","internalType":"bytes32"}],"outputs":[{"name":"","type":"bytes32","internalType":"bytes32"}],"stateMutability":"view"},{"type":"function","name":"getWithdrawIds","inputs":[{"name":"val_id","type":"uint64","internalType":"uint64"}],"outputs":[{"name":"","type":"uint8[]","internalType":"uint8[]"}],"stateMutability":"view"},{"type":"function","name":"getWithdrawIdsSize","inputs":[{"name":"val_id","type":"uint64","internalType":"uint64"}],"outputs":[{"name":"","type":"uint256","internalType":"uint256"}],"stateMutability":"view"},{"type":"function","name":"grantRole","inputs":[{"name":"role","type":"bytes32","internalType":"bytes32"},{"name":"account","type":"address","internalType":"address"}],"outputs":[],"stateMutability":"nonpayable"},{"type":"function","name":"hasRole","inputs":[{"name":"role","type":"bytes32","internalType":"bytes32"},{"name":"account","type":"address","internalType":"address"}],"outputs":[{"name":"","type":"bool","internalType":"bool"}],"stateMutability":"view"},{"type":"function","name":"initialize","inputs":[{"name":"admin","type":"address","internalType":"address"}],"outputs":[],"stateMutability":"payable"},{"type":"function","name":"isExitFeeExempt","inputs":[{"name":"","type":"address","internalType":"address"}],"outputs":[{"name":"","type":"bool","internalType":"bool"}],"stateMutability":"view"},{"type":"function","name":"isForceWithdrawPending","inputs":[{"name":"val_id","type":"uint64","internalType":"uint64"}],"outputs":[{"name":"","type":"bool","internalType":"bool"}],"stateMutability":"view"},{"type":"function","name":"isNodeDisabled","inputs":[{"name":"","type":"uint64","internalType":"uint64"}],"outputs":[{"name":"","type":"bool","internalType":"bool"}],"stateMutability":"view"},{"type":"function","name":"name","inputs":[],"outputs":[{"name":"","type":"string","internalType":"string"}],"stateMutability":"view"},{"type":"function","name":"nodes","inputs":[{"name":"","type":"uint256","internalType":"uint256"}],"outputs":[{"name":"id","type":"uint64","internalType":"uint64"},{"name":"weight","type":"uint96","internalType":"uint96"},{"name":"staked","type":"uint96","internalType":"uint96"}],"stateMutability":"view"},{"type":"function","name":"pause","inputs":[],"outputs":[],"stateMutability":"nonpayable"},{"type":"function","name":"paused","inputs":[],"outputs":[{"name":"","type":"bool","internalType":"bool"}],"stateMutability":"view"},{"type":"function","name":"proxiableUUID","inputs":[],"outputs":[{"name":"","type":"bytes32","internalType":"bytes32"}],"stateMutability":"view"},{"type":"function","name":"redeem","inputs":[{"name":"unlockIndex","type":"uint256","internalType":"uint256"},{"name":"receiver","type":"address","internalType":"address payable"}],"outputs":[{"name":"assets","type":"uint96","internalType":"uint96"}],"stateMutability":"nonpayable"},{"type":"function","name":"removeNode","inputs":[{"name":"nodeId","type":"uint64","internalType":"uint64"}],"outputs":[],"stateMutability":"nonpayable"},{"type":"function","name":"renounceRole","inputs":[{"name":"role","type":"bytes32","internalType":"bytes32"},{"name":"callerConfirmation","type":"address","internalType":"address"}],"outputs":[],"stateMutability":"nonpayable"},{"type":"function","name":"requestUnlock","inputs":[{"name":"shares","type":"uint96","internalType":"uint96"},{"name":"minSpotValue","type":"uint96","internalType":"uint96"}],"outputs":[{"name":"spotValue","type":"uint96","internalType":"uint96"}],"stateMutability":"nonpayable"},{"type":"function","name":"revokeRole","inputs":[{"name":"role","type":"bytes32","internalType":"bytes32"},{"name":"account","type":"address","internalType":"address"}],"outputs":[],"stateMutability":"nonpayable"},{"type":"function","name":"setExitFee","inputs":[{"name":"newFee","type":"uint16","internalType":"uint16"}],"outputs":[],"stateMutability":"nonpayable"},{"type":"function","name":"setExitFeeExemption","inputs":[{"name":"user","type":"address","internalType":"address"},{"name":"isExempt","type":"bool","internalType":"bool"}],"outputs":[],"stateMutability":"nonpayable"},{"type":"function","name":"setManagementFee","inputs":[{"name":"newFee","type":"uint16","internalType":"uint16"}],"outputs":[],"stateMutability":"nonpayable"},{"type":"function","name":"submitBatch","inputs":[],"outputs":[],"stateMutability":"nonpayable"},{"type":"function","name":"supportsInterface","inputs":[{"name":"interfaceId","type":"bytes4","internalType":"bytes4"}],"outputs":[{"name":"","type":"bool","internalType":"bool"}],"stateMutability":"view"},{"type":"function","name":"sweep","inputs":[{"name":"nodeIds","type":"uint64[]","internalType":"uint64[]"},{"name":"maxWithdrawsPerNode","type":"uint8","internalType":"uint8"}],"outputs":[],"stateMutability":"nonpayable"},{"type":"function","name":"sweepForced","inputs":[{"name":"nodeIds","type":"uint64[]","internalType":"uint64[]"}],"outputs":[],"stateMutability":"nonpayable"},{"type":"function","name":"symbol","inputs":[],"outputs":[{"name":"","type":"string","internalType":"string"}],"stateMutability":"view"},{"type":"function","name":"totalPooled","inputs":[],"outputs":[{"name":"","type":"uint96","internalType":"uint96"}],"stateMutability":"view"},{"type":"function","name":"totalShares","inputs":[],"outputs":[{"name":"","type":"uint96","internalType":"uint96"}],"stateMutability":"view"},{"type":"function","name":"totalSupply","inputs":[],"outputs":[{"name":"","type":"uint256","internalType":"uint256"}],"stateMutability":"view"},{"type":"function","name":"totalWeight","inputs":[],"outputs":[{"name":"","type":"uint256","internalType":"uint256"}],"stateMutability":"view"},{"type":"function","name":"transfer","inputs":[{"name":"to","type":"address","internalType":"address"},{"name":"value","type":"uint256","internalType":"uint256"}],"outputs":[{"name":"","type":"bool","internalType":"bool"}],"stateMutability":"nonpayable"},{"type":"function","name":"transferFrom","inputs":[{"name":"from","type":"address","internalType":"address"},{"name":"to","type":"address","internalType":"address"},{"name":"value","type":"uint256","internalType":"uint256"}],"outputs":[{"name":"","type":"bool","internalType":"bool"}],"stateMutability":"nonpayable"},{"type":"function","name":"unbondDisableNode","inputs":[{"name":"nodeId","type":"uint64","internalType":"uint64"}],"outputs":[],"stateMutability":"nonpayable"},{"type":"function","name":"unpause","inputs":[],"outputs":[],"stateMutability":"nonpayable"},{"type":"function","name":"updateWeights","inputs":[{"name":"weightDeltas","type":"tuple[]","internalType":"struct Registry.WeightDelta[]","components":[{"name":"nodeId","type":"uint64","internalType":"uint64"},{"name":"delta","type":"uint96","internalType":"uint96"},{"name":"isIncreasing","type":"bool","internalType":"bool"}]}],"outputs":[],"stateMutability":"nonpayable"},{"type":"function","name":"upgradeToAndCall","inputs":[{"name":"newImplementation","type":"address","internalType":"address"},{"name":"data","type":"bytes","internalType":"bytes"}],"outputs":[],"stateMutability":"payable"},{"type":"function","name":"userUnlockRequests","inputs":[{"name":"","type":"address","internalType":"address"},{"name":"","type":"uint256","internalType":"uint256"}],"outputs":[{"name":"shares","type":"uint96","internalType":"uint96"},{"name":"spotValue","type":"uint96","internalType":"uint96"},{"name":"batchId","type":"uint40","internalType":"uint40"},{"name":"exitFeeInBips","type":"uint16","internalType":"uint16"}],"stateMutability":"view"},{"type":"function","name":"viewNodeByNodeId","inputs":[{"name":"nodeId","type":"uint64","internalType":"uint64"}],"outputs":[{"name":"node","type":"tuple","internalType":"struct Registry.Node","components":[{"name":"id","type":"uint64","internalType":"uint64"},{"name":"weight","type":"uint96","internalType":"uint96"},{"name":"staked","type":"uint96","internalType":"uint96"}]}],"stateMutability":"view"},{"type":"event","name":"Approval","inputs":[{"name":"owner","type":"address","indexed":true,"internalType":"address"},{"name":"spender","type":"address","indexed":true,"internalType":"address"},{"name":"value","type":"uint256","indexed":false,"internalType":"uint256"}],"anonymous":false},{"type":"event","name":"Contribution","inputs":[{"name":"amount","type":"uint256","indexed":false,"internalType":"uint256"},{"name":"benefactor","type":"address","indexed":false,"internalType":"address"}],"anonymous":false},{"type":"event","name":"ExitFeeAdjusted","inputs":[{"name":"newFee","type":"uint256","indexed":false,"internalType":"uint256"}],"anonymous":false},{"type":"event","name":"FeesWithdrawn","inputs":[{"name":"managementFeeShares","type":"uint256","indexed":false,"internalType":"uint256"},{"name":"exitFeeShares","type":"uint256","indexed":false,"internalType":"uint256"}],"anonymous":false},{"type":"event","name":"Initialized","inputs":[{"name":"version","type":"uint64","indexed":false,"internalType":"uint64"}],"anonymous":false},{"type":"event","name":"ManagementFeeAdjusted","inputs":[{"name":"newFee","type":"uint256","indexed":false,"internalType":"uint256"}],"anonymous":false},{"type":"event","name":"NodeAdded","inputs":[{"name":"nodeId","type":"uint64","indexed":false,"internalType":"uint64"},{"name":"index","type":"uint256","indexed":false,"internalType":"uint256"}],"anonymous":false},{"type":"event","name":"NodeDisabled","inputs":[{"name":"nodeId","type":"uint64","indexed":false,"internalType":"uint64"}],"anonymous":false},{"type":"event","name":"NodeRemoved","inputs":[{"name":"nodeId","type":"uint64","indexed":false,"internalType":"uint64"}],"anonymous":false},{"type":"event","name":"NodeUpdated","inputs":[{"name":"nodeId","type":"uint64","indexed":true,"internalType":"uint64"},{"name":"newWeight","type":"uint256","indexed":false,"internalType":"uint256"}],"anonymous":false},{"type":"event","name":"Paused","inputs":[{"name":"account","type":"address","indexed":false,"internalType":"address"}],"anonymous":false},{"type":"event","name":"RoleAdminChanged","inputs":[{"name":"role","type":"bytes32","indexed":true,"internalType":"bytes32"},{"name":"previousAdminRole","type":"bytes32","indexed":true,"internalType":"bytes32"},{"name":"newAdminRole","type":"bytes32","indexed":true,"internalType":"bytes32"}],"anonymous":false},{"type":"event","name":"RoleGranted","inputs":[{"name":"role","type":"bytes32","indexed":true,"internalType":"bytes32"},{"name":"account","type":"address","indexed":true,"internalType":"address"},{"name":"sender","type":"address","indexed":true,"internalType":"address"}],"anonymous":false},{"type":"event","name":"RoleRevoked","inputs":[{"name":"role","type":"bytes32","indexed":true,"internalType":"bytes32"},{"name":"account","type":"address","indexed":true,"internalType":"address"},{"name":"sender","type":"address","indexed":true,"internalType":"address"}],"anonymous":false},{"type":"event","name":"Transfer","inputs":[{"name":"from","type":"address","indexed":true,"internalType":"address"},{"name":"to","type":"address","indexed":true,"internalType":"address"},{"name":"value","type":"uint256","indexed":false,"internalType":"uint256"}],"anonymous":false},{"type":"event","name":"UnlockCancelled","inputs":[{"name":"staker","type":"address","indexed":true,"internalType":"address"},{"name":"unlockId","type":"uint256","indexed":false,"internalType":"uint256"}],"anonymous":false},{"type":"event","name":"UnlockRedeemed","inputs":[{"name":"staker","type":"address","indexed":true,"internalType":"address"},{"name":"unlockId","type":"uint256","indexed":false,"internalType":"uint256"},{"name":"amount","type":"uint256","indexed":false,"internalType":"uint256"}],"anonymous":false},{"type":"event","name":"UnlockRequested","inputs":[{"name":"staker","type":"address","indexed":true,"internalType":"address"},{"name":"unlockId","type":"uint256","indexed":false,"internalType":"uint256"},{"name":"shares","type":"uint256","indexed":false,"internalType":"uint256"},{"name":"spotValue","type":"uint256","indexed":false,"internalType":"uint256"},{"name":"toll","type":"uint256","indexed":false,"internalType":"uint256"}],"anonymous":false},{"type":"event","name":"Unpaused","inputs":[{"name":"account","type":"address","indexed":false,"internalType":"address"}],"anonymous":false},{"type":"event","name":"Upgraded","inputs":[{"name":"implementation","type":"address","indexed":true,"internalType":"address"}],"anonymous":false},{"type":"error","name":"AccessControlBadConfirmation","inputs":[]},{"type":"error","name":"AccessControlUnauthorizedAccount","inputs":[{"name":"account","type":"address","internalType":"address"},{"name":"neededRole","type":"bytes32","internalType":"bytes32"}]},{"type":"error","name":"ActiveNode","inputs":[]},{"type":"error","name":"AddressEmptyCode","inputs":[{"name":"target","type":"address","internalType":"address"}]},{"type":"error","name":"BatchNotSubmitted","inputs":[]},{"type":"error","name":"CancellationWindowClosed","inputs":[]},{"type":"error","name":"DepositOverflow","inputs":[]},{"type":"error","name":"DisabledNode","inputs":[]},{"type":"error","name":"DuplicateNode","inputs":[]},{"type":"error","name":"ERC1967InvalidImplementation","inputs":[{"name":"implementation","type":"address","internalType":"address"}]},{"type":"error","name":"ERC1967NonPayable","inputs":[]},{"type":"error","name":"ERC20InsufficientAllowance","inputs":[{"name":"spender","type":"address","internalType":"address"},{"name":"allowance","type":"uint256","internalType":"uint256"},{"name":"needed","type":"uint256","internalType":"uint256"}]},{"type":"error","name":"ERC20InsufficientBalance","inputs":[{"name":"sender","type":"address","internalType":"address"},{"name":"balance","type":"uint256","internalType":"uint256"},{"name":"needed","type":"uint256","internalType":"uint256"}]},{"type":"error","name":"ERC20InvalidApprover","inputs":[{"name":"approver","type":"address","internalType":"address"}]},{"type":"error","name":"ERC20InvalidReceiver","inputs":[{"name":"receiver","type":"address","internalType":"address"}]},{"type":"error","name":"ERC20InvalidSender","inputs":[{"name":"sender","type":"address","internalType":"address"}]},{"type":"error","name":"ERC20InvalidSpender","inputs":[{"name":"spender","type":"address","internalType":"address"}]},{"type":"error","name":"EmptyBatch","inputs":[]},{"type":"error","name":"EnforcedPause","inputs":[]},{"type":"error","name":"ExpectedPause","inputs":[]},{"type":"error","name":"FailedCall","inputs":[]},{"type":"error","name":"FeeTooLarge","inputs":[]},{"type":"error","name":"InsufficientPendingWithdrawals","inputs":[]},{"type":"error","name":"InvalidInitialization","inputs":[]},{"type":"error","name":"InvalidNode","inputs":[]},{"type":"error","name":"MaxPendingWithdrawals","inputs":[]},{"type":"error","name":"MinimumBatchDelay","inputs":[]},{"type":"error","name":"MinimumContributeThreshold","inputs":[]},{"type":"error","name":"MinimumDeposit","inputs":[]},{"type":"error","name":"MinimumUnlock","inputs":[]},{"type":"error","name":"NoChange","inputs":[]},{"type":"error","name":"NotInitializing","inputs":[]},{"type":"error","name":"PendingWithdrawals","inputs":[]},{"type":"error","name":"PrecompileCallFailed","inputs":[]},{"type":"error","name":"TransferFailed","inputs":[]},{"type":"error","name":"UUPSUnauthorizedCallContext","inputs":[]},{"type":"error","name":"UUPSUnsupportedProxiableUUID","inputs":[{"name":"slot","type":"bytes32","internalType":"bytes32"}]},{"type":"error","name":"WithdrawDelay","inputs":[]},{"type":"error","name":"ZeroTotalWeight","inputs":[]}],"bytecode":{"object":"0x60a060405230608052348015610013575f5ffd5b5061001c610021565b6100d3565b7ff0c57e16840df040f15088dc2f81fe391c3923bec73e23a9662efc9c229c6a00805468010000000000000000900460ff16156100715760405163f92ee8a960e01b815260040160405180910390fd5b80546001600160401b03908116146100d05780546001600160401b0319166001600160401b0390811782556040519081527fc7f505b2f371ae2175ee4913f4499e1f2633a7b5936321eed1cdaeb6115181d29060200160405180910390a15b50565b608051616d1e6100f95f395f8181614fc801528181614ff101526151c30152616d1e5ff3fe6080604052600436106104ee575f3560e01c80635c975abb11610285578063a30fefe111610156578063d6531de5116100d1578063e8ce892211610087578063fb9848e41161006d578063fb9848e414611160578063fd012e341461117f578063fde73f7d146111d9575f5ffd5b8063e8ce89221461110e578063f75b040414611141575f5ffd5b8063dd62ed3e116100b7578063dd62ed3e1461106b578063df235fe6146110ce578063e29581aa146110ed575f5ffd5b8063d6531de51461101e578063d8a9fe501461104c575f5ffd5b8063aedf6d5111610126578063c4d66de81161010c578063c4d66de814610fcd578063cf5e274314610fe0578063d547741f14610fff575f5ffd5b8063aedf6d5114610f87578063bf7df8e014610fa6575f5ffd5b8063a30fefe114610ece578063a4b0b5a314610f01578063a9059cbb14610f20578063ad3cb1cc14610f3f575f5ffd5b80637a6d59d51161020057806391d14854116101b657806396c82e571161019c57806396c82e5714610e93578063a0e3cdd614610ea8578063a217fddf14610ebb575f5ffd5b806391d1485414610e1c57806395d89b4114610e7f575f5ffd5b80638456cb59116101e65780638456cb5914610dcc57806386bb1d6e14610de05780638dd09af314610dfd575f5ffd5b80637a6d59d514610d515780637bde82f214610dad575f5ffd5b80636ec21cc811610255578063733897b71161023b578063733897b714610c9257806377654f3414610cb157806378f908e114610cf0575f5ffd5b80636ec21cc814610c2057806370a0823114610c3f575f5ffd5b80635c975abb14610b84578063615bfc4514610bba57806363311d3d14610bce57806369ce6d4714610c01575f5ffd5b80632a7d8acb116103bf57806343abcf321161033a5780634ff0241a116102f0578063540a26f3116102d6578063540a26f314610ad1578063573c1ce014610afd5780635838b2fe14610b51575f5ffd5b80634ff0241a14610a8a57806352d1902d14610abd575f5ffd5b80634a797bd5116103205780634a797bd5146109e95780634beae6e314610a185780634f1ef28614610a77575f5ffd5b806343abcf32146109b657806346115383146109d5575f5ffd5b806336568abe1161038f5780633b5b4765116103755780633b5b4765146109555780633e367afa146109815780633f4ba83a146109a2575f5ffd5b806336568abe146109225780633a98ef3914610941575f5ffd5b80632a7d8acb146108965780632f2ff15d146108c9578063313ce567146108e8578063337b2b6e14610903575f5ffd5b80631610247b1161046957806322fd4ad51161041f578063248a9ca311610405578063248a9ca3146107d357806324f67e18146108205780632584601f1461083f575f5ffd5b806322fd4ad51461078157806323b872dd146107b4575f5ffd5b80631b8e0db61161044f5780631b8e0db6146106d45780631c3477dd146107075780631c53c28014610732575f5ffd5b80631610247b1461068257806318160ddd146106a1575f5ffd5b80630a763da1116104be5780630b52f7b1116104a45780630b52f7b1146106095780630bf14d9b1461063557806315230e8014610663575f5ffd5b80630a763da1146105ae5780630a9f9ee2146105e8575f5ffd5b806301ffc9a7146104f957806306c7dbc41461052d57806306fdde031461056e578063095ea7b31461058f575f5ffd5b366104f557005b5f5ffd5b348015610504575f5ffd5b506105186105133660046161d7565b6111f1565b60405190151581526020015b60405180910390f35b348015610538575f5ffd5b506105607f359946d964cb1f92e24841dd25d0e8706f1ab6dd13500522367deddd927658d881565b604051908152602001610524565b348015610579575f5ffd5b50610582611289565b6040516105249190616216565b34801561059a575f5ffd5b506105186105a936600461625f565b61135c565b3480156105b9575f5ffd5b506046546105d290600160601b900464ffffffffff1681565b60405164ffffffffff9091168152602001610524565b3480156105f3575f5ffd5b5061060761060236600461636c565b611373565b005b348015610614575f5ffd5b506106286106233660046163c0565b6113d4565b60405161052491906163db565b348015610640575f5ffd5b5061051861064f3660046163c0565b60496020525f908152604090205460ff1681565b34801561066e575f5ffd5b5061060761067d36600461646d565b611482565b34801561068d575f5ffd5b5061060761069c366004616499565b6114d7565b3480156106ac575f5ffd5b507f52c63247e1f47db19d5ce0460030c497f067ca4cebf71ba98eeadabe20bace0254610560565b3480156106df575f5ffd5b506105607f13172b8201242833f26d88301b6e27aa2235ec2d9b2c92a1ed33678f0ee068fa81565b61071a6107153660046164cb565b611766565b6040516001600160601b039091168152602001610524565b34801561073d575f5ffd5b5061075161074c366004616499565b6118e3565b6040805167ffffffffffffffff90941684526001600160601b039283166020850152911690820152606001610524565b34801561078c575f5ffd5b506105607f902b1971fb3d9217703fb59d9a8bf53ee64da1be6756f20cebc090dd4c37f7d881565b3480156107bf575f5ffd5b506105186107ce3660046164f5565b611927565b3480156107de575f5ffd5b506105606107ed366004616499565b5f9081527f02dd7bc7dec4dceedda775e58dd541e08a116c6c53815c0bd028192f7b626800602052604090206001015490565b34801561082b575f5ffd5b5061071a61083a366004616533565b61194c565b34801561084a575f5ffd5b50610518610859366004616564565b67ffffffffffffffff165f9081527fd5d321e774be746819c1749e69f27b3f3e063f791b56826404d788d5a63ed601602052604090205460ff1690565b3480156108a1575f5ffd5b506105607f1ea2b19b7ab22acb68ebeb58b5cb9eab43e3e119ebbd3159fdcddfc5b8c538b881565b3480156108d4575f5ffd5b506106076108e336600461657f565b611ccb565b3480156108f3575f5ffd5b5060405160128152602001610524565b34801561090e575f5ffd5b5061060761091d366004616564565b611d0e565b34801561092d575f5ffd5b5061060761093c36600461657f565b611e64565b34801561094c575f5ffd5b5061071a611eb5565b348015610960575f5ffd5b5061097461096f366004616564565b611eef565b60405161052491906165a2565b34801561098c575f5ffd5b50610995611fde565b60405161052491906165dc565b3480156109ad575f5ffd5b50610607611fe9565b3480156109c1575f5ffd5b506106076109d0366004616613565b61201e565b3480156109e0575f5ffd5b506106076120ef565b3480156109f4575f5ffd5b50610a08610a03366004616645565b612596565b60405161052494939291906166a1565b348015610a23575f5ffd5b50610a57610a32366004616499565b604c6020525f90815260409020546001600160601b0380821691600160601b90041682565b604080516001600160601b03938416815292909116602083015201610524565b610607610a853660046166ee565b61263e565b348015610a95575f5ffd5b506105607ff146182d150a5b368b6d283f87aeae1f25c21b02ff55cf16848704ade176a5cb81565b348015610ac8575f5ffd5b5061056061265d565b348015610adc575f5ffd5b50610af0610aeb366004616564565b61268b565b6040516105249190616795565b348015610b08575f5ffd5b50610b1c610b173660046167d6565b6126f2565b604080519788526020880196909652948601939093526060850191909152608084015260a083015260c082015260e001610524565b348015610b5c575f5ffd5b506105607f1d770361ad1ba5c90793f5d8711778cd963118207b8b46db0f36c72a65b0b45181565b348015610b8f575f5ffd5b507fcd5ed15c6e187e77e9aee88184c21f4f2182ab5827cb3b7e07fbedcd63f033005460ff16610518565b348015610bc5575f5ffd5b5061071a6127aa565b348015610bd9575f5ffd5b506105607fe1777bd22f637fc57eadcf9d877079117b44537a53059b1670036696018f564c81565b348015610c0c575f5ffd5b50610607610c1b3660046163c0565b612884565b348015610c2b575f5ffd5b5060465461071a906001600160601b031681565b348015610c4a575f5ffd5b50610560610c593660046163c0565b6001600160a01b03165f9081527f52c63247e1f47db19d5ce0460030c497f067ca4cebf71ba98eeadabe20bace00602052604090205490565b348015610c9d575f5ffd5b50610607610cac366004616564565b612996565b348015610cbc575f5ffd5b50610a57610ccb366004616499565b604b6020525f90815260409020546001600160601b0380821691600160601b90041682565b348015610cfb575f5ffd5b50610d30610d0a366004616499565b604a6020525f908152604090205467ffffffffffffffff80821691600160401b90041682565b6040805167ffffffffffffffff938416815292909116602083015201610524565b348015610d5c575f5ffd5b50610560610d6b366004616564565b67ffffffffffffffff165f9081527fd5d321e774be746819c1749e69f27b3f3e063f791b56826404d788d5a63ed6006020526040902054610100900460ff1690565b348015610db8575f5ffd5b5061071a610dc736600461657f565b612a67565b348015610dd7575f5ffd5b50610607612cae565b348015610deb575f5ffd5b5061056069010f0cf064dd5920000081565b348015610e08575f5ffd5b50610607610e173660046167f2565b612ce0565b348015610e27575f5ffd5b50610518610e3636600461657f565b5f9182527f02dd7bc7dec4dceedda775e58dd541e08a116c6c53815c0bd028192f7b626800602090815260408084206001600160a01b0393909316845291905290205460ff1690565b348015610e8a575f5ffd5b50610582612dc7565b348015610e9e575f5ffd5b5061056060045481565b610607610eb63660046163c0565b612e18565b348015610ec6575f5ffd5b506105605f81565b348015610ed9575f5ffd5b506105607f78a7a80e95d53cedc2e84890fb7aaf754249c544050913a3263a2abf9d66f53881565b348015610f0c575f5ffd5b50610607610f1b366004616813565b612f73565b348015610f2b575f5ffd5b50610518610f3a36600461625f565b613320565b348015610f4a575f5ffd5b506105826040518060400160405280600581526020017f352e302e3000000000000000000000000000000000000000000000000000000081525081565b348015610f92575f5ffd5b50610607610fa1366004616564565b61332d565b348015610fb1575f5ffd5b5060485461ffff165b60405161ffff9091168152602001610524565b610607610fdb3660046163c0565b6135c9565b348015610feb575f5ffd5b50610607610ffa366004616613565b613a3f565b34801561100a575f5ffd5b5061060761101936600461657f565b613b37565b348015611029575f5ffd5b50610518611038366004616564565b60056020525f908152604090205460ff1681565b348015611057575f5ffd5b50610607611066366004616564565b613b7a565b348015611076575f5ffd5b50610560611085366004616884565b6001600160a01b039182165f9081527f52c63247e1f47db19d5ce0460030c497f067ca4cebf71ba98eeadabe20bace016020908152604080832093909416825291909152205490565b3480156110d9575f5ffd5b5061071a6110e8366004616645565b613c62565b3480156110f8575f5ffd5b50611101613cb8565b60405161052491906168a0565b348015611119575f5ffd5b506105607fbb12ed6b435a5fce787412ceb233935082e39147d977bc587eb74d0f97f48d2c81565b34801561114c575f5ffd5b5061060761115b3660046167f2565b613d41565b34801561116b575f5ffd5b5061071a61117a366004616645565b613e18565b34801561118a575f5ffd5b5061119e61119936600461625f565b613e58565b604080516001600160601b03958616815294909316602085015264ffffffffff9091169183019190915261ffff166060820152608001610524565b3480156111e4575f5ffd5b5060475461ffff16610fba565b5f7fffffffff0000000000000000000000000000000000000000000000000000000082167f7965db0b00000000000000000000000000000000000000000000000000000000148061128357507f01ffc9a7000000000000000000000000000000000000000000000000000000007fffffffff000000000000000000000000000000000000000000000000000000008316145b92915050565b7f52c63247e1f47db19d5ce0460030c497f067ca4cebf71ba98eeadabe20bace0380546060917f52c63247e1f47db19d5ce0460030c497f067ca4cebf71ba98eeadabe20bace00916112da90616915565b80601f016020809104026020016040519081016040528092919081815260200182805461130690616915565b80156113515780601f1061132857610100808354040283529160200191611351565b820191905f5260205f20905b81548152906001019060200180831161133457829003601f168201915b505050505091505090565b5f33611369818585613eb0565b5060019392505050565b61137b613ebd565b81515f5b818167ffffffffffffffff1610156113ce576113be848267ffffffffffffffff16815181106113b0576113b0616947565b602002602001015184613f1b565b6113c78161696f565b905061137f565b50505050565b6001600160a01b0381165f908152604d60209081526040808320805482518185028101850190935280835260609492939192909184015b82821015611477575f84815260209081902060408051608081018252918501546001600160601b038082168452600160601b82041683850152600160c01b810464ffffffffff1691830191909152600160e81b900461ffff16606082015282526001909201910161140b565b505050509050919050565b7f78a7a80e95d53cedc2e84890fb7aaf754249c544050913a3263a2abf9d66f5386114ac816140e9565b506001600160a01b03919091165f908152604960205260409020805460ff1916911515919091179055565b6114df613ebd565b335f908152604d60205260408120805490919082908490811061150457611504616947565b5f9182526020918290206040805160808101825292909101546001600160601b038082168452600160601b80830490911694840194909452600160c01b810464ffffffffff908116928401839052600160e81b90910461ffff16606084015260465492945092909104909116146115a7576040517fdcb958f400000000000000000000000000000000000000000000000000000000815260040160405180910390fd5b5f6115c6825f01516001600160601b0316836060015161ffff166140f3565b90505f81835f01516115d8919061699b565b60408085015164ffffffffff165f908152604c6020908152908290208251808401909352546001600160601b03808216808552600160601b909204168383015290860151929350909190829061162f90839061699b565b6001600160601b031690525060208101805183919061164f90839061699b565b6001600160601b0390811690915260408087015164ffffffffff165f908152604c602090815291902084518154928601518416600160601b027fffffffffffffffff00000000000000000000000000000000000000000000000090931690841617919091179055841615905061170857604780548491906002906116e39084906201000090046001600160601b031661699b565b92506101000a8154816001600160601b0302191690836001600160601b031602179055505b6117128587614124565b6117293033865f01516001600160601b03166142be565b60405186815233907fd1bbb16d648df2dfd0b1b3d88a5bc3f262e0323d3af8fd678115b4f1e7b4b88a9060200160405180910390a2505050505050565b5f61176f613ebd565b6001600160601b033411156117b0576040517f1132981b00000000000000000000000000000000000000000000000000000000815260040160405180910390fd5b6117b8614352565b6117c134613c62565b9050806001600160601b03165f036117ec5760405163a88ee57760e01b815260040160405180910390fd5b826001600160601b0316816001600160601b03161015611838576040517fc635a9f200000000000000000000000000000000000000000000000000000000815260040160405180910390fd5b61184b82826001600160601b03166144b1565b604680543491905f906118689084906001600160601b03166169ba565b82546101009290920a6001600160601b03818102199093169183160217909155604654600160601b900464ffffffffff165f908152604b60205260408120805434945090926118b9918591166169ba565b92506101000a8154816001600160601b0302191690836001600160601b0316021790555092915050565b600381815481106118f2575f80fd5b5f9182526020909120015467ffffffffffffffff811691506001600160601b03600160401b8204811691600160a01b90041683565b5f336119348582856144fe565b61193f8585856142be565b60019150505b9392505050565b5f611955613ebd565b61195d614352565b335f90815260496020526040812054819060ff166119945760475461ffff1691506119916001600160601b038616836140f3565b90505b5f61199f828761699b565b90506119aa81613e18565b9350836001600160601b03165f036119d55760405163a88ee57760e01b815260040160405180910390fd5b846001600160601b0316846001600160601b03161015611a21576040517f641963a400000000000000000000000000000000000000000000000000000000815260040160405180910390fd5b604654335f908152604d6020908152604080832081516080810183526001600160601b03808d1682528a811682860190815264ffffffffff600160601b98899004811684870181815261ffff808f16606088019081528854600181018a55988c528a8c209751979098018054955192519851909116600160e81b027fff0000ffffffffffffffffffffffffffffffffffffffffffffffffffffffffff98909416600160c01b02979097167fff00000000000000ffffffffffffffffffffffffffffffffffffffffffffffff9186168c027fffffffffffffffff0000000000000000000000000000000000000000000000009095169686169690961793909317929092169390931792909217909255808552604c8452938290208251808401909352548082168084529590041691810191909152909186908290611b659083906169ba565b6001600160601b0316905250602081018051849190611b859083906169ba565b6001600160601b0390811690915264ffffffffff84165f908152604c6020908152604090912084518154928601518416600160601b027fffffffffffffffff000000000000000000000000000000000000000000000000909316908416179190911790558516159050611c3b5760478054859190600290611c169084906201000090046001600160601b03166169ba565b92506101000a8154816001600160601b0302191690836001600160601b031602179055505b611c4f33308a6001600160601b03166142be565b335f818152604d60205260409020547fef31107568890496c8f16fec1278e709d23f1444e004e7973a9403880c28d91790611c8c906001906169d9565b604080519182526001600160601b038088166020840152808b1691830191909152871660608201526080015b60405180910390a2505050505092915050565b5f8281527f02dd7bc7dec4dceedda775e58dd541e08a116c6c53815c0bd028192f7b6268006020526040902060010154611d04816140e9565b6113ce83836145ac565b611d16614678565b611d2a5f67ffffffffffffffff83166146a2565b15155f03611d64576040517f0fa1af0e00000000000000000000000000000000000000000000000000000000815260040160405180910390fd5b604080516060810182525f602080830182815283850183815267ffffffffffffffff8781168087526003805460018101825581885288517fc2575a0e9e593c00f959f8c92f12db2869c3395a3b0502d05e2516446f71f85b9091018054965195519190941673ffffffffffffffffffffffffffffffffffffffff1990961695909517600160401b6001600160601b0395861602176001600160a01b0316600160a01b949095169390930293909317905554818452600283529285902083905584519081529081018290528351929391927fdd8aaf98a662995c3720dc78ea3773142e7d32c94f523a7d651e932ba0c44f8a929181900390910190a1505050565b6001600160a01b0381163314611ea6576040517f6697b23200000000000000000000000000000000000000000000000000000000815260040160405180910390fd5b611eb082826146ad565b505050565b5f611ebe6127aa565b7f52c63247e1f47db19d5ce0460030c497f067ca4cebf71ba98eeadabe20bace0254611eea91906169ba565b905090565b60605f7fd5d321e774be746819c1749e69f27b3f3e063f791b56826404d788d5a63ed60067ffffffffffffffff8085165f9081526020838152604080832081518083019092525460ff8082168352610100909104169181018290529394509091811115611f5e57611f5e616289565b604051908082528060200260200182016040528015611f87578160200160208202803683370190505b5090505f5b826020015160ff16811015611fd5578251611fa9908260ff614751565b828281518110611fbb57611fbb616947565b60ff90921660209283029190910190910152600101611f8c565b50949350505050565b6060611eea5f61477a565b7ff146182d150a5b368b6d283f87aeae1f25c21b02ff55cf16848704ade176a5cb612013816140e9565b61201b614786565b50565b612026613ebd565b805147905f5b818167ffffffffffffffff16101561207a5761206a848267ffffffffffffffff168151811061205d5761205d616947565b60200260200101516147f8565b6120738161696f565b905061202c565b505f61208683476169d9565b905080156113ce57604654600160601b900464ffffffffff165f908152604b6020526040812080548392906120c59084906001600160601b03166169ba565b92506101000a8154816001600160601b0302191690836001600160601b0316021790555050505050565b6120f7613ebd565b6120ff614352565b6046546001600160601b03811690600160601b900464ffffffffff165f8061212561495e565b90925090505f604a816121396001876169ec565b64ffffffffff16815260208082019290925260409081015f2081518083019092525467ffffffffffffffff8082168352600160401b9091048116928201839052909250841610156121b6576040517f4851faea00000000000000000000000000000000000000000000000000000000815260040160405180910390fd5b64ffffffffff84165f818152604b602090815260408083208151808301835290546001600160601b038082168352600160601b91829004811683860152958552604c845293829020825180840190935254808616808452949004851692820192909252815191939092911611156122c657815181515f91612237918a614999565b825184519192505f91839161224b9161699b565b612255919061699b565b90506001600160601b038116156122af5780604b5f6122758b6001616a09565b64ffffffffff16815260208101919091526040015f2080546bffffffffffffffffffffffff19166001600160601b03929092169190911790555b505067ffffffffffffffff841660208401526123db565b815181516001600160601b039182169116111561238757805182515f916122ed918a614bba565b835183519192505f9183916123019161699b565b61230b919061699b565b90506001600160601b038116156122af5780604c5f61232b8b6001616a09565b64ffffffffff16815260208101919091526040015f2080546bffffffffffffffffffffffff19166001600160601b039290921691909117905561236e818a6169ba565b9850505067ffffffffffffffff841660208401526123db565b81516001600160601b03165f036123ca576040517fc2e5347d00000000000000000000000000000000000000000000000000000000815260040160405180910390fd5b67ffffffffffffffff851660208401525b60208101516001600160601b031615612405576124053082602001516001600160601b0316614d91565b80516001600160601b031615612447578051612421908861699b565b604680546bffffffffffffffffffffffff19166001600160601b03929092169190911790555b6040805160608101825260475461ffff811682526001600160601b03620100008204811660208401819052600160701b909204169282019290925290156124fc5780602001518160400181815161249e91906169ba565b6001600160601b039081169091525f60208401528251604780546040860151909316600160701b027fffffffffffff000000000000000000000000000000000000000000000000000090931661ffff90921691909117919091179055505b67ffffffffffffffff808716855264ffffffffff88165f908152604a6020908152604090912086518154928801518416600160401b027fffffffffffffffffffffffffffffffff0000000000000000000000000000000090931693169290921717905561256a876001616a09565b6046600c6101000a81548164ffffffffff021916908364ffffffffff1602179055505050505050505050565b5f5f60608061262f6003805480602002602001604051908101604052809291908181526020015f905b8282101561261c575f848152602090819020604080516060810182529185015467ffffffffffffffff811683526001600160601b03600160401b8204811684860152600160a01b90910416908201528252600190920191016125bf565b50505050866001600160601b0316614dde565b93509350935093509193509193565b612646614fbd565b61264f8261508d565b61265982826150b7565b5050565b5f6126666151b8565b507f360894a13ba1a3210667c828492db98dca3e2076cc3735a920a3ca505d382bbc90565b604080516060810182525f80825260208201819052918101919091526126b08261521a565b60408051606081018252915467ffffffffffffffff811683526001600160601b03600160401b820481166020850152600160a01b909104169082015292915050565b6040517f573c1ce000000000000000000000000000000000000000000000000000000000815267ffffffffffffffff831660048201526001600160a01b03821660248201525f908190819081908190819081906110009063573c1ce09060440160e0604051808303815f875af115801561276e573d5f5f3e3d5ffd5b505050506040513d601f19601f820116820180604052508101906127929190616a26565b959f949e50929c50909a509850965090945092505050565b6040805160608101825260485461ffff811682526201000081046001600160601b031660208301819052600160701b90910464ffffffffff16928201839052915f906127f690426169d9565b9050801561287f575f612849846001600160601b03166128347f52c63247e1f47db19d5ce0460030c497f067ca4cebf71ba98eeadabe20bace025490565b61283e9190616a75565b845161ffff166140f3565b6001600160601b031690505f6301e133806128648484616a88565b61286e9190616ab3565b905061287a81866169ba565b945050505b505090565b61288c613ebd565b7f359946d964cb1f92e24841dd25d0e8706f1ab6dd13500522367deddd927658d86128b6816140e9565b6128be614352565b6048546201000090046001600160601b03168015612909576128e083826144b1565b604880547fffffffffffffffffffffffffffffffffffff000000000000000000000000ffff1690555b604754600160701b90046001600160601b031680156129565761292d3085836142be565b604780547fffffffffffff000000000000000000000000ffffffffffffffffffffffffffff1690555b60408051838152602081018390527fd9787bf70d3926a4a81c52cba8799d18903ce0132aaa4b7de9e92dc893303a7f91015b60405180910390a150505050565b61299e613ebd565b7f1d770361ad1ba5c90793f5d8711778cd963118207b8b46db0f36c72a65b0b4516129c8816140e9565b67ffffffffffffffff82165f9081526005602052604090205460ff16612a015760405163194fdc7f60e31b815260040160405180910390fd5b5f612a0b8361521a565b8054909150600160a01b90046001600160601b03165f819003612a415760405163a88ee57760e01b815260040160405180910390fd5b612a5484826001600160601b0316615299565b505080546001600160a01b031690555050565b5f612a70613ebd565b335f908152604d602052604081208054909190829086908110612a9557612a95616947565b5f91825260208083206040805160808101825293909101546001600160601b038082168552600160601b82041684840152600160c01b810464ffffffffff16848301819052600160e81b90910461ffff1660608501528452604a825280842081518083019092525467ffffffffffffffff808216808452600160401b9092041692820192909252919350909103612b58576040517ffc08f5f200000000000000000000000000000000000000000000000000000000815260040160405180910390fd5b5f612b61615368565b509050612b6c6153d4565b60ff168260200151612b7e9190616ac6565b67ffffffffffffffff168167ffffffffffffffff161015612bcb576040517fba9bead700000000000000000000000000000000000000000000000000000000815260040160405180910390fd5b612bd58488614124565b826020015194505f866001600160a01b0316866001600160601b03166040515f6040518083038185875af1925050503d805f8114612c2e576040519150601f19603f3d011682016040523d82523d5f602084013e612c33565b606091505b5050905080612c6e576040517f90b8ec1800000000000000000000000000000000000000000000000000000000815260040160405180910390fd5b604080518981526001600160601b038816602082015233917f53a80b7fa2025e3acb298abd7e222b36ce5d6a1425e7a6e53b451aac0c6e5a219101611cb8565b7ff146182d150a5b368b6d283f87aeae1f25c21b02ff55cf16848704ade176a5cb612cd8816140e9565b61201b615407565b7f13172b8201242833f26d88301b6e27aa2235ec2d9b2c92a1ed33678f0ee068fa612d0a816140e9565b60c88261ffff161115612d49576040517ffc5bee1200000000000000000000000000000000000000000000000000000000815260040160405180910390fd5b60485461ffff90811690831603612d735760405163a88ee57760e01b815260040160405180910390fd5b612d7b614352565b6048805461ffff191661ffff84169081179091556040519081527f756367c310578acc96b78fcf4141ddb3cf532982d1342ec193f34a3600b9ae65906020015b60405180910390a15050565b7f52c63247e1f47db19d5ce0460030c497f067ca4cebf71ba98eeadabe20bace0480546060917f52c63247e1f47db19d5ce0460030c497f067ca4cebf71ba98eeadabe20bace00916112da90616915565b612e20613ebd565b6001600160601b03341115612e61576040517f1132981b00000000000000000000000000000000000000000000000000000000815260040160405180910390fd5b6046546001600160601b031669010f0cf064dd59200000811015612eb1576040517f500625f400000000000000000000000000000000000000000000000000000000815260040160405180910390fd5b612ebb34826169ba565b604680546bffffffffffffffffffffffff19166001600160601b039283161790819055600160601b900464ffffffffff165f908152604b6020526040812080543493919291612f0c918591166169ba565b92506101000a8154816001600160601b0302191690836001600160601b031602179055507f04e75fda068b8e114d7658bdff74280a0fd65586b7e026a034eae29dd5a9e68b3483604051612dbb9291909182526001600160a01b0316602082015260400190565b612f7b615462565b600454815f5b8181101561331757848482818110612f9b57612f9b616947565b9050606002016040016020810190612fb39190616ae6565b1561314e575f612fe9868684818110612fce57612fce616947565b612fe49260206060909202019081019150616564565b61521a565b805467ffffffffffffffff165f9081526005602052604090205490915060ff1615613040576040517f1db1d0c400000000000000000000000000000000000000000000000000000000815260040160405180910390fd5b8054600160401b90046001600160601b03165f87878581811061306557613065616947565b905060600201602001602081019061307d9190616645565b61308790836169ba565b835473ffffffffffffffffffffffff00000000000000001916600160401b6001600160601b038381169182029290921786559192506130c8908416886169d9565b6130d29190616a75565b95508787858181106130e6576130e6616947565b6130fc9260206060909202019081019150616564565b6040516001600160601b038316815267ffffffffffffffff91909116907fcfaa637aecf1e60e723842980c95e1f0a7ca0a264e46647e4656b98f7293e33b9060200160405180910390a250505061330f565b5f60025f87878581811061316457613164616947565b61317a9260206060909202019081019150616564565b67ffffffffffffffff1667ffffffffffffffff1681526020019081526020015f20549050805f036131ab575061330f565b5f60036131b96001846169d9565b815481106131c9576131c9616947565b5f91825260208220018054909250600160401b90046001600160601b0316908181036131f8575050505061330f565b5f89898781811061320b5761320b616947565b90506060020160200160208101906132239190616645565b9050826001600160601b0316816001600160601b0316101561324c57613249818461699b565b91505b83546001600160601b03808416600160401b810273ffffffffffffffffffffffff00000000000000001990931692909217865561328b9085168a6169d9565b6132959190616a75565b97508989878181106132a9576132a9616947565b6132bf9260206060909202019081019150616564565b6040516001600160601b038416815267ffffffffffffffff91909116907fcfaa637aecf1e60e723842980c95e1f0a7ca0a264e46647e4656b98f7293e33b9060200160405180910390a250505050505b600101612f81565b50506004555050565b5f336113698185856142be565b6133368161548c565b67ffffffffffffffff81165f9081526002602052604081205490819003613389576040517f30812d4200000000000000000000000000000000000000000000000000000000815260040160405180910390fd5b5f60036133976001846169d9565b815481106133a7576133a7616947565b5f91825260209182902060408051606081018252929091015467ffffffffffffffff811683526001600160601b03600160401b82048116948401859052600160a01b90910416908201529150156134115760405163194fdc7f60e31b815260040160405180910390fd5b60408101516001600160601b03161561343d5760405163194fdc7f60e31b815260040160405180910390fd5b600380545f9190613450906001906169d9565b8154811061346057613460616947565b5f9182526020808320909101805467ffffffffffffffff1683526002909152604090912084905590508060036134976001866169d9565b815481106134a7576134a7616947565b5f918252602080832084549201805467ffffffffffffffff93841667ffffffffffffffff19821681178355865473ffffffffffffffffffffffffffffffffffffffff1990921617600160401b918290046001600160601b039081169092021780835595546001600160a01b03909616600160a01b96879004909116909502949094179093558616815260029091526040812055600380548061354b5761354b616b01565b5f8281526020812082015f199081018290559091019091556135779067ffffffffffffffff86166155a0565b5067ffffffffffffffff84165f81815260056020908152604091829020805460ff1916905590519182527f8712d9d347359238729023dc8640e38f0d4f8ad25d0e079c2208a885a51a023f9101612988565b5f6135d26155ab565b805490915060ff600160401b820416159067ffffffffffffffff165f811580156135f95750825b90505f8267ffffffffffffffff1660011480156136155750303b155b905081158015613623575080155b1561365a576040517ff92ee8a900000000000000000000000000000000000000000000000000000000815260040160405180910390fd5b845467ffffffffffffffff19166001178555831561368957845468ff00000000000000001916600160401b1785555b6136916155d3565b6136996155d3565b61370d6040518060400160405280601381526020017f4b696e747375205374616b6564204d6f6e6164000000000000000000000000008152506040518060400160405280600481526020017f734d4f4e000000000000000000000000000000000000000000000000000000008152506155db565b6137156155d3565b61371d6155d3565b6137275f876145ac565b506137527f902b1971fb3d9217703fb59d9a8bf53ee64da1be6756f20cebc090dd4c37f7d8876145ac565b5061377d7fe1777bd22f637fc57eadcf9d877079117b44537a53059b1670036696018f564c876145ac565b506137a87fbb12ed6b435a5fce787412ceb233935082e39147d977bc587eb74d0f97f48d2c876145ac565b506137d37f1d770361ad1ba5c90793f5d8711778cd963118207b8b46db0f36c72a65b0b451876145ac565b506137fe7f13172b8201242833f26d88301b6e27aa2235ec2d9b2c92a1ed33678f0ee068fa876145ac565b506138297f13172b8201242833f26d88301b6e27aa2235ec2d9b2c92a1ed33678f0ee068fa806155ed565b6138537f359946d964cb1f92e24841dd25d0e8706f1ab6dd13500522367deddd927658d8876145ac565b5061387e7f359946d964cb1f92e24841dd25d0e8706f1ab6dd13500522367deddd927658d8806155ed565b6138a87f78a7a80e95d53cedc2e84890fb7aaf754249c544050913a3263a2abf9d66f538876145ac565b506138d37f78a7a80e95d53cedc2e84890fb7aaf754249c544050913a3263a2abf9d66f538806155ed565b6138fd7f1ea2b19b7ab22acb68ebeb58b5cb9eab43e3e119ebbd3159fdcddfc5b8c538b8876145ac565b506139287f1ea2b19b7ab22acb68ebeb58b5cb9eab43e3e119ebbd3159fdcddfc5b8c538b8806155ed565b6139527ff146182d150a5b368b6d283f87aeae1f25c21b02ff55cf16848704ade176a5cb876145ac565b50604680547fffffffffffffffffffffffffffffff0000000000ffffffffffffffffffffffff16600160601b1790556040805160608101825260c88082525f60208301524264ffffffffff169190920181905260488054600160701b9092027fffffffffffffffffffffffffff000000000000000000000000000000000000009092169190911790911790556047805461ffff191660051790558315613a3757845468ff000000000000000019168555604051600181527fc7f505b2f371ae2175ee4913f4499e1f2633a7b5936321eed1cdaeb6115181d29060200160405180910390a15b505050505050565b613a47613ebd565b805147905f5b818167ffffffffffffffff161015613a9b57613a8b848267ffffffffffffffff1681518110613a7e57613a7e616947565b602002602001015161568e565b613a948161696f565b9050613a4d565b505f613aa783476169d9565b9050805f03613ac95760405163a88ee57760e01b815260040160405180910390fd5b604680548291905f90613ae69084906001600160601b03166169ba565b82546101009290920a6001600160601b03818102199093169183160217909155604654600160601b900464ffffffffff165f908152604b60205260408120805485945090926120c5918591166169ba565b5f8281527f02dd7bc7dec4dceedda775e58dd541e08a116c6c53815c0bd028192f7b6268006020526040902060010154613b70816140e9565b6113ce83836146ad565b613b82615733565b67ffffffffffffffff81165f9081526005602052604090205460ff1615613bbc5760405163a88ee57760e01b815260040160405180910390fd5b5f613bc68261521a565b805460048054929350600160401b9091046001600160601b0316915f90613bee9084906169d9565b9091555050805473ffffffffffffffffffffffff00000000000000001916815567ffffffffffffffff82165f81815260056020908152604091829020805460ff1916600117905590519182527fa46b2e9bd92f27216c46d5a9772c39431f3f381285ee1dacb1f1034fe603b10b9101612dbb565b6046545f906001600160601b0316808203613c7f57829150613cb2565b80613c88611eb5565b6001600160601b0316846001600160601b0316613ca59190616a88565b613caf9190616ab3565b91505b50919050565b60606003805480602002602001604051908101604052809291908181526020015f905b82821015613d38575f848152602090819020604080516060810182529185015467ffffffffffffffff811683526001600160601b03600160401b8204811684860152600160a01b9091041690820152825260019092019101613cdb565b50505050905090565b7f13172b8201242833f26d88301b6e27aa2235ec2d9b2c92a1ed33678f0ee068fa613d6b816140e9565b60328261ffff161115613daa576040517ffc5bee1200000000000000000000000000000000000000000000000000000000815260040160405180910390fd5b60475461ffff90811690831603613dd45760405163a88ee57760e01b815260040160405180910390fd5b6047805461ffff191661ffff84169081179091556040519081527f0531f91c02fe1dc8b306233f5edba5c1b65a79a064d26a40b6082bc9d887ecba90602001612dbb565b5f5f613e22611eb5565b6001600160601b03169050805f03613e3c57829150613cb2565b6046548190613ca5906001600160601b03908116908616616a88565b604d602052815f5260405f208181548110613e71575f80fd5b5f918252602090912001546001600160601b038082169350600160601b8204169150600160c01b810464ffffffffff1690600160e81b900461ffff1684565b611eb0838383600161575d565b7fcd5ed15c6e187e77e9aee88184c21f4f2182ab5827cb3b7e07fbedcd63f033005460ff1615613f19576040517fd93c066500000000000000000000000000000000000000000000000000000000815260040160405180910390fd5b565b5f7fd5d321e774be746819c1749e69f27b3f3e063f791b56826404d788d5a63ed60067ffffffffffffffff84165f9081526020828152604080832081518083019092525460ff8082168352610100909104811692820183905293945092851610613f89578160200151613f8b565b835b90508060ff165f03613f9e575050505050565b5f5b8160ff16811015614076575f613fbb845f01518360ff614751565b6040517faed2ee7300000000000000000000000000000000000000000000000000000000815267ffffffffffffffff8916600482015260ff821660248201529091505f906110009063aed2ee73906044016020604051808303815f875af1158015614028573d5f5f3e3d5ffd5b505050506040513d601f19601f8201168201806040525081019061404c9190616b15565b90508061406c57604051633f48ffd960e21b815260040160405180910390fd5b5050600101613fa0565b508151614085908260ff614751565b60ff16825260208201805182919061409e908390616b30565b60ff90811690915267ffffffffffffffff9096165f90815260209485526040902083518154959094015187166101000261ffff19909516939096169290921792909217909355505050565b61201b8133615886565b5f612710614102600182616b49565b61ffff166141108486616a88565b61411a9190616a75565b6119459190616ab3565b81545f90614134906001906169d9565b90508082146142715782818154811061414f5761414f616947565b905f5260205f200183838154811061416957614169616947565b5f91825260209091208254910180546bffffffffffffffffffffffff1981166001600160601b0393841690811783558454600160601b908190049094169093027fffffffffffffffff00000000000000000000000000000000000000000000000090911690921791909117808255825464ffffffffff600160c01b9182900416027fffffff0000000000ffffffffffffffffffffffffffffffffffffffffffffffff821681178355925461ffff600160e81b9182900416027fff0000ffffffffffffffffffffffffffffffffffffffffffffffffffffffffff9093167fff00000000000000ffffffffffffffffffffffffffffffffffffffffffffffff909116179190911790555b8280548061428157614281616b01565b5f8281526020902081015f1990810180547fff00000000000000000000000000000000000000000000000000000000000000169055019055505050565b6001600160a01b038316614305576040517f96c6fd1e0000000000000000000000000000000000000000000000000000000081525f60048201526024015b60405180910390fd5b6001600160a01b038216614347576040517fec442f050000000000000000000000000000000000000000000000000000000081525f60048201526024016142fc565b611eb0838383615912565b6040805160608101825260485461ffff811682526201000081046001600160601b03166020830152600160701b900464ffffffffff16918101829052905f9061439b90426169d9565b90508015612659575f6143dd83602001516001600160601b03166128347f52c63247e1f47db19d5ce0460030c497f067ca4cebf71ba98eeadabe20bace025490565b6001600160601b031690505f6301e133806143f88484616a88565b6144029190616ab3565b90508084602001516001600160601b031661441d9190616a75565b6001600160601b0316602085018190524264ffffffffff166040860181905294516048805461ffff9092167fffffffffffffffffffffffffffffffffffff00000000000000000000000000009092169190911762010000909202919091177fffffffffffffffffffffffffff0000000000ffffffffffffffffffffffffffff16600160701b90950294909417909355505050565b6001600160a01b0382166144f3576040517fec442f050000000000000000000000000000000000000000000000000000000081525f60048201526024016142fc565b6126595f8383615912565b6001600160a01b038381165f9081527f52c63247e1f47db19d5ce0460030c497f067ca4cebf71ba98eeadabe20bace0160209081526040808320938616835292905220545f198110156113ce578181101561459e576040517ffb8f41b20000000000000000000000000000000000000000000000000000000081526001600160a01b038416600482015260248101829052604481018390526064016142fc565b6113ce84848484035f61575d565b5f8281527f02dd7bc7dec4dceedda775e58dd541e08a116c6c53815c0bd028192f7b626800602081815260408084206001600160a01b038616855290915282205460ff1661466f575f848152602082815260408083206001600160a01b03871684529091529020805460ff191660011790556146253390565b6001600160a01b0316836001600160a01b0316857f2f8788117e7eff1d82e926ec794901d17c78024a50270940304540a733656f0d60405160405180910390a46001915050611283565b5f915050611283565b7f902b1971fb3d9217703fb59d9a8bf53ee64da1be6756f20cebc090dd4c37f7d861201b816140e9565b5f6119458383615a77565b5f8281527f02dd7bc7dec4dceedda775e58dd541e08a116c6c53815c0bd028192f7b626800602081815260408084206001600160a01b038616855290915282205460ff161561466f575f848152602082815260408083206001600160a01b0387168085529252808320805460ff1916905551339287917ff6391f5c32d9c69d2a47ea670b442974b53935d1edc7fd64eb21e047a839171b9190a46001915050611283565b5f8160ff168360ff168560ff166147689190616a75565b6147729190616b63565b949350505050565b60605f61194583615ac3565b61478e615b1c565b7fcd5ed15c6e187e77e9aee88184c21f4f2182ab5827cb3b7e07fbedcd63f03300805460ff191681557f5db9ee0a495bf2e6ff9c91a7834c1ba4fdd244a5e8aa4e537bd38aeae4b073aa335b6040516001600160a01b03909116815260200160405180910390a150565b67ffffffffffffffff81165f9081527fd5d321e774be746819c1749e69f27b3f3e063f791b56826404d788d5a63ed60160205260409020547fd5d321e774be746819c1749e69f27b3f3e063f791b56826404d788d5a63ed6009060ff1661488b576040517f78297a8c00000000000000000000000000000000000000000000000000000000815260040160405180910390fd5b6040517faed2ee7300000000000000000000000000000000000000000000000000000000815267ffffffffffffffff8316600482015260ff60248201525f906110009063aed2ee73906044016020604051808303815f875af11580156148f3573d5f5f3e3d5ffd5b505050506040513d601f19601f820116820180604052508101906149179190616b15565b90508061493757604051633f48ffd960e21b815260040160405180910390fd5b5067ffffffffffffffff9091165f908152600190910160205260409020805460ff19169055565b5f5f5f5f61496a615368565b915091508193508061498657614981846001616ac6565b614991565b614991846002616ac6565b925050509091565b6004545f908082036149d7576040517f098404de00000000000000000000000000000000000000000000000000000000815260040160405180910390fd5b5f6003805480602002602001604051908101604052809291908181526020015f905b82821015614a56575f848152602090819020604080516060810182529185015467ffffffffffffffff811683526001600160601b03600160401b8204811684860152600160a01b90910416908201528252600190920191016149f9565b5050505090505f5f614a7c838888614a6e919061699b565b6001600160601b0316614dde565b9350509250505f8789614a8f919061699b565b6001600160601b031690505f845190505f5b81811015614bac575f856001600160601b0316858381518110614ac657614ac6616947565b60200260200101516001600160601b031685614ae29190616a88565b614aec9190616ab3565b90506001600160601b03811615614ba35780878381518110614b1057614b10616947565b602002602001015160400151614b2691906169ba565b60038381548110614b3957614b39616947565b905f5260205f20015f0160146101000a8154816001600160601b0302191690836001600160601b03160217905550614b96878381518110614b7c57614b7c616947565b60200260200101515f0151826001600160601b0316615b77565b614ba0818a6169ba565b98505b50600101614aa1565b505050505050509392505050565b5f5f6003805480602002602001604051908101604052809291908181526020015f905b82821015614c3a575f848152602090819020604080516060810182529185015467ffffffffffffffff811683526001600160601b03600160401b8204811684860152600160a01b9091041690820152825260019092019101614bdd565b5050505090505f5f614c52838887614a6e919061699b565b5092505091505f8688614c65919061699b565b6001600160601b031690505f845190505f5b81811015614d84575f856001600160601b0316858381518110614c9c57614c9c616947565b60200260200101516001600160601b031685614cb89190616a88565b614cc29190616ab3565b90506001600160601b03811615614d7b5780878381518110614ce657614ce6616947565b602002602001015160400151614cfc919061699b565b60038381548110614d0f57614d0f616947565b5f91825260209091200180546001600160601b0392909216600160a01b026001600160a01b03909216919091179055614d4881896169ba565b9750614d79878381518110614d5f57614d5f616947565b60200260200101515f0151826001600160601b0316615c1f565b505b50600101614c77565b5050505050509392505050565b6001600160a01b038216614dd3576040517f96c6fd1e0000000000000000000000000000000000000000000000000000000081525f60048201526024016142fc565b612659825f83615912565b60045482515f91829160609182918067ffffffffffffffff811115614e0557614e05616289565b604051908082528060200260200182016040528015614e2e578160200160208202803683370190505b5093508067ffffffffffffffff811115614e4a57614e4a616289565b604051908082528060200260200182016040528015614e73578160200160208202803683370190505b5092505f5b81811015614fb1575f898281518110614e9357614e93616947565b6020026020010151604001516001600160601b031690505f5f8511614eb8575f614ef5565b848b8481518110614ecb57614ecb616947565b6020026020010151602001516001600160601b03168b614eeb9190616a88565b614ef59190616ab3565b905080821115614f51575f614f0a82846169d9565b9050614f16818b6169ba565b995080888581518110614f2b57614f2b616947565b60200260200101906001600160601b031690816001600160601b03168152505050614fa7565b81811115614fa7575f614f6483836169d9565b9050614f70818a6169ba565b985080878581518110614f8557614f85616947565b60200260200101906001600160601b031690816001600160601b031681525050505b5050600101614e78565b50505092959194509250565b306001600160a01b037f000000000000000000000000000000000000000000000000000000000000000016148061505657507f00000000000000000000000000000000000000000000000000000000000000006001600160a01b031661504a7f360894a13ba1a3210667c828492db98dca3e2076cc3735a920a3ca505d382bbc546001600160a01b031690565b6001600160a01b031614155b15613f19576040517fe07c8dba00000000000000000000000000000000000000000000000000000000815260040160405180910390fd5b7f1ea2b19b7ab22acb68ebeb58b5cb9eab43e3e119ebbd3159fdcddfc5b8c538b8612659816140e9565b816001600160a01b03166352d1902d6040518163ffffffff1660e01b8152600401602060405180830381865afa925050508015615111575060408051601f3d908101601f1916820190925261510e91810190616b76565b60015b615152576040517f4c9c8ce30000000000000000000000000000000000000000000000000000000081526001600160a01b03831660048201526024016142fc565b7f360894a13ba1a3210667c828492db98dca3e2076cc3735a920a3ca505d382bbc81146151ae576040517faa1d49a4000000000000000000000000000000000000000000000000000000008152600481018290526024016142fc565b611eb08383615d3d565b306001600160a01b037f00000000000000000000000000000000000000000000000000000000000000001614613f19576040517fe07c8dba00000000000000000000000000000000000000000000000000000000815260040160405180910390fd5b67ffffffffffffffff81165f9081526002602052604081205480820361526c576040517f30812d4200000000000000000000000000000000000000000000000000000000815260040160405180910390fd5b60036152796001836169d9565b8154811061528957615289616947565b905f5260205f2001915050919050565b67ffffffffffffffff82165f9081527fd5d321e774be746819c1749e69f27b3f3e063f791b56826404d788d5a63ed60160205260408120547fd5d321e774be746819c1749e69f27b3f3e063f791b56826404d788d5a63ed6009060ff161561532d576040517f500389a000000000000000000000000000000000000000000000000000000000815260040160405180910390fd5b60ff915061533c848484615d92565b67ffffffffffffffff9093165f908152600193840160205260409020805460ff19169093179092555090565b5f5f6110006001600160a01b031663757991a86040518163ffffffff1660e01b815260040160408051808303815f875af11580156153a8573d5f5f3e3d5ffd5b505050506040513d601f19601f820116820180604052508101906153cc9190616b8d565b915091509091565b5f46608f036153e35750600190565b4661279f036153f25750600190565b466175bf036154015750600190565b50600190565b61540f613ebd565b7fcd5ed15c6e187e77e9aee88184c21f4f2182ab5827cb3b7e07fbedcd63f03300805460ff191660011781557f62e78cea01bee320cd4e420270b5ea74000d11b0c9f74754ebdbfc544b05a258336147da565b7fe1777bd22f637fc57eadcf9d877079117b44537a53059b1670036696018f564c61201b816140e9565b7f1d770361ad1ba5c90793f5d8711778cd963118207b8b46db0f36c72a65b0b4516154b6816140e9565b67ffffffffffffffff82165f9081527fd5d321e774be746819c1749e69f27b3f3e063f791b56826404d788d5a63ed6006020526040812054610100900460ff16111561552e576040517f4d078c7100000000000000000000000000000000000000000000000000000000815260040160405180910390fd5b67ffffffffffffffff82165f9081527fd5d321e774be746819c1749e69f27b3f3e063f791b56826404d788d5a63ed601602052604090205460ff1615612659576040517f4d078c7100000000000000000000000000000000000000000000000000000000815260040160405180910390fd5b5f6119458383615e47565b5f807ff0c57e16840df040f15088dc2f81fe391c3923bec73e23a9662efc9c229c6a00611283565b613f19615f21565b6155e3615f21565b6126598282615f5f565b7f02dd7bc7dec4dceedda775e58dd541e08a116c6c53815c0bd028192f7b6268005f615646845f9081527f02dd7bc7dec4dceedda775e58dd541e08a116c6c53815c0bd028192f7b626800602052604090206001015490565b5f85815260208490526040808220600101869055519192508491839187917fbd79b86ffe0ab8e8776151514217cd7cacd52c909f66475c3af44e129f0b00ff9190a450505050565b6040517fa76e2ca500000000000000000000000000000000000000000000000000000000815267ffffffffffffffff821660048201525f906110009063a76e2ca5906024016020604051808303815f875af11580156156ef573d5f5f3e3d5ffd5b505050506040513d601f19601f820116820180604052508101906157139190616b15565b90508061265957604051633f48ffd960e21b815260040160405180910390fd5b7fbb12ed6b435a5fce787412ceb233935082e39147d977bc587eb74d0f97f48d2c61201b816140e9565b7f52c63247e1f47db19d5ce0460030c497f067ca4cebf71ba98eeadabe20bace006001600160a01b0385166157c0576040517fe602df050000000000000000000000000000000000000000000000000000000081525f60048201526024016142fc565b6001600160a01b038416615802576040517f94280d620000000000000000000000000000000000000000000000000000000081525f60048201526024016142fc565b6001600160a01b038086165f9081526001830160209081526040808320938816835292905220839055811561587f57836001600160a01b0316856001600160a01b03167f8c5be1e5ebec7d5bd14f71427d1e84f3dd0314c0f7b2291e5b200ac8c7c3b9258560405161587691815260200190565b60405180910390a35b5050505050565b5f8281527f02dd7bc7dec4dceedda775e58dd541e08a116c6c53815c0bd028192f7b626800602090815260408083206001600160a01b038516845290915290205460ff16612659576040517fe2517d3f0000000000000000000000000000000000000000000000000000000081526001600160a01b0382166004820152602481018390526044016142fc565b7f52c63247e1f47db19d5ce0460030c497f067ca4cebf71ba98eeadabe20bace006001600160a01b03841661595f5781816002015f8282546159549190616a75565b909155506159e89050565b6001600160a01b0384165f90815260208290526040902054828110156159ca576040517fe450d38c0000000000000000000000000000000000000000000000000000000081526001600160a01b038616600482015260248101829052604481018490526064016142fc565b6001600160a01b0385165f9081526020839052604090209083900390555b6001600160a01b038316615a06576002810180548390039055615a24565b6001600160a01b0383165f9081526020829052604090208054830190555b826001600160a01b0316846001600160a01b03167fddf252ad1be2c89b69c2b068fc378daa952ba7f163c4a11628f55a4df523b3ef84604051615a6991815260200190565b60405180910390a350505050565b5f818152600183016020526040812054615abc57508154600181810184555f848152602080822090930184905584548482528286019093526040902091909155611283565b505f611283565b6060815f01805480602002602001604051908101604052809291908181526020018280548015615b1057602002820191905f5260205f20905b815481526020019060010190808311615afc575b50505050509050919050565b7fcd5ed15c6e187e77e9aee88184c21f4f2182ab5827cb3b7e07fbedcd63f033005460ff16613f19576040517f8dfc202b00000000000000000000000000000000000000000000000000000000815260040160405180910390fd5b6040517f84994fec00000000000000000000000000000000000000000000000000000000815267ffffffffffffffff831660048201525f90611000906384994fec90849060240160206040518083038185885af1158015615bda573d5f5f3e3d5ffd5b50505050506040513d601f19601f82011682018060405250810190615bff9190616b15565b905080611eb057604051633f48ffd960e21b815260040160405180910390fd5b67ffffffffffffffff82165f9081527fd5d321e774be746819c1749e69f27b3f3e063f791b56826404d788d5a63ed600602081815260408084208151808301909252805460ff808216845261010090910416928201839052917fffffffffffffffffffffffffffffffffffffffffffffffffffffffffffffff0101615cd0576040517f500389a000000000000000000000000000000000000000000000000000000000815260040160405180910390fd5b615ce3815f0151826020015160ff614751565b935080602001516001615cf69190616bba565b825460ff91909116610100027fffffffffffffffffffffffffffffffffffffffffffffffffffffffffffff00ff909116178255615d34868686615d92565b50505092915050565b615d4682615fc2565b6040516001600160a01b038316907fbc7cd75a20ee27fd9adebab32041f755214dbc6bffa90cc0225b39da2e5c2d3b905f90a2805115615d8a57611eb0828261605e565b6126596160d0565b6040517f5cf4151400000000000000000000000000000000000000000000000000000000815267ffffffffffffffff841660048201526024810183905260ff821660448201525f9061100090635cf41514906064016020604051808303815f875af1158015615e03573d5f5f3e3d5ffd5b505050506040513d601f19601f82011682018060405250810190615e279190616b15565b9050806113ce57604051633f48ffd960e21b815260040160405180910390fd5b5f818152600183016020526040812054801561466f575f615e696001836169d9565b85549091505f90615e7c906001906169d9565b9050808214615edb575f865f018281548110615e9a57615e9a616947565b905f5260205f200154905080875f018481548110615eba57615eba616947565b5f918252602080832090910192909255918252600188019052604090208390555b8554869080615eec57615eec616b01565b600190038181905f5260205f20015f90559055856001015f8681526020019081526020015f205f905560019350505050611283565b615f29616108565b613f19576040517fd7e6bcf800000000000000000000000000000000000000000000000000000000815260040160405180910390fd5b615f67615f21565b7f52c63247e1f47db19d5ce0460030c497f067ca4cebf71ba98eeadabe20bace007f52c63247e1f47db19d5ce0460030c497f067ca4cebf71ba98eeadabe20bace03615fb38482616c17565b50600481016113ce8382616c17565b806001600160a01b03163b5f03616010576040517f4c9c8ce30000000000000000000000000000000000000000000000000000000081526001600160a01b03821660048201526024016142fc565b7f360894a13ba1a3210667c828492db98dca3e2076cc3735a920a3ca505d382bbc805473ffffffffffffffffffffffffffffffffffffffff19166001600160a01b0392909216919091179055565b60605f5f846001600160a01b03168460405161607a9190616cd2565b5f60405180830381855af49150503d805f81146160b2576040519150601f19603f3d011682016040523d82523d5f602084013e6160b7565b606091505b50915091506160c7858383616121565b95945050505050565b3415613f19576040517fb398979f00000000000000000000000000000000000000000000000000000000815260040160405180910390fd5b5f6161116155ab565b54600160401b900460ff16919050565b6060826161365761613182616196565b611945565b815115801561614d57506001600160a01b0384163b155b1561618f576040517f9996b3150000000000000000000000000000000000000000000000000000000081526001600160a01b03851660048201526024016142fc565b5080611945565b8051156161a557805160208201fd5b6040517fd6bda27500000000000000000000000000000000000000000000000000000000815260040160405180910390fd5b5f602082840312156161e7575f5ffd5b81357fffffffff0000000000000000000000000000000000000000000000000000000081168114611945575f5ffd5b602081525f82518060208401528060208501604085015e5f604082850101526040601f19601f83011684010191505092915050565b6001600160a01b038116811461201b575f5ffd5b5f5f60408385031215616270575f5ffd5b823561627b8161624b565b946020939093013593505050565b634e487b7160e01b5f52604160045260245ffd5b604051601f8201601f1916810167ffffffffffffffff811182821017156162c6576162c6616289565b604052919050565b67ffffffffffffffff8116811461201b575f5ffd5b5f82601f8301126162f2575f5ffd5b813567ffffffffffffffff81111561630c5761630c616289565b8060051b61631c6020820161629d565b91825260208185018101929081019086841115616337575f5ffd5b6020860192505b83831015616362578235616351816162ce565b82526020928301929091019061633e565b9695505050505050565b5f5f6040838503121561637d575f5ffd5b823567ffffffffffffffff811115616393575f5ffd5b61639f858286016162e3565b925050602083013560ff811681146163b5575f5ffd5b809150509250929050565b5f602082840312156163d0575f5ffd5b81356119458161624b565b602080825282518282018190525f918401906040840190835b818110156164555783516001600160601b0381511684526001600160601b03602082015116602085015264ffffffffff604082015116604085015261ffff6060820151166060850152506080830192506020840193506001810190506163f4565b509095945050505050565b801515811461201b575f5ffd5b5f5f6040838503121561647e575f5ffd5b82356164898161624b565b915060208301356163b581616460565b5f602082840312156164a9575f5ffd5b5035919050565b80356001600160601b03811681146164c6575f5ffd5b919050565b5f5f604083850312156164dc575f5ffd5b6164e5836164b0565b915060208301356163b58161624b565b5f5f5f60608486031215616507575f5ffd5b83356165128161624b565b925060208401356165228161624b565b929592945050506040919091013590565b5f5f60408385031215616544575f5ffd5b61654d836164b0565b915061655b602084016164b0565b90509250929050565b5f60208284031215616574575f5ffd5b8135611945816162ce565b5f5f60408385031215616590575f5ffd5b8235915060208301356163b58161624b565b602080825282518282018190525f918401906040840190835b8181101561645557835160ff168352602093840193909201916001016165bb565b602080825282518282018190525f918401906040840190835b818110156164555783518352602093840193909201916001016165f5565b5f60208284031215616623575f5ffd5b813567ffffffffffffffff811115616639575f5ffd5b614772848285016162e3565b5f60208284031215616655575f5ffd5b611945826164b0565b5f8151808452602084019350602083015f5b828110156166975781516001600160601b0316865260209586019590910190600101616670565b5093949350505050565b6001600160601b03851681526001600160601b0384166020820152608060408201525f6166d1608083018561665e565b82810360608401526166e3818561665e565b979650505050505050565b5f5f604083850312156166ff575f5ffd5b823561670a8161624b565b9150602083013567ffffffffffffffff811115616725575f5ffd5b8301601f81018513616735575f5ffd5b803567ffffffffffffffff81111561674f5761674f616289565b6167626020601f19601f8401160161629d565b818152866020838501011115616776575f5ffd5b816020840160208301375f602083830101528093505050509250929050565b60608101611283828467ffffffffffffffff81511682526001600160601b0360208201511660208301526001600160601b0360408201511660408301525050565b5f5f604083850312156167e7575f5ffd5b82356164e5816162ce565b5f60208284031215616802575f5ffd5b813561ffff81168114611945575f5ffd5b5f5f60208385031215616824575f5ffd5b823567ffffffffffffffff81111561683a575f5ffd5b8301601f8101851361684a575f5ffd5b803567ffffffffffffffff811115616860575f5ffd5b856020606083028401011115616874575f5ffd5b6020919091019590945092505050565b5f5f60408385031215616895575f5ffd5b82356164e58161624b565b602080825282518282018190525f918401906040840190835b81811015616455576168ff83855167ffffffffffffffff81511682526001600160601b0360208201511660208301526001600160601b0360408201511660408301525050565b60209390930192606092909201916001016168b9565b600181811c9082168061692957607f821691505b602082108103613cb257634e487b7160e01b5f52602260045260245ffd5b634e487b7160e01b5f52603260045260245ffd5b634e487b7160e01b5f52601160045260245ffd5b5f67ffffffffffffffff821667ffffffffffffffff81036169925761699261695b565b60010192915050565b6001600160601b0382811682821603908111156112835761128361695b565b6001600160601b0381811683821601908111156112835761128361695b565b818103818111156112835761128361695b565b64ffffffffff82811682821603908111156112835761128361695b565b64ffffffffff81811683821601908111156112835761128361695b565b5f5f5f5f5f5f5f60e0888a031215616a3c575f5ffd5b5050855160208701516040880151606089015160808a015160a08b015160c0909b0151949c939b50919990985090965094509092509050565b808201808211156112835761128361695b565b80820281158282048414176112835761128361695b565b634e487b7160e01b5f52601260045260245ffd5b5f82616ac157616ac1616a9f565b500490565b67ffffffffffffffff81811683821601908111156112835761128361695b565b5f60208284031215616af6575f5ffd5b813561194581616460565b634e487b7160e01b5f52603160045260245ffd5b5f60208284031215616b25575f5ffd5b815161194581616460565b60ff82811682821603908111156112835761128361695b565b61ffff82811682821603908111156112835761128361695b565b5f82616b7157616b71616a9f565b500690565b5f60208284031215616b86575f5ffd5b5051919050565b5f5f60408385031215616b9e575f5ffd5b8251616ba9816162ce565b60208401519092506163b581616460565b60ff81811683821601908111156112835761128361695b565b601f821115611eb057805f5260205f20601f840160051c81016020851015616bf85750805b601f840160051c820191505b8181101561587f575f8155600101616c04565b815167ffffffffffffffff811115616c3157616c31616289565b616c4581616c3f8454616915565b84616bd3565b6020601f821160018114616c77575f8315616c605750848201515b5f19600385901b1c1916600184901b17845561587f565b5f84815260208120601f198516915b82811015616ca65787850151825560209485019460019092019101616c86565b5084821015616cc357868401515f19600387901b60f8161c191681555b50505050600190811b01905550565b5f82518060208501845e5f92019182525091905056fea2646970667358221220dd077e4d557bb135eaf8ca467f61cce23be8e96af577cc7a810e99a63aadd08964736f6c634300081e0033","linkReferences":{}},"methodIdentifiers":{"DEFAULT_ADMIN_ROLE()":"a217fddf","MINIMUM_CONTRIBUTE_THRESHOLD()":"86bb1d6e","ROLE_ADD_NODE()":"22fd4ad5","ROLE_DISABLE_NODE()":"e8ce8922","ROLE_FEE_CLAIMER()":"06c7dbc4","ROLE_FEE_EXEMPTION()":"a30fefe1","ROLE_FEE_SETTER()":"1b8e0db6","ROLE_PAUSE()":"4ff0241a","ROLE_REMOVE_NODE()":"5838b2fe","ROLE_UPDATE_WEIGHTS()":"63311d3d","ROLE_UPGRADE()":"2a7d8acb","UPGRADE_INTERFACE_VERSION()":"ad3cb1cc","addNode(uint64)":"337b2b6e","allowance(address,address)":"dd62ed3e","approve(address,uint256)":"095ea7b3","balanceOf(address)":"70a08231","batchDepositRequests(uint256)":"77654f34","batchSubmissions(uint256)":"78f908e1","batchWithdrawRequests(uint256)":"4beae6e3","calculateStakeDeltas(uint96)":"4a797bd5","cancelUnlockRequest(uint256)":"1610247b","claimProtocolFees(address)":"69ce6d47","compound(uint64[])":"cf5e2743","contributeToPool(address)":"a0e3cdd6","convertToAssets(uint96)":"fb9848e4","convertToShares(uint96)":"df235fe6","currentBatchId()":"0a763da1","decimals()":"313ce567","deposit(uint96,address)":"1c3477dd","disableNode(uint64)":"d8a9fe50","getAllUserUnlockRequests(address)":"0b52f7b1","getDelegator(uint64,address)":"573c1ce0","getExitFeeBips()":"fde73f7d","getManagementFeeBips()":"bf7df8e0","getMintableProtocolShares()":"615bfc45","getNodeIds()":"3e367afa","getNodes()":"e29581aa","getRoleAdmin(bytes32)":"248a9ca3","getWithdrawIds(uint64)":"3b5b4765","getWithdrawIdsSize(uint64)":"7a6d59d5","grantRole(bytes32,address)":"2f2ff15d","hasRole(bytes32,address)":"91d14854","initialize(address)":"c4d66de8","isExitFeeExempt(address)":"0bf14d9b","isForceWithdrawPending(uint64)":"2584601f","isNodeDisabled(uint64)":"d6531de5","name()":"06fdde03","nodes(uint256)":"1c53c280","pause()":"8456cb59","paused()":"5c975abb","proxiableUUID()":"52d1902d","redeem(uint256,address)":"7bde82f2","removeNode(uint64)":"aedf6d51","renounceRole(bytes32,address)":"36568abe","requestUnlock(uint96,uint96)":"24f67e18","revokeRole(bytes32,address)":"d547741f","setExitFee(uint16)":"f75b0404","setExitFeeExemption(address,bool)":"15230e80","setManagementFee(uint16)":"8dd09af3","submitBatch()":"46115383","supportsInterface(bytes4)":"01ffc9a7","sweep(uint64[],uint8)":"0a9f9ee2","sweepForced(uint64[])":"43abcf32","symbol()":"95d89b41","totalPooled()":"6ec21cc8","totalShares()":"3a98ef39","totalSupply()":"18160ddd","totalWeight()":"96c82e57","transfer(address,uint256)":"a9059cbb","transferFrom(address,address,uint256)":"23b872dd","unbondDisableNode(uint64)":"733897b7","unpause()":"3f4ba83a","updateWeights((uint64,uint96,bool)[])":"a4b0b5a3","upgradeToAndCall(address,bytes)":"4f1ef286","userUnlockRequests(address,uint256)":"fd012e34","viewNodeByNodeId(uint64)":"540a26f3"},"id":57}