{"abi":[{"type":"constructor","inputs":[],"stateMutability":"nonpayable"},{"type":"receive","stateMutability":"payable"},{"type":"function","name":"DEFAULT_ADMIN_ROLE","inputs":[],"outputs":[{"name":"","type":"bytes32","internalType":"bytes32"}],"stateMutability":"view"},{"type":"function","name":"MINIMUM_CONTRIBUTE_THRESHOLD","inputs":[],"outputs":[{"name":"","type":"uint256","internalType":"uint256"}],"stateMutability":"view"},{"type":"function","name":"ROLE_ADD_NODE","inputs":[],"outputs":[{"name":"","type":"bytes32","internalType":"bytes32"}],"stateMutability":"view"},{"type":"function","name":"ROLE_DISABLE_NODE","inputs":[],"outputs":[{"name":"","type":"bytes32","internalType":"bytes32"}],"stateMutability":"view"},{"type":"function","name":"ROLE_FEE_CLAIMER","inputs":[],"outputs":[{"name":"","type":"bytes32","internalType":"bytes32"}],"stateMutability":"view"},{"type":"function","name":"ROLE_FEE_EXEMPTION","inputs":[],"outputs":[{"name":"","type":"bytes32","internalType":"bytes32"}],"stateMutability":"view"},{"type":"function","name":"ROLE_FEE_SETTER","inputs":[],"outputs":[{"name":"","type":"bytes32","internalType":"bytes32"}],"stateMutability":"view"},{"type":"function","name":"ROLE_PAUSE","inputs":[],"outputs":[{"name":"","type":"bytes32","internalType":"bytes32"}],"stateMutability":"view"},{"type":"function","name":"ROLE_REMOVE_NODE","inputs":[],"outputs":[{"name":"","type":"bytes32","internalType":"bytes32"}],"stateMutability":"view"},{"type":"function","name":"ROLE_TOGGLE_INSTANT_UNLOCK","inputs":[],"outputs":[{"name":"","type":"bytes32","internalType":"bytes32"}],"stateMutability":"view"},{"type":"function","name":"ROLE_UPDATE_WEIGHTS","inputs":[],"outputs":[{"name":"","type":"bytes32","internalType":"bytes32"}],"stateMutability":"view"},{"type":"function","name":"ROLE_UPGRADE","inputs":[],"outputs":[{"name":"","type":"bytes32","internalType":"bytes32"}],"stateMutability":"view"},{"type":"function","name":"UPGRADE_INTERFACE_VERSION","inputs":[],"outputs":[{"name":"","type":"string","internalType":"string"}],"stateMutability":"view"},{"type":"function","name":"addNode","inputs":[{"name":"nodeId","type":"uint64","internalType":"uint64"}],"outputs":[],"stateMutability":"nonpayable"},{"type":"function","name":"allowance","inputs":[{"name":"owner","type":"address","internalType":"address"},{"name":"spender","type":"address","internalType":"address"}],"outputs":[{"name":"","type":"uint256","internalType":"uint256"}],"stateMutability":"view"},{"type":"function","name":"approve","inputs":[{"name":"spender","type":"address","internalType":"address"},{"name":"value","type":"uint256","internalType":"uint256"}],"outputs":[{"name":"","type":"bool","internalType":"bool"}],"stateMutability":"nonpayable"},{"type":"function","name":"balanceOf","inputs":[{"name":"account","type":"address","internalType":"address"}],"outputs":[{"name":"","type":"uint256","internalType":"uint256"}],"stateMutability":"view"},{"type":"function","name":"batchDepositRequests","inputs":[{"name":"","type":"uint256","internalType":"uint256"}],"outputs":[{"name":"assets","type":"uint96","internalType":"uint96"},{"name":"shares","type":"uint96","internalType":"uint96"}],"stateMutability":"view"},{"type":"function","name":"batchSubmissions","inputs":[{"name":"","type":"uint256","internalType":"uint256"}],"outputs":[{"name":"submissionEpoch","type":"uint64","internalType":"uint64"},{"name":"activationEpoch","type":"uint64","internalType":"uint64"}],"stateMutability":"view"},{"type":"function","name":"batchWithdrawRequests","inputs":[{"name":"","type":"uint256","internalType":"uint256"}],"outputs":[{"name":"assets","type":"uint96","internalType":"uint96"},{"name":"shares","type":"uint96","internalType":"uint96"}],"stateMutability":"view"},{"type":"function","name":"cancelUnlockRequest","inputs":[{"name":"unlockIndex","type":"uint256","internalType":"uint256"}],"outputs":[],"stateMutability":"nonpayable"},{"type":"function","name":"claimProtocolFees","inputs":[{"name":"to","type":"address","internalType":"address"}],"outputs":[],"stateMutability":"nonpayable"},{"type":"function","name":"compound","inputs":[{"name":"nodeIds","type":"uint64[]","internalType":"uint64[]"}],"outputs":[],"stateMutability":"nonpayable"},{"type":"function","name":"contributeToPool","inputs":[{"name":"benefactor","type":"address","internalType":"address"}],"outputs":[],"stateMutability":"payable"},{"type":"function","name":"convertToAssets","inputs":[{"name":"shares","type":"uint96","internalType":"uint96"}],"outputs":[{"name":"assets","type":"uint96","internalType":"uint96"}],"stateMutability":"view"},{"type":"function","name":"convertToShares","inputs":[{"name":"assets","type":"uint96","internalType":"uint96"}],"outputs":[{"name":"shares","type":"uint96","internalType":"uint96"}],"stateMutability":"view"},{"type":"function","name":"currentBatchId","inputs":[],"outputs":[{"name":"","type":"uint40","internalType":"uint40"}],"stateMutability":"view"},{"type":"function","name":"decimals","inputs":[],"outputs":[{"name":"","type":"uint8","internalType":"uint8"}],"stateMutability":"view"},{"type":"function","name":"deposit","inputs":[{"name":"minShares","type":"uint96","internalType":"uint96"},{"name":"receiver","type":"address","internalType":"address"}],"outputs":[{"name":"shares","type":"uint96","internalType":"uint96"}],"stateMutability":"payable"},{"type":"function","name":"disableNode","inputs":[{"name":"nodeId","type":"uint64","internalType":"uint64"}],"outputs":[],"stateMutability":"nonpayable"},{"type":"function","name":"getAllUserUnlockRequests","inputs":[{"name":"user","type":"address","internalType":"address"}],"outputs":[{"name":"","type":"tuple[]","internalType":"struct StakedMonad.UnlockRequest[]","components":[{"name":"shares","type":"uint96","internalType":"uint96"},{"name":"spotValue","type":"uint96","internalType":"uint96"},{"name":"batchId","type":"uint40","internalType":"uint40"},{"name":"exitFeeInBips","type":"uint16","internalType":"uint16"}]}],"stateMutability":"view"},{"type":"function","name":"getDelegator","inputs":[{"name":"val_id","type":"uint64","internalType":"uint64"},{"name":"delegator","type":"address","internalType":"address"}],"outputs":[{"name":"stake","type":"uint256","internalType":"uint256"},{"name":"acc_reward_per_token","type":"uint256","internalType":"uint256"},{"name":"rewards","type":"uint256","internalType":"uint256"},{"name":"delta_stake","type":"uint256","internalType":"uint256"},{"name":"next_delta_stake","type":"uint256","internalType":"uint256"},{"name":"delta_epoch","type":"uint256","internalType":"uint256"},{"name":"next_delta_epoch","type":"uint256","internalType":"uint256"}],"stateMutability":"nonpayable"},{"type":"function","name":"getExitFeeBips","inputs":[],"outputs":[{"name":"","type":"uint16","internalType":"uint16"}],"stateMutability":"view"},{"type":"function","name":"getImbalances","inputs":[{"name":"newTotalStaked","type":"uint96","internalType":"uint96"}],"outputs":[{"name":"overAllocation","type":"uint96","internalType":"uint96"},{"name":"underAllocation","type":"uint96","internalType":"uint96"},{"name":"overAllocations","type":"uint96[]","internalType":"uint96[]"},{"name":"underAllocations","type":"uint96[]","internalType":"uint96[]"}],"stateMutability":"view"},{"type":"function","name":"getInstantUnlockableShares","inputs":[],"outputs":[{"name":"","type":"uint96","internalType":"uint96"}],"stateMutability":"view"},{"type":"function","name":"getManagementFeeBips","inputs":[],"outputs":[{"name":"","type":"uint16","internalType":"uint16"}],"stateMutability":"view"},{"type":"function","name":"getMintableProtocolShares","inputs":[],"outputs":[{"name":"shares","type":"uint96","internalType":"uint96"}],"stateMutability":"view"},{"type":"function","name":"getNodeIds","inputs":[],"outputs":[{"name":"","type":"uint256[]","internalType":"uint256[]"}],"stateMutability":"view"},{"type":"function","name":"getNodes","inputs":[],"outputs":[{"name":"","type":"tuple[]","internalType":"struct Registry.Node[]","components":[{"name":"id","type":"uint64","internalType":"uint64"},{"name":"weight","type":"uint96","internalType":"uint96"},{"name":"staked","type":"uint96","internalType":"uint96"}]}],"stateMutability":"view"},{"type":"function","name":"getRoleAdmin","inputs":[{"name":"role","type":"bytes32","internalType":"bytes32"}],"outputs":[{"name":"","type":"bytes32","internalType":"bytes32"}],"stateMutability":"view"},{"type":"function","name":"getWithdrawIds","inputs":[{"name":"val_id","type":"uint64","internalType":"uint64"}],"outputs":[{"name":"","type":"uint8[]","internalType":"uint8[]"}],"stateMutability":"view"},{"type":"function","name":"getWithdrawIdsSize","inputs":[{"name":"val_id","type":"uint64","internalType":"uint64"}],"outputs":[{"name":"","type":"uint256","internalType":"uint256"}],"stateMutability":"view"},{"type":"function","name":"grantRole","inputs":[{"name":"role","type":"bytes32","internalType":"bytes32"},{"name":"account","type":"address","internalType":"address"}],"outputs":[],"stateMutability":"nonpayable"},{"type":"function","name":"hasRole","inputs":[{"name":"role","type":"bytes32","internalType":"bytes32"},{"name":"account","type":"address","internalType":"address"}],"outputs":[{"name":"","type":"bool","internalType":"bool"}],"stateMutability":"view"},{"type":"function","name":"initialize","inputs":[{"name":"admin","type":"address","internalType":"address"}],"outputs":[],"stateMutability":"payable"},{"type":"function","name":"instantUnlock","inputs":[{"name":"shares","type":"uint96","internalType":"uint96"},{"name":"minSpotValue","type":"uint96","internalType":"uint96"},{"name":"receiver","type":"address","internalType":"address"}],"outputs":[{"name":"spotValue","type":"uint96","internalType":"uint96"}],"stateMutability":"nonpayable"},{"type":"function","name":"isExitFeeExempt","inputs":[{"name":"","type":"address","internalType":"address"}],"outputs":[{"name":"","type":"bool","internalType":"bool"}],"stateMutability":"view"},{"type":"function","name":"isForceWithdrawPending","inputs":[{"name":"val_id","type":"uint64","internalType":"uint64"}],"outputs":[{"name":"","type":"bool","internalType":"bool"}],"stateMutability":"view"},{"type":"function","name":"isInstantUnlockEnabled","inputs":[],"outputs":[{"name":"","type":"bool","internalType":"bool"}],"stateMutability":"view"},{"type":"function","name":"isNodeDisabled","inputs":[{"name":"","type":"uint64","internalType":"uint64"}],"outputs":[{"name":"","type":"bool","internalType":"bool"}],"stateMutability":"view"},{"type":"function","name":"name","inputs":[],"outputs":[{"name":"","type":"string","internalType":"string"}],"stateMutability":"view"},{"type":"function","name":"nodes","inputs":[{"name":"","type":"uint256","internalType":"uint256"}],"outputs":[{"name":"id","type":"uint64","internalType":"uint64"},{"name":"weight","type":"uint96","internalType":"uint96"},{"name":"staked","type":"uint96","internalType":"uint96"}],"stateMutability":"view"},{"type":"function","name":"pause","inputs":[],"outputs":[],"stateMutability":"nonpayable"},{"type":"function","name":"paused","inputs":[],"outputs":[{"name":"","type":"bool","internalType":"bool"}],"stateMutability":"view"},{"type":"function","name":"proxiableUUID","inputs":[],"outputs":[{"name":"","type":"bytes32","internalType":"bytes32"}],"stateMutability":"view"},{"type":"function","name":"redeem","inputs":[{"name":"unlockIndex","type":"uint256","internalType":"uint256"},{"name":"receiver","type":"address","internalType":"address payable"}],"outputs":[{"name":"assets","type":"uint96","internalType":"uint96"}],"stateMutability":"nonpayable"},{"type":"function","name":"removeNode","inputs":[{"name":"nodeId","type":"uint64","internalType":"uint64"}],"outputs":[],"stateMutability":"nonpayable"},{"type":"function","name":"renounceRole","inputs":[{"name":"role","type":"bytes32","internalType":"bytes32"},{"name":"callerConfirmation","type":"address","internalType":"address"}],"outputs":[],"stateMutability":"nonpayable"},{"type":"function","name":"requestUnlock","inputs":[{"name":"shares","type":"uint96","internalType":"uint96"},{"name":"minSpotValue","type":"uint96","internalType":"uint96"}],"outputs":[{"name":"spotValue","type":"uint96","internalType":"uint96"}],"stateMutability":"nonpayable"},{"type":"function","name":"revokeRole","inputs":[{"name":"role","type":"bytes32","internalType":"bytes32"},{"name":"account","type":"address","internalType":"address"}],"outputs":[],"stateMutability":"nonpayable"},{"type":"function","name":"setExitFee","inputs":[{"name":"newFee","type":"uint16","internalType":"uint16"}],"outputs":[],"stateMutability":"nonpayable"},{"type":"function","name":"setExitFeeExemption","inputs":[{"name":"user","type":"address","internalType":"address"},{"name":"isExempt","type":"bool","internalType":"bool"}],"outputs":[],"stateMutability":"nonpayable"},{"type":"function","name":"setInstantUnlock","inputs":[{"name":"isEnabled","type":"bool","internalType":"bool"}],"outputs":[],"stateMutability":"nonpayable"},{"type":"function","name":"setManagementFee","inputs":[{"name":"newFee","type":"uint16","internalType":"uint16"}],"outputs":[],"stateMutability":"nonpayable"},{"type":"function","name":"submitBatch","inputs":[],"outputs":[],"stateMutability":"nonpayable"},{"type":"function","name":"supportsInterface","inputs":[{"name":"interfaceId","type":"bytes4","internalType":"bytes4"}],"outputs":[{"name":"","type":"bool","internalType":"bool"}],"stateMutability":"view"},{"type":"function","name":"sweep","inputs":[{"name":"nodeIds","type":"uint64[]","internalType":"uint64[]"},{"name":"maxWithdrawsPerNode","type":"uint8","internalType":"uint8"}],"outputs":[],"stateMutability":"nonpayable"},{"type":"function","name":"sweepForced","inputs":[{"name":"nodeIds","type":"uint64[]","internalType":"uint64[]"}],"outputs":[],"stateMutability":"nonpayable"},{"type":"function","name":"symbol","inputs":[],"outputs":[{"name":"","type":"string","internalType":"string"}],"stateMutability":"view"},{"type":"function","name":"totalPooled","inputs":[],"outputs":[{"name":"","type":"uint96","internalType":"uint96"}],"stateMutability":"view"},{"type":"function","name":"totalShares","inputs":[],"outputs":[{"name":"","type":"uint96","internalType":"uint96"}],"stateMutability":"view"},{"type":"function","name":"totalSupply","inputs":[],"outputs":[{"name":"","type":"uint256","internalType":"uint256"}],"stateMutability":"view"},{"type":"function","name":"totalWeight","inputs":[],"outputs":[{"name":"","type":"uint256","internalType":"uint256"}],"stateMutability":"view"},{"type":"function","name":"transfer","inputs":[{"name":"to","type":"address","internalType":"address"},{"name":"value","type":"uint256","internalType":"uint256"}],"outputs":[{"name":"","type":"bool","internalType":"bool"}],"stateMutability":"nonpayable"},{"type":"function","name":"transferFrom","inputs":[{"name":"from","type":"address","internalType":"address"},{"name":"to","type":"address","internalType":"address"},{"name":"value","type":"uint256","internalType":"uint256"}],"outputs":[{"name":"","type":"bool","internalType":"bool"}],"stateMutability":"nonpayable"},{"type":"function","name":"unbondDisableNode","inputs":[{"name":"nodeId","type":"uint64","internalType":"uint64"}],"outputs":[],"stateMutability":"nonpayable"},{"type":"function","name":"unpause","inputs":[],"outputs":[],"stateMutability":"nonpayable"},{"type":"function","name":"updateWeights","inputs":[{"name":"weightDeltas","type":"tuple[]","internalType":"struct Registry.WeightDelta[]","components":[{"name":"nodeId","type":"uint64","internalType":"uint64"},{"name":"delta","type":"uint96","internalType":"uint96"},{"name":"isIncreasing","type":"bool","internalType":"bool"}]}],"outputs":[],"stateMutability":"nonpayable"},{"type":"function","name":"upgradeToAndCall","inputs":[{"name":"newImplementation","type":"address","internalType":"address"},{"name":"data","type":"bytes","internalType":"bytes"}],"outputs":[],"stateMutability":"payable"},{"type":"function","name":"userUnlockRequests","inputs":[{"name":"","type":"address","internalType":"address"},{"name":"","type":"uint256","internalType":"uint256"}],"outputs":[{"name":"shares","type":"uint96","internalType":"uint96"},{"name":"spotValue","type":"uint96","internalType":"uint96"},{"name":"batchId","type":"uint40","internalType":"uint40"},{"name":"exitFeeInBips","type":"uint16","internalType":"uint16"}],"stateMutability":"view"},{"type":"function","name":"viewNodeByNodeId","inputs":[{"name":"nodeId","type":"uint64","internalType":"uint64"}],"outputs":[{"name":"node","type":"tuple","internalType":"struct Registry.Node","components":[{"name":"id","type":"uint64","internalType":"uint64"},{"name":"weight","type":"uint96","internalType":"uint96"},{"name":"staked","type":"uint96","internalType":"uint96"}]}],"stateMutability":"view"},{"type":"event","name":"Approval","inputs":[{"name":"owner","type":"address","indexed":true,"internalType":"address"},{"name":"spender","type":"address","indexed":true,"internalType":"address"},{"name":"value","type":"uint256","indexed":false,"internalType":"uint256"}],"anonymous":false},{"type":"event","name":"Contribution","inputs":[{"name":"amount","type":"uint256","indexed":false,"internalType":"uint256"},{"name":"benefactor","type":"address","indexed":false,"internalType":"address"}],"anonymous":false},{"type":"event","name":"ExitFeeAdjusted","inputs":[{"name":"newFee","type":"uint256","indexed":false,"internalType":"uint256"}],"anonymous":false},{"type":"event","name":"FeesWithdrawn","inputs":[{"name":"managementFeeShares","type":"uint256","indexed":false,"internalType":"uint256"},{"name":"exitFeeShares","type":"uint256","indexed":false,"internalType":"uint256"}],"anonymous":false},{"type":"event","name":"Initialized","inputs":[{"name":"version","type":"uint64","indexed":false,"internalType":"uint64"}],"anonymous":false},{"type":"event","name":"ManagementFeeAdjusted","inputs":[{"name":"newFee","type":"uint256","indexed":false,"internalType":"uint256"}],"anonymous":false},{"type":"event","name":"NodeAdded","inputs":[{"name":"nodeId","type":"uint64","indexed":false,"internalType":"uint64"},{"name":"index","type":"uint256","indexed":false,"internalType":"uint256"}],"anonymous":false},{"type":"event","name":"NodeDisabled","inputs":[{"name":"nodeId","type":"uint64","indexed":false,"internalType":"uint64"}],"anonymous":false},{"type":"event","name":"NodeRemoved","inputs":[{"name":"nodeId","type":"uint64","indexed":false,"internalType":"uint64"}],"anonymous":false},{"type":"event","name":"NodeUpdated","inputs":[{"name":"nodeId","type":"uint64","indexed":true,"internalType":"uint64"},{"name":"newWeight","type":"uint256","indexed":false,"internalType":"uint256"}],"anonymous":false},{"type":"event","name":"Paused","inputs":[{"name":"account","type":"address","indexed":false,"internalType":"address"}],"anonymous":false},{"type":"event","name":"RoleAdminChanged","inputs":[{"name":"role","type":"bytes32","indexed":true,"internalType":"bytes32"},{"name":"previousAdminRole","type":"bytes32","indexed":true,"internalType":"bytes32"},{"name":"newAdminRole","type":"bytes32","indexed":true,"internalType":"bytes32"}],"anonymous":false},{"type":"event","name":"RoleGranted","inputs":[{"name":"role","type":"bytes32","indexed":true,"internalType":"bytes32"},{"name":"account","type":"address","indexed":true,"internalType":"address"},{"name":"sender","type":"address","indexed":true,"internalType":"address"}],"anonymous":false},{"type":"event","name":"RoleRevoked","inputs":[{"name":"role","type":"bytes32","indexed":true,"internalType":"bytes32"},{"name":"account","type":"address","indexed":true,"internalType":"address"},{"name":"sender","type":"address","indexed":true,"internalType":"address"}],"anonymous":false},{"type":"event","name":"Transfer","inputs":[{"name":"from","type":"address","indexed":true,"internalType":"address"},{"name":"to","type":"address","indexed":true,"internalType":"address"},{"name":"value","type":"uint256","indexed":false,"internalType":"uint256"}],"anonymous":false},{"type":"event","name":"UnlockCancelled","inputs":[{"name":"staker","type":"address","indexed":true,"internalType":"address"},{"name":"unlockId","type":"uint256","indexed":false,"internalType":"uint256"}],"anonymous":false},{"type":"event","name":"UnlockRedeemed","inputs":[{"name":"staker","type":"address","indexed":true,"internalType":"address"},{"name":"unlockId","type":"uint256","indexed":false,"internalType":"uint256"},{"name":"amount","type":"uint256","indexed":false,"internalType":"uint256"}],"anonymous":false},{"type":"event","name":"UnlockRequested","inputs":[{"name":"staker","type":"address","indexed":true,"internalType":"address"},{"name":"unlockId","type":"uint256","indexed":false,"internalType":"uint256"},{"name":"shares","type":"uint256","indexed":false,"internalType":"uint256"},{"name":"spotValue","type":"uint256","indexed":false,"internalType":"uint256"},{"name":"toll","type":"uint256","indexed":false,"internalType":"uint256"}],"anonymous":false},{"type":"event","name":"Unpaused","inputs":[{"name":"account","type":"address","indexed":false,"internalType":"address"}],"anonymous":false},{"type":"event","name":"Upgraded","inputs":[{"name":"implementation","type":"address","indexed":true,"internalType":"address"}],"anonymous":false},{"type":"error","name":"AccessControlBadConfirmation","inputs":[]},{"type":"error","name":"AccessControlUnauthorizedAccount","inputs":[{"name":"account","type":"address","internalType":"address"},{"name":"neededRole","type":"bytes32","internalType":"bytes32"}]},{"type":"error","name":"ActiveNode","inputs":[]},{"type":"error","name":"AddressEmptyCode","inputs":[{"name":"target","type":"address","internalType":"address"}]},{"type":"error","name":"BatchNotSubmitted","inputs":[]},{"type":"error","name":"CancellationWindowClosed","inputs":[]},{"type":"error","name":"DepositOverflow","inputs":[]},{"type":"error","name":"DuplicateNode","inputs":[]},{"type":"error","name":"ERC1967InvalidImplementation","inputs":[{"name":"implementation","type":"address","internalType":"address"}]},{"type":"error","name":"ERC1967NonPayable","inputs":[]},{"type":"error","name":"ERC20InsufficientAllowance","inputs":[{"name":"spender","type":"address","internalType":"address"},{"name":"allowance","type":"uint256","internalType":"uint256"},{"name":"needed","type":"uint256","internalType":"uint256"}]},{"type":"error","name":"ERC20InsufficientBalance","inputs":[{"name":"sender","type":"address","internalType":"address"},{"name":"balance","type":"uint256","internalType":"uint256"},{"name":"needed","type":"uint256","internalType":"uint256"}]},{"type":"error","name":"ERC20InvalidApprover","inputs":[{"name":"approver","type":"address","internalType":"address"}]},{"type":"error","name":"ERC20InvalidReceiver","inputs":[{"name":"receiver","type":"address","internalType":"address"}]},{"type":"error","name":"ERC20InvalidSender","inputs":[{"name":"sender","type":"address","internalType":"address"}]},{"type":"error","name":"ERC20InvalidSpender","inputs":[{"name":"spender","type":"address","internalType":"address"}]},{"type":"error","name":"EmptyBatch","inputs":[]},{"type":"error","name":"EnforcedPause","inputs":[]},{"type":"error","name":"ExpectedPause","inputs":[]},{"type":"error","name":"FailedInnerCall","inputs":[]},{"type":"error","name":"FeeTooLarge","inputs":[]},{"type":"error","name":"InstantUnlockDisabled","inputs":[]},{"type":"error","name":"InstantUnlockThreshold","inputs":[]},{"type":"error","name":"InsufficientPendingWithdrawals","inputs":[]},{"type":"error","name":"InvalidInitialization","inputs":[]},{"type":"error","name":"InvalidNode","inputs":[]},{"type":"error","name":"MaxPendingWithdrawals","inputs":[]},{"type":"error","name":"MinimumBatchDelay","inputs":[]},{"type":"error","name":"MinimumContributeThreshold","inputs":[]},{"type":"error","name":"MinimumDeposit","inputs":[]},{"type":"error","name":"MinimumUnlock","inputs":[]},{"type":"error","name":"NoChange","inputs":[]},{"type":"error","name":"NotInitializing","inputs":[]},{"type":"error","name":"PendingWithdrawals","inputs":[]},{"type":"error","name":"PrecompileCallFailed","inputs":[]},{"type":"error","name":"TransferFailed","inputs":[]},{"type":"error","name":"UUPSUnauthorizedCallContext","inputs":[]},{"type":"error","name":"UUPSUnsupportedProxiableUUID","inputs":[{"name":"slot","type":"bytes32","internalType":"bytes32"}]},{"type":"error","name":"WithdrawDelay","inputs":[]},{"type":"error","name":"ZeroTotalWeight","inputs":[]}],"bytecode":{"object":"0x60a060405230608052348015610013575f80fd5b5061001c610021565b6100d3565b7ff0c57e16840df040f15088dc2f81fe391c3923bec73e23a9662efc9c229c6a00805468010000000000000000900460ff16156100715760405163f92ee8a960e01b815260040160405180910390fd5b80546001600160401b03908116146100d05780546001600160401b0319166001600160401b0390811782556040519081527fc7f505b2f371ae2175ee4913f4499e1f2633a7b5936321eed1cdaeb6115181d29060200160405180910390a15b50565b6080516172e76100f95f395f81816154050152818161542e015261560001526172e75ff3fe608060405260043610610561575f3560e01c80635c975abb116102c4578063a4b0b5a31161017b578063d6531de5116100dc578063e8ce892211610092578063fb9848e41161006d578063fb9848e414611248578063fd012e3414611267578063fde73f7d146112c1575f80fd5b8063e8ce8922146111c7578063f6516e7f146111fa578063f75b040414611229575f80fd5b8063dd62ed3e116100c2578063dd62ed3e14611124578063df235fe614611187578063e29581aa146111a6575f80fd5b8063d6531de5146110d7578063d8a9fe5014611105575f80fd5b8063b6f12b9411610131578063c4d66de811610117578063c4d66de814611086578063cf5e274314611099578063d547741f146110b8575f80fd5b8063b6f12b941461104b578063bf7df8e01461105f575f80fd5b8063a9059cbb11610161578063a9059cbb14610fc5578063ad3cb1cc14610fe4578063aedf6d511461102c575f80fd5b8063a4b0b5a314610f87578063a4bd422c14610fa6575f80fd5b80637bde82f21161022557806395d89b41116101db578063a0e3cdd6116101c1578063a0e3cdd614610f2e578063a217fddf14610f41578063a30fefe114610f54575f80fd5b806395d89b4114610f0557806396c82e5714610f19575f80fd5b806386bb1d6e1161020b57806386bb1d6e14610e665780638dd09af314610e8357806391d1485414610ea2575f80fd5b80637bde82f214610e335780638456cb5914610e52575f80fd5b806370a082311161027a57806377654f341161026057806377654f3414610d5657806378f908e114610d955780637a6d59d514610df6575f80fd5b806370a0823114610ce4578063733897b714610d37575f80fd5b806363311d3d116102aa57806363311d3d14610c7357806369ce6d4714610ca65780636ec21cc814610cc5575f80fd5b80635c975abb14610c29578063615bfc4514610c5f575f80fd5b80632a7d8acb1161041857806346115383116103795780634ff0241a1161032f578063540a26f311610315578063540a26f314610b76578063573c1ce014610ba25780635838b2fe14610bf6575f80fd5b80634ff0241a14610b2f57806352d1902d14610b62575f80fd5b80634beae6e31161035f5780634beae6e314610a8a5780634c3a045c14610ae95780634f1ef28614610b1c575f80fd5b80634611538314610a485780634a8a268f14610a5c575f80fd5b80633a98ef39116103ce5780633e367afa116103b45780633e367afa146109f45780633f4ba83a14610a1557806343abcf3214610a29575f80fd5b80633a98ef39146109b45780633b5b4765146109c8575f80fd5b8063313ce567116103fe578063313ce5671461095b578063337b2b6e1461097657806336568abe14610995575f80fd5b80632a7d8acb146109095780632f2ff15d1461093c575f80fd5b806318160ddd116104c257806322fd4ad511610478578063248a9ca31161045e578063248a9ca31461086557806324f67e18146108b25780632584601f146108d1575f80fd5b806322fd4ad51461081357806323b872dd14610846575f80fd5b80631b8e0db6116104a85780631b8e0db6146107665780631c3477dd146107995780631c53c280146107c4575f80fd5b806318160ddd1461071457806319ddf95b14610747575f80fd5b80630a9f9ee2116105175780630bf14d9b116104fd5780630bf14d9b146106a857806315230e80146106d65780631610247b146106f5575f80fd5b80630a9f9ee21461065b5780630b52f7b11461067c575f80fd5b806306fdde031161054757806306fdde03146105e1578063095ea7b3146106025780630a763da114610621575f80fd5b806301ffc9a71461056c57806306c7dbc4146105a0575f80fd5b3661056857005b5f80fd5b348015610577575f80fd5b5061058b610586366004616776565b6112d9565b60405190151581526020015b60405180910390f35b3480156105ab575f80fd5b506105d37f359946d964cb1f92e24841dd25d0e8706f1ab6dd13500522367deddd927658d881565b604051908152602001610597565b3480156105ec575f80fd5b506105f5611371565b60405161059791906167b5565b34801561060d575f80fd5b5061058b61061c3660046167fe565b611444565b34801561062c575f80fd5b5060885461064590600160601b900464ffffffffff1681565b60405164ffffffffff9091168152602001610597565b348015610666575f80fd5b5061067a61067536600461690b565b61145b565b005b348015610687575f80fd5b5061069b61069636600461695f565b6114bc565b604051610597919061697a565b3480156106b3575f80fd5b5061058b6106c236600461695f565b608b6020525f908152604090205460ff1681565b3480156106e1575f80fd5b5061067a6106f0366004616a0c565b61156a565b348015610700575f80fd5b5061067a61070f366004616a38565b6115bf565b34801561071f575f80fd5b507f52c63247e1f47db19d5ce0460030c497f067ca4cebf71ba98eeadabe20bace02546105d3565b348015610752575f80fd5b5061067a610761366004616a4f565b61185d565b348015610771575f80fd5b506105d37f13172b8201242833f26d88301b6e27aa2235ec2d9b2c92a1ed33678f0ee068fa81565b6107ac6107a7366004616a85565b6118cf565b6040516001600160601b039091168152602001610597565b3480156107cf575f80fd5b506107e36107de366004616a38565b611a4c565b6040805167ffffffffffffffff90941684526001600160601b039283166020850152911690820152606001610597565b34801561081e575f80fd5b506105d37f902b1971fb3d9217703fb59d9a8bf53ee64da1be6756f20cebc090dd4c37f7d881565b348015610851575f80fd5b5061058b610860366004616aaf565b611a90565b348015610870575f80fd5b506105d361087f366004616a38565b5f9081527f02dd7bc7dec4dceedda775e58dd541e08a116c6c53815c0bd028192f7b626800602052604090206001015490565b3480156108bd575f80fd5b506107ac6108cc366004616aed565b611ab5565b3480156108dc575f80fd5b5061058b6108eb366004616b1e565b67ffffffffffffffff165f9081526047602052604090205460ff1690565b348015610914575f80fd5b506105d37f1ea2b19b7ab22acb68ebeb58b5cb9eab43e3e119ebbd3159fdcddfc5b8c538b881565b348015610947575f80fd5b5061067a610956366004616b39565b611e41565b348015610966575f80fd5b5060405160128152602001610597565b348015610981575f80fd5b5061067a610990366004616b1e565b611e84565b3480156109a0575f80fd5b5061067a6109af366004616b39565b611fda565b3480156109bf575f80fd5b506107ac61202b565b3480156109d3575f80fd5b506109e76109e2366004616b1e565b612065565b6040516105979190616b5c565b3480156109ff575f80fd5b50610a08612133565b6040516105979190616b96565b348015610a20575f80fd5b5061067a61213e565b348015610a34575f80fd5b5061067a610a43366004616bcd565b612173565b348015610a53575f80fd5b5061067a612244565b348015610a67575f80fd5b5060885461058b9071010000000000000000000000000000000000900460ff1681565b348015610a95575f80fd5b50610ac9610aa4366004616a38565b608e6020525f90815260409020546001600160601b0380821691600160601b90041682565b604080516001600160601b03938416815292909116602083015201610597565b348015610af4575f80fd5b506105d37fe4e31aec9ff1a347fb72ff05400e9d48f9f3a53213176eb3d32d3f8fa4697c1681565b61067a610b2a366004616bff565b6126eb565b348015610b3a575f80fd5b506105d37ff146182d150a5b368b6d283f87aeae1f25c21b02ff55cf16848704ade176a5cb81565b348015610b6d575f80fd5b506105d361270a565b348015610b81575f80fd5b50610b95610b90366004616b1e565b612738565b6040516105979190616ca6565b348015610bad575f80fd5b50610bc1610bbc366004616ce7565b61279f565b604080519788526020880196909652948601939093526060850191909152608084015260a083015260c082015260e001610597565b348015610c01575f80fd5b506105d37f1d770361ad1ba5c90793f5d8711778cd963118207b8b46db0f36c72a65b0b45181565b348015610c34575f80fd5b507fcd5ed15c6e187e77e9aee88184c21f4f2182ab5827cb3b7e07fbedcd63f033005460ff1661058b565b348015610c6a575f80fd5b506107ac612857565b348015610c7e575f80fd5b506105d37fe1777bd22f637fc57eadcf9d877079117b44537a53059b1670036696018f564c81565b348015610cb1575f80fd5b5061067a610cc036600461695f565b612939565b348015610cd0575f80fd5b506088546107ac906001600160601b031681565b348015610cef575f80fd5b506105d3610cfe36600461695f565b6001600160a01b03165f9081527f52c63247e1f47db19d5ce0460030c497f067ca4cebf71ba98eeadabe20bace00602052604090205490565b348015610d42575f80fd5b5061067a610d51366004616b1e565b612a4b565b348015610d61575f80fd5b50610ac9610d70366004616a38565b608d6020525f90815260409020546001600160601b0380821691600160601b90041682565b348015610da0575f80fd5b50610dd5610daf366004616a38565b608c6020525f908152604090205467ffffffffffffffff80821691600160401b90041682565b6040805167ffffffffffffffff938416815292909116602083015201610597565b348015610e01575f80fd5b506105d3610e10366004616b1e565b67ffffffffffffffff165f90815260466020526040902054610100900460ff1690565b348015610e3e575f80fd5b506107ac610e4d366004616b39565b612b1c565b348015610e5d575f80fd5b5061067a612d63565b348015610e71575f80fd5b506105d369010f0cf064dd5920000081565b348015610e8e575f80fd5b5061067a610e9d366004616d03565b612d95565b348015610ead575f80fd5b5061058b610ebc366004616b39565b5f9182527f02dd7bc7dec4dceedda775e58dd541e08a116c6c53815c0bd028192f7b626800602090815260408084206001600160a01b0393909316845291905290205460ff1690565b348015610f10575f80fd5b506105f5612e7c565b348015610f24575f80fd5b506105d360045481565b61067a610f3c36600461695f565b612ecd565b348015610f4c575f80fd5b506105d35f81565b348015610f5f575f80fd5b506105d37f78a7a80e95d53cedc2e84890fb7aaf754249c544050913a3263a2abf9d66f53881565b348015610f92575f80fd5b5061067a610fa1366004616d24565b613028565b348015610fb1575f80fd5b506107ac610fc0366004616d95565b6133bc565b348015610fd0575f80fd5b5061058b610fdf3660046167fe565b6136d8565b348015610fef575f80fd5b506105f56040518060400160405280600581526020017f352e302e3000000000000000000000000000000000000000000000000000000081525081565b348015611037575f80fd5b5061067a611046366004616b1e565b6136e5565b348015611056575f80fd5b506107ac61396a565b34801561106a575f80fd5b50608a5461ffff165b60405161ffff9091168152602001610597565b61067a61109436600461695f565b6139c1565b3480156110a4575f80fd5b5061067a6110b3366004616bcd565b613e7d565b3480156110c3575f80fd5b5061067a6110d2366004616b39565b613f75565b3480156110e2575f80fd5b5061058b6110f1366004616b1e565b60056020525f908152604090205460ff1681565b348015611110575f80fd5b5061067a61111f366004616b1e565b613fb8565b34801561112f575f80fd5b506105d361113e366004616dd9565b6001600160a01b039182165f9081527f52c63247e1f47db19d5ce0460030c497f067ca4cebf71ba98eeadabe20bace016020908152604080832093909416825291909152205490565b348015611192575f80fd5b506107ac6111a1366004616df5565b6140a0565b3480156111b1575f80fd5b506111ba6140f6565b6040516105979190616e0e565b3480156111d2575f80fd5b506105d37fbb12ed6b435a5fce787412ceb233935082e39147d977bc587eb74d0f97f48d2c81565b348015611205575f80fd5b50611219611214366004616df5565b61417f565b6040516105979493929190616ec6565b348015611234575f80fd5b5061067a611243366004616d03565b614227565b348015611253575f80fd5b506107ac611262366004616df5565b6142fe565b348015611272575f80fd5b506112866112813660046167fe565b61433e565b604080516001600160601b03958616815294909316602085015264ffffffffff9091169183019190915261ffff166060820152608001610597565b3480156112cc575f80fd5b5060895461ffff16611073565b5f7fffffffff0000000000000000000000000000000000000000000000000000000082167f7965db0b00000000000000000000000000000000000000000000000000000000148061136b57507f01ffc9a7000000000000000000000000000000000000000000000000000000007fffffffff000000000000000000000000000000000000000000000000000000008316145b92915050565b7f52c63247e1f47db19d5ce0460030c497f067ca4cebf71ba98eeadabe20bace0380546060917f52c63247e1f47db19d5ce0460030c497f067ca4cebf71ba98eeadabe20bace00916113c290616f13565b80601f01602080910402602001604051908101604052809291908181526020018280546113ee90616f13565b80156114395780601f1061141057610100808354040283529160200191611439565b820191905f5260205f20905b81548152906001019060200180831161141c57829003601f168201915b505050505091505090565b5f33611451818585614396565b5060019392505050565b6114636143a3565b81515f5b818167ffffffffffffffff1610156114b6576114a6848267ffffffffffffffff168151811061149857611498616f45565b602002602001015184614401565b6114af81616f6d565b9050611467565b50505050565b6001600160a01b0381165f908152608f60209081526040808320805482518185028101850190935280835260609492939192909184015b8282101561155f575f84815260209081902060408051608081018252918501546001600160601b038082168452600160601b82041683850152600160c01b810464ffffffffff1691830191909152600160e81b900461ffff1660608201528252600190920191016114f3565b505050509050919050565b7f78a7a80e95d53cedc2e84890fb7aaf754249c544050913a3263a2abf9d66f538611594816145b1565b506001600160a01b03919091165f908152608b60205260409020805460ff1916911515919091179055565b6115c76143a3565b335f908152608f6020526040812080549091908290849081106115ec576115ec616f45565b5f9182526020918290206040805160808101825292909101546001600160601b038082168452600160601b80830490911694840194909452600160c01b810464ffffffffff908116928401839052600160e81b90910461ffff166060840152608854929450929091049091161461168f576040517fdcb958f400000000000000000000000000000000000000000000000000000000815260040160405180910390fd5b606081015181515f91612710916116b39161ffff16906001600160601b0316616f99565b6116bd9190616fc4565b90505f81835f01516116cf9190616fd7565b60408085015164ffffffffff165f908152608e6020908152908290208251808401909352546001600160601b03808216808552600160601b9092041683830152908601519293509091908290611726908390616fd7565b6001600160601b0316905250602081018051839190611746908390616fd7565b6001600160601b0390811690915260408087015164ffffffffff165f908152608e602090815291902084518154928601518416600160601b027fffffffffffffffff0000000000000000000000000000000000000000000000009093169084161791909117905584161590506117ff57608980548491906002906117da9084906201000090046001600160601b0316616fd7565b92506101000a8154816001600160601b0302191690836001600160601b031602179055505b61180985876145bb565b6118203033865f01516001600160601b0316614755565b60405186815233907fd1bbb16d648df2dfd0b1b3d88a5bc3f262e0323d3af8fd678115b4f1e7b4b88a9060200160405180910390a2505050505050565b7fe4e31aec9ff1a347fb72ff05400e9d48f9f3a53213176eb3d32d3f8fa4697c16611887816145b1565b506088805491151571010000000000000000000000000000000000027fffffffffffffffffffffffffffff00ffffffffffffffffffffffffffffffffff909216919091179055565b5f6118d86143a3565b6001600160601b03341115611919576040517f1132981b00000000000000000000000000000000000000000000000000000000815260040160405180910390fd5b6119216147e9565b61192a346140a0565b9050806001600160601b03165f036119555760405163a88ee57760e01b815260040160405180910390fd5b826001600160601b0316816001600160601b031610156119a1576040517fc635a9f200000000000000000000000000000000000000000000000000000000815260040160405180910390fd5b6119b482826001600160601b0316614969565b608880543491905f906119d19084906001600160601b0316616ff6565b82546101009290920a6001600160601b03818102199093169183160217909155608854600160601b900464ffffffffff165f908152608d6020526040812080543494509092611a2291859116616ff6565b92506101000a8154816001600160601b0302191690836001600160601b0316021790555092915050565b60038181548110611a5b575f80fd5b5f9182526020909120015467ffffffffffffffff811691506001600160601b03600160401b8204811691600160a01b90041683565b5f33611a9d8582856149b6565b611aa8858585614755565b60019150505b9392505050565b5f611abe6143a3565b611ac66147e9565b335f908152608b6020526040812054819060ff16611b0a5760895461ffff169150612710611afd836001600160601b038816616f99565b611b079190616fc4565b90505b5f611b158287616fd7565b9050611b20816142fe565b9350836001600160601b03165f03611b4b5760405163a88ee57760e01b815260040160405180910390fd5b846001600160601b0316846001600160601b03161015611b97576040517f641963a400000000000000000000000000000000000000000000000000000000815260040160405180910390fd5b608854335f908152608f6020908152604080832081516080810183526001600160601b03808d1682528a811682860190815264ffffffffff600160601b98899004811684870181815261ffff808f16606088019081528854600181018a55988c528a8c209751979098018054955192519851909116600160e81b027fff0000ffffffffffffffffffffffffffffffffffffffffffffffffffffffffff98909416600160c01b02979097167fff00000000000000ffffffffffffffffffffffffffffffffffffffffffffffff9186168c027fffffffffffffffff0000000000000000000000000000000000000000000000009095169686169690961793909317929092169390931792909217909255808552608e8452938290208251808401909352548082168084529590041691810191909152909186908290611cdb908390616ff6565b6001600160601b0316905250602081018051849190611cfb908390616ff6565b6001600160601b0390811690915264ffffffffff84165f908152608e6020908152604090912084518154928601518416600160601b027fffffffffffffffff000000000000000000000000000000000000000000000000909316908416179190911790558516159050611db15760898054859190600290611d8c9084906201000090046001600160601b0316616ff6565b92506101000a8154816001600160601b0302191690836001600160601b031602179055505b611dc533308a6001600160601b0316614755565b335f818152608f60205260409020547fef31107568890496c8f16fec1278e709d23f1444e004e7973a9403880c28d91790611e0290600190617015565b604080519182526001600160601b038088166020840152808b1691830191909152871660608201526080015b60405180910390a2505050505092915050565b5f8281527f02dd7bc7dec4dceedda775e58dd541e08a116c6c53815c0bd028192f7b6268006020526040902060010154611e7a816145b1565b6114b68383614a64565b611e8c614b30565b611ea05f67ffffffffffffffff8316614b5a565b15155f03611eda576040517f0fa1af0e00000000000000000000000000000000000000000000000000000000815260040160405180910390fd5b604080516060810182525f602080830182815283850183815267ffffffffffffffff8781168087526003805460018101825581885288517fc2575a0e9e593c00f959f8c92f12db2869c3395a3b0502d05e2516446f71f85b9091018054965195519190941673ffffffffffffffffffffffffffffffffffffffff1990961695909517600160401b6001600160601b0395861602176001600160a01b0316600160a01b949095169390930293909317905554818452600283529285902083905584519081529081018290528351929391927fdd8aaf98a662995c3720dc78ea3773142e7d32c94f523a7d651e932ba0c44f8a929181900390910190a1505050565b6001600160a01b038116331461201c576040517f6697b23200000000000000000000000000000000000000000000000000000000815260040160405180910390fd5b6120268282614b65565b505050565b5f612034612857565b7f52c63247e1f47db19d5ce0460030c497f067ca4cebf71ba98eeadabe20bace02546120609190616ff6565b905090565b67ffffffffffffffff8082165f90815260466020908152604080832081518083019092525460ff808216835261010090910416918101829052606093909291908111156120b4576120b4616828565b6040519080825280602002602001820160405280156120dd578160200160208202803683370190505b5090505f5b826020015160ff1681101561212b5782516120ff908260ff614c09565b82828151811061211157612111616f45565b60ff909216602092830291909101909101526001016120e2565b509392505050565b60606120605f614c32565b7ff146182d150a5b368b6d283f87aeae1f25c21b02ff55cf16848704ade176a5cb612168816145b1565b612170614c3e565b50565b61217b6143a3565b805147905f5b818167ffffffffffffffff1610156121cf576121bf848267ffffffffffffffff16815181106121b2576121b2616f45565b6020026020010151614cb0565b6121c881616f6d565b9050612181565b505f6121db8347617015565b905080156114b657608854600160601b900464ffffffffff165f908152608d60205260408120805483929061221a9084906001600160601b0316616ff6565b92506101000a8154816001600160601b0302191690836001600160601b0316021790555050505050565b61224c6143a3565b6122546147e9565b6088546001600160601b03811690600160601b900464ffffffffff165f8061227a614dd0565b90925090505f608c8161228e600187617028565b64ffffffffff16815260208082019290925260409081015f2081518083019092525467ffffffffffffffff8082168352600160401b90910481169282018390529092508416101561230b576040517f4851faea00000000000000000000000000000000000000000000000000000000815260040160405180910390fd5b64ffffffffff84165f818152608d602090815260408083208151808301835290546001600160601b038082168352600160601b91829004811683860152958552608e8452938290208251808401909352548086168084529490048516928201929092528151919390929116111561241b57815181515f9161238c918a614e0b565b825184519192505f9183916123a091616fd7565b6123aa9190616fd7565b90506001600160601b038116156124045780608d5f6123ca8b6001617045565b64ffffffffff16815260208101919091526040015f2080546bffffffffffffffffffffffff19166001600160601b03929092169190911790555b505067ffffffffffffffff84166020840152612530565b815181516001600160601b03918216911611156124dc57805182515f91612442918a6150eb565b835183519192505f91839161245691616fd7565b6124609190616fd7565b90506001600160601b038116156124045780608e5f6124808b6001617045565b64ffffffffff16815260208101919091526040015f2080546bffffffffffffffffffffffff19166001600160601b03929092169190911790556124c3818a616ff6565b9850505067ffffffffffffffff84166020840152612530565b81516001600160601b03165f0361251f576040517fc2e5347d00000000000000000000000000000000000000000000000000000000815260040160405180910390fd5b67ffffffffffffffff851660208401525b60208101516001600160601b03161561255a5761255a3082602001516001600160601b03166153ad565b80516001600160601b03161561259c5780516125769088616fd7565b608880546bffffffffffffffffffffffff19166001600160601b03929092169190911790555b6040805160608101825260895461ffff811682526001600160601b03620100008204811660208401819052600160701b90920416928201929092529015612651578060200151816040018181516125f39190616ff6565b6001600160601b039081169091525f60208401528251608980546040860151909316600160701b027fffffffffffff000000000000000000000000000000000000000000000000000090931661ffff90921691909117919091179055505b67ffffffffffffffff808716855264ffffffffff88165f908152608c6020908152604090912086518154928801518416600160401b027fffffffffffffffffffffffffffffffff000000000000000000000000000000009093169316929092171790556126bf876001617045565b6088600c6101000a81548164ffffffffff021916908364ffffffffff1602179055505050505050505050565b6126f36153fa565b6126fc826154ca565b61270682826154f4565b5050565b5f6127136155f5565b507f360894a13ba1a3210667c828492db98dca3e2076cc3735a920a3ca505d382bbc90565b604080516060810182525f808252602082018190529181019190915261275d82615657565b60408051606081018252915467ffffffffffffffff811683526001600160601b03600160401b820481166020850152600160a01b909104169082015292915050565b6040517f573c1ce000000000000000000000000000000000000000000000000000000000815267ffffffffffffffff831660048201526001600160a01b03821660248201525f908190819081908190819081906110009063573c1ce09060440160e0604051808303815f875af115801561281b573d5f803e3d5ffd5b505050506040513d601f19601f8201168201806040525081019061283f9190617062565b959f949e50929c50909a509850965090945092505050565b60408051606081018252608a5461ffff811682526201000081046001600160601b031660208301819052600160701b90910464ffffffffff16928201839052915f906128a39042617015565b905080156129345781515f906127109061ffff166001600160601b0386166128e97f52c63247e1f47db19d5ce0460030c497f067ca4cebf71ba98eeadabe20bace025490565b6128f391906170b1565b6128fd9190616f99565b6129079190616fc4565b90505f6301e133806129198484616f99565b6129239190616fc4565b905061292f8186616ff6565b945050505b505090565b6129416143a3565b7f359946d964cb1f92e24841dd25d0e8706f1ab6dd13500522367deddd927658d861296b816145b1565b6129736147e9565b608a546201000090046001600160601b031680156129be576129958382614969565b608a80547fffffffffffffffffffffffffffffffffffff000000000000000000000000ffff1690555b608954600160701b90046001600160601b03168015612a0b576129e2308583614755565b608980547fffffffffffff000000000000000000000000ffffffffffffffffffffffffffff1690555b60408051838152602081018390527fd9787bf70d3926a4a81c52cba8799d18903ce0132aaa4b7de9e92dc893303a7f91015b60405180910390a150505050565b612a536143a3565b7f1d770361ad1ba5c90793f5d8711778cd963118207b8b46db0f36c72a65b0b451612a7d816145b1565b67ffffffffffffffff82165f9081526005602052604090205460ff16612ab65760405163194fdc7f60e31b815260040160405180910390fd5b5f612ac083615657565b8054909150600160a01b90046001600160601b03165f819003612af65760405163a88ee57760e01b815260040160405180910390fd5b612b0984826001600160601b03166156d6565b505080546001600160a01b031690555050565b5f612b256143a3565b335f908152608f602052604081208054909190829086908110612b4a57612b4a616f45565b5f91825260208083206040805160808101825293909101546001600160601b038082168552600160601b82041684840152600160c01b810464ffffffffff16848301819052600160e81b90910461ffff1660608501528452608c825280842081518083019092525467ffffffffffffffff808216808452600160401b9092041692820192909252919350909103612c0d576040517ffc08f5f200000000000000000000000000000000000000000000000000000000815260040160405180910390fd5b5f612c1661575f565b509050612c216157cb565b60ff168260200151612c3391906170c4565b67ffffffffffffffff168167ffffffffffffffff161015612c80576040517fba9bead700000000000000000000000000000000000000000000000000000000815260040160405180910390fd5b612c8a84886145bb565b826020015194505f866001600160a01b0316866001600160601b03166040515f6040518083038185875af1925050503d805f8114612ce3576040519150601f19603f3d011682016040523d82523d5f602084013e612ce8565b606091505b5050905080612d23576040517f90b8ec1800000000000000000000000000000000000000000000000000000000815260040160405180910390fd5b604080518981526001600160601b038816602082015233917f53a80b7fa2025e3acb298abd7e222b36ce5d6a1425e7a6e53b451aac0c6e5a219101611e2e565b7ff146182d150a5b368b6d283f87aeae1f25c21b02ff55cf16848704ade176a5cb612d8d816145b1565b6121706157fe565b7f13172b8201242833f26d88301b6e27aa2235ec2d9b2c92a1ed33678f0ee068fa612dbf816145b1565b60c88261ffff161115612dfe576040517ffc5bee1200000000000000000000000000000000000000000000000000000000815260040160405180910390fd5b608a5461ffff90811690831603612e285760405163a88ee57760e01b815260040160405180910390fd5b612e306147e9565b608a805461ffff191661ffff84169081179091556040519081527f756367c310578acc96b78fcf4141ddb3cf532982d1342ec193f34a3600b9ae65906020015b60405180910390a15050565b7f52c63247e1f47db19d5ce0460030c497f067ca4cebf71ba98eeadabe20bace0480546060917f52c63247e1f47db19d5ce0460030c497f067ca4cebf71ba98eeadabe20bace00916113c290616f13565b612ed56143a3565b6001600160601b03341115612f16576040517f1132981b00000000000000000000000000000000000000000000000000000000815260040160405180910390fd5b6088546001600160601b031669010f0cf064dd59200000811015612f66576040517f500625f400000000000000000000000000000000000000000000000000000000815260040160405180910390fd5b612f703482616ff6565b608880546bffffffffffffffffffffffff19166001600160601b039283161790819055600160601b900464ffffffffff165f908152608d6020526040812080543493919291612fc191859116616ff6565b92506101000a8154816001600160601b0302191690836001600160601b031602179055507f04e75fda068b8e114d7658bdff74280a0fd65586b7e026a034eae29dd5a9e68b3483604051612e709291909182526001600160a01b0316602082015260400190565b613030615859565b600454815f5b818110156133b35784848281811061305057613050616f45565b90506060020160400160208101906130689190616a4f565b156131ea575f61309e86868481811061308357613083616f45565b6130999260206060909202019081019150616b1e565b615657565b805467ffffffffffffffff165f9081526005602052604090205490915060ff16156130dc5760405163194fdc7f60e31b815260040160405180910390fd5b8054600160401b90046001600160601b03165f87878581811061310157613101616f45565b90506060020160200160208101906131199190616df5565b6131239083616ff6565b835473ffffffffffffffffffffffff00000000000000001916600160401b6001600160601b0383811691820292909217865591925061316490841688617015565b61316e91906170b1565b955087878581811061318257613182616f45565b6131989260206060909202019081019150616b1e565b6040516001600160601b038316815267ffffffffffffffff91909116907fcfaa637aecf1e60e723842980c95e1f0a7ca0a264e46647e4656b98f7293e33b9060200160405180910390a25050506133ab565b5f60025f87878581811061320057613200616f45565b6132169260206060909202019081019150616b1e565b67ffffffffffffffff1667ffffffffffffffff1681526020019081526020015f20549050805f0361324757506133ab565b5f6003613255600184617015565b8154811061326557613265616f45565b5f91825260208220018054909250600160401b90046001600160601b03169081810361329457505050506133ab565b5f8989878181106132a7576132a7616f45565b90506060020160200160208101906132bf9190616df5565b9050826001600160601b0316816001600160601b031610156132e8576132e58184616fd7565b91505b83546001600160601b03808416600160401b810273ffffffffffffffffffffffff0000000000000000199093169290921786556133279085168a617015565b61333191906170b1565b975089898781811061334557613345616f45565b61335b9260206060909202019081019150616b1e565b6040516001600160601b038416815267ffffffffffffffff91909116907fcfaa637aecf1e60e723842980c95e1f0a7ca0a264e46647e4656b98f7293e33b9060200160405180910390a250505050505b600101613036565b50506004555050565b5f6133c56143a3565b60885471010000000000000000000000000000000000900460ff16613416576040517ff4574cf700000000000000000000000000000000000000000000000000000000815260040160405180910390fd5b61341e6147e9565b335f908152608b602052604081205460ff1661346157608954612710906134529061ffff166001600160601b038816616f99565b61345c9190616fc4565b613463565b5f5b90505f6134708287616fd7565b905061347b816142fe565b9250826001600160601b03165f036134a65760405163a88ee57760e01b815260040160405180910390fd5b846001600160601b0316836001600160601b031610156134f2576040517f641963a400000000000000000000000000000000000000000000000000000000815260040160405180910390fd5b608854600160601b900464ffffffffff165f908152608d6020526040902080546001600160601b03908116908516811015613559576040517fed8ff24700000000000000000000000000000000000000000000000000000000815260040160405180910390fd5b6135638582616fd7565b82546bffffffffffffffffffffffff19166001600160601b039182161783556088805487925f9161359691859116616fd7565b92506101000a8154816001600160601b0302191690836001600160601b031602179055506135ce33308a6001600160601b0316614755565b6135e130846001600160601b03166153ad565b6001600160601b0384161561363a5760898054859190600e90613615908490600160701b90046001600160601b0316616ff6565b92506101000a8154816001600160601b0302191690836001600160601b031602179055505b5f866001600160a01b0316866001600160601b03166040515f6040518083038185875af1925050503d805f811461368c576040519150601f19603f3d011682016040523d82523d5f602084013e613691565b606091505b50509050806136cc576040517f90b8ec1800000000000000000000000000000000000000000000000000000000815260040160405180910390fd5b50505050509392505050565b5f33611451818585614755565b6136ee81615883565b67ffffffffffffffff81165f9081526002602052604081205490819003613741576040517f30812d4200000000000000000000000000000000000000000000000000000000815260040160405180910390fd5b5f600361374f600184617015565b8154811061375f5761375f616f45565b5f91825260209182902060408051606081018252929091015467ffffffffffffffff811683526001600160601b03600160401b82048116948401859052600160a01b90910416908201529150156137c95760405163194fdc7f60e31b815260040160405180910390fd5b60408101516001600160601b0316156137f55760405163194fdc7f60e31b815260040160405180910390fd5b600380545f919061380890600190617015565b8154811061381857613818616f45565b5f9182526020808320909101805467ffffffffffffffff16835260029091526040909120849055905080600361384f600186617015565b8154811061385f5761385f616f45565b5f918252602080832084549201805467ffffffffffffffff93841667ffffffffffffffff19821681178355865473ffffffffffffffffffffffffffffffffffffffff1990921617600160401b918290046001600160601b039081169092021780835595546001600160a01b03909616600160a01b968790049091169095029490941790935586168152600290915260408120556003805480613903576139036170e4565b5f8281526020812082015f1990810182905590910190915561392f9067ffffffffffffffff8616615959565b5060405167ffffffffffffffff851681527f8712d9d347359238729023dc8640e38f0d4f8ad25d0e079c2208a885a51a023f90602001612a3d565b6088545f9071010000000000000000000000000000000000900460ff1661399057505f90565b608854600160601b900464ffffffffff165f908152608d6020526040902054612060906001600160601b03166140a0565b7ff0c57e16840df040f15088dc2f81fe391c3923bec73e23a9662efc9c229c6a008054600160401b810460ff16159067ffffffffffffffff165f81158015613a065750825b90505f8267ffffffffffffffff166001148015613a225750303b155b905081158015613a30575080155b15613a67576040517ff92ee8a900000000000000000000000000000000000000000000000000000000815260040160405180910390fd5b845467ffffffffffffffff191660011785558315613a9657845468ff00000000000000001916600160401b1785555b613a9e615964565b613b126040518060400160405280601381526020017f4b696e747375205374616b6564204d6f6e6164000000000000000000000000008152506040518060400160405280600481526020017f734d4f4e0000000000000000000000000000000000000000000000000000000081525061596c565b613b1a615964565b613b2261597e565b613b2c5f87614a64565b50613b577f902b1971fb3d9217703fb59d9a8bf53ee64da1be6756f20cebc090dd4c37f7d887614a64565b50613b827fe1777bd22f637fc57eadcf9d877079117b44537a53059b1670036696018f564c87614a64565b50613bad7fbb12ed6b435a5fce787412ceb233935082e39147d977bc587eb74d0f97f48d2c87614a64565b50613bd87f1d770361ad1ba5c90793f5d8711778cd963118207b8b46db0f36c72a65b0b45187614a64565b50613c037f13172b8201242833f26d88301b6e27aa2235ec2d9b2c92a1ed33678f0ee068fa87614a64565b50613c2e7f13172b8201242833f26d88301b6e27aa2235ec2d9b2c92a1ed33678f0ee068fa8061598e565b613c587f359946d964cb1f92e24841dd25d0e8706f1ab6dd13500522367deddd927658d887614a64565b50613c837f359946d964cb1f92e24841dd25d0e8706f1ab6dd13500522367deddd927658d88061598e565b613cad7f78a7a80e95d53cedc2e84890fb7aaf754249c544050913a3263a2abf9d66f53887614a64565b50613cd87f78a7a80e95d53cedc2e84890fb7aaf754249c544050913a3263a2abf9d66f5388061598e565b613d027f1ea2b19b7ab22acb68ebeb58b5cb9eab43e3e119ebbd3159fdcddfc5b8c538b887614a64565b50613d2d7f1ea2b19b7ab22acb68ebeb58b5cb9eab43e3e119ebbd3159fdcddfc5b8c538b88061598e565b613d577ff146182d150a5b368b6d283f87aeae1f25c21b02ff55cf16848704ade176a5cb87614a64565b50613d827fe4e31aec9ff1a347fb72ff05400e9d48f9f3a53213176eb3d32d3f8fa4697c1687614a64565b50608880547fffffffffffffffffffffffffffff000000000000ffffffffffffffffffffffff16710100000000010000000000000000000000001790556040805160608101825260c88082525f602083015264ffffffffff421691909201819052608a80547fffffffffffffffffffffffffff0000000000000000000000000000000000000016600160701b90920291909117909117905560898054600561ffff199091161790558315613e7557845468ff000000000000000019168555604051600181527fc7f505b2f371ae2175ee4913f4499e1f2633a7b5936321eed1cdaeb6115181d29060200160405180910390a15b505050505050565b613e856143a3565b805147905f5b818167ffffffffffffffff161015613ed957613ec9848267ffffffffffffffff1681518110613ebc57613ebc616f45565b6020026020010151615a2f565b613ed281616f6d565b9050613e8b565b505f613ee58347617015565b9050805f03613f075760405163a88ee57760e01b815260040160405180910390fd5b608880548291905f90613f249084906001600160601b0316616ff6565b82546101009290920a6001600160601b03818102199093169183160217909155608854600160601b900464ffffffffff165f908152608d602052604081208054859450909261221a91859116616ff6565b5f8281527f02dd7bc7dec4dceedda775e58dd541e08a116c6c53815c0bd028192f7b6268006020526040902060010154613fae816145b1565b6114b68383614b65565b613fc0615ad4565b67ffffffffffffffff81165f9081526005602052604090205460ff1615613ffa5760405163a88ee57760e01b815260040160405180910390fd5b5f61400482615657565b805460048054929350600160401b9091046001600160601b0316915f9061402c908490617015565b9091555050805473ffffffffffffffffffffffff00000000000000001916815567ffffffffffffffff82165f81815260056020908152604091829020805460ff1916600117905590519182527fa46b2e9bd92f27216c46d5a9772c39431f3f381285ee1dacb1f1034fe603b10b9101612e70565b6088545f906001600160601b03168082036140bd578291506140f0565b806140c661202b565b6001600160601b0316846001600160601b03166140e39190616f99565b6140ed9190616fc4565b91505b50919050565b60606003805480602002602001604051908101604052809291908181526020015f905b82821015614176575f848152602090819020604080516060810182529185015467ffffffffffffffff811683526001600160601b03600160401b8204811684860152600160a01b9091041690820152825260019092019101614119565b50505050905090565b5f806060806142186003805480602002602001604051908101604052809291908181526020015f905b82821015614205575f848152602090819020604080516060810182529185015467ffffffffffffffff811683526001600160601b03600160401b8204811684860152600160a01b90910416908201528252600190920191016141a8565b50505050866001600160601b0316615afe565b93509350935093509193509193565b7f13172b8201242833f26d88301b6e27aa2235ec2d9b2c92a1ed33678f0ee068fa614251816145b1565b60328261ffff161115614290576040517ffc5bee1200000000000000000000000000000000000000000000000000000000815260040160405180910390fd5b60895461ffff908116908316036142ba5760405163a88ee57760e01b815260040160405180910390fd5b6089805461ffff191661ffff84169081179091556040519081527f0531f91c02fe1dc8b306233f5edba5c1b65a79a064d26a40b6082bc9d887ecba90602001612e70565b5f8061430861202b565b6001600160601b03169050805f03614322578291506140f0565b60885481906140e3906001600160601b03908116908616616f99565b608f602052815f5260405f208181548110614357575f80fd5b5f918252602090912001546001600160601b038082169350600160601b8204169150600160c01b810464ffffffffff1690600160e81b900461ffff1684565b6120268383836001615cdd565b7fcd5ed15c6e187e77e9aee88184c21f4f2182ab5827cb3b7e07fbedcd63f033005460ff16156143ff576040517fd93c066500000000000000000000000000000000000000000000000000000000815260040160405180910390fd5b565b67ffffffffffffffff82165f90815260466020908152604080832081518083019092525460ff808216835261010090910481169282018390529092919084161061444f578160200151614451565b825b90508060ff165f036144635750505050565b5f5b8160ff1681101561453b575f614480845f01518360ff614c09565b6040517faed2ee7300000000000000000000000000000000000000000000000000000000815267ffffffffffffffff8816600482015260ff821660248201529091505f906110009063aed2ee73906044016020604051808303815f875af11580156144ed573d5f803e3d5ffd5b505050506040513d601f19601f8201168201806040525081019061451191906170f8565b90508061453157604051633f48ffd960e21b815260040160405180910390fd5b5050600101614465565b50815161454a908260ff614c09565b60ff168252602082018051829190614563908390617113565b60ff90811690915267ffffffffffffffff9095165f90815260466020908152604090912084518154929095015187166101000261ffff19909216949096169390931792909217909355505050565b6121708133615e06565b81545f906145cb90600190617015565b9050808214614708578281815481106145e6576145e6616f45565b905f5260205f200183838154811061460057614600616f45565b5f91825260209091208254910180546bffffffffffffffffffffffff1981166001600160601b0393841690811783558454600160601b908190049094169093027fffffffffffffffff00000000000000000000000000000000000000000000000090911690921791909117808255825464ffffffffff600160c01b9182900416027fffffff0000000000ffffffffffffffffffffffffffffffffffffffffffffffff821681178355925461ffff600160e81b9182900416027fff0000ffffffffffffffffffffffffffffffffffffffffffffffffffffffffff9093167fff00000000000000ffffffffffffffffffffffffffffffffffffffffffffffff909116179190911790555b82805480614718576147186170e4565b5f8281526020902081015f1990810180547fff00000000000000000000000000000000000000000000000000000000000000169055019055505050565b6001600160a01b03831661479c576040517f96c6fd1e0000000000000000000000000000000000000000000000000000000081525f60048201526024015b60405180910390fd5b6001600160a01b0382166147de576040517fec442f050000000000000000000000000000000000000000000000000000000081525f6004820152602401614793565b612026838383615e92565b60408051606081018252608a5461ffff811682526201000081046001600160601b03166020830152600160701b900464ffffffffff16918101829052905f906148329042617015565b90508015612706575f61271061ffff16835f015161ffff1684602001516001600160601b03166148807f52c63247e1f47db19d5ce0460030c497f067ca4cebf71ba98eeadabe20bace025490565b61488a91906170b1565b6148949190616f99565b61489e9190616fc4565b90505f6301e133806148b08484616f99565b6148ba9190616fc4565b90508084602001516001600160601b03166148d591906170b1565b6001600160601b0316602085018190524264ffffffffff16604086018190529451608a805461ffff9092167fffffffffffffffffffffffffffffffffffff00000000000000000000000000009092169190911762010000909202919091177fffffffffffffffffffffffffff0000000000ffffffffffffffffffffffffffff16600160701b90950294909417909355505050565b6001600160a01b0382166149ab576040517fec442f050000000000000000000000000000000000000000000000000000000081525f6004820152602401614793565b6127065f8383615e92565b6001600160a01b038381165f9081527f52c63247e1f47db19d5ce0460030c497f067ca4cebf71ba98eeadabe20bace0160209081526040808320938616835292905220545f198110156114b65781811015614a56576040517ffb8f41b20000000000000000000000000000000000000000000000000000000081526001600160a01b03841660048201526024810182905260448101839052606401614793565b6114b684848484035f615cdd565b5f8281527f02dd7bc7dec4dceedda775e58dd541e08a116c6c53815c0bd028192f7b626800602081815260408084206001600160a01b038616855290915282205460ff16614b27575f848152602082815260408083206001600160a01b03871684529091529020805460ff19166001179055614add3390565b6001600160a01b0316836001600160a01b0316857f2f8788117e7eff1d82e926ec794901d17c78024a50270940304540a733656f0d60405160405180910390a4600191505061136b565b5f91505061136b565b7f902b1971fb3d9217703fb59d9a8bf53ee64da1be6756f20cebc090dd4c37f7d8612170816145b1565b5f611aae8383615ff7565b5f8281527f02dd7bc7dec4dceedda775e58dd541e08a116c6c53815c0bd028192f7b626800602081815260408084206001600160a01b038616855290915282205460ff1615614b27575f848152602082815260408083206001600160a01b0387168085529252808320805460ff1916905551339287917ff6391f5c32d9c69d2a47ea670b442974b53935d1edc7fd64eb21e047a839171b9190a4600191505061136b565b5f8160ff168360ff168560ff16614c2091906170b1565b614c2a919061712c565b949350505050565b60605f611aae83616043565b614c4661609c565b7fcd5ed15c6e187e77e9aee88184c21f4f2182ab5827cb3b7e07fbedcd63f03300805460ff191681557f5db9ee0a495bf2e6ff9c91a7834c1ba4fdd244a5e8aa4e537bd38aeae4b073aa335b6040516001600160a01b03909116815260200160405180910390a150565b67ffffffffffffffff81165f9081526047602052604090205460ff16614d02576040517f78297a8c00000000000000000000000000000000000000000000000000000000815260040160405180910390fd5b6040517faed2ee7300000000000000000000000000000000000000000000000000000000815267ffffffffffffffff8216600482015260ff60248201525f906110009063aed2ee73906044016020604051808303815f875af1158015614d6a573d5f803e3d5ffd5b505050506040513d601f19601f82011682018060405250810190614d8e91906170f8565b905080614dae57604051633f48ffd960e21b815260040160405180910390fd5b5067ffffffffffffffff165f908152604760205260409020805460ff19169055565b5f805f80614ddc61575f565b9150915081935080614df857614df38460016170c4565b614e03565b614e038460026170c4565b925050509091565b6004545f90808203614e49576040517f098404de00000000000000000000000000000000000000000000000000000000815260040160405180910390fd5b5f6003805480602002602001604051908101604052809291908181526020015f905b82821015614ec8575f848152602090819020604080516060810182529185015467ffffffffffffffff811683526001600160601b03600160401b8204811684860152600160a01b9091041690820152825260019092019101614e6b565b5050505090505f80614eee838888614ee09190616fd7565b6001600160601b0316615afe565b9350509250505f8789614f019190616fd7565b6001600160601b031690505f836001600160601b03168210614f2c57836001600160601b0316614f2e565b815b90505f614f3b8284617015565b86519091505f5b818110156150db575f80878381518110614f5e57614f5e616f45565b60200260200101516001600160601b031611614f7a575f614fbc565b876001600160601b0316878381518110614f9657614f96616f45565b60200260200101516001600160601b031686614fb29190616f99565b614fbc9190616fc4565b90505f808511614fcc575f615009565b8a8a8481518110614fdf57614fdf616f45565b6020026020010151602001516001600160601b031686614fff9190616f99565b6150099190616fc4565b90505f61501682846170b1565b90506001600160601b038116156150cd57808b858151811061503a5761503a616f45565b6020026020010151604001516150509190616ff6565b6003858154811061506357615063616f45565b905f5260205f20015f0160146101000a8154816001600160601b0302191690836001600160601b031602179055506150c08b85815181106150a6576150a6616f45565b60200260200101515f0151826001600160601b03166160f7565b6150ca818e616ff6565b9c505b505050806001019050614f42565b5050505050505050509392505050565b5f806003805480602002602001604051908101604052809291908181526020015f905b8282101561516b575f848152602090819020604080516060810182529185015467ffffffffffffffff811683526001600160601b03600160401b8204811684860152600160a01b909104169082015282526001909201910161510e565b5050505090505f80615183838887614ee09190616fd7565b5092505091505f86886151969190616fd7565b6001600160601b031690505f836001600160601b031682106151c157836001600160601b03166151c3565b815b90505f6151d08284617015565b6088549091505f9083906151ee908c906001600160601b0316616fd7565b6001600160601b03166152019190617015565b87519091505f5b818110156150db575f8088838151811061522457615224616f45565b60200260200101516001600160601b031611615240575f615282565b886001600160601b031688838151811061525c5761525c616f45565b60200260200101516001600160601b0316876152789190616f99565b6152829190616fc4565b90505f808611615292575f6152d9565b84828c85815181106152a6576152a6616f45565b6020026020010151604001516001600160601b03166152c59190617015565b6152cf9088616f99565b6152d99190616fc4565b90505f6152e682846170b1565b90506001600160601b0381161561539f57808c858151811061530a5761530a616f45565b6020026020010151604001516153209190616fd7565b6003858154811061533357615333616f45565b5f91825260209091200180546001600160601b0392909216600160a01b026001600160a01b0390921691909117905561536c818e616ff6565b9c5061539d8c858151811061538357615383616f45565b60200260200101515f0151826001600160601b031661619f565b505b505050806001019050615208565b6001600160a01b0382166153ef576040517f96c6fd1e0000000000000000000000000000000000000000000000000000000081525f6004820152602401614793565b612706825f83615e92565b306001600160a01b037f000000000000000000000000000000000000000000000000000000000000000016148061549357507f00000000000000000000000000000000000000000000000000000000000000006001600160a01b03166154877f360894a13ba1a3210667c828492db98dca3e2076cc3735a920a3ca505d382bbc546001600160a01b031690565b6001600160a01b031614155b156143ff576040517fe07c8dba00000000000000000000000000000000000000000000000000000000815260040160405180910390fd5b7f1ea2b19b7ab22acb68ebeb58b5cb9eab43e3e119ebbd3159fdcddfc5b8c538b8612706816145b1565b816001600160a01b03166352d1902d6040518163ffffffff1660e01b8152600401602060405180830381865afa92505050801561554e575060408051601f3d908101601f1916820190925261554b9181019061713f565b60015b61558f576040517f4c9c8ce30000000000000000000000000000000000000000000000000000000081526001600160a01b0383166004820152602401614793565b7f360894a13ba1a3210667c828492db98dca3e2076cc3735a920a3ca505d382bbc81146155eb576040517faa1d49a400000000000000000000000000000000000000000000000000000000815260048101829052602401614793565b612026838361629d565b306001600160a01b037f000000000000000000000000000000000000000000000000000000000000000016146143ff576040517fe07c8dba00000000000000000000000000000000000000000000000000000000815260040160405180910390fd5b67ffffffffffffffff81165f908152600260205260408120548082036156a9576040517f30812d4200000000000000000000000000000000000000000000000000000000815260040160405180910390fd5b60036156b6600183617015565b815481106156c6576156c6616f45565b905f5260205f2001915050919050565b67ffffffffffffffff82165f9081526047602052604081205460ff1615615729576040517f500389a000000000000000000000000000000000000000000000000000000000815260040160405180910390fd5b5060ff6157378383836162f2565b67ffffffffffffffff9092165f908152604760205260409020805460ff191660011790555090565b5f806110006001600160a01b031663757991a86040518163ffffffff1660e01b815260040160408051808303815f875af115801561579f573d5f803e3d5ffd5b505050506040513d601f19601f820116820180604052508101906157c39190617156565b915091509091565b5f46608f036157da5750600190565b4661279f036157e95750600190565b466175bf036157f85750600190565b50600190565b6158066143a3565b7fcd5ed15c6e187e77e9aee88184c21f4f2182ab5827cb3b7e07fbedcd63f03300805460ff191660011781557f62e78cea01bee320cd4e420270b5ea74000d11b0c9f74754ebdbfc544b05a25833614c92565b7fe1777bd22f637fc57eadcf9d877079117b44537a53059b1670036696018f564c612170816145b1565b7f1d770361ad1ba5c90793f5d8711778cd963118207b8b46db0f36c72a65b0b4516158ad816145b1565b67ffffffffffffffff82165f90815260466020526040812054610100900460ff161115615906576040517f4d078c7100000000000000000000000000000000000000000000000000000000815260040160405180910390fd5b67ffffffffffffffff82165f9081526047602052604090205460ff1615612706576040517f4d078c7100000000000000000000000000000000000000000000000000000000815260040160405180910390fd5b5f611aae83836163a7565b6143ff616481565b615974616481565b61270682826164e3565b615986616481565b6143ff616546565b7f02dd7bc7dec4dceedda775e58dd541e08a116c6c53815c0bd028192f7b6268005f6159e7845f9081527f02dd7bc7dec4dceedda775e58dd541e08a116c6c53815c0bd028192f7b626800602052604090206001015490565b5f85815260208490526040808220600101869055519192508491839187917fbd79b86ffe0ab8e8776151514217cd7cacd52c909f66475c3af44e129f0b00ff9190a450505050565b6040517fa76e2ca500000000000000000000000000000000000000000000000000000000815267ffffffffffffffff821660048201525f906110009063a76e2ca5906024016020604051808303815f875af1158015615a90573d5f803e3d5ffd5b505050506040513d601f19601f82011682018060405250810190615ab491906170f8565b90508061270657604051633f48ffd960e21b815260040160405180910390fd5b7fbb12ed6b435a5fce787412ceb233935082e39147d977bc587eb74d0f97f48d2c612170816145b1565b60045482515f91829160609182918067ffffffffffffffff811115615b2557615b25616828565b604051908082528060200260200182016040528015615b4e578160200160208202803683370190505b5093508067ffffffffffffffff811115615b6a57615b6a616828565b604051908082528060200260200182016040528015615b93578160200160208202803683370190505b5092505f5b81811015615cd1575f898281518110615bb357615bb3616f45565b6020026020010151604001516001600160601b031690505f808511615bd8575f615c15565b848a8c8581518110615bec57615bec616f45565b6020026020010151602001516001600160601b0316615c0b9190616f99565b615c159190616fc4565b905080821115615c71575f615c2a8284617015565b9050615c36818b616ff6565b995080888581518110615c4b57615c4b616f45565b60200260200101906001600160601b031690816001600160601b03168152505050615cc7565b81811115615cc7575f615c848383617015565b9050615c90818a616ff6565b985080878581518110615ca557615ca5616f45565b60200260200101906001600160601b031690816001600160601b031681525050505b5050600101615b98565b50505092959194509250565b7f52c63247e1f47db19d5ce0460030c497f067ca4cebf71ba98eeadabe20bace006001600160a01b038516615d40576040517fe602df050000000000000000000000000000000000000000000000000000000081525f6004820152602401614793565b6001600160a01b038416615d82576040517f94280d620000000000000000000000000000000000000000000000000000000081525f6004820152602401614793565b6001600160a01b038086165f90815260018301602090815260408083209388168352929052208390558115615dff57836001600160a01b0316856001600160a01b03167f8c5be1e5ebec7d5bd14f71427d1e84f3dd0314c0f7b2291e5b200ac8c7c3b92585604051615df691815260200190565b60405180910390a35b5050505050565b5f8281527f02dd7bc7dec4dceedda775e58dd541e08a116c6c53815c0bd028192f7b626800602090815260408083206001600160a01b038516845290915290205460ff16612706576040517fe2517d3f0000000000000000000000000000000000000000000000000000000081526001600160a01b038216600482015260248101839052604401614793565b7f52c63247e1f47db19d5ce0460030c497f067ca4cebf71ba98eeadabe20bace006001600160a01b038416615edf5781816002015f828254615ed491906170b1565b90915550615f689050565b6001600160a01b0384165f9081526020829052604090205482811015615f4a576040517fe450d38c0000000000000000000000000000000000000000000000000000000081526001600160a01b03861660048201526024810182905260448101849052606401614793565b6001600160a01b0385165f9081526020839052604090209083900390555b6001600160a01b038316615f86576002810180548390039055615fa4565b6001600160a01b0383165f9081526020829052604090208054830190555b826001600160a01b0316846001600160a01b03167fddf252ad1be2c89b69c2b068fc378daa952ba7f163c4a11628f55a4df523b3ef84604051615fe991815260200190565b60405180910390a350505050565b5f81815260018301602052604081205461603c57508154600181810184555f84815260208082209093018490558454848252828601909352604090209190915561136b565b505f61136b565b6060815f0180548060200260200160405190810160405280929190818152602001828054801561609057602002820191905f5260205f20905b81548152602001906001019080831161607c575b50505050509050919050565b7fcd5ed15c6e187e77e9aee88184c21f4f2182ab5827cb3b7e07fbedcd63f033005460ff166143ff576040517f8dfc202b00000000000000000000000000000000000000000000000000000000815260040160405180910390fd5b6040517f84994fec00000000000000000000000000000000000000000000000000000000815267ffffffffffffffff831660048201525f90611000906384994fec90849060240160206040518083038185885af115801561615a573d5f803e3d5ffd5b50505050506040513d601f19601f8201168201806040525081019061617f91906170f8565b90508061202657604051633f48ffd960e21b815260040160405180910390fd5b67ffffffffffffffff82165f9081526046602090815260408083208151808301909252805460ff808216845261010090910416928201839052917fffffffffffffffffffffffffffffffffffffffffffffffffffffffffffffff0101616231576040517f500389a000000000000000000000000000000000000000000000000000000000815260040160405180910390fd5b616244815f0151826020015160ff614c09565b9250806020015160016162579190617183565b825460ff91909116610100027fffffffffffffffffffffffffffffffffffffffffffffffffffffffffffff00ff9091161782556162958585856162f2565b505092915050565b6162a682616579565b6040516001600160a01b038316907fbc7cd75a20ee27fd9adebab32041f755214dbc6bffa90cc0225b39da2e5c2d3b905f90a28051156162ea576120268282616615565b612706616687565b6040517f5cf4151400000000000000000000000000000000000000000000000000000000815267ffffffffffffffff841660048201526024810183905260ff821660448201525f9061100090635cf41514906064016020604051808303815f875af1158015616363573d5f803e3d5ffd5b505050506040513d601f19601f8201168201806040525081019061638791906170f8565b9050806114b657604051633f48ffd960e21b815260040160405180910390fd5b5f8181526001830160205260408120548015614b27575f6163c9600183617015565b85549091505f906163dc90600190617015565b905080821461643b575f865f0182815481106163fa576163fa616f45565b905f5260205f200154905080875f01848154811061641a5761641a616f45565b5f918252602080832090910192909255918252600188019052604090208390555b855486908061644c5761644c6170e4565b600190038181905f5260205f20015f90559055856001015f8681526020019081526020015f205f90556001935050505061136b565b7ff0c57e16840df040f15088dc2f81fe391c3923bec73e23a9662efc9c229c6a0054600160401b900460ff166143ff576040517fd7e6bcf800000000000000000000000000000000000000000000000000000000815260040160405180910390fd5b6164eb616481565b7f52c63247e1f47db19d5ce0460030c497f067ca4cebf71ba98eeadabe20bace007f52c63247e1f47db19d5ce0460030c497f067ca4cebf71ba98eeadabe20bace0361653784826171e0565b50600481016114b683826171e0565b61654e616481565b7fcd5ed15c6e187e77e9aee88184c21f4f2182ab5827cb3b7e07fbedcd63f03300805460ff19169055565b806001600160a01b03163b5f036165c7576040517f4c9c8ce30000000000000000000000000000000000000000000000000000000081526001600160a01b0382166004820152602401614793565b7f360894a13ba1a3210667c828492db98dca3e2076cc3735a920a3ca505d382bbc805473ffffffffffffffffffffffffffffffffffffffff19166001600160a01b0392909216919091179055565b60605f80846001600160a01b031684604051616631919061729b565b5f60405180830381855af49150503d805f8114616669576040519150601f19603f3d011682016040523d82523d5f602084013e61666e565b606091505b509150915061667e8583836166bf565b95945050505050565b34156143ff576040517fb398979f00000000000000000000000000000000000000000000000000000000815260040160405180910390fd5b6060826166d4576166cf82616734565b611aae565b81511580156166eb57506001600160a01b0384163b155b1561672d576040517f9996b3150000000000000000000000000000000000000000000000000000000081526001600160a01b0385166004820152602401614793565b5080611aae565b8051156167445780518082602001fd5b6040517f1425ea4200000000000000000000000000000000000000000000000000000000815260040160405180910390fd5b5f60208284031215616786575f80fd5b81357fffffffff0000000000000000000000000000000000000000000000000000000081168114611aae575f80fd5b602081525f82518060208401528060208501604085015e5f604082850101526040601f19601f83011684010191505092915050565b6001600160a01b0381168114612170575f80fd5b5f806040838503121561680f575f80fd5b823561681a816167ea565b946020939093013593505050565b634e487b7160e01b5f52604160045260245ffd5b604051601f8201601f1916810167ffffffffffffffff8111828210171561686557616865616828565b604052919050565b67ffffffffffffffff81168114612170575f80fd5b5f82601f830112616891575f80fd5b813567ffffffffffffffff8111156168ab576168ab616828565b8060051b6168bb6020820161683c565b918252602081850181019290810190868411156168d6575f80fd5b6020860192505b838310156169015782356168f08161686d565b8252602092830192909101906168dd565b9695505050505050565b5f806040838503121561691c575f80fd5b823567ffffffffffffffff811115616932575f80fd5b61693e85828601616882565b925050602083013560ff81168114616954575f80fd5b809150509250929050565b5f6020828403121561696f575f80fd5b8135611aae816167ea565b602080825282518282018190525f918401906040840190835b818110156169f45783516001600160601b0381511684526001600160601b03602082015116602085015264ffffffffff604082015116604085015261ffff606082015116606085015250608083019250602084019350600181019050616993565b509095945050505050565b8015158114612170575f80fd5b5f8060408385031215616a1d575f80fd5b8235616a28816167ea565b91506020830135616954816169ff565b5f60208284031215616a48575f80fd5b5035919050565b5f60208284031215616a5f575f80fd5b8135611aae816169ff565b80356001600160601b0381168114616a80575f80fd5b919050565b5f8060408385031215616a96575f80fd5b616a9f83616a6a565b91506020830135616954816167ea565b5f805f60608486031215616ac1575f80fd5b8335616acc816167ea565b92506020840135616adc816167ea565b929592945050506040919091013590565b5f8060408385031215616afe575f80fd5b616b0783616a6a565b9150616b1560208401616a6a565b90509250929050565b5f60208284031215616b2e575f80fd5b8135611aae8161686d565b5f8060408385031215616b4a575f80fd5b823591506020830135616954816167ea565b602080825282518282018190525f918401906040840190835b818110156169f457835160ff16835260209384019390920191600101616b75565b602080825282518282018190525f918401906040840190835b818110156169f4578351835260209384019390920191600101616baf565b5f60208284031215616bdd575f80fd5b813567ffffffffffffffff811115616bf3575f80fd5b614c2a84828501616882565b5f8060408385031215616c10575f80fd5b8235616c1b816167ea565b9150602083013567ffffffffffffffff811115616c36575f80fd5b8301601f81018513616c46575f80fd5b803567ffffffffffffffff811115616c6057616c60616828565b616c736020601f19601f8401160161683c565b818152866020838501011115616c87575f80fd5b816020840160208301375f602083830101528093505050509250929050565b6060810161136b828467ffffffffffffffff81511682526001600160601b0360208201511660208301526001600160601b0360408201511660408301525050565b5f8060408385031215616cf8575f80fd5b8235616a9f8161686d565b5f60208284031215616d13575f80fd5b813561ffff81168114611aae575f80fd5b5f8060208385031215616d35575f80fd5b823567ffffffffffffffff811115616d4b575f80fd5b8301601f81018513616d5b575f80fd5b803567ffffffffffffffff811115616d71575f80fd5b856020606083028401011115616d85575f80fd5b6020919091019590945092505050565b5f805f60608486031215616da7575f80fd5b616db084616a6a565b9250616dbe60208501616a6a565b91506040840135616dce816167ea565b809150509250925092565b5f8060408385031215616dea575f80fd5b8235616a9f816167ea565b5f60208284031215616e05575f80fd5b611aae82616a6a565b602080825282518282018190525f918401906040840190835b818110156169f457616e6d83855167ffffffffffffffff81511682526001600160601b0360208201511660208301526001600160601b0360408201511660408301525050565b6020939093019260609290920191600101616e27565b5f8151808452602084019350602083015f5b82811015616ebc5781516001600160601b0316865260209586019590910190600101616e95565b5093949350505050565b6001600160601b03851681526001600160601b0384166020820152608060408201525f616ef66080830185616e83565b8281036060840152616f088185616e83565b979650505050505050565b600181811c90821680616f2757607f821691505b6020821081036140f057634e487b7160e01b5f52602260045260245ffd5b634e487b7160e01b5f52603260045260245ffd5b634e487b7160e01b5f52601160045260245ffd5b5f67ffffffffffffffff821667ffffffffffffffff8103616f9057616f90616f59565b60010192915050565b808202811582820484141761136b5761136b616f59565b634e487b7160e01b5f52601260045260245ffd5b5f82616fd257616fd2616fb0565b500490565b6001600160601b03828116828216039081111561136b5761136b616f59565b6001600160601b03818116838216019081111561136b5761136b616f59565b8181038181111561136b5761136b616f59565b64ffffffffff828116828216039081111561136b5761136b616f59565b64ffffffffff818116838216019081111561136b5761136b616f59565b5f805f805f805f60e0888a031215617078575f80fd5b5050855160208701516040880151606089015160808a015160a08b015160c0909b0151949c939b50919990985090965094509092509050565b8082018082111561136b5761136b616f59565b67ffffffffffffffff818116838216019081111561136b5761136b616f59565b634e487b7160e01b5f52603160045260245ffd5b5f60208284031215617108575f80fd5b8151611aae816169ff565b60ff828116828216039081111561136b5761136b616f59565b5f8261713a5761713a616fb0565b500690565b5f6020828403121561714f575f80fd5b5051919050565b5f8060408385031215617167575f80fd5b82516171728161686d565b6020840151909250616954816169ff565b60ff818116838216019081111561136b5761136b616f59565b601f82111561202657805f5260205f20601f840160051c810160208510156171c15750805b601f840160051c820191505b81811015615dff575f81556001016171cd565b815167ffffffffffffffff8111156171fa576171fa616828565b61720e816172088454616f13565b8461719c565b6020601f821160018114617240575f83156172295750848201515b5f19600385901b1c1916600184901b178455615dff565b5f84815260208120601f198516915b8281101561726f578785015182556020948501946001909201910161724f565b508482101561728c57868401515f19600387901b60f8161c191681555b50505050600190811b01905550565b5f82518060208501845e5f92019182525091905056fea2646970667358221220f108df5ee8838057bbcdabcb0cb8363b14968e23765ed2697104717a4437909064736f6c634300081a0033","linkReferences":{}},"methodIdentifiers":{"DEFAULT_ADMIN_ROLE()":"a217fddf","MINIMUM_CONTRIBUTE_THRESHOLD()":"86bb1d6e","ROLE_ADD_NODE()":"22fd4ad5","ROLE_DISABLE_NODE()":"e8ce8922","ROLE_FEE_CLAIMER()":"06c7dbc4","ROLE_FEE_EXEMPTION()":"a30fefe1","ROLE_FEE_SETTER()":"1b8e0db6","ROLE_PAUSE()":"4ff0241a","ROLE_REMOVE_NODE()":"5838b2fe","ROLE_TOGGLE_INSTANT_UNLOCK()":"4c3a045c","ROLE_UPDATE_WEIGHTS()":"63311d3d","ROLE_UPGRADE()":"2a7d8acb","UPGRADE_INTERFACE_VERSION()":"ad3cb1cc","addNode(uint64)":"337b2b6e","allowance(address,address)":"dd62ed3e","approve(address,uint256)":"095ea7b3","balanceOf(address)":"70a08231","batchDepositRequests(uint256)":"77654f34","batchSubmissions(uint256)":"78f908e1","batchWithdrawRequests(uint256)":"4beae6e3","cancelUnlockRequest(uint256)":"1610247b","claimProtocolFees(address)":"69ce6d47","compound(uint64[])":"cf5e2743","contributeToPool(address)":"a0e3cdd6","convertToAssets(uint96)":"fb9848e4","convertToShares(uint96)":"df235fe6","currentBatchId()":"0a763da1","decimals()":"313ce567","deposit(uint96,address)":"1c3477dd","disableNode(uint64)":"d8a9fe50","getAllUserUnlockRequests(address)":"0b52f7b1","getDelegator(uint64,address)":"573c1ce0","getExitFeeBips()":"fde73f7d","getImbalances(uint96)":"f6516e7f","getInstantUnlockableShares()":"b6f12b94","getManagementFeeBips()":"bf7df8e0","getMintableProtocolShares()":"615bfc45","getNodeIds()":"3e367afa","getNodes()":"e29581aa","getRoleAdmin(bytes32)":"248a9ca3","getWithdrawIds(uint64)":"3b5b4765","getWithdrawIdsSize(uint64)":"7a6d59d5","grantRole(bytes32,address)":"2f2ff15d","hasRole(bytes32,address)":"91d14854","initialize(address)":"c4d66de8","instantUnlock(uint96,uint96,address)":"a4bd422c","isExitFeeExempt(address)":"0bf14d9b","isForceWithdrawPending(uint64)":"2584601f","isInstantUnlockEnabled()":"4a8a268f","isNodeDisabled(uint64)":"d6531de5","name()":"06fdde03","nodes(uint256)":"1c53c280","pause()":"8456cb59","paused()":"5c975abb","proxiableUUID()":"52d1902d","redeem(uint256,address)":"7bde82f2","removeNode(uint64)":"aedf6d51","renounceRole(bytes32,address)":"36568abe","requestUnlock(uint96,uint96)":"24f67e18","revokeRole(bytes32,address)":"d547741f","setExitFee(uint16)":"f75b0404","setExitFeeExemption(address,bool)":"15230e80","setInstantUnlock(bool)":"19ddf95b","setManagementFee(uint16)":"8dd09af3","submitBatch()":"46115383","supportsInterface(bytes4)":"01ffc9a7","sweep(uint64[],uint8)":"0a9f9ee2","sweepForced(uint64[])":"43abcf32","symbol()":"95d89b41","totalPooled()":"6ec21cc8","totalShares()":"3a98ef39","totalSupply()":"18160ddd","totalWeight()":"96c82e57","transfer(address,uint256)":"a9059cbb","transferFrom(address,address,uint256)":"23b872dd","unbondDisableNode(uint64)":"733897b7","unpause()":"3f4ba83a","updateWeights((uint64,uint96,bool)[])":"a4b0b5a3","upgradeToAndCall(address,bytes)":"4f1ef286","userUnlockRequests(address,uint256)":"fd012e34","viewNodeByNodeId(uint64)":"540a26f3"},"id":40}