{"abi":[{"type":"constructor","inputs":[],"stateMutability":"nonpayable"},{"type":"receive","stateMutability":"payable"},{"type":"function","name":"DEFAULT_ADMIN_ROLE","inputs":[],"outputs":[{"name":"","type":"bytes32","internalType":"bytes32"}],"stateMutability":"view"},{"type":"function","name":"MINIMUM_CONTRIBUTE_THRESHOLD","inputs":[],"outputs":[{"name":"","type":"uint256","internalType":"uint256"}],"stateMutability":"view"},{"type":"function","name":"ROLE_ADD_NODE","inputs":[],"outputs":[{"name":"","type":"bytes32","internalType":"bytes32"}],"stateMutability":"view"},{"type":"function","name":"ROLE_DISABLE_NODE","inputs":[],"outputs":[{"name":"","type":"bytes32","internalType":"bytes32"}],"stateMutability":"view"},{"type":"function","name":"ROLE_FEE_CLAIMER","inputs":[],"outputs":[{"name":"","type":"bytes32","internalType":"bytes32"}],"stateMutability":"view"},{"type":"function","name":"ROLE_FEE_EXEMPTION","inputs":[],"outputs":[{"name":"","type":"bytes32","internalType":"bytes32"}],"stateMutability":"view"},{"type":"function","name":"ROLE_FEE_SETTER","inputs":[],"outputs":[{"name":"","type":"bytes32","internalType":"bytes32"}],"stateMutability":"view"},{"type":"function","name":"ROLE_PAUSE","inputs":[],"outputs":[{"name":"","type":"bytes32","internalType":"bytes32"}],"stateMutability":"view"},{"type":"function","name":"ROLE_REMOVE_NODE","inputs":[],"outputs":[{"name":"","type":"bytes32","internalType":"bytes32"}],"stateMutability":"view"},{"type":"function","name":"ROLE_UPDATE_WEIGHTS","inputs":[],"outputs":[{"name":"","type":"bytes32","internalType":"bytes32"}],"stateMutability":"view"},{"type":"function","name":"ROLE_UPGRADE","inputs":[],"outputs":[{"name":"","type":"bytes32","internalType":"bytes32"}],"stateMutability":"view"},{"type":"function","name":"UPGRADE_INTERFACE_VERSION","inputs":[],"outputs":[{"name":"","type":"string","internalType":"string"}],"stateMutability":"view"},{"type":"function","name":"addNode","inputs":[{"name":"nodeId","type":"uint64","internalType":"uint64"}],"outputs":[],"stateMutability":"nonpayable"},{"type":"function","name":"allowance","inputs":[{"name":"owner","type":"address","internalType":"address"},{"name":"spender","type":"address","internalType":"address"}],"outputs":[{"name":"","type":"uint256","internalType":"uint256"}],"stateMutability":"view"},{"type":"function","name":"approve","inputs":[{"name":"spender","type":"address","internalType":"address"},{"name":"value","type":"uint256","internalType":"uint256"}],"outputs":[{"name":"","type":"bool","internalType":"bool"}],"stateMutability":"nonpayable"},{"type":"function","name":"balanceOf","inputs":[{"name":"account","type":"address","internalType":"address"}],"outputs":[{"name":"","type":"uint256","internalType":"uint256"}],"stateMutability":"view"},{"type":"function","name":"batchDepositRequests","inputs":[{"name":"","type":"uint256","internalType":"uint256"}],"outputs":[{"name":"assets","type":"uint96","internalType":"uint96"},{"name":"shares","type":"uint96","internalType":"uint96"}],"stateMutability":"view"},{"type":"function","name":"batchSubmissions","inputs":[{"name":"","type":"uint256","internalType":"uint256"}],"outputs":[{"name":"submissionEpoch","type":"uint64","internalType":"uint64"},{"name":"activationEpoch","type":"uint64","internalType":"uint64"}],"stateMutability":"view"},{"type":"function","name":"batchWithdrawRequests","inputs":[{"name":"","type":"uint256","internalType":"uint256"}],"outputs":[{"name":"assets","type":"uint96","internalType":"uint96"},{"name":"shares","type":"uint96","internalType":"uint96"}],"stateMutability":"view"},{"type":"function","name":"cancelUnlockRequest","inputs":[{"name":"unlockIndex","type":"uint256","internalType":"uint256"}],"outputs":[],"stateMutability":"nonpayable"},{"type":"function","name":"claimProtocolFees","inputs":[{"name":"to","type":"address","internalType":"address"}],"outputs":[],"stateMutability":"nonpayable"},{"type":"function","name":"compound","inputs":[{"name":"nodeIds","type":"uint64[]","internalType":"uint64[]"}],"outputs":[],"stateMutability":"nonpayable"},{"type":"function","name":"contributeToPool","inputs":[{"name":"benefactor","type":"address","internalType":"address"}],"outputs":[],"stateMutability":"payable"},{"type":"function","name":"convertToAssets","inputs":[{"name":"shares","type":"uint96","internalType":"uint96"}],"outputs":[{"name":"assets","type":"uint96","internalType":"uint96"}],"stateMutability":"view"},{"type":"function","name":"convertToShares","inputs":[{"name":"assets","type":"uint96","internalType":"uint96"}],"outputs":[{"name":"shares","type":"uint96","internalType":"uint96"}],"stateMutability":"view"},{"type":"function","name":"currentBatchId","inputs":[],"outputs":[{"name":"","type":"uint40","internalType":"uint40"}],"stateMutability":"view"},{"type":"function","name":"decimals","inputs":[],"outputs":[{"name":"","type":"uint8","internalType":"uint8"}],"stateMutability":"view"},{"type":"function","name":"deposit","inputs":[{"name":"minShares","type":"uint96","internalType":"uint96"},{"name":"receiver","type":"address","internalType":"address"}],"outputs":[{"name":"shares","type":"uint96","internalType":"uint96"}],"stateMutability":"payable"},{"type":"function","name":"disableNode","inputs":[{"name":"nodeId","type":"uint64","internalType":"uint64"}],"outputs":[],"stateMutability":"nonpayable"},{"type":"function","name":"getAllUserUnlockRequests","inputs":[{"name":"user","type":"address","internalType":"address"}],"outputs":[{"name":"","type":"tuple[]","internalType":"struct StakedMonad.UnlockRequest[]","components":[{"name":"shares","type":"uint96","internalType":"uint96"},{"name":"spotValue","type":"uint96","internalType":"uint96"},{"name":"batchId","type":"uint40","internalType":"uint40"},{"name":"exitFeeInBips","type":"uint16","internalType":"uint16"}]}],"stateMutability":"view"},{"type":"function","name":"getDelegator","inputs":[{"name":"val_id","type":"uint64","internalType":"uint64"},{"name":"delegator","type":"address","internalType":"address"}],"outputs":[{"name":"stake","type":"uint256","internalType":"uint256"},{"name":"acc_reward_per_token","type":"uint256","internalType":"uint256"},{"name":"rewards","type":"uint256","internalType":"uint256"},{"name":"delta_stake","type":"uint256","internalType":"uint256"},{"name":"next_delta_stake","type":"uint256","internalType":"uint256"},{"name":"delta_epoch","type":"uint256","internalType":"uint256"},{"name":"next_delta_epoch","type":"uint256","internalType":"uint256"}],"stateMutability":"nonpayable"},{"type":"function","name":"getExitFeeBips","inputs":[],"outputs":[{"name":"","type":"uint16","internalType":"uint16"}],"stateMutability":"view"},{"type":"function","name":"getImbalances","inputs":[{"name":"newTotalStaked","type":"uint96","internalType":"uint96"}],"outputs":[{"name":"overAllocation","type":"uint96","internalType":"uint96"},{"name":"underAllocation","type":"uint96","internalType":"uint96"},{"name":"overAllocations","type":"uint96[]","internalType":"uint96[]"},{"name":"underAllocations","type":"uint96[]","internalType":"uint96[]"}],"stateMutability":"view"},{"type":"function","name":"getManagementFeeBips","inputs":[],"outputs":[{"name":"","type":"uint16","internalType":"uint16"}],"stateMutability":"view"},{"type":"function","name":"getMintableProtocolShares","inputs":[],"outputs":[{"name":"shares","type":"uint96","internalType":"uint96"}],"stateMutability":"view"},{"type":"function","name":"getNodeIds","inputs":[],"outputs":[{"name":"","type":"uint256[]","internalType":"uint256[]"}],"stateMutability":"view"},{"type":"function","name":"getNodes","inputs":[],"outputs":[{"name":"","type":"tuple[]","internalType":"struct Registry.Node[]","components":[{"name":"id","type":"uint64","internalType":"uint64"},{"name":"weight","type":"uint96","internalType":"uint96"},{"name":"staked","type":"uint96","internalType":"uint96"}]}],"stateMutability":"view"},{"type":"function","name":"getRoleAdmin","inputs":[{"name":"role","type":"bytes32","internalType":"bytes32"}],"outputs":[{"name":"","type":"bytes32","internalType":"bytes32"}],"stateMutability":"view"},{"type":"function","name":"getWithdrawIds","inputs":[{"name":"val_id","type":"uint64","internalType":"uint64"}],"outputs":[{"name":"","type":"uint8[]","internalType":"uint8[]"}],"stateMutability":"view"},{"type":"function","name":"getWithdrawIdsSize","inputs":[{"name":"val_id","type":"uint64","internalType":"uint64"}],"outputs":[{"name":"","type":"uint256","internalType":"uint256"}],"stateMutability":"view"},{"type":"function","name":"grantRole","inputs":[{"name":"role","type":"bytes32","internalType":"bytes32"},{"name":"account","type":"address","internalType":"address"}],"outputs":[],"stateMutability":"nonpayable"},{"type":"function","name":"hasRole","inputs":[{"name":"role","type":"bytes32","internalType":"bytes32"},{"name":"account","type":"address","internalType":"address"}],"outputs":[{"name":"","type":"bool","internalType":"bool"}],"stateMutability":"view"},{"type":"function","name":"initialize","inputs":[{"name":"admin","type":"address","internalType":"address"}],"outputs":[],"stateMutability":"payable"},{"type":"function","name":"isExitFeeExempt","inputs":[{"name":"","type":"address","internalType":"address"}],"outputs":[{"name":"","type":"bool","internalType":"bool"}],"stateMutability":"view"},{"type":"function","name":"isForceWithdrawPending","inputs":[{"name":"val_id","type":"uint64","internalType":"uint64"}],"outputs":[{"name":"","type":"bool","internalType":"bool"}],"stateMutability":"view"},{"type":"function","name":"isNodeDisabled","inputs":[{"name":"","type":"uint64","internalType":"uint64"}],"outputs":[{"name":"","type":"bool","internalType":"bool"}],"stateMutability":"view"},{"type":"function","name":"name","inputs":[],"outputs":[{"name":"","type":"string","internalType":"string"}],"stateMutability":"view"},{"type":"function","name":"nodes","inputs":[{"name":"","type":"uint256","internalType":"uint256"}],"outputs":[{"name":"id","type":"uint64","internalType":"uint64"},{"name":"weight","type":"uint96","internalType":"uint96"},{"name":"staked","type":"uint96","internalType":"uint96"}],"stateMutability":"view"},{"type":"function","name":"pause","inputs":[],"outputs":[],"stateMutability":"nonpayable"},{"type":"function","name":"paused","inputs":[],"outputs":[{"name":"","type":"bool","internalType":"bool"}],"stateMutability":"view"},{"type":"function","name":"proxiableUUID","inputs":[],"outputs":[{"name":"","type":"bytes32","internalType":"bytes32"}],"stateMutability":"view"},{"type":"function","name":"redeem","inputs":[{"name":"unlockIndex","type":"uint256","internalType":"uint256"},{"name":"receiver","type":"address","internalType":"address payable"}],"outputs":[{"name":"assets","type":"uint96","internalType":"uint96"}],"stateMutability":"nonpayable"},{"type":"function","name":"removeNode","inputs":[{"name":"nodeId","type":"uint64","internalType":"uint64"}],"outputs":[],"stateMutability":"nonpayable"},{"type":"function","name":"renounceRole","inputs":[{"name":"role","type":"bytes32","internalType":"bytes32"},{"name":"callerConfirmation","type":"address","internalType":"address"}],"outputs":[],"stateMutability":"nonpayable"},{"type":"function","name":"requestUnlock","inputs":[{"name":"shares","type":"uint96","internalType":"uint96"},{"name":"minSpotValue","type":"uint96","internalType":"uint96"}],"outputs":[{"name":"spotValue","type":"uint96","internalType":"uint96"}],"stateMutability":"nonpayable"},{"type":"function","name":"revokeRole","inputs":[{"name":"role","type":"bytes32","internalType":"bytes32"},{"name":"account","type":"address","internalType":"address"}],"outputs":[],"stateMutability":"nonpayable"},{"type":"function","name":"setExitFee","inputs":[{"name":"newFee","type":"uint16","internalType":"uint16"}],"outputs":[],"stateMutability":"nonpayable"},{"type":"function","name":"setExitFeeExemption","inputs":[{"name":"user","type":"address","internalType":"address"},{"name":"isExempt","type":"bool","internalType":"bool"}],"outputs":[],"stateMutability":"nonpayable"},{"type":"function","name":"setManagementFee","inputs":[{"name":"newFee","type":"uint16","internalType":"uint16"}],"outputs":[],"stateMutability":"nonpayable"},{"type":"function","name":"submitBatch","inputs":[],"outputs":[],"stateMutability":"nonpayable"},{"type":"function","name":"supportsInterface","inputs":[{"name":"interfaceId","type":"bytes4","internalType":"bytes4"}],"outputs":[{"name":"","type":"bool","internalType":"bool"}],"stateMutability":"view"},{"type":"function","name":"sweep","inputs":[{"name":"nodeIds","type":"uint64[]","internalType":"uint64[]"},{"name":"maxWithdrawsPerNode","type":"uint8","internalType":"uint8"}],"outputs":[],"stateMutability":"nonpayable"},{"type":"function","name":"sweepForced","inputs":[{"name":"nodeIds","type":"uint64[]","internalType":"uint64[]"}],"outputs":[],"stateMutability":"nonpayable"},{"type":"function","name":"symbol","inputs":[],"outputs":[{"name":"","type":"string","internalType":"string"}],"stateMutability":"view"},{"type":"function","name":"totalPooled","inputs":[],"outputs":[{"name":"","type":"uint96","internalType":"uint96"}],"stateMutability":"view"},{"type":"function","name":"totalShares","inputs":[],"outputs":[{"name":"","type":"uint96","internalType":"uint96"}],"stateMutability":"view"},{"type":"function","name":"totalSupply","inputs":[],"outputs":[{"name":"","type":"uint256","internalType":"uint256"}],"stateMutability":"view"},{"type":"function","name":"totalWeight","inputs":[],"outputs":[{"name":"","type":"uint256","internalType":"uint256"}],"stateMutability":"view"},{"type":"function","name":"transfer","inputs":[{"name":"to","type":"address","internalType":"address"},{"name":"value","type":"uint256","internalType":"uint256"}],"outputs":[{"name":"","type":"bool","internalType":"bool"}],"stateMutability":"nonpayable"},{"type":"function","name":"transferFrom","inputs":[{"name":"from","type":"address","internalType":"address"},{"name":"to","type":"address","internalType":"address"},{"name":"value","type":"uint256","internalType":"uint256"}],"outputs":[{"name":"","type":"bool","internalType":"bool"}],"stateMutability":"nonpayable"},{"type":"function","name":"unbondDisableNode","inputs":[{"name":"nodeId","type":"uint64","internalType":"uint64"}],"outputs":[],"stateMutability":"nonpayable"},{"type":"function","name":"unpause","inputs":[],"outputs":[],"stateMutability":"nonpayable"},{"type":"function","name":"updateWeights","inputs":[{"name":"weightDeltas","type":"tuple[]","internalType":"struct Registry.WeightDelta[]","components":[{"name":"nodeId","type":"uint64","internalType":"uint64"},{"name":"delta","type":"uint96","internalType":"uint96"},{"name":"isIncreasing","type":"bool","internalType":"bool"}]}],"outputs":[],"stateMutability":"nonpayable"},{"type":"function","name":"upgradeToAndCall","inputs":[{"name":"newImplementation","type":"address","internalType":"address"},{"name":"data","type":"bytes","internalType":"bytes"}],"outputs":[],"stateMutability":"payable"},{"type":"function","name":"userUnlockRequests","inputs":[{"name":"","type":"address","internalType":"address"},{"name":"","type":"uint256","internalType":"uint256"}],"outputs":[{"name":"shares","type":"uint96","internalType":"uint96"},{"name":"spotValue","type":"uint96","internalType":"uint96"},{"name":"batchId","type":"uint40","internalType":"uint40"},{"name":"exitFeeInBips","type":"uint16","internalType":"uint16"}],"stateMutability":"view"},{"type":"function","name":"viewNodeByNodeId","inputs":[{"name":"nodeId","type":"uint64","internalType":"uint64"}],"outputs":[{"name":"node","type":"tuple","internalType":"struct Registry.Node","components":[{"name":"id","type":"uint64","internalType":"uint64"},{"name":"weight","type":"uint96","internalType":"uint96"},{"name":"staked","type":"uint96","internalType":"uint96"}]}],"stateMutability":"view"},{"type":"event","name":"Approval","inputs":[{"name":"owner","type":"address","indexed":true,"internalType":"address"},{"name":"spender","type":"address","indexed":true,"internalType":"address"},{"name":"value","type":"uint256","indexed":false,"internalType":"uint256"}],"anonymous":false},{"type":"event","name":"Contribution","inputs":[{"name":"amount","type":"uint256","indexed":false,"internalType":"uint256"},{"name":"benefactor","type":"address","indexed":false,"internalType":"address"}],"anonymous":false},{"type":"event","name":"ExitFeeAdjusted","inputs":[{"name":"newFee","type":"uint256","indexed":false,"internalType":"uint256"}],"anonymous":false},{"type":"event","name":"FeesWithdrawn","inputs":[{"name":"managementFeeShares","type":"uint256","indexed":false,"internalType":"uint256"},{"name":"exitFeeShares","type":"uint256","indexed":false,"internalType":"uint256"}],"anonymous":false},{"type":"event","name":"Initialized","inputs":[{"name":"version","type":"uint64","indexed":false,"internalType":"uint64"}],"anonymous":false},{"type":"event","name":"ManagementFeeAdjusted","inputs":[{"name":"newFee","type":"uint256","indexed":false,"internalType":"uint256"}],"anonymous":false},{"type":"event","name":"NodeAdded","inputs":[{"name":"nodeId","type":"uint64","indexed":false,"internalType":"uint64"},{"name":"index","type":"uint256","indexed":false,"internalType":"uint256"}],"anonymous":false},{"type":"event","name":"NodeDisabled","inputs":[{"name":"nodeId","type":"uint64","indexed":false,"internalType":"uint64"}],"anonymous":false},{"type":"event","name":"NodeRemoved","inputs":[{"name":"nodeId","type":"uint64","indexed":false,"internalType":"uint64"}],"anonymous":false},{"type":"event","name":"NodeUpdated","inputs":[{"name":"nodeId","type":"uint64","indexed":true,"internalType":"uint64"},{"name":"newWeight","type":"uint256","indexed":false,"internalType":"uint256"}],"anonymous":false},{"type":"event","name":"Paused","inputs":[{"name":"account","type":"address","indexed":false,"internalType":"address"}],"anonymous":false},{"type":"event","name":"RoleAdminChanged","inputs":[{"name":"role","type":"bytes32","indexed":true,"internalType":"bytes32"},{"name":"previousAdminRole","type":"bytes32","indexed":true,"internalType":"bytes32"},{"name":"newAdminRole","type":"bytes32","indexed":true,"internalType":"bytes32"}],"anonymous":false},{"type":"event","name":"RoleGranted","inputs":[{"name":"role","type":"bytes32","indexed":true,"internalType":"bytes32"},{"name":"account","type":"address","indexed":true,"internalType":"address"},{"name":"sender","type":"address","indexed":true,"internalType":"address"}],"anonymous":false},{"type":"event","name":"RoleRevoked","inputs":[{"name":"role","type":"bytes32","indexed":true,"internalType":"bytes32"},{"name":"account","type":"address","indexed":true,"internalType":"address"},{"name":"sender","type":"address","indexed":true,"internalType":"address"}],"anonymous":false},{"type":"event","name":"Transfer","inputs":[{"name":"from","type":"address","indexed":true,"internalType":"address"},{"name":"to","type":"address","indexed":true,"internalType":"address"},{"name":"value","type":"uint256","indexed":false,"internalType":"uint256"}],"anonymous":false},{"type":"event","name":"UnlockCancelled","inputs":[{"name":"staker","type":"address","indexed":true,"internalType":"address"},{"name":"unlockId","type":"uint256","indexed":false,"internalType":"uint256"}],"anonymous":false},{"type":"event","name":"UnlockRedeemed","inputs":[{"name":"staker","type":"address","indexed":true,"internalType":"address"},{"name":"unlockId","type":"uint256","indexed":false,"internalType":"uint256"},{"name":"amount","type":"uint256","indexed":false,"internalType":"uint256"}],"anonymous":false},{"type":"event","name":"UnlockRequested","inputs":[{"name":"staker","type":"address","indexed":true,"internalType":"address"},{"name":"unlockId","type":"uint256","indexed":false,"internalType":"uint256"},{"name":"shares","type":"uint256","indexed":false,"internalType":"uint256"},{"name":"spotValue","type":"uint256","indexed":false,"internalType":"uint256"},{"name":"toll","type":"uint256","indexed":false,"internalType":"uint256"}],"anonymous":false},{"type":"event","name":"Unpaused","inputs":[{"name":"account","type":"address","indexed":false,"internalType":"address"}],"anonymous":false},{"type":"event","name":"Upgraded","inputs":[{"name":"implementation","type":"address","indexed":true,"internalType":"address"}],"anonymous":false},{"type":"error","name":"AccessControlBadConfirmation","inputs":[]},{"type":"error","name":"AccessControlUnauthorizedAccount","inputs":[{"name":"account","type":"address","internalType":"address"},{"name":"neededRole","type":"bytes32","internalType":"bytes32"}]},{"type":"error","name":"ActiveNode","inputs":[]},{"type":"error","name":"AddressEmptyCode","inputs":[{"name":"target","type":"address","internalType":"address"}]},{"type":"error","name":"BatchNotSubmitted","inputs":[]},{"type":"error","name":"CancellationWindowClosed","inputs":[]},{"type":"error","name":"DepositOverflow","inputs":[]},{"type":"error","name":"DuplicateNode","inputs":[]},{"type":"error","name":"ERC1967InvalidImplementation","inputs":[{"name":"implementation","type":"address","internalType":"address"}]},{"type":"error","name":"ERC1967NonPayable","inputs":[]},{"type":"error","name":"ERC20InsufficientAllowance","inputs":[{"name":"spender","type":"address","internalType":"address"},{"name":"allowance","type":"uint256","internalType":"uint256"},{"name":"needed","type":"uint256","internalType":"uint256"}]},{"type":"error","name":"ERC20InsufficientBalance","inputs":[{"name":"sender","type":"address","internalType":"address"},{"name":"balance","type":"uint256","internalType":"uint256"},{"name":"needed","type":"uint256","internalType":"uint256"}]},{"type":"error","name":"ERC20InvalidApprover","inputs":[{"name":"approver","type":"address","internalType":"address"}]},{"type":"error","name":"ERC20InvalidReceiver","inputs":[{"name":"receiver","type":"address","internalType":"address"}]},{"type":"error","name":"ERC20InvalidSender","inputs":[{"name":"sender","type":"address","internalType":"address"}]},{"type":"error","name":"ERC20InvalidSpender","inputs":[{"name":"spender","type":"address","internalType":"address"}]},{"type":"error","name":"EmptyBatch","inputs":[]},{"type":"error","name":"EnforcedPause","inputs":[]},{"type":"error","name":"ExpectedPause","inputs":[]},{"type":"error","name":"FailedCall","inputs":[]},{"type":"error","name":"FeeTooLarge","inputs":[]},{"type":"error","name":"InsufficientPendingWithdrawals","inputs":[]},{"type":"error","name":"InvalidInitialization","inputs":[]},{"type":"error","name":"InvalidNode","inputs":[]},{"type":"error","name":"MaxPendingWithdrawals","inputs":[]},{"type":"error","name":"MinimumBatchDelay","inputs":[]},{"type":"error","name":"MinimumContributeThreshold","inputs":[]},{"type":"error","name":"MinimumDeposit","inputs":[]},{"type":"error","name":"MinimumUnlock","inputs":[]},{"type":"error","name":"NoChange","inputs":[]},{"type":"error","name":"NotInitializing","inputs":[]},{"type":"error","name":"PendingWithdrawals","inputs":[]},{"type":"error","name":"PrecompileCallFailed","inputs":[]},{"type":"error","name":"TransferFailed","inputs":[]},{"type":"error","name":"UUPSUnauthorizedCallContext","inputs":[]},{"type":"error","name":"UUPSUnsupportedProxiableUUID","inputs":[{"name":"slot","type":"bytes32","internalType":"bytes32"}]},{"type":"error","name":"WithdrawDelay","inputs":[]},{"type":"error","name":"ZeroTotalWeight","inputs":[]}],"bytecode":{"object":"0x60a060405230608052348015610013575f5ffd5b5061001c610021565b6100d3565b7ff0c57e16840df040f15088dc2f81fe391c3923bec73e23a9662efc9c229c6a00805468010000000000000000900460ff16156100715760405163f92ee8a960e01b815260040160405180910390fd5b80546001600160401b03908116146100d05780546001600160401b0319166001600160401b0390811782556040519081527fc7f505b2f371ae2175ee4913f4499e1f2633a7b5936321eed1cdaeb6115181d29060200160405180910390a15b50565b608051616d236100f95f395f8181614eac01528181614ed501526150a70152616d235ff3fe6080604052600436106104ee575f3560e01c8063615bfc4511610285578063a4b0b5a311610156578063d8a9fe50116100d1578063f6516e7f11610087578063fb9848e41161006d578063fb9848e414611122578063fd012e3414611141578063fde73f7d1461119b575f5ffd5b8063f6516e7f146110d4578063f75b040414611103575f5ffd5b8063df235fe6116100b7578063df235fe614611061578063e29581aa14611080578063e8ce8922146110a1575f5ffd5b8063d8a9fe5014610fdf578063dd62ed3e14610ffe575f5ffd5b8063bf7df8e011610126578063cf5e27431161010c578063cf5e274314610f73578063d547741f14610f92578063d6531de514610fb1575f5ffd5b8063bf7df8e014610f39578063c4d66de814610f60575f5ffd5b8063a4b0b5a314610e94578063a9059cbb14610eb3578063ad3cb1cc14610ed2578063aedf6d5114610f1a575f5ffd5b80637bde82f21161020057806395d89b41116101b6578063a0e3cdd61161019c578063a0e3cdd614610e3b578063a217fddf14610e4e578063a30fefe114610e61575f5ffd5b806395d89b4114610e1257806396c82e5714610e26575f5ffd5b806386bb1d6e116101e657806386bb1d6e14610d735780638dd09af314610d9057806391d1485414610daf575f5ffd5b80637bde82f214610d405780638456cb5914610d5f575f5ffd5b806370a082311161025557806377654f341161023b57806377654f3414610c6357806378f908e114610ca25780637a6d59d514610d03575f5ffd5b806370a0823114610bf1578063733897b714610c44575f5ffd5b8063615bfc4514610b6c57806363311d3d14610b8057806369ce6d4714610bb35780636ec21cc814610bd2575f5ffd5b80632a7d8acb116103bf57806343abcf321161033a57806352d1902d116102f0578063573c1ce0116102d6578063573c1ce014610aaf5780635838b2fe14610b035780635c975abb14610b36575f5ffd5b806352d1902d14610a6f578063540a26f314610a83575f5ffd5b80634beae6e3116103205780634beae6e3146109ca5780634f1ef28614610a295780634ff0241a14610a3c575f5ffd5b806343abcf321461099757806346115383146109b6575f5ffd5b806336568abe1161038f5780633b5b4765116103755780633b5b4765146109365780633e367afa146109625780633f4ba83a14610983575f5ffd5b806336568abe146109035780633a98ef3914610922575f5ffd5b80632a7d8acb146108775780632f2ff15d146108aa578063313ce567146108c9578063337b2b6e146108e4575f5ffd5b80631610247b1161046957806322fd4ad51161041f578063248a9ca311610405578063248a9ca3146107d357806324f67e18146108205780632584601f1461083f575f5ffd5b806322fd4ad51461078157806323b872dd146107b4575f5ffd5b80631b8e0db61161044f5780631b8e0db6146106d45780631c3477dd146107075780631c53c28014610732575f5ffd5b80631610247b1461068257806318160ddd146106a1575f5ffd5b80630a763da1116104be5780630b52f7b1116104a45780630b52f7b1146106095780630bf14d9b1461063557806315230e8014610663575f5ffd5b80630a763da1146105ae5780630a9f9ee2146105e8575f5ffd5b806301ffc9a7146104f957806306c7dbc41461052d57806306fdde031461056e578063095ea7b31461058f575f5ffd5b366104f557005b5f5ffd5b348015610504575f5ffd5b506105186105133660046161f6565b6111b3565b60405190151581526020015b60405180910390f35b348015610538575f5ffd5b506105607f359946d964cb1f92e24841dd25d0e8706f1ab6dd13500522367deddd927658d881565b604051908152602001610524565b348015610579575f5ffd5b5061058261124b565b6040516105249190616235565b34801561059a575f5ffd5b506105186105a936600461627e565b61131e565b3480156105b9575f5ffd5b506088546105d290600160601b900464ffffffffff1681565b60405164ffffffffff9091168152602001610524565b3480156105f3575f5ffd5b5061060761060236600461638b565b611335565b005b348015610614575f5ffd5b506106286106233660046163df565b611396565b60405161052491906163fa565b348015610640575f5ffd5b5061051861064f3660046163df565b608b6020525f908152604090205460ff1681565b34801561066e575f5ffd5b5061060761067d36600461648c565b611444565b34801561068d575f5ffd5b5061060761069c3660046164b8565b611499565b3480156106ac575f5ffd5b507f52c63247e1f47db19d5ce0460030c497f067ca4cebf71ba98eeadabe20bace0254610560565b3480156106df575f5ffd5b506105607f13172b8201242833f26d88301b6e27aa2235ec2d9b2c92a1ed33678f0ee068fa81565b61071a6107153660046164ea565b611737565b6040516001600160601b039091168152602001610524565b34801561073d575f5ffd5b5061075161074c3660046164b8565b6118b4565b6040805167ffffffffffffffff90941684526001600160601b039283166020850152911690820152606001610524565b34801561078c575f5ffd5b506105607f902b1971fb3d9217703fb59d9a8bf53ee64da1be6756f20cebc090dd4c37f7d881565b3480156107bf575f5ffd5b506105186107ce366004616514565b6118f8565b3480156107de575f5ffd5b506105606107ed3660046164b8565b5f9081527f02dd7bc7dec4dceedda775e58dd541e08a116c6c53815c0bd028192f7b626800602052604090206001015490565b34801561082b575f5ffd5b5061071a61083a366004616552565b61191d565b34801561084a575f5ffd5b50610518610859366004616583565b67ffffffffffffffff165f9081526047602052604090205460ff1690565b348015610882575f5ffd5b506105607f1ea2b19b7ab22acb68ebeb58b5cb9eab43e3e119ebbd3159fdcddfc5b8c538b881565b3480156108b5575f5ffd5b506106076108c436600461659e565b611ca9565b3480156108d4575f5ffd5b5060405160128152602001610524565b3480156108ef575f5ffd5b506106076108fe366004616583565b611cec565b34801561090e575f5ffd5b5061060761091d36600461659e565b611e42565b34801561092d575f5ffd5b5061071a611e93565b348015610941575f5ffd5b50610955610950366004616583565b611ecd565b60405161052491906165c1565b34801561096d575f5ffd5b50610976611f9b565b60405161052491906165fb565b34801561098e575f5ffd5b50610607611fa6565b3480156109a2575f5ffd5b506106076109b1366004616632565b611fdb565b3480156109c1575f5ffd5b506106076120ac565b3480156109d5575f5ffd5b50610a096109e43660046164b8565b608e6020525f90815260409020546001600160601b0380821691600160601b90041682565b604080516001600160601b03938416815292909116602083015201610524565b610607610a37366004616664565b612553565b348015610a47575f5ffd5b506105607ff146182d150a5b368b6d283f87aeae1f25c21b02ff55cf16848704ade176a5cb81565b348015610a7a575f5ffd5b50610560612572565b348015610a8e575f5ffd5b50610aa2610a9d366004616583565b6125a0565b604051610524919061670b565b348015610aba575f5ffd5b50610ace610ac936600461674c565b612607565b604080519788526020880196909652948601939093526060850191909152608084015260a083015260c082015260e001610524565b348015610b0e575f5ffd5b506105607f1d770361ad1ba5c90793f5d8711778cd963118207b8b46db0f36c72a65b0b45181565b348015610b41575f5ffd5b507fcd5ed15c6e187e77e9aee88184c21f4f2182ab5827cb3b7e07fbedcd63f033005460ff16610518565b348015610b77575f5ffd5b5061071a6126bf565b348015610b8b575f5ffd5b506105607fe1777bd22f637fc57eadcf9d877079117b44537a53059b1670036696018f564c81565b348015610bbe575f5ffd5b50610607610bcd3660046163df565b6127a1565b348015610bdd575f5ffd5b5060885461071a906001600160601b031681565b348015610bfc575f5ffd5b50610560610c0b3660046163df565b6001600160a01b03165f9081527f52c63247e1f47db19d5ce0460030c497f067ca4cebf71ba98eeadabe20bace00602052604090205490565b348015610c4f575f5ffd5b50610607610c5e366004616583565b6128b3565b348015610c6e575f5ffd5b50610a09610c7d3660046164b8565b608d6020525f90815260409020546001600160601b0380821691600160601b90041682565b348015610cad575f5ffd5b50610ce2610cbc3660046164b8565b608c6020525f908152604090205467ffffffffffffffff80821691600160401b90041682565b6040805167ffffffffffffffff938416815292909116602083015201610524565b348015610d0e575f5ffd5b50610560610d1d366004616583565b67ffffffffffffffff165f90815260466020526040902054610100900460ff1690565b348015610d4b575f5ffd5b5061071a610d5a36600461659e565b612984565b348015610d6a575f5ffd5b50610607612bcb565b348015610d7e575f5ffd5b5061056069010f0cf064dd5920000081565b348015610d9b575f5ffd5b50610607610daa366004616768565b612bfd565b348015610dba575f5ffd5b50610518610dc936600461659e565b5f9182527f02dd7bc7dec4dceedda775e58dd541e08a116c6c53815c0bd028192f7b626800602090815260408084206001600160a01b0393909316845291905290205460ff1690565b348015610e1d575f5ffd5b50610582612ce4565b348015610e31575f5ffd5b5061056060045481565b610607610e493660046163df565b612d35565b348015610e59575f5ffd5b506105605f81565b348015610e6c575f5ffd5b506105607f78a7a80e95d53cedc2e84890fb7aaf754249c544050913a3263a2abf9d66f53881565b348015610e9f575f5ffd5b50610607610eae366004616789565b612e90565b348015610ebe575f5ffd5b50610518610ecd36600461627e565b613224565b348015610edd575f5ffd5b506105826040518060400160405280600581526020017f352e302e3000000000000000000000000000000000000000000000000000000081525081565b348015610f25575f5ffd5b50610607610f34366004616583565b613231565b348015610f44575f5ffd5b50608a5461ffff165b60405161ffff9091168152602001610524565b610607610f6e3660046163df565b6134b6565b348015610f7e575f5ffd5b50610607610f8d366004616632565b613924565b348015610f9d575f5ffd5b50610607610fac36600461659e565b613a1c565b348015610fbc575f5ffd5b50610518610fcb366004616583565b60056020525f908152604090205460ff1681565b348015610fea575f5ffd5b50610607610ff9366004616583565b613a5f565b348015611009575f5ffd5b506105606110183660046167fa565b6001600160a01b039182165f9081527f52c63247e1f47db19d5ce0460030c497f067ca4cebf71ba98eeadabe20bace016020908152604080832093909416825291909152205490565b34801561106c575f5ffd5b5061071a61107b366004616816565b613b47565b34801561108b575f5ffd5b50611094613b9d565b604051610524919061682f565b3480156110ac575f5ffd5b506105607fbb12ed6b435a5fce787412ceb233935082e39147d977bc587eb74d0f97f48d2c81565b3480156110df575f5ffd5b506110f36110ee366004616816565b613c26565b60405161052494939291906168e7565b34801561110e575f5ffd5b5061060761111d366004616768565b613cce565b34801561112d575f5ffd5b5061071a61113c366004616816565b613da5565b34801561114c575f5ffd5b5061116061115b36600461627e565b613de5565b604080516001600160601b03958616815294909316602085015264ffffffffff9091169183019190915261ffff166060820152608001610524565b3480156111a6575f5ffd5b5060895461ffff16610f4d565b5f7fffffffff0000000000000000000000000000000000000000000000000000000082167f7965db0b00000000000000000000000000000000000000000000000000000000148061124557507f01ffc9a7000000000000000000000000000000000000000000000000000000007fffffffff000000000000000000000000000000000000000000000000000000008316145b92915050565b7f52c63247e1f47db19d5ce0460030c497f067ca4cebf71ba98eeadabe20bace0380546060917f52c63247e1f47db19d5ce0460030c497f067ca4cebf71ba98eeadabe20bace009161129c90616934565b80601f01602080910402602001604051908101604052809291908181526020018280546112c890616934565b80156113135780601f106112ea57610100808354040283529160200191611313565b820191905f5260205f20905b8154815290600101906020018083116112f657829003601f168201915b505050505091505090565b5f3361132b818585613e3d565b5060019392505050565b61133d613e4a565b81515f5b818167ffffffffffffffff16101561139057611380848267ffffffffffffffff168151811061137257611372616966565b602002602001015184613ea8565b6113898161698e565b9050611341565b50505050565b6001600160a01b0381165f908152608f60209081526040808320805482518185028101850190935280835260609492939192909184015b82821015611439575f84815260209081902060408051608081018252918501546001600160601b038082168452600160601b82041683850152600160c01b810464ffffffffff1691830191909152600160e81b900461ffff1660608201528252600190920191016113cd565b505050509050919050565b7f78a7a80e95d53cedc2e84890fb7aaf754249c544050913a3263a2abf9d66f53861146e81614058565b506001600160a01b03919091165f908152608b60205260409020805460ff1916911515919091179055565b6114a1613e4a565b335f908152608f6020526040812080549091908290849081106114c6576114c6616966565b5f9182526020918290206040805160808101825292909101546001600160601b038082168452600160601b80830490911694840194909452600160c01b810464ffffffffff908116928401839052600160e81b90910461ffff1660608401526088549294509290910490911614611569576040517fdcb958f400000000000000000000000000000000000000000000000000000000815260040160405180910390fd5b606081015181515f916127109161158d9161ffff16906001600160601b03166169ba565b61159791906169e5565b90505f81835f01516115a991906169f8565b60408085015164ffffffffff165f908152608e6020908152908290208251808401909352546001600160601b03808216808552600160601b90920416838301529086015192935090919082906116009083906169f8565b6001600160601b03169052506020810180518391906116209083906169f8565b6001600160601b0390811690915260408087015164ffffffffff165f908152608e602090815291902084518154928601518416600160601b027fffffffffffffffff0000000000000000000000000000000000000000000000009093169084161791909117905584161590506116d957608980548491906002906116b49084906201000090046001600160601b03166169f8565b92506101000a8154816001600160601b0302191690836001600160601b031602179055505b6116e38587614062565b6116fa3033865f01516001600160601b03166141fc565b60405186815233907fd1bbb16d648df2dfd0b1b3d88a5bc3f262e0323d3af8fd678115b4f1e7b4b88a9060200160405180910390a2505050505050565b5f611740613e4a565b6001600160601b03341115611781576040517f1132981b00000000000000000000000000000000000000000000000000000000815260040160405180910390fd5b611789614290565b61179234613b47565b9050806001600160601b03165f036117bd5760405163a88ee57760e01b815260040160405180910390fd5b826001600160601b0316816001600160601b03161015611809576040517fc635a9f200000000000000000000000000000000000000000000000000000000815260040160405180910390fd5b61181c82826001600160601b0316614410565b608880543491905f906118399084906001600160601b0316616a17565b82546101009290920a6001600160601b03818102199093169183160217909155608854600160601b900464ffffffffff165f908152608d602052604081208054349450909261188a91859116616a17565b92506101000a8154816001600160601b0302191690836001600160601b0316021790555092915050565b600381815481106118c3575f80fd5b5f9182526020909120015467ffffffffffffffff811691506001600160601b03600160401b8204811691600160a01b90041683565b5f3361190585828561445d565b6119108585856141fc565b60019150505b9392505050565b5f611926613e4a565b61192e614290565b335f908152608b6020526040812054819060ff166119725760895461ffff169150612710611965836001600160601b0388166169ba565b61196f91906169e5565b90505b5f61197d82876169f8565b905061198881613da5565b9350836001600160601b03165f036119b35760405163a88ee57760e01b815260040160405180910390fd5b846001600160601b0316846001600160601b031610156119ff576040517f641963a400000000000000000000000000000000000000000000000000000000815260040160405180910390fd5b608854335f908152608f6020908152604080832081516080810183526001600160601b03808d1682528a811682860190815264ffffffffff600160601b98899004811684870181815261ffff808f16606088019081528854600181018a55988c528a8c209751979098018054955192519851909116600160e81b027fff0000ffffffffffffffffffffffffffffffffffffffffffffffffffffffffff98909416600160c01b02979097167fff00000000000000ffffffffffffffffffffffffffffffffffffffffffffffff9186168c027fffffffffffffffff0000000000000000000000000000000000000000000000009095169686169690961793909317929092169390931792909217909255808552608e8452938290208251808401909352548082168084529590041691810191909152909186908290611b43908390616a17565b6001600160601b0316905250602081018051849190611b63908390616a17565b6001600160601b0390811690915264ffffffffff84165f908152608e6020908152604090912084518154928601518416600160601b027fffffffffffffffff000000000000000000000000000000000000000000000000909316908416179190911790558516159050611c195760898054859190600290611bf49084906201000090046001600160601b0316616a17565b92506101000a8154816001600160601b0302191690836001600160601b031602179055505b611c2d33308a6001600160601b03166141fc565b335f818152608f60205260409020547fef31107568890496c8f16fec1278e709d23f1444e004e7973a9403880c28d91790611c6a90600190616a36565b604080519182526001600160601b038088166020840152808b1691830191909152871660608201526080015b60405180910390a2505050505092915050565b5f8281527f02dd7bc7dec4dceedda775e58dd541e08a116c6c53815c0bd028192f7b6268006020526040902060010154611ce281614058565b611390838361450b565b611cf46145d7565b611d085f67ffffffffffffffff8316614601565b15155f03611d42576040517f0fa1af0e00000000000000000000000000000000000000000000000000000000815260040160405180910390fd5b604080516060810182525f602080830182815283850183815267ffffffffffffffff8781168087526003805460018101825581885288517fc2575a0e9e593c00f959f8c92f12db2869c3395a3b0502d05e2516446f71f85b9091018054965195519190941673ffffffffffffffffffffffffffffffffffffffff1990961695909517600160401b6001600160601b0395861602176001600160a01b0316600160a01b949095169390930293909317905554818452600283529285902083905584519081529081018290528351929391927fdd8aaf98a662995c3720dc78ea3773142e7d32c94f523a7d651e932ba0c44f8a929181900390910190a1505050565b6001600160a01b0381163314611e84576040517f6697b23200000000000000000000000000000000000000000000000000000000815260040160405180910390fd5b611e8e828261460c565b505050565b5f611e9c6126bf565b7f52c63247e1f47db19d5ce0460030c497f067ca4cebf71ba98eeadabe20bace0254611ec89190616a17565b905090565b67ffffffffffffffff8082165f90815260466020908152604080832081518083019092525460ff80821683526101009091041691810182905260609390929190811115611f1c57611f1c6162a8565b604051908082528060200260200182016040528015611f45578160200160208202803683370190505b5090505f5b826020015160ff16811015611f93578251611f67908260ff6146b0565b828281518110611f7957611f79616966565b60ff90921660209283029190910190910152600101611f4a565b509392505050565b6060611ec85f6146d9565b7ff146182d150a5b368b6d283f87aeae1f25c21b02ff55cf16848704ade176a5cb611fd081614058565b611fd86146e5565b50565b611fe3613e4a565b805147905f5b818167ffffffffffffffff16101561203757612027848267ffffffffffffffff168151811061201a5761201a616966565b6020026020010151614757565b6120308161698e565b9050611fe9565b505f6120438347616a36565b9050801561139057608854600160601b900464ffffffffff165f908152608d6020526040812080548392906120829084906001600160601b0316616a17565b92506101000a8154816001600160601b0302191690836001600160601b0316021790555050505050565b6120b4613e4a565b6120bc614290565b6088546001600160601b03811690600160601b900464ffffffffff165f806120e2614877565b90925090505f608c816120f6600187616a49565b64ffffffffff16815260208082019290925260409081015f2081518083019092525467ffffffffffffffff8082168352600160401b909104811692820183905290925084161015612173576040517f4851faea00000000000000000000000000000000000000000000000000000000815260040160405180910390fd5b64ffffffffff84165f818152608d602090815260408083208151808301835290546001600160601b038082168352600160601b91829004811683860152958552608e8452938290208251808401909352548086168084529490048516928201929092528151919390929116111561228357815181515f916121f4918a6148b2565b825184519192505f918391612208916169f8565b61221291906169f8565b90506001600160601b0381161561226c5780608d5f6122328b6001616a66565b64ffffffffff16815260208101919091526040015f2080546bffffffffffffffffffffffff19166001600160601b03929092169190911790555b505067ffffffffffffffff84166020840152612398565b815181516001600160601b039182169116111561234457805182515f916122aa918a614b92565b835183519192505f9183916122be916169f8565b6122c891906169f8565b90506001600160601b0381161561226c5780608e5f6122e88b6001616a66565b64ffffffffff16815260208101919091526040015f2080546bffffffffffffffffffffffff19166001600160601b039290921691909117905561232b818a616a17565b9850505067ffffffffffffffff84166020840152612398565b81516001600160601b03165f03612387576040517fc2e5347d00000000000000000000000000000000000000000000000000000000815260040160405180910390fd5b67ffffffffffffffff851660208401525b60208101516001600160601b0316156123c2576123c23082602001516001600160601b0316614e54565b80516001600160601b0316156124045780516123de90886169f8565b608880546bffffffffffffffffffffffff19166001600160601b03929092169190911790555b6040805160608101825260895461ffff811682526001600160601b03620100008204811660208401819052600160701b909204169282019290925290156124b95780602001518160400181815161245b9190616a17565b6001600160601b039081169091525f60208401528251608980546040860151909316600160701b027fffffffffffff000000000000000000000000000000000000000000000000000090931661ffff90921691909117919091179055505b67ffffffffffffffff808716855264ffffffffff88165f908152608c6020908152604090912086518154928801518416600160401b027fffffffffffffffffffffffffffffffff00000000000000000000000000000000909316931692909217179055612527876001616a66565b6088600c6101000a81548164ffffffffff021916908364ffffffffff1602179055505050505050505050565b61255b614ea1565b61256482614f71565b61256e8282614f9b565b5050565b5f61257b61509c565b507f360894a13ba1a3210667c828492db98dca3e2076cc3735a920a3ca505d382bbc90565b604080516060810182525f80825260208201819052918101919091526125c5826150fe565b60408051606081018252915467ffffffffffffffff811683526001600160601b03600160401b820481166020850152600160a01b909104169082015292915050565b6040517f573c1ce000000000000000000000000000000000000000000000000000000000815267ffffffffffffffff831660048201526001600160a01b03821660248201525f908190819081908190819081906110009063573c1ce09060440160e0604051808303815f875af1158015612683573d5f5f3e3d5ffd5b505050506040513d601f19601f820116820180604052508101906126a79190616a83565b959f949e50929c50909a509850965090945092505050565b60408051606081018252608a5461ffff811682526201000081046001600160601b031660208301819052600160701b90910464ffffffffff16928201839052915f9061270b9042616a36565b9050801561279c5781515f906127109061ffff166001600160601b0386166127517f52c63247e1f47db19d5ce0460030c497f067ca4cebf71ba98eeadabe20bace025490565b61275b9190616ad2565b61276591906169ba565b61276f91906169e5565b90505f6301e1338061278184846169ba565b61278b91906169e5565b90506127978186616a17565b945050505b505090565b6127a9613e4a565b7f359946d964cb1f92e24841dd25d0e8706f1ab6dd13500522367deddd927658d86127d381614058565b6127db614290565b608a546201000090046001600160601b03168015612826576127fd8382614410565b608a80547fffffffffffffffffffffffffffffffffffff000000000000000000000000ffff1690555b608954600160701b90046001600160601b031680156128735761284a3085836141fc565b608980547fffffffffffff000000000000000000000000ffffffffffffffffffffffffffff1690555b60408051838152602081018390527fd9787bf70d3926a4a81c52cba8799d18903ce0132aaa4b7de9e92dc893303a7f91015b60405180910390a150505050565b6128bb613e4a565b7f1d770361ad1ba5c90793f5d8711778cd963118207b8b46db0f36c72a65b0b4516128e581614058565b67ffffffffffffffff82165f9081526005602052604090205460ff1661291e5760405163194fdc7f60e31b815260040160405180910390fd5b5f612928836150fe565b8054909150600160a01b90046001600160601b03165f81900361295e5760405163a88ee57760e01b815260040160405180910390fd5b61297184826001600160601b031661517d565b505080546001600160a01b031690555050565b5f61298d613e4a565b335f908152608f6020526040812080549091908290869081106129b2576129b2616966565b5f91825260208083206040805160808101825293909101546001600160601b038082168552600160601b82041684840152600160c01b810464ffffffffff16848301819052600160e81b90910461ffff1660608501528452608c825280842081518083019092525467ffffffffffffffff808216808452600160401b9092041692820192909252919350909103612a75576040517ffc08f5f200000000000000000000000000000000000000000000000000000000815260040160405180910390fd5b5f612a7e615206565b509050612a89615272565b60ff168260200151612a9b9190616ae5565b67ffffffffffffffff168167ffffffffffffffff161015612ae8576040517fba9bead700000000000000000000000000000000000000000000000000000000815260040160405180910390fd5b612af28488614062565b826020015194505f866001600160a01b0316866001600160601b03166040515f6040518083038185875af1925050503d805f8114612b4b576040519150601f19603f3d011682016040523d82523d5f602084013e612b50565b606091505b5050905080612b8b576040517f90b8ec1800000000000000000000000000000000000000000000000000000000815260040160405180910390fd5b604080518981526001600160601b038816602082015233917f53a80b7fa2025e3acb298abd7e222b36ce5d6a1425e7a6e53b451aac0c6e5a219101611c96565b7ff146182d150a5b368b6d283f87aeae1f25c21b02ff55cf16848704ade176a5cb612bf581614058565b611fd86152a5565b7f13172b8201242833f26d88301b6e27aa2235ec2d9b2c92a1ed33678f0ee068fa612c2781614058565b60c88261ffff161115612c66576040517ffc5bee1200000000000000000000000000000000000000000000000000000000815260040160405180910390fd5b608a5461ffff90811690831603612c905760405163a88ee57760e01b815260040160405180910390fd5b612c98614290565b608a805461ffff191661ffff84169081179091556040519081527f756367c310578acc96b78fcf4141ddb3cf532982d1342ec193f34a3600b9ae65906020015b60405180910390a15050565b7f52c63247e1f47db19d5ce0460030c497f067ca4cebf71ba98eeadabe20bace0480546060917f52c63247e1f47db19d5ce0460030c497f067ca4cebf71ba98eeadabe20bace009161129c90616934565b612d3d613e4a565b6001600160601b03341115612d7e576040517f1132981b00000000000000000000000000000000000000000000000000000000815260040160405180910390fd5b6088546001600160601b031669010f0cf064dd59200000811015612dce576040517f500625f400000000000000000000000000000000000000000000000000000000815260040160405180910390fd5b612dd83482616a17565b608880546bffffffffffffffffffffffff19166001600160601b039283161790819055600160601b900464ffffffffff165f908152608d6020526040812080543493919291612e2991859116616a17565b92506101000a8154816001600160601b0302191690836001600160601b031602179055507f04e75fda068b8e114d7658bdff74280a0fd65586b7e026a034eae29dd5a9e68b3483604051612cd89291909182526001600160a01b0316602082015260400190565b612e98615300565b600454815f5b8181101561321b57848482818110612eb857612eb8616966565b9050606002016040016020810190612ed09190616b05565b15613052575f612f06868684818110612eeb57612eeb616966565b612f019260206060909202019081019150616583565b6150fe565b805467ffffffffffffffff165f9081526005602052604090205490915060ff1615612f445760405163194fdc7f60e31b815260040160405180910390fd5b8054600160401b90046001600160601b03165f878785818110612f6957612f69616966565b9050606002016020016020810190612f819190616816565b612f8b9083616a17565b835473ffffffffffffffffffffffff00000000000000001916600160401b6001600160601b03838116918202929092178655919250612fcc90841688616a36565b612fd69190616ad2565b9550878785818110612fea57612fea616966565b6130009260206060909202019081019150616583565b6040516001600160601b038316815267ffffffffffffffff91909116907fcfaa637aecf1e60e723842980c95e1f0a7ca0a264e46647e4656b98f7293e33b9060200160405180910390a2505050613213565b5f60025f87878581811061306857613068616966565b61307e9260206060909202019081019150616583565b67ffffffffffffffff1667ffffffffffffffff1681526020019081526020015f20549050805f036130af5750613213565b5f60036130bd600184616a36565b815481106130cd576130cd616966565b5f91825260208220018054909250600160401b90046001600160601b0316908181036130fc5750505050613213565b5f89898781811061310f5761310f616966565b90506060020160200160208101906131279190616816565b9050826001600160601b0316816001600160601b031610156131505761314d81846169f8565b91505b83546001600160601b03808416600160401b810273ffffffffffffffffffffffff00000000000000001990931692909217865561318f9085168a616a36565b6131999190616ad2565b97508989878181106131ad576131ad616966565b6131c39260206060909202019081019150616583565b6040516001600160601b038416815267ffffffffffffffff91909116907fcfaa637aecf1e60e723842980c95e1f0a7ca0a264e46647e4656b98f7293e33b9060200160405180910390a250505050505b600101612e9e565b50506004555050565b5f3361132b8185856141fc565b61323a8161532a565b67ffffffffffffffff81165f908152600260205260408120549081900361328d576040517f30812d4200000000000000000000000000000000000000000000000000000000815260040160405180910390fd5b5f600361329b600184616a36565b815481106132ab576132ab616966565b5f91825260209182902060408051606081018252929091015467ffffffffffffffff811683526001600160601b03600160401b82048116948401859052600160a01b90910416908201529150156133155760405163194fdc7f60e31b815260040160405180910390fd5b60408101516001600160601b0316156133415760405163194fdc7f60e31b815260040160405180910390fd5b600380545f919061335490600190616a36565b8154811061336457613364616966565b5f9182526020808320909101805467ffffffffffffffff16835260029091526040909120849055905080600361339b600186616a36565b815481106133ab576133ab616966565b5f918252602080832084549201805467ffffffffffffffff93841667ffffffffffffffff19821681178355865473ffffffffffffffffffffffffffffffffffffffff1990921617600160401b918290046001600160601b039081169092021780835595546001600160a01b03909616600160a01b96879004909116909502949094179093558616815260029091526040812055600380548061344f5761344f616b20565b5f8281526020812082015f1990810182905590910190915561347b9067ffffffffffffffff8616615400565b5060405167ffffffffffffffff851681527f8712d9d347359238729023dc8640e38f0d4f8ad25d0e079c2208a885a51a023f906020016128a5565b5f6134bf61540b565b805490915060ff600160401b820416159067ffffffffffffffff165f811580156134e65750825b90505f8267ffffffffffffffff1660011480156135025750303b155b905081158015613510575080155b15613547576040517ff92ee8a900000000000000000000000000000000000000000000000000000000815260040160405180910390fd5b845467ffffffffffffffff19166001178555831561357657845468ff00000000000000001916600160401b1785555b61357e615433565b6135f26040518060400160405280601381526020017f4b696e747375205374616b6564204d6f6e6164000000000000000000000000008152506040518060400160405280600481526020017f734d4f4e0000000000000000000000000000000000000000000000000000000081525061543b565b6135fa615433565b613602615433565b61360c5f8761450b565b506136377f902b1971fb3d9217703fb59d9a8bf53ee64da1be6756f20cebc090dd4c37f7d88761450b565b506136627fe1777bd22f637fc57eadcf9d877079117b44537a53059b1670036696018f564c8761450b565b5061368d7fbb12ed6b435a5fce787412ceb233935082e39147d977bc587eb74d0f97f48d2c8761450b565b506136b87f1d770361ad1ba5c90793f5d8711778cd963118207b8b46db0f36c72a65b0b4518761450b565b506136e37f13172b8201242833f26d88301b6e27aa2235ec2d9b2c92a1ed33678f0ee068fa8761450b565b5061370e7f13172b8201242833f26d88301b6e27aa2235ec2d9b2c92a1ed33678f0ee068fa8061544d565b6137387f359946d964cb1f92e24841dd25d0e8706f1ab6dd13500522367deddd927658d88761450b565b506137637f359946d964cb1f92e24841dd25d0e8706f1ab6dd13500522367deddd927658d88061544d565b61378d7f78a7a80e95d53cedc2e84890fb7aaf754249c544050913a3263a2abf9d66f5388761450b565b506137b87f78a7a80e95d53cedc2e84890fb7aaf754249c544050913a3263a2abf9d66f5388061544d565b6137e27f1ea2b19b7ab22acb68ebeb58b5cb9eab43e3e119ebbd3159fdcddfc5b8c538b88761450b565b5061380d7f1ea2b19b7ab22acb68ebeb58b5cb9eab43e3e119ebbd3159fdcddfc5b8c538b88061544d565b6138377ff146182d150a5b368b6d283f87aeae1f25c21b02ff55cf16848704ade176a5cb8761450b565b50608880547fffffffffffffffffffffffffffffff0000000000ffffffffffffffffffffffff16600160601b1790556040805160608101825260c88082525f60208301524264ffffffffff1691909201819052608a8054600160701b9092027fffffffffffffffffffffffffff000000000000000000000000000000000000009092169190911790911790556089805461ffff19166005179055831561391c57845468ff000000000000000019168555604051600181527fc7f505b2f371ae2175ee4913f4499e1f2633a7b5936321eed1cdaeb6115181d29060200160405180910390a15b505050505050565b61392c613e4a565b805147905f5b818167ffffffffffffffff16101561398057613970848267ffffffffffffffff168151811061396357613963616966565b60200260200101516154ee565b6139798161698e565b9050613932565b505f61398c8347616a36565b9050805f036139ae5760405163a88ee57760e01b815260040160405180910390fd5b608880548291905f906139cb9084906001600160601b0316616a17565b82546101009290920a6001600160601b03818102199093169183160217909155608854600160601b900464ffffffffff165f908152608d602052604081208054859450909261208291859116616a17565b5f8281527f02dd7bc7dec4dceedda775e58dd541e08a116c6c53815c0bd028192f7b6268006020526040902060010154613a5581614058565b611390838361460c565b613a67615593565b67ffffffffffffffff81165f9081526005602052604090205460ff1615613aa15760405163a88ee57760e01b815260040160405180910390fd5b5f613aab826150fe565b805460048054929350600160401b9091046001600160601b0316915f90613ad3908490616a36565b9091555050805473ffffffffffffffffffffffff00000000000000001916815567ffffffffffffffff82165f81815260056020908152604091829020805460ff1916600117905590519182527fa46b2e9bd92f27216c46d5a9772c39431f3f381285ee1dacb1f1034fe603b10b9101612cd8565b6088545f906001600160601b0316808203613b6457829150613b97565b80613b6d611e93565b6001600160601b0316846001600160601b0316613b8a91906169ba565b613b9491906169e5565b91505b50919050565b60606003805480602002602001604051908101604052809291908181526020015f905b82821015613c1d575f848152602090819020604080516060810182529185015467ffffffffffffffff811683526001600160601b03600160401b8204811684860152600160a01b9091041690820152825260019092019101613bc0565b50505050905090565b5f5f606080613cbf6003805480602002602001604051908101604052809291908181526020015f905b82821015613cac575f848152602090819020604080516060810182529185015467ffffffffffffffff811683526001600160601b03600160401b8204811684860152600160a01b9091041690820152825260019092019101613c4f565b50505050866001600160601b03166155bd565b93509350935093509193509193565b7f13172b8201242833f26d88301b6e27aa2235ec2d9b2c92a1ed33678f0ee068fa613cf881614058565b60328261ffff161115613d37576040517ffc5bee1200000000000000000000000000000000000000000000000000000000815260040160405180910390fd5b60895461ffff90811690831603613d615760405163a88ee57760e01b815260040160405180910390fd5b6089805461ffff191661ffff84169081179091556040519081527f0531f91c02fe1dc8b306233f5edba5c1b65a79a064d26a40b6082bc9d887ecba90602001612cd8565b5f5f613daf611e93565b6001600160601b03169050805f03613dc957829150613b97565b6088548190613b8a906001600160601b039081169086166169ba565b608f602052815f5260405f208181548110613dfe575f80fd5b5f918252602090912001546001600160601b038082169350600160601b8204169150600160c01b810464ffffffffff1690600160e81b900461ffff1684565b611e8e838383600161579c565b7fcd5ed15c6e187e77e9aee88184c21f4f2182ab5827cb3b7e07fbedcd63f033005460ff1615613ea6576040517fd93c066500000000000000000000000000000000000000000000000000000000815260040160405180910390fd5b565b67ffffffffffffffff82165f90815260466020908152604080832081518083019092525460ff8082168352610100909104811692820183905290929190841610613ef6578160200151613ef8565b825b90508060ff165f03613f0a5750505050565b5f5b8160ff16811015613fe2575f613f27845f01518360ff6146b0565b6040517faed2ee7300000000000000000000000000000000000000000000000000000000815267ffffffffffffffff8816600482015260ff821660248201529091505f906110009063aed2ee73906044016020604051808303815f875af1158015613f94573d5f5f3e3d5ffd5b505050506040513d601f19601f82011682018060405250810190613fb89190616b34565b905080613fd857604051633f48ffd960e21b815260040160405180910390fd5b5050600101613f0c565b508151613ff1908260ff6146b0565b60ff16825260208201805182919061400a908390616b4f565b60ff90811690915267ffffffffffffffff9095165f90815260466020908152604090912084518154929095015187166101000261ffff19909216949096169390931792909217909355505050565b611fd881336158c5565b81545f9061407290600190616a36565b90508082146141af5782818154811061408d5761408d616966565b905f5260205f20018383815481106140a7576140a7616966565b5f91825260209091208254910180546bffffffffffffffffffffffff1981166001600160601b0393841690811783558454600160601b908190049094169093027fffffffffffffffff00000000000000000000000000000000000000000000000090911690921791909117808255825464ffffffffff600160c01b9182900416027fffffff0000000000ffffffffffffffffffffffffffffffffffffffffffffffff821681178355925461ffff600160e81b9182900416027fff0000ffffffffffffffffffffffffffffffffffffffffffffffffffffffffff9093167fff00000000000000ffffffffffffffffffffffffffffffffffffffffffffffff909116179190911790555b828054806141bf576141bf616b20565b5f8281526020902081015f1990810180547fff00000000000000000000000000000000000000000000000000000000000000169055019055505050565b6001600160a01b038316614243576040517f96c6fd1e0000000000000000000000000000000000000000000000000000000081525f60048201526024015b60405180910390fd5b6001600160a01b038216614285576040517fec442f050000000000000000000000000000000000000000000000000000000081525f600482015260240161423a565b611e8e838383615951565b60408051606081018252608a5461ffff811682526201000081046001600160601b03166020830152600160701b900464ffffffffff16918101829052905f906142d99042616a36565b9050801561256e575f61271061ffff16835f015161ffff1684602001516001600160601b03166143277f52c63247e1f47db19d5ce0460030c497f067ca4cebf71ba98eeadabe20bace025490565b6143319190616ad2565b61433b91906169ba565b61434591906169e5565b90505f6301e1338061435784846169ba565b61436191906169e5565b90508084602001516001600160601b031661437c9190616ad2565b6001600160601b0316602085018190524264ffffffffff16604086018190529451608a805461ffff9092167fffffffffffffffffffffffffffffffffffff00000000000000000000000000009092169190911762010000909202919091177fffffffffffffffffffffffffff0000000000ffffffffffffffffffffffffffff16600160701b90950294909417909355505050565b6001600160a01b038216614452576040517fec442f050000000000000000000000000000000000000000000000000000000081525f600482015260240161423a565b61256e5f8383615951565b6001600160a01b038381165f9081527f52c63247e1f47db19d5ce0460030c497f067ca4cebf71ba98eeadabe20bace0160209081526040808320938616835292905220545f1981101561139057818110156144fd576040517ffb8f41b20000000000000000000000000000000000000000000000000000000081526001600160a01b0384166004820152602481018290526044810183905260640161423a565b61139084848484035f61579c565b5f8281527f02dd7bc7dec4dceedda775e58dd541e08a116c6c53815c0bd028192f7b626800602081815260408084206001600160a01b038616855290915282205460ff166145ce575f848152602082815260408083206001600160a01b03871684529091529020805460ff191660011790556145843390565b6001600160a01b0316836001600160a01b0316857f2f8788117e7eff1d82e926ec794901d17c78024a50270940304540a733656f0d60405160405180910390a46001915050611245565b5f915050611245565b7f902b1971fb3d9217703fb59d9a8bf53ee64da1be6756f20cebc090dd4c37f7d8611fd881614058565b5f6119168383615ab6565b5f8281527f02dd7bc7dec4dceedda775e58dd541e08a116c6c53815c0bd028192f7b626800602081815260408084206001600160a01b038616855290915282205460ff16156145ce575f848152602082815260408083206001600160a01b0387168085529252808320805460ff1916905551339287917ff6391f5c32d9c69d2a47ea670b442974b53935d1edc7fd64eb21e047a839171b9190a46001915050611245565b5f8160ff168360ff168560ff166146c79190616ad2565b6146d19190616b68565b949350505050565b60605f61191683615b02565b6146ed615b5b565b7fcd5ed15c6e187e77e9aee88184c21f4f2182ab5827cb3b7e07fbedcd63f03300805460ff191681557f5db9ee0a495bf2e6ff9c91a7834c1ba4fdd244a5e8aa4e537bd38aeae4b073aa335b6040516001600160a01b03909116815260200160405180910390a150565b67ffffffffffffffff81165f9081526047602052604090205460ff166147a9576040517f78297a8c00000000000000000000000000000000000000000000000000000000815260040160405180910390fd5b6040517faed2ee7300000000000000000000000000000000000000000000000000000000815267ffffffffffffffff8216600482015260ff60248201525f906110009063aed2ee73906044016020604051808303815f875af1158015614811573d5f5f3e3d5ffd5b505050506040513d601f19601f820116820180604052508101906148359190616b34565b90508061485557604051633f48ffd960e21b815260040160405180910390fd5b5067ffffffffffffffff165f908152604760205260409020805460ff19169055565b5f5f5f5f614883615206565b915091508193508061489f5761489a846001616ae5565b6148aa565b6148aa846002616ae5565b925050509091565b6004545f908082036148f0576040517f098404de00000000000000000000000000000000000000000000000000000000815260040160405180910390fd5b5f6003805480602002602001604051908101604052809291908181526020015f905b8282101561496f575f848152602090819020604080516060810182529185015467ffffffffffffffff811683526001600160601b03600160401b8204811684860152600160a01b9091041690820152825260019092019101614912565b5050505090505f5f61499583888861498791906169f8565b6001600160601b03166155bd565b9350509250505f87896149a891906169f8565b6001600160601b031690505f836001600160601b031682106149d357836001600160601b03166149d5565b815b90505f6149e28284616a36565b86519091505f5b81811015614b82575f5f878381518110614a0557614a05616966565b60200260200101516001600160601b031611614a21575f614a63565b876001600160601b0316878381518110614a3d57614a3d616966565b60200260200101516001600160601b031686614a5991906169ba565b614a6391906169e5565b90505f5f8511614a73575f614ab0565b8a8a8481518110614a8657614a86616966565b6020026020010151602001516001600160601b031686614aa691906169ba565b614ab091906169e5565b90505f614abd8284616ad2565b90506001600160601b03811615614b7457808b8581518110614ae157614ae1616966565b602002602001015160400151614af79190616a17565b60038581548110614b0a57614b0a616966565b905f5260205f20015f0160146101000a8154816001600160601b0302191690836001600160601b03160217905550614b678b8581518110614b4d57614b4d616966565b60200260200101515f0151826001600160601b0316615bb6565b614b71818e616a17565b9c505b5050508060010190506149e9565b5050505050505050509392505050565b5f5f6003805480602002602001604051908101604052809291908181526020015f905b82821015614c12575f848152602090819020604080516060810182529185015467ffffffffffffffff811683526001600160601b03600160401b8204811684860152600160a01b9091041690820152825260019092019101614bb5565b5050505090505f5f614c2a83888761498791906169f8565b5092505091505f8688614c3d91906169f8565b6001600160601b031690505f836001600160601b03168210614c6857836001600160601b0316614c6a565b815b90505f614c778284616a36565b6088549091505f908390614c95908c906001600160601b03166169f8565b6001600160601b0316614ca89190616a36565b87519091505f5b81811015614b82575f5f888381518110614ccb57614ccb616966565b60200260200101516001600160601b031611614ce7575f614d29565b886001600160601b0316888381518110614d0357614d03616966565b60200260200101516001600160601b031687614d1f91906169ba565b614d2991906169e5565b90505f5f8611614d39575f614d80565b84828c8581518110614d4d57614d4d616966565b6020026020010151604001516001600160601b0316614d6c9190616a36565b614d7690886169ba565b614d8091906169e5565b90505f614d8d8284616ad2565b90506001600160601b03811615614e4657808c8581518110614db157614db1616966565b602002602001015160400151614dc791906169f8565b60038581548110614dda57614dda616966565b5f91825260209091200180546001600160601b0392909216600160a01b026001600160a01b03909216919091179055614e13818e616a17565b9c50614e448c8581518110614e2a57614e2a616966565b60200260200101515f0151826001600160601b0316615c5e565b505b505050806001019050614caf565b6001600160a01b038216614e96576040517f96c6fd1e0000000000000000000000000000000000000000000000000000000081525f600482015260240161423a565b61256e825f83615951565b306001600160a01b037f0000000000000000000000000000000000000000000000000000000000000000161480614f3a57507f00000000000000000000000000000000000000000000000000000000000000006001600160a01b0316614f2e7f360894a13ba1a3210667c828492db98dca3e2076cc3735a920a3ca505d382bbc546001600160a01b031690565b6001600160a01b031614155b15613ea6576040517fe07c8dba00000000000000000000000000000000000000000000000000000000815260040160405180910390fd5b7f1ea2b19b7ab22acb68ebeb58b5cb9eab43e3e119ebbd3159fdcddfc5b8c538b861256e81614058565b816001600160a01b03166352d1902d6040518163ffffffff1660e01b8152600401602060405180830381865afa925050508015614ff5575060408051601f3d908101601f19168201909252614ff291810190616b7b565b60015b615036576040517f4c9c8ce30000000000000000000000000000000000000000000000000000000081526001600160a01b038316600482015260240161423a565b7f360894a13ba1a3210667c828492db98dca3e2076cc3735a920a3ca505d382bbc8114615092576040517faa1d49a40000000000000000000000000000000000000000000000000000000081526004810182905260240161423a565b611e8e8383615d5c565b306001600160a01b037f00000000000000000000000000000000000000000000000000000000000000001614613ea6576040517fe07c8dba00000000000000000000000000000000000000000000000000000000815260040160405180910390fd5b67ffffffffffffffff81165f90815260026020526040812054808203615150576040517f30812d4200000000000000000000000000000000000000000000000000000000815260040160405180910390fd5b600361515d600183616a36565b8154811061516d5761516d616966565b905f5260205f2001915050919050565b67ffffffffffffffff82165f9081526047602052604081205460ff16156151d0576040517f500389a000000000000000000000000000000000000000000000000000000000815260040160405180910390fd5b5060ff6151de838383615db1565b67ffffffffffffffff9092165f908152604760205260409020805460ff191660011790555090565b5f5f6110006001600160a01b031663757991a86040518163ffffffff1660e01b815260040160408051808303815f875af1158015615246573d5f5f3e3d5ffd5b505050506040513d601f19601f8201168201806040525081019061526a9190616b92565b915091509091565b5f46608f036152815750600190565b4661279f036152905750600190565b466175bf0361529f5750600190565b50600190565b6152ad613e4a565b7fcd5ed15c6e187e77e9aee88184c21f4f2182ab5827cb3b7e07fbedcd63f03300805460ff191660011781557f62e78cea01bee320cd4e420270b5ea74000d11b0c9f74754ebdbfc544b05a25833614739565b7fe1777bd22f637fc57eadcf9d877079117b44537a53059b1670036696018f564c611fd881614058565b7f1d770361ad1ba5c90793f5d8711778cd963118207b8b46db0f36c72a65b0b45161535481614058565b67ffffffffffffffff82165f90815260466020526040812054610100900460ff1611156153ad576040517f4d078c7100000000000000000000000000000000000000000000000000000000815260040160405180910390fd5b67ffffffffffffffff82165f9081526047602052604090205460ff161561256e576040517f4d078c7100000000000000000000000000000000000000000000000000000000815260040160405180910390fd5b5f6119168383615e66565b5f807ff0c57e16840df040f15088dc2f81fe391c3923bec73e23a9662efc9c229c6a00611245565b613ea6615f40565b615443615f40565b61256e8282615f7e565b7f02dd7bc7dec4dceedda775e58dd541e08a116c6c53815c0bd028192f7b6268005f6154a6845f9081527f02dd7bc7dec4dceedda775e58dd541e08a116c6c53815c0bd028192f7b626800602052604090206001015490565b5f85815260208490526040808220600101869055519192508491839187917fbd79b86ffe0ab8e8776151514217cd7cacd52c909f66475c3af44e129f0b00ff9190a450505050565b6040517fa76e2ca500000000000000000000000000000000000000000000000000000000815267ffffffffffffffff821660048201525f906110009063a76e2ca5906024016020604051808303815f875af115801561554f573d5f5f3e3d5ffd5b505050506040513d601f19601f820116820180604052508101906155739190616b34565b90508061256e57604051633f48ffd960e21b815260040160405180910390fd5b7fbb12ed6b435a5fce787412ceb233935082e39147d977bc587eb74d0f97f48d2c611fd881614058565b60045482515f91829160609182918067ffffffffffffffff8111156155e4576155e46162a8565b60405190808252806020026020018201604052801561560d578160200160208202803683370190505b5093508067ffffffffffffffff811115615629576156296162a8565b604051908082528060200260200182016040528015615652578160200160208202803683370190505b5092505f5b81811015615790575f89828151811061567257615672616966565b6020026020010151604001516001600160601b031690505f5f8511615697575f6156d4565b848a8c85815181106156ab576156ab616966565b6020026020010151602001516001600160601b03166156ca91906169ba565b6156d491906169e5565b905080821115615730575f6156e98284616a36565b90506156f5818b616a17565b99508088858151811061570a5761570a616966565b60200260200101906001600160601b031690816001600160601b03168152505050615786565b81811115615786575f6157438383616a36565b905061574f818a616a17565b98508087858151811061576457615764616966565b60200260200101906001600160601b031690816001600160601b031681525050505b5050600101615657565b50505092959194509250565b7f52c63247e1f47db19d5ce0460030c497f067ca4cebf71ba98eeadabe20bace006001600160a01b0385166157ff576040517fe602df050000000000000000000000000000000000000000000000000000000081525f600482015260240161423a565b6001600160a01b038416615841576040517f94280d620000000000000000000000000000000000000000000000000000000081525f600482015260240161423a565b6001600160a01b038086165f908152600183016020908152604080832093881683529290522083905581156158be57836001600160a01b0316856001600160a01b03167f8c5be1e5ebec7d5bd14f71427d1e84f3dd0314c0f7b2291e5b200ac8c7c3b925856040516158b591815260200190565b60405180910390a35b5050505050565b5f8281527f02dd7bc7dec4dceedda775e58dd541e08a116c6c53815c0bd028192f7b626800602090815260408083206001600160a01b038516845290915290205460ff1661256e576040517fe2517d3f0000000000000000000000000000000000000000000000000000000081526001600160a01b03821660048201526024810183905260440161423a565b7f52c63247e1f47db19d5ce0460030c497f067ca4cebf71ba98eeadabe20bace006001600160a01b03841661599e5781816002015f8282546159939190616ad2565b90915550615a279050565b6001600160a01b0384165f9081526020829052604090205482811015615a09576040517fe450d38c0000000000000000000000000000000000000000000000000000000081526001600160a01b0386166004820152602481018290526044810184905260640161423a565b6001600160a01b0385165f9081526020839052604090209083900390555b6001600160a01b038316615a45576002810180548390039055615a63565b6001600160a01b0383165f9081526020829052604090208054830190555b826001600160a01b0316846001600160a01b03167fddf252ad1be2c89b69c2b068fc378daa952ba7f163c4a11628f55a4df523b3ef84604051615aa891815260200190565b60405180910390a350505050565b5f818152600183016020526040812054615afb57508154600181810184555f848152602080822090930184905584548482528286019093526040902091909155611245565b505f611245565b6060815f01805480602002602001604051908101604052809291908181526020018280548015615b4f57602002820191905f5260205f20905b815481526020019060010190808311615b3b575b50505050509050919050565b7fcd5ed15c6e187e77e9aee88184c21f4f2182ab5827cb3b7e07fbedcd63f033005460ff16613ea6576040517f8dfc202b00000000000000000000000000000000000000000000000000000000815260040160405180910390fd5b6040517f84994fec00000000000000000000000000000000000000000000000000000000815267ffffffffffffffff831660048201525f90611000906384994fec90849060240160206040518083038185885af1158015615c19573d5f5f3e3d5ffd5b50505050506040513d601f19601f82011682018060405250810190615c3e9190616b34565b905080611e8e57604051633f48ffd960e21b815260040160405180910390fd5b67ffffffffffffffff82165f9081526046602090815260408083208151808301909252805460ff808216845261010090910416928201839052917fffffffffffffffffffffffffffffffffffffffffffffffffffffffffffffff0101615cf0576040517f500389a000000000000000000000000000000000000000000000000000000000815260040160405180910390fd5b615d03815f0151826020015160ff6146b0565b925080602001516001615d169190616bbf565b825460ff91909116610100027fffffffffffffffffffffffffffffffffffffffffffffffffffffffffffff00ff909116178255615d54858585615db1565b505092915050565b615d6582615fe1565b6040516001600160a01b038316907fbc7cd75a20ee27fd9adebab32041f755214dbc6bffa90cc0225b39da2e5c2d3b905f90a2805115615da957611e8e828261607d565b61256e6160ef565b6040517f5cf4151400000000000000000000000000000000000000000000000000000000815267ffffffffffffffff841660048201526024810183905260ff821660448201525f9061100090635cf41514906064016020604051808303815f875af1158015615e22573d5f5f3e3d5ffd5b505050506040513d601f19601f82011682018060405250810190615e469190616b34565b90508061139057604051633f48ffd960e21b815260040160405180910390fd5b5f81815260018301602052604081205480156145ce575f615e88600183616a36565b85549091505f90615e9b90600190616a36565b9050808214615efa575f865f018281548110615eb957615eb9616966565b905f5260205f200154905080875f018481548110615ed957615ed9616966565b5f918252602080832090910192909255918252600188019052604090208390555b8554869080615f0b57615f0b616b20565b600190038181905f5260205f20015f90559055856001015f8681526020019081526020015f205f905560019350505050611245565b615f48616127565b613ea6576040517fd7e6bcf800000000000000000000000000000000000000000000000000000000815260040160405180910390fd5b615f86615f40565b7f52c63247e1f47db19d5ce0460030c497f067ca4cebf71ba98eeadabe20bace007f52c63247e1f47db19d5ce0460030c497f067ca4cebf71ba98eeadabe20bace03615fd28482616c1c565b50600481016113908382616c1c565b806001600160a01b03163b5f0361602f576040517f4c9c8ce30000000000000000000000000000000000000000000000000000000081526001600160a01b038216600482015260240161423a565b7f360894a13ba1a3210667c828492db98dca3e2076cc3735a920a3ca505d382bbc805473ffffffffffffffffffffffffffffffffffffffff19166001600160a01b0392909216919091179055565b60605f5f846001600160a01b0316846040516160999190616cd7565b5f60405180830381855af49150503d805f81146160d1576040519150601f19603f3d011682016040523d82523d5f602084013e6160d6565b606091505b50915091506160e6858383616140565b95945050505050565b3415613ea6576040517fb398979f00000000000000000000000000000000000000000000000000000000815260040160405180910390fd5b5f61613061540b565b54600160401b900460ff16919050565b60608261615557616150826161b5565b611916565b815115801561616c57506001600160a01b0384163b155b156161ae576040517f9996b3150000000000000000000000000000000000000000000000000000000081526001600160a01b038516600482015260240161423a565b5080611916565b8051156161c457805160208201fd5b6040517fd6bda27500000000000000000000000000000000000000000000000000000000815260040160405180910390fd5b5f60208284031215616206575f5ffd5b81357fffffffff0000000000000000000000000000000000000000000000000000000081168114611916575f5ffd5b602081525f82518060208401528060208501604085015e5f604082850101526040601f19601f83011684010191505092915050565b6001600160a01b0381168114611fd8575f5ffd5b5f5f6040838503121561628f575f5ffd5b823561629a8161626a565b946020939093013593505050565b634e487b7160e01b5f52604160045260245ffd5b604051601f8201601f1916810167ffffffffffffffff811182821017156162e5576162e56162a8565b604052919050565b67ffffffffffffffff81168114611fd8575f5ffd5b5f82601f830112616311575f5ffd5b813567ffffffffffffffff81111561632b5761632b6162a8565b8060051b61633b602082016162bc565b91825260208185018101929081019086841115616356575f5ffd5b6020860192505b83831015616381578235616370816162ed565b82526020928301929091019061635d565b9695505050505050565b5f5f6040838503121561639c575f5ffd5b823567ffffffffffffffff8111156163b2575f5ffd5b6163be85828601616302565b925050602083013560ff811681146163d4575f5ffd5b809150509250929050565b5f602082840312156163ef575f5ffd5b81356119168161626a565b602080825282518282018190525f918401906040840190835b818110156164745783516001600160601b0381511684526001600160601b03602082015116602085015264ffffffffff604082015116604085015261ffff606082015116606085015250608083019250602084019350600181019050616413565b509095945050505050565b8015158114611fd8575f5ffd5b5f5f6040838503121561649d575f5ffd5b82356164a88161626a565b915060208301356163d48161647f565b5f602082840312156164c8575f5ffd5b5035919050565b80356001600160601b03811681146164e5575f5ffd5b919050565b5f5f604083850312156164fb575f5ffd5b616504836164cf565b915060208301356163d48161626a565b5f5f5f60608486031215616526575f5ffd5b83356165318161626a565b925060208401356165418161626a565b929592945050506040919091013590565b5f5f60408385031215616563575f5ffd5b61656c836164cf565b915061657a602084016164cf565b90509250929050565b5f60208284031215616593575f5ffd5b8135611916816162ed565b5f5f604083850312156165af575f5ffd5b8235915060208301356163d48161626a565b602080825282518282018190525f918401906040840190835b8181101561647457835160ff168352602093840193909201916001016165da565b602080825282518282018190525f918401906040840190835b81811015616474578351835260209384019390920191600101616614565b5f60208284031215616642575f5ffd5b813567ffffffffffffffff811115616658575f5ffd5b6146d184828501616302565b5f5f60408385031215616675575f5ffd5b82356166808161626a565b9150602083013567ffffffffffffffff81111561669b575f5ffd5b8301601f810185136166ab575f5ffd5b803567ffffffffffffffff8111156166c5576166c56162a8565b6166d86020601f19601f840116016162bc565b8181528660208385010111156166ec575f5ffd5b816020840160208301375f602083830101528093505050509250929050565b60608101611245828467ffffffffffffffff81511682526001600160601b0360208201511660208301526001600160601b0360408201511660408301525050565b5f5f6040838503121561675d575f5ffd5b8235616504816162ed565b5f60208284031215616778575f5ffd5b813561ffff81168114611916575f5ffd5b5f5f6020838503121561679a575f5ffd5b823567ffffffffffffffff8111156167b0575f5ffd5b8301601f810185136167c0575f5ffd5b803567ffffffffffffffff8111156167d6575f5ffd5b8560206060830284010111156167ea575f5ffd5b6020919091019590945092505050565b5f5f6040838503121561680b575f5ffd5b82356165048161626a565b5f60208284031215616826575f5ffd5b611916826164cf565b602080825282518282018190525f918401906040840190835b818110156164745761688e83855167ffffffffffffffff81511682526001600160601b0360208201511660208301526001600160601b0360408201511660408301525050565b6020939093019260609290920191600101616848565b5f8151808452602084019350602083015f5b828110156168dd5781516001600160601b03168652602095860195909101906001016168b6565b5093949350505050565b6001600160601b03851681526001600160601b0384166020820152608060408201525f61691760808301856168a4565b828103606084015261692981856168a4565b979650505050505050565b600181811c9082168061694857607f821691505b602082108103613b9757634e487b7160e01b5f52602260045260245ffd5b634e487b7160e01b5f52603260045260245ffd5b634e487b7160e01b5f52601160045260245ffd5b5f67ffffffffffffffff821667ffffffffffffffff81036169b1576169b161697a565b60010192915050565b80820281158282048414176112455761124561697a565b634e487b7160e01b5f52601260045260245ffd5b5f826169f3576169f36169d1565b500490565b6001600160601b0382811682821603908111156112455761124561697a565b6001600160601b0381811683821601908111156112455761124561697a565b818103818111156112455761124561697a565b64ffffffffff82811682821603908111156112455761124561697a565b64ffffffffff81811683821601908111156112455761124561697a565b5f5f5f5f5f5f5f60e0888a031215616a99575f5ffd5b5050855160208701516040880151606089015160808a015160a08b015160c0909b0151949c939b50919990985090965094509092509050565b808201808211156112455761124561697a565b67ffffffffffffffff81811683821601908111156112455761124561697a565b5f60208284031215616b15575f5ffd5b81356119168161647f565b634e487b7160e01b5f52603160045260245ffd5b5f60208284031215616b44575f5ffd5b81516119168161647f565b60ff82811682821603908111156112455761124561697a565b5f82616b7657616b766169d1565b500690565b5f60208284031215616b8b575f5ffd5b5051919050565b5f5f60408385031215616ba3575f5ffd5b8251616bae816162ed565b60208401519092506163d48161647f565b60ff81811683821601908111156112455761124561697a565b601f821115611e8e57805f5260205f20601f840160051c81016020851015616bfd5750805b601f840160051c820191505b818110156158be575f8155600101616c09565b815167ffffffffffffffff811115616c3657616c366162a8565b616c4a81616c448454616934565b84616bd8565b6020601f821160018114616c7c575f8315616c655750848201515b5f19600385901b1c1916600184901b1784556158be565b5f84815260208120601f198516915b82811015616cab5787850151825560209485019460019092019101616c8b565b5084821015616cc857868401515f19600387901b60f8161c191681555b50505050600190811b01905550565b5f82518060208501845e5f92019182525091905056fea2646970667358221220cd305a43d233eb4df696690b086a25fd4b1081c149f369afe9b6db9e5104f8bb64736f6c634300081e0033","linkReferences":{}},"methodIdentifiers":{"DEFAULT_ADMIN_ROLE()":"a217fddf","MINIMUM_CONTRIBUTE_THRESHOLD()":"86bb1d6e","ROLE_ADD_NODE()":"22fd4ad5","ROLE_DISABLE_NODE()":"e8ce8922","ROLE_FEE_CLAIMER()":"06c7dbc4","ROLE_FEE_EXEMPTION()":"a30fefe1","ROLE_FEE_SETTER()":"1b8e0db6","ROLE_PAUSE()":"4ff0241a","ROLE_REMOVE_NODE()":"5838b2fe","ROLE_UPDATE_WEIGHTS()":"63311d3d","ROLE_UPGRADE()":"2a7d8acb","UPGRADE_INTERFACE_VERSION()":"ad3cb1cc","addNode(uint64)":"337b2b6e","allowance(address,address)":"dd62ed3e","approve(address,uint256)":"095ea7b3","balanceOf(address)":"70a08231","batchDepositRequests(uint256)":"77654f34","batchSubmissions(uint256)":"78f908e1","batchWithdrawRequests(uint256)":"4beae6e3","cancelUnlockRequest(uint256)":"1610247b","claimProtocolFees(address)":"69ce6d47","compound(uint64[])":"cf5e2743","contributeToPool(address)":"a0e3cdd6","convertToAssets(uint96)":"fb9848e4","convertToShares(uint96)":"df235fe6","currentBatchId()":"0a763da1","decimals()":"313ce567","deposit(uint96,address)":"1c3477dd","disableNode(uint64)":"d8a9fe50","getAllUserUnlockRequests(address)":"0b52f7b1","getDelegator(uint64,address)":"573c1ce0","getExitFeeBips()":"fde73f7d","getImbalances(uint96)":"f6516e7f","getManagementFeeBips()":"bf7df8e0","getMintableProtocolShares()":"615bfc45","getNodeIds()":"3e367afa","getNodes()":"e29581aa","getRoleAdmin(bytes32)":"248a9ca3","getWithdrawIds(uint64)":"3b5b4765","getWithdrawIdsSize(uint64)":"7a6d59d5","grantRole(bytes32,address)":"2f2ff15d","hasRole(bytes32,address)":"91d14854","initialize(address)":"c4d66de8","isExitFeeExempt(address)":"0bf14d9b","isForceWithdrawPending(uint64)":"2584601f","isNodeDisabled(uint64)":"d6531de5","name()":"06fdde03","nodes(uint256)":"1c53c280","pause()":"8456cb59","paused()":"5c975abb","proxiableUUID()":"52d1902d","redeem(uint256,address)":"7bde82f2","removeNode(uint64)":"aedf6d51","renounceRole(bytes32,address)":"36568abe","requestUnlock(uint96,uint96)":"24f67e18","revokeRole(bytes32,address)":"d547741f","setExitFee(uint16)":"f75b0404","setExitFeeExemption(address,bool)":"15230e80","setManagementFee(uint16)":"8dd09af3","submitBatch()":"46115383","supportsInterface(bytes4)":"01ffc9a7","sweep(uint64[],uint8)":"0a9f9ee2","sweepForced(uint64[])":"43abcf32","symbol()":"95d89b41","totalPooled()":"6ec21cc8","totalShares()":"3a98ef39","totalSupply()":"18160ddd","totalWeight()":"96c82e57","transfer(address,uint256)":"a9059cbb","transferFrom(address,address,uint256)":"23b872dd","unbondDisableNode(uint64)":"733897b7","unpause()":"3f4ba83a","updateWeights((uint64,uint96,bool)[])":"a4b0b5a3","upgradeToAndCall(address,bytes)":"4f1ef286","userUnlockRequests(address,uint256)":"fd012e34","viewNodeByNodeId(uint64)":"540a26f3"},"id":66}