{"abi":[{"type":"constructor","inputs":[],"stateMutability":"nonpayable"},{"type":"receive","stateMutability":"payable"},{"type":"function","name":"DEFAULT_ADMIN_ROLE","inputs":[],"outputs":[{"name":"","type":"bytes32","internalType":"bytes32"}],"stateMutability":"view"},{"type":"function","name":"MINIMUM_CONTRIBUTE_THRESHOLD","inputs":[],"outputs":[{"name":"","type":"uint256","internalType":"uint256"}],"stateMutability":"view"},{"type":"function","name":"ROLE_ADD_NODE","inputs":[],"outputs":[{"name":"","type":"bytes32","internalType":"bytes32"}],"stateMutability":"view"},{"type":"function","name":"ROLE_DISABLE_NODE","inputs":[],"outputs":[{"name":"","type":"bytes32","internalType":"bytes32"}],"stateMutability":"view"},{"type":"function","name":"ROLE_FEE_CLAIMER","inputs":[],"outputs":[{"name":"","type":"bytes32","internalType":"bytes32"}],"stateMutability":"view"},{"type":"function","name":"ROLE_FEE_EXEMPTION","inputs":[],"outputs":[{"name":"","type":"bytes32","internalType":"bytes32"}],"stateMutability":"view"},{"type":"function","name":"ROLE_FEE_SETTER","inputs":[],"outputs":[{"name":"","type":"bytes32","internalType":"bytes32"}],"stateMutability":"view"},{"type":"function","name":"ROLE_PAUSE","inputs":[],"outputs":[{"name":"","type":"bytes32","internalType":"bytes32"}],"stateMutability":"view"},{"type":"function","name":"ROLE_REMOVE_NODE","inputs":[],"outputs":[{"name":"","type":"bytes32","internalType":"bytes32"}],"stateMutability":"view"},{"type":"function","name":"ROLE_TOGGLE_INSTANT_UNLOCK","inputs":[],"outputs":[{"name":"","type":"bytes32","internalType":"bytes32"}],"stateMutability":"view"},{"type":"function","name":"ROLE_UPDATE_WEIGHTS","inputs":[],"outputs":[{"name":"","type":"bytes32","internalType":"bytes32"}],"stateMutability":"view"},{"type":"function","name":"ROLE_UPGRADE","inputs":[],"outputs":[{"name":"","type":"bytes32","internalType":"bytes32"}],"stateMutability":"view"},{"type":"function","name":"UPGRADE_INTERFACE_VERSION","inputs":[],"outputs":[{"name":"","type":"string","internalType":"string"}],"stateMutability":"view"},{"type":"function","name":"addNode","inputs":[{"name":"nodeId","type":"uint64","internalType":"uint64"}],"outputs":[],"stateMutability":"nonpayable"},{"type":"function","name":"allowance","inputs":[{"name":"owner","type":"address","internalType":"address"},{"name":"spender","type":"address","internalType":"address"}],"outputs":[{"name":"","type":"uint256","internalType":"uint256"}],"stateMutability":"view"},{"type":"function","name":"approve","inputs":[{"name":"spender","type":"address","internalType":"address"},{"name":"value","type":"uint256","internalType":"uint256"}],"outputs":[{"name":"","type":"bool","internalType":"bool"}],"stateMutability":"nonpayable"},{"type":"function","name":"balanceOf","inputs":[{"name":"account","type":"address","internalType":"address"}],"outputs":[{"name":"","type":"uint256","internalType":"uint256"}],"stateMutability":"view"},{"type":"function","name":"batchDepositRequests","inputs":[{"name":"","type":"uint256","internalType":"uint256"}],"outputs":[{"name":"assets","type":"uint96","internalType":"uint96"},{"name":"shares","type":"uint96","internalType":"uint96"}],"stateMutability":"view"},{"type":"function","name":"batchSubmissions","inputs":[{"name":"","type":"uint256","internalType":"uint256"}],"outputs":[{"name":"submissionEpoch","type":"uint64","internalType":"uint64"},{"name":"activationEpoch","type":"uint64","internalType":"uint64"}],"stateMutability":"view"},{"type":"function","name":"batchWithdrawRequests","inputs":[{"name":"","type":"uint256","internalType":"uint256"}],"outputs":[{"name":"assets","type":"uint96","internalType":"uint96"},{"name":"shares","type":"uint96","internalType":"uint96"}],"stateMutability":"view"},{"type":"function","name":"cancelUnlockRequest","inputs":[{"name":"unlockIndex","type":"uint256","internalType":"uint256"}],"outputs":[],"stateMutability":"nonpayable"},{"type":"function","name":"claimProtocolFees","inputs":[{"name":"to","type":"address","internalType":"address"}],"outputs":[],"stateMutability":"nonpayable"},{"type":"function","name":"compound","inputs":[{"name":"nodeIds","type":"uint64[]","internalType":"uint64[]"}],"outputs":[],"stateMutability":"nonpayable"},{"type":"function","name":"contributeToPool","inputs":[{"name":"benefactor","type":"address","internalType":"address"}],"outputs":[],"stateMutability":"payable"},{"type":"function","name":"convertToAssets","inputs":[{"name":"shares","type":"uint96","internalType":"uint96"}],"outputs":[{"name":"assets","type":"uint96","internalType":"uint96"}],"stateMutability":"view"},{"type":"function","name":"convertToShares","inputs":[{"name":"assets","type":"uint96","internalType":"uint96"}],"outputs":[{"name":"shares","type":"uint96","internalType":"uint96"}],"stateMutability":"view"},{"type":"function","name":"currentBatchId","inputs":[],"outputs":[{"name":"","type":"uint40","internalType":"uint40"}],"stateMutability":"view"},{"type":"function","name":"decimals","inputs":[],"outputs":[{"name":"","type":"uint8","internalType":"uint8"}],"stateMutability":"view"},{"type":"function","name":"deposit","inputs":[{"name":"minShares","type":"uint96","internalType":"uint96"},{"name":"receiver","type":"address","internalType":"address"}],"outputs":[{"name":"shares","type":"uint96","internalType":"uint96"}],"stateMutability":"payable"},{"type":"function","name":"disableNode","inputs":[{"name":"nodeId","type":"uint64","internalType":"uint64"}],"outputs":[],"stateMutability":"nonpayable"},{"type":"function","name":"getAllUserUnlockRequests","inputs":[{"name":"user","type":"address","internalType":"address"}],"outputs":[{"name":"","type":"tuple[]","internalType":"struct StakedMonad.UnlockRequest[]","components":[{"name":"shares","type":"uint96","internalType":"uint96"},{"name":"spotValue","type":"uint96","internalType":"uint96"},{"name":"batchId","type":"uint40","internalType":"uint40"},{"name":"exitFeeInBips","type":"uint16","internalType":"uint16"}]}],"stateMutability":"view"},{"type":"function","name":"getDelegator","inputs":[{"name":"val_id","type":"uint64","internalType":"uint64"},{"name":"delegator","type":"address","internalType":"address"}],"outputs":[{"name":"stake","type":"uint256","internalType":"uint256"},{"name":"acc_reward_per_token","type":"uint256","internalType":"uint256"},{"name":"rewards","type":"uint256","internalType":"uint256"},{"name":"delta_stake","type":"uint256","internalType":"uint256"},{"name":"next_delta_stake","type":"uint256","internalType":"uint256"},{"name":"delta_epoch","type":"uint256","internalType":"uint256"},{"name":"next_delta_epoch","type":"uint256","internalType":"uint256"}],"stateMutability":"nonpayable"},{"type":"function","name":"getExitFeeBips","inputs":[],"outputs":[{"name":"","type":"uint16","internalType":"uint16"}],"stateMutability":"view"},{"type":"function","name":"getImbalances","inputs":[{"name":"newTotalStaked","type":"uint96","internalType":"uint96"}],"outputs":[{"name":"overAllocation","type":"uint96","internalType":"uint96"},{"name":"underAllocation","type":"uint96","internalType":"uint96"},{"name":"overAllocations","type":"uint96[]","internalType":"uint96[]"},{"name":"underAllocations","type":"uint96[]","internalType":"uint96[]"}],"stateMutability":"view"},{"type":"function","name":"getInstantUnlockableShares","inputs":[],"outputs":[{"name":"","type":"uint96","internalType":"uint96"}],"stateMutability":"view"},{"type":"function","name":"getManagementFeeBips","inputs":[],"outputs":[{"name":"","type":"uint16","internalType":"uint16"}],"stateMutability":"view"},{"type":"function","name":"getMintableProtocolShares","inputs":[],"outputs":[{"name":"shares","type":"uint96","internalType":"uint96"}],"stateMutability":"view"},{"type":"function","name":"getNodeIds","inputs":[],"outputs":[{"name":"","type":"uint256[]","internalType":"uint256[]"}],"stateMutability":"view"},{"type":"function","name":"getNodes","inputs":[],"outputs":[{"name":"","type":"tuple[]","internalType":"struct Registry.Node[]","components":[{"name":"id","type":"uint64","internalType":"uint64"},{"name":"weight","type":"uint96","internalType":"uint96"},{"name":"staked","type":"uint96","internalType":"uint96"}]}],"stateMutability":"view"},{"type":"function","name":"getRoleAdmin","inputs":[{"name":"role","type":"bytes32","internalType":"bytes32"}],"outputs":[{"name":"","type":"bytes32","internalType":"bytes32"}],"stateMutability":"view"},{"type":"function","name":"getWithdrawIds","inputs":[{"name":"val_id","type":"uint64","internalType":"uint64"}],"outputs":[{"name":"","type":"uint8[]","internalType":"uint8[]"}],"stateMutability":"view"},{"type":"function","name":"getWithdrawIdsSize","inputs":[{"name":"val_id","type":"uint64","internalType":"uint64"}],"outputs":[{"name":"","type":"uint256","internalType":"uint256"}],"stateMutability":"view"},{"type":"function","name":"grantRole","inputs":[{"name":"role","type":"bytes32","internalType":"bytes32"},{"name":"account","type":"address","internalType":"address"}],"outputs":[],"stateMutability":"nonpayable"},{"type":"function","name":"hasRole","inputs":[{"name":"role","type":"bytes32","internalType":"bytes32"},{"name":"account","type":"address","internalType":"address"}],"outputs":[{"name":"","type":"bool","internalType":"bool"}],"stateMutability":"view"},{"type":"function","name":"initialize","inputs":[{"name":"admin","type":"address","internalType":"address"}],"outputs":[],"stateMutability":"payable"},{"type":"function","name":"instantUnlock","inputs":[{"name":"shares","type":"uint96","internalType":"uint96"},{"name":"minSpotValue","type":"uint96","internalType":"uint96"},{"name":"receiver","type":"address","internalType":"address"}],"outputs":[{"name":"spotValue","type":"uint96","internalType":"uint96"}],"stateMutability":"nonpayable"},{"type":"function","name":"isExitFeeExempt","inputs":[{"name":"","type":"address","internalType":"address"}],"outputs":[{"name":"","type":"bool","internalType":"bool"}],"stateMutability":"view"},{"type":"function","name":"isForceWithdrawPending","inputs":[{"name":"val_id","type":"uint64","internalType":"uint64"}],"outputs":[{"name":"","type":"bool","internalType":"bool"}],"stateMutability":"view"},{"type":"function","name":"isInstantUnlockEnabled","inputs":[],"outputs":[{"name":"","type":"bool","internalType":"bool"}],"stateMutability":"view"},{"type":"function","name":"isNodeDisabled","inputs":[{"name":"","type":"uint64","internalType":"uint64"}],"outputs":[{"name":"","type":"bool","internalType":"bool"}],"stateMutability":"view"},{"type":"function","name":"name","inputs":[],"outputs":[{"name":"","type":"string","internalType":"string"}],"stateMutability":"view"},{"type":"function","name":"nodes","inputs":[{"name":"","type":"uint256","internalType":"uint256"}],"outputs":[{"name":"id","type":"uint64","internalType":"uint64"},{"name":"weight","type":"uint96","internalType":"uint96"},{"name":"staked","type":"uint96","internalType":"uint96"}],"stateMutability":"view"},{"type":"function","name":"pause","inputs":[],"outputs":[],"stateMutability":"nonpayable"},{"type":"function","name":"paused","inputs":[],"outputs":[{"name":"","type":"bool","internalType":"bool"}],"stateMutability":"view"},{"type":"function","name":"proxiableUUID","inputs":[],"outputs":[{"name":"","type":"bytes32","internalType":"bytes32"}],"stateMutability":"view"},{"type":"function","name":"redeem","inputs":[{"name":"unlockIndex","type":"uint256","internalType":"uint256"},{"name":"receiver","type":"address","internalType":"address payable"}],"outputs":[{"name":"assets","type":"uint96","internalType":"uint96"}],"stateMutability":"nonpayable"},{"type":"function","name":"removeNode","inputs":[{"name":"nodeId","type":"uint64","internalType":"uint64"}],"outputs":[],"stateMutability":"nonpayable"},{"type":"function","name":"renounceRole","inputs":[{"name":"role","type":"bytes32","internalType":"bytes32"},{"name":"callerConfirmation","type":"address","internalType":"address"}],"outputs":[],"stateMutability":"nonpayable"},{"type":"function","name":"requestUnlock","inputs":[{"name":"shares","type":"uint96","internalType":"uint96"},{"name":"minSpotValue","type":"uint96","internalType":"uint96"}],"outputs":[{"name":"spotValue","type":"uint96","internalType":"uint96"}],"stateMutability":"nonpayable"},{"type":"function","name":"revokeRole","inputs":[{"name":"role","type":"bytes32","internalType":"bytes32"},{"name":"account","type":"address","internalType":"address"}],"outputs":[],"stateMutability":"nonpayable"},{"type":"function","name":"setExitFee","inputs":[{"name":"newFee","type":"uint16","internalType":"uint16"}],"outputs":[],"stateMutability":"nonpayable"},{"type":"function","name":"setExitFeeExemption","inputs":[{"name":"user","type":"address","internalType":"address"},{"name":"isExempt","type":"bool","internalType":"bool"}],"outputs":[],"stateMutability":"nonpayable"},{"type":"function","name":"setInstantUnlock","inputs":[{"name":"isEnabled","type":"bool","internalType":"bool"}],"outputs":[],"stateMutability":"nonpayable"},{"type":"function","name":"setManagementFee","inputs":[{"name":"newFee","type":"uint16","internalType":"uint16"}],"outputs":[],"stateMutability":"nonpayable"},{"type":"function","name":"submitBatch","inputs":[],"outputs":[],"stateMutability":"nonpayable"},{"type":"function","name":"supportsInterface","inputs":[{"name":"interfaceId","type":"bytes4","internalType":"bytes4"}],"outputs":[{"name":"","type":"bool","internalType":"bool"}],"stateMutability":"view"},{"type":"function","name":"sweep","inputs":[{"name":"nodeIds","type":"uint64[]","internalType":"uint64[]"},{"name":"maxWithdrawsPerNode","type":"uint8","internalType":"uint8"}],"outputs":[],"stateMutability":"nonpayable"},{"type":"function","name":"sweepForced","inputs":[{"name":"nodeIds","type":"uint64[]","internalType":"uint64[]"}],"outputs":[],"stateMutability":"nonpayable"},{"type":"function","name":"symbol","inputs":[],"outputs":[{"name":"","type":"string","internalType":"string"}],"stateMutability":"view"},{"type":"function","name":"syncStaking","inputs":[],"outputs":[],"stateMutability":"nonpayable"},{"type":"function","name":"totalPooled","inputs":[],"outputs":[{"name":"","type":"uint96","internalType":"uint96"}],"stateMutability":"view"},{"type":"function","name":"totalShares","inputs":[],"outputs":[{"name":"","type":"uint96","internalType":"uint96"}],"stateMutability":"view"},{"type":"function","name":"totalSupply","inputs":[],"outputs":[{"name":"","type":"uint256","internalType":"uint256"}],"stateMutability":"view"},{"type":"function","name":"totalWeight","inputs":[],"outputs":[{"name":"","type":"uint256","internalType":"uint256"}],"stateMutability":"view"},{"type":"function","name":"transfer","inputs":[{"name":"to","type":"address","internalType":"address"},{"name":"value","type":"uint256","internalType":"uint256"}],"outputs":[{"name":"","type":"bool","internalType":"bool"}],"stateMutability":"nonpayable"},{"type":"function","name":"transferFrom","inputs":[{"name":"from","type":"address","internalType":"address"},{"name":"to","type":"address","internalType":"address"},{"name":"value","type":"uint256","internalType":"uint256"}],"outputs":[{"name":"","type":"bool","internalType":"bool"}],"stateMutability":"nonpayable"},{"type":"function","name":"unbondDisableNode","inputs":[{"name":"nodeId","type":"uint64","internalType":"uint64"}],"outputs":[],"stateMutability":"nonpayable"},{"type":"function","name":"unpause","inputs":[],"outputs":[],"stateMutability":"nonpayable"},{"type":"function","name":"updateWeights","inputs":[{"name":"weightDeltas","type":"tuple[]","internalType":"struct Registry.WeightDelta[]","components":[{"name":"nodeId","type":"uint64","internalType":"uint64"},{"name":"delta","type":"uint96","internalType":"uint96"},{"name":"isIncreasing","type":"bool","internalType":"bool"}]}],"outputs":[],"stateMutability":"nonpayable"},{"type":"function","name":"upgradeToAndCall","inputs":[{"name":"newImplementation","type":"address","internalType":"address"},{"name":"data","type":"bytes","internalType":"bytes"}],"outputs":[],"stateMutability":"payable"},{"type":"function","name":"userUnlockRequests","inputs":[{"name":"","type":"address","internalType":"address"},{"name":"","type":"uint256","internalType":"uint256"}],"outputs":[{"name":"shares","type":"uint96","internalType":"uint96"},{"name":"spotValue","type":"uint96","internalType":"uint96"},{"name":"batchId","type":"uint40","internalType":"uint40"},{"name":"exitFeeInBips","type":"uint16","internalType":"uint16"}],"stateMutability":"view"},{"type":"function","name":"viewNodeByNodeId","inputs":[{"name":"nodeId","type":"uint64","internalType":"uint64"}],"outputs":[{"name":"node","type":"tuple","internalType":"struct Registry.Node","components":[{"name":"id","type":"uint64","internalType":"uint64"},{"name":"weight","type":"uint96","internalType":"uint96"},{"name":"staked","type":"uint96","internalType":"uint96"}]}],"stateMutability":"view"},{"type":"event","name":"Approval","inputs":[{"name":"owner","type":"address","indexed":true,"internalType":"address"},{"name":"spender","type":"address","indexed":true,"internalType":"address"},{"name":"value","type":"uint256","indexed":false,"internalType":"uint256"}],"anonymous":false},{"type":"event","name":"BatchSent","inputs":[{"name":"batchId","type":"uint256","indexed":false,"internalType":"uint256"},{"name":"shares","type":"uint256","indexed":false,"internalType":"uint256"},{"name":"spotValue","type":"uint256","indexed":false,"internalType":"uint256"}],"anonymous":false},{"type":"event","name":"Contribution","inputs":[{"name":"amount","type":"uint256","indexed":false,"internalType":"uint256"},{"name":"benefactor","type":"address","indexed":false,"internalType":"address"}],"anonymous":false},{"type":"event","name":"ExitFeeAdjusted","inputs":[{"name":"newFee","type":"uint256","indexed":false,"internalType":"uint256"}],"anonymous":false},{"type":"event","name":"FeesWithdrawn","inputs":[{"name":"managementFeeShares","type":"uint256","indexed":false,"internalType":"uint256"},{"name":"exitFeeShares","type":"uint256","indexed":false,"internalType":"uint256"}],"anonymous":false},{"type":"event","name":"Initialized","inputs":[{"name":"version","type":"uint64","indexed":false,"internalType":"uint64"}],"anonymous":false},{"type":"event","name":"ManagementFeeAdjusted","inputs":[{"name":"newFee","type":"uint256","indexed":false,"internalType":"uint256"}],"anonymous":false},{"type":"event","name":"NodeAdded","inputs":[{"name":"nodeId","type":"uint64","indexed":false,"internalType":"uint64"},{"name":"index","type":"uint256","indexed":false,"internalType":"uint256"}],"anonymous":false},{"type":"event","name":"NodeDisabled","inputs":[{"name":"nodeId","type":"uint64","indexed":false,"internalType":"uint64"}],"anonymous":false},{"type":"event","name":"NodeRemoved","inputs":[{"name":"nodeId","type":"uint64","indexed":false,"internalType":"uint64"}],"anonymous":false},{"type":"event","name":"NodeUpdated","inputs":[{"name":"nodeId","type":"uint64","indexed":true,"internalType":"uint64"},{"name":"newWeight","type":"uint256","indexed":false,"internalType":"uint256"}],"anonymous":false},{"type":"event","name":"Paused","inputs":[{"name":"account","type":"address","indexed":false,"internalType":"address"}],"anonymous":false},{"type":"event","name":"RoleAdminChanged","inputs":[{"name":"role","type":"bytes32","indexed":true,"internalType":"bytes32"},{"name":"previousAdminRole","type":"bytes32","indexed":true,"internalType":"bytes32"},{"name":"newAdminRole","type":"bytes32","indexed":true,"internalType":"bytes32"}],"anonymous":false},{"type":"event","name":"RoleGranted","inputs":[{"name":"role","type":"bytes32","indexed":true,"internalType":"bytes32"},{"name":"account","type":"address","indexed":true,"internalType":"address"},{"name":"sender","type":"address","indexed":true,"internalType":"address"}],"anonymous":false},{"type":"event","name":"RoleRevoked","inputs":[{"name":"role","type":"bytes32","indexed":true,"internalType":"bytes32"},{"name":"account","type":"address","indexed":true,"internalType":"address"},{"name":"sender","type":"address","indexed":true,"internalType":"address"}],"anonymous":false},{"type":"event","name":"Sync","inputs":[{"name":"rewarded","type":"uint256","indexed":false,"internalType":"uint256"},{"name":"slashed","type":"uint256","indexed":false,"internalType":"uint256"}],"anonymous":false},{"type":"event","name":"Transfer","inputs":[{"name":"from","type":"address","indexed":true,"internalType":"address"},{"name":"to","type":"address","indexed":true,"internalType":"address"},{"name":"value","type":"uint256","indexed":false,"internalType":"uint256"}],"anonymous":false},{"type":"event","name":"UnlockCancelled","inputs":[{"name":"staker","type":"address","indexed":true,"internalType":"address"},{"name":"unlockId","type":"uint256","indexed":false,"internalType":"uint256"}],"anonymous":false},{"type":"event","name":"UnlockRedeemed","inputs":[{"name":"staker","type":"address","indexed":true,"internalType":"address"},{"name":"unlockId","type":"uint256","indexed":false,"internalType":"uint256"},{"name":"amount","type":"uint256","indexed":false,"internalType":"uint256"}],"anonymous":false},{"type":"event","name":"UnlockRequested","inputs":[{"name":"staker","type":"address","indexed":true,"internalType":"address"},{"name":"unlockId","type":"uint256","indexed":false,"internalType":"uint256"},{"name":"shares","type":"uint256","indexed":false,"internalType":"uint256"},{"name":"spotValue","type":"uint256","indexed":false,"internalType":"uint256"},{"name":"toll","type":"uint256","indexed":false,"internalType":"uint256"}],"anonymous":false},{"type":"event","name":"Unpaused","inputs":[{"name":"account","type":"address","indexed":false,"internalType":"address"}],"anonymous":false},{"type":"event","name":"Upgraded","inputs":[{"name":"implementation","type":"address","indexed":true,"internalType":"address"}],"anonymous":false},{"type":"error","name":"AccessControlBadConfirmation","inputs":[]},{"type":"error","name":"AccessControlUnauthorizedAccount","inputs":[{"name":"account","type":"address","internalType":"address"},{"name":"neededRole","type":"bytes32","internalType":"bytes32"}]},{"type":"error","name":"ActiveNode","inputs":[]},{"type":"error","name":"AddressEmptyCode","inputs":[{"name":"target","type":"address","internalType":"address"}]},{"type":"error","name":"BatchNotSubmitted","inputs":[]},{"type":"error","name":"CancellationWindowClosed","inputs":[]},{"type":"error","name":"DepositOverflow","inputs":[]},{"type":"error","name":"DuplicateNode","inputs":[]},{"type":"error","name":"ERC1967InvalidImplementation","inputs":[{"name":"implementation","type":"address","internalType":"address"}]},{"type":"error","name":"ERC1967NonPayable","inputs":[]},{"type":"error","name":"ERC20InsufficientAllowance","inputs":[{"name":"spender","type":"address","internalType":"address"},{"name":"allowance","type":"uint256","internalType":"uint256"},{"name":"needed","type":"uint256","internalType":"uint256"}]},{"type":"error","name":"ERC20InsufficientBalance","inputs":[{"name":"sender","type":"address","internalType":"address"},{"name":"balance","type":"uint256","internalType":"uint256"},{"name":"needed","type":"uint256","internalType":"uint256"}]},{"type":"error","name":"ERC20InvalidApprover","inputs":[{"name":"approver","type":"address","internalType":"address"}]},{"type":"error","name":"ERC20InvalidReceiver","inputs":[{"name":"receiver","type":"address","internalType":"address"}]},{"type":"error","name":"ERC20InvalidSender","inputs":[{"name":"sender","type":"address","internalType":"address"}]},{"type":"error","name":"ERC20InvalidSpender","inputs":[{"name":"spender","type":"address","internalType":"address"}]},{"type":"error","name":"EmptyBatch","inputs":[]},{"type":"error","name":"EnforcedPause","inputs":[]},{"type":"error","name":"ExpectedPause","inputs":[]},{"type":"error","name":"FailedInnerCall","inputs":[]},{"type":"error","name":"FeeTooLarge","inputs":[]},{"type":"error","name":"InstantUnlockDisabled","inputs":[]},{"type":"error","name":"InstantUnlockThreshold","inputs":[]},{"type":"error","name":"InsufficientPendingWithdrawals","inputs":[]},{"type":"error","name":"InvalidInitialization","inputs":[]},{"type":"error","name":"InvalidNode","inputs":[]},{"type":"error","name":"MaxPendingWithdrawals","inputs":[]},{"type":"error","name":"MinimumBatchDelay","inputs":[]},{"type":"error","name":"MinimumContributeThreshold","inputs":[]},{"type":"error","name":"MinimumDeposit","inputs":[]},{"type":"error","name":"MinimumUnlock","inputs":[]},{"type":"error","name":"NoChange","inputs":[]},{"type":"error","name":"NotInitializing","inputs":[]},{"type":"error","name":"PendingWithdrawals","inputs":[]},{"type":"error","name":"PrecompileCallFailed","inputs":[]},{"type":"error","name":"TransferFailed","inputs":[]},{"type":"error","name":"UUPSUnauthorizedCallContext","inputs":[]},{"type":"error","name":"UUPSUnsupportedProxiableUUID","inputs":[{"name":"slot","type":"bytes32","internalType":"bytes32"}]},{"type":"error","name":"WithdrawDelay","inputs":[]},{"type":"error","name":"ZeroTotalWeight","inputs":[]}],"bytecode":{"object":"0x60a060405230608052348015610013575f80fd5b5061001c610021565b6100d3565b7ff0c57e16840df040f15088dc2f81fe391c3923bec73e23a9662efc9c229c6a00805468010000000000000000900460ff16156100715760405163f92ee8a960e01b815260040160405180910390fd5b80546001600160401b03908116146100d05780546001600160401b0319166001600160401b0390811782556040519081527fc7f505b2f371ae2175ee4913f4499e1f2633a7b5936321eed1cdaeb6115181d29060200160405180910390a15b50565b6080516174e96100f95f395f81816156160152818161563f015261581101526174e95ff3fe60806040526004361061056c575f3560e01c8063615bfc45116102c4578063a4bd422c1161017b578063d6531de5116100dc578063e8ce892211610092578063fb9848e41161006d578063fb9848e414611267578063fd012e3414611286578063fde73f7d146112e0575f80fd5b8063e8ce8922146111e6578063f6516e7f14611219578063f75b040414611248575f80fd5b8063dd62ed3e116100c2578063dd62ed3e14611143578063df235fe6146111a6578063e29581aa146111c5575f80fd5b8063d6531de5146110f6578063d8a9fe5014611124575f80fd5b8063bf7df8e011610131578063c4d66de811610117578063c4d66de8146110a5578063cf5e2743146110b8578063d547741f146110d7575f80fd5b8063bf7df8e01461106a578063c36f985714611091575f80fd5b8063ad3cb1cc11610161578063ad3cb1cc14610fef578063aedf6d5114611037578063b6f12b9414611056575f80fd5b8063a4bd422c14610fb1578063a9059cbb14610fd0575f80fd5b80638456cb591161022557806396c82e57116101db578063a217fddf116101c1578063a217fddf14610f4c578063a30fefe114610f5f578063a4b0b5a314610f92575f80fd5b806396c82e5714610f24578063a0e3cdd614610f39575f80fd5b80638dd09af31161020b5780638dd09af314610e8e57806391d1485414610ead57806395d89b4114610f10575f80fd5b80638456cb5914610e5d57806386bb1d6e14610e71575f80fd5b8063733897b71161027a57806378f908e11161026057806378f908e114610da05780637a6d59d514610e015780637bde82f214610e3e575f80fd5b8063733897b714610d4257806377654f3414610d61575f80fd5b806369ce6d47116102aa57806369ce6d4714610cb15780636ec21cc814610cd057806370a0823114610cef575f80fd5b8063615bfc4514610c6a57806363311d3d14610c7e575f80fd5b80632a7d8acb1161042357806346115383116103845780634ff0241a1161033a578063573c1ce011610315578063573c1ce014610bad5780635838b2fe14610c015780635c975abb14610c34575f80fd5b80634ff0241a14610b3a57806352d1902d14610b6d578063540a26f314610b81575f80fd5b80634beae6e31161036a5780634beae6e314610a955780634c3a045c14610af45780634f1ef28614610b27575f80fd5b80634611538314610a535780634a8a268f14610a67575f80fd5b80633a98ef39116103d95780633e367afa116103bf5780633e367afa146109ff5780633f4ba83a14610a2057806343abcf3214610a34575f80fd5b80633a98ef39146109bf5780633b5b4765146109d3575f80fd5b8063313ce56711610409578063313ce56714610966578063337b2b6e1461098157806336568abe146109a0575f80fd5b80632a7d8acb146109145780632f2ff15d14610947575f80fd5b806318160ddd116104cd57806322fd4ad511610483578063248a9ca311610469578063248a9ca31461087057806324f67e18146108bd5780632584601f146108dc575f80fd5b806322fd4ad51461081e57806323b872dd14610851575f80fd5b80631b8e0db6116104b35780631b8e0db6146107715780631c3477dd146107a45780631c53c280146107cf575f80fd5b806318160ddd1461071f57806319ddf95b14610752575f80fd5b80630a9f9ee2116105225780630bf14d9b116105085780630bf14d9b146106b357806315230e80146106e15780631610247b14610700575f80fd5b80630a9f9ee2146106665780630b52f7b114610687575f80fd5b806306fdde031161055257806306fdde03146105ec578063095ea7b31461060d5780630a763da11461062c575f80fd5b806301ffc9a71461057757806306c7dbc4146105ab575f80fd5b3661057357005b5f80fd5b348015610582575f80fd5b50610596610591366004616978565b6112f8565b60405190151581526020015b60405180910390f35b3480156105b6575f80fd5b506105de7f359946d964cb1f92e24841dd25d0e8706f1ab6dd13500522367deddd927658d881565b6040519081526020016105a2565b3480156105f7575f80fd5b50610600611390565b6040516105a291906169b7565b348015610618575f80fd5b50610596610627366004616a00565b611463565b348015610637575f80fd5b5060885461065090600160601b900464ffffffffff1681565b60405164ffffffffff90911681526020016105a2565b348015610671575f80fd5b50610685610680366004616b0d565b61147a565b005b348015610692575f80fd5b506106a66106a1366004616b61565b6114db565b6040516105a29190616b7c565b3480156106be575f80fd5b506105966106cd366004616b61565b608b6020525f908152604090205460ff1681565b3480156106ec575f80fd5b506106856106fb366004616c0e565b611589565b34801561070b575f80fd5b5061068561071a366004616c3a565b6115de565b34801561072a575f80fd5b507f52c63247e1f47db19d5ce0460030c497f067ca4cebf71ba98eeadabe20bace02546105de565b34801561075d575f80fd5b5061068561076c366004616c51565b61187c565b34801561077c575f80fd5b506105de7f13172b8201242833f26d88301b6e27aa2235ec2d9b2c92a1ed33678f0ee068fa81565b6107b76107b2366004616c87565b6118ee565b6040516001600160601b0390911681526020016105a2565b3480156107da575f80fd5b506107ee6107e9366004616c3a565b611a6b565b6040805167ffffffffffffffff90941684526001600160601b0392831660208501529116908201526060016105a2565b348015610829575f80fd5b506105de7f902b1971fb3d9217703fb59d9a8bf53ee64da1be6756f20cebc090dd4c37f7d881565b34801561085c575f80fd5b5061059661086b366004616cb1565b611aaf565b34801561087b575f80fd5b506105de61088a366004616c3a565b5f9081527f02dd7bc7dec4dceedda775e58dd541e08a116c6c53815c0bd028192f7b626800602052604090206001015490565b3480156108c8575f80fd5b506107b76108d7366004616cef565b611ad4565b3480156108e7575f80fd5b506105966108f6366004616d20565b67ffffffffffffffff165f9081526047602052604090205460ff1690565b34801561091f575f80fd5b506105de7f1ea2b19b7ab22acb68ebeb58b5cb9eab43e3e119ebbd3159fdcddfc5b8c538b881565b348015610952575f80fd5b50610685610961366004616d3b565b611e60565b348015610971575f80fd5b50604051601281526020016105a2565b34801561098c575f80fd5b5061068561099b366004616d20565b611ea3565b3480156109ab575f80fd5b506106856109ba366004616d3b565b611ff8565b3480156109ca575f80fd5b506107b7612049565b3480156109de575f80fd5b506109f26109ed366004616d20565b612083565b6040516105a29190616d5e565b348015610a0a575f80fd5b50610a13612151565b6040516105a29190616d98565b348015610a2b575f80fd5b5061068561215c565b348015610a3f575f80fd5b50610685610a4e366004616dcf565b612191565b348015610a5e575f80fd5b50610685612262565b348015610a72575f80fd5b506088546105969071010000000000000000000000000000000000900460ff1681565b348015610aa0575f80fd5b50610ad4610aaf366004616c3a565b608e6020525f90815260409020546001600160601b0380821691600160601b90041682565b604080516001600160601b039384168152929091166020830152016105a2565b348015610aff575f80fd5b506105de7fe4e31aec9ff1a347fb72ff05400e9d48f9f3a53213176eb3d32d3f8fa4697c1681565b610685610b35366004616e01565b612709565b348015610b45575f80fd5b506105de7ff146182d150a5b368b6d283f87aeae1f25c21b02ff55cf16848704ade176a5cb81565b348015610b78575f80fd5b506105de612728565b348015610b8c575f80fd5b50610ba0610b9b366004616d20565b612756565b6040516105a29190616ea8565b348015610bb8575f80fd5b50610bcc610bc7366004616ee9565b6127bd565b604080519788526020880196909652948601939093526060850191909152608084015260a083015260c082015260e0016105a2565b348015610c0c575f80fd5b506105de7f1d770361ad1ba5c90793f5d8711778cd963118207b8b46db0f36c72a65b0b45181565b348015610c3f575f80fd5b507fcd5ed15c6e187e77e9aee88184c21f4f2182ab5827cb3b7e07fbedcd63f033005460ff16610596565b348015610c75575f80fd5b506107b7612875565b348015610c89575f80fd5b506105de7fe1777bd22f637fc57eadcf9d877079117b44537a53059b1670036696018f564c81565b348015610cbc575f80fd5b50610685610ccb366004616b61565b612957565b348015610cdb575f80fd5b506088546107b7906001600160601b031681565b348015610cfa575f80fd5b506105de610d09366004616b61565b6001600160a01b03165f9081527f52c63247e1f47db19d5ce0460030c497f067ca4cebf71ba98eeadabe20bace00602052604090205490565b348015610d4d575f80fd5b50610685610d5c366004616d20565b612a69565b348015610d6c575f80fd5b50610ad4610d7b366004616c3a565b608d6020525f90815260409020546001600160601b0380821691600160601b90041682565b348015610dab575f80fd5b50610de0610dba366004616c3a565b608c6020525f908152604090205467ffffffffffffffff80821691600160401b90041682565b6040805167ffffffffffffffff9384168152929091166020830152016105a2565b348015610e0c575f80fd5b506105de610e1b366004616d20565b67ffffffffffffffff165f90815260466020526040902054610100900460ff1690565b348015610e49575f80fd5b506107b7610e58366004616d3b565b612b52565b348015610e68575f80fd5b50610685612d99565b348015610e7c575f80fd5b506105de69010f0cf064dd5920000081565b348015610e99575f80fd5b50610685610ea8366004616f05565b612dcb565b348015610eb8575f80fd5b50610596610ec7366004616d3b565b5f9182527f02dd7bc7dec4dceedda775e58dd541e08a116c6c53815c0bd028192f7b626800602090815260408084206001600160a01b0393909316845291905290205460ff1690565b348015610f1b575f80fd5b50610600612eb2565b348015610f2f575f80fd5b506105de60045481565b610685610f47366004616b61565b612f03565b348015610f57575f80fd5b506105de5f81565b348015610f6a575f80fd5b506105de7f78a7a80e95d53cedc2e84890fb7aaf754249c544050913a3263a2abf9d66f53881565b348015610f9d575f80fd5b50610685610fac366004616f26565b61305e565b348015610fbc575f80fd5b506107b7610fcb366004616f97565b6133f2565b348015610fdb575f80fd5b50610596610fea366004616a00565b6136ca565b348015610ffa575f80fd5b506106006040518060400160405280600581526020017f352e302e3000000000000000000000000000000000000000000000000000000081525081565b348015611042575f80fd5b50610685611051366004616d20565b6136d7565b348015611061575f80fd5b506107b761395c565b348015611075575f80fd5b50608a5461ffff165b60405161ffff90911681526020016105a2565b34801561109c575f80fd5b506106856139b3565b6106856110b3366004616b61565b613bd2565b3480156110c3575f80fd5b506106856110d2366004616dcf565b61408e565b3480156110e2575f80fd5b506106856110f1366004616d3b565b614186565b348015611101575f80fd5b50610596611110366004616d20565b60056020525f908152604090205460ff1681565b34801561112f575f80fd5b5061068561113e366004616d20565b6141c9565b34801561114e575f80fd5b506105de61115d366004616fdb565b6001600160a01b039182165f9081527f52c63247e1f47db19d5ce0460030c497f067ca4cebf71ba98eeadabe20bace016020908152604080832093909416825291909152205490565b3480156111b1575f80fd5b506107b76111c0366004616ff7565b6142b1565b3480156111d0575f80fd5b506111d9614307565b6040516105a29190617010565b3480156111f1575f80fd5b506105de7fbb12ed6b435a5fce787412ceb233935082e39147d977bc587eb74d0f97f48d2c81565b348015611224575f80fd5b50611238611233366004616ff7565b614390565b6040516105a294939291906170c8565b348015611253575f80fd5b50610685611262366004616f05565b614438565b348015611272575f80fd5b506107b7611281366004616ff7565b61450f565b348015611291575f80fd5b506112a56112a0366004616a00565b61454f565b604080516001600160601b03958616815294909316602085015264ffffffffff9091169183019190915261ffff1660608201526080016105a2565b3480156112eb575f80fd5b5060895461ffff1661107e565b5f7fffffffff0000000000000000000000000000000000000000000000000000000082167f7965db0b00000000000000000000000000000000000000000000000000000000148061138a57507f01ffc9a7000000000000000000000000000000000000000000000000000000007fffffffff000000000000000000000000000000000000000000000000000000008316145b92915050565b7f52c63247e1f47db19d5ce0460030c497f067ca4cebf71ba98eeadabe20bace0380546060917f52c63247e1f47db19d5ce0460030c497f067ca4cebf71ba98eeadabe20bace00916113e190617115565b80601f016020809104026020016040519081016040528092919081815260200182805461140d90617115565b80156114585780601f1061142f57610100808354040283529160200191611458565b820191905f5260205f20905b81548152906001019060200180831161143b57829003601f168201915b505050505091505090565b5f336114708185856145a7565b5060019392505050565b6114826145b4565b81515f5b818167ffffffffffffffff1610156114d5576114c5848267ffffffffffffffff16815181106114b7576114b7617147565b602002602001015184614612565b6114ce8161716f565b9050611486565b50505050565b6001600160a01b0381165f908152608f60209081526040808320805482518185028101850190935280835260609492939192909184015b8282101561157e575f84815260209081902060408051608081018252918501546001600160601b038082168452600160601b82041683850152600160c01b810464ffffffffff1691830191909152600160e81b900461ffff166060820152825260019092019101611512565b505050509050919050565b7f78a7a80e95d53cedc2e84890fb7aaf754249c544050913a3263a2abf9d66f5386115b3816147c2565b506001600160a01b03919091165f908152608b60205260409020805460ff1916911515919091179055565b6115e66145b4565b335f908152608f60205260408120805490919082908490811061160b5761160b617147565b5f9182526020918290206040805160808101825292909101546001600160601b038082168452600160601b80830490911694840194909452600160c01b810464ffffffffff908116928401839052600160e81b90910461ffff16606084015260885492945092909104909116146116ae576040517fdcb958f400000000000000000000000000000000000000000000000000000000815260040160405180910390fd5b606081015181515f91612710916116d29161ffff16906001600160601b031661719b565b6116dc91906171c6565b90505f81835f01516116ee91906171d9565b60408085015164ffffffffff165f908152608e6020908152908290208251808401909352546001600160601b03808216808552600160601b90920416838301529086015192935090919082906117459083906171d9565b6001600160601b03169052506020810180518391906117659083906171d9565b6001600160601b0390811690915260408087015164ffffffffff165f908152608e602090815291902084518154928601518416600160601b027fffffffffffffffff00000000000000000000000000000000000000000000000090931690841617919091179055841615905061181e57608980548491906002906117f99084906201000090046001600160601b03166171d9565b92506101000a8154816001600160601b0302191690836001600160601b031602179055505b61182885876147cc565b61183f3033865f01516001600160601b0316614966565b60405186815233907fd1bbb16d648df2dfd0b1b3d88a5bc3f262e0323d3af8fd678115b4f1e7b4b88a9060200160405180910390a2505050505050565b7fe4e31aec9ff1a347fb72ff05400e9d48f9f3a53213176eb3d32d3f8fa4697c166118a6816147c2565b506088805491151571010000000000000000000000000000000000027fffffffffffffffffffffffffffff00ffffffffffffffffffffffffffffffffff909216919091179055565b5f6118f76145b4565b6001600160601b03341115611938576040517f1132981b00000000000000000000000000000000000000000000000000000000815260040160405180910390fd5b6119406149fa565b611949346142b1565b9050806001600160601b03165f036119745760405163a88ee57760e01b815260040160405180910390fd5b826001600160601b0316816001600160601b031610156119c0576040517fc635a9f200000000000000000000000000000000000000000000000000000000815260040160405180910390fd5b6119d382826001600160601b0316614b7a565b608880543491905f906119f09084906001600160601b03166171f8565b82546101009290920a6001600160601b03818102199093169183160217909155608854600160601b900464ffffffffff165f908152608d6020526040812080543494509092611a41918591166171f8565b92506101000a8154816001600160601b0302191690836001600160601b0316021790555092915050565b60038181548110611a7a575f80fd5b5f9182526020909120015467ffffffffffffffff811691506001600160601b03600160401b8204811691600160a01b90041683565b5f33611abc858285614bc7565b611ac7858585614966565b60019150505b9392505050565b5f611add6145b4565b611ae56149fa565b335f908152608b6020526040812054819060ff16611b295760895461ffff169150612710611b1c836001600160601b03881661719b565b611b2691906171c6565b90505b5f611b3482876171d9565b9050611b3f8161450f565b9350836001600160601b03165f03611b6a5760405163a88ee57760e01b815260040160405180910390fd5b846001600160601b0316846001600160601b03161015611bb6576040517f641963a400000000000000000000000000000000000000000000000000000000815260040160405180910390fd5b608854335f908152608f6020908152604080832081516080810183526001600160601b03808d1682528a811682860190815264ffffffffff600160601b98899004811684870181815261ffff808f16606088019081528854600181018a55988c528a8c209751979098018054955192519851909116600160e81b027fff0000ffffffffffffffffffffffffffffffffffffffffffffffffffffffffff98909416600160c01b02979097167fff00000000000000ffffffffffffffffffffffffffffffffffffffffffffffff9186168c027fffffffffffffffff0000000000000000000000000000000000000000000000009095169686169690961793909317929092169390931792909217909255808552608e8452938290208251808401909352548082168084529590041691810191909152909186908290611cfa9083906171f8565b6001600160601b0316905250602081018051849190611d1a9083906171f8565b6001600160601b0390811690915264ffffffffff84165f908152608e6020908152604090912084518154928601518416600160601b027fffffffffffffffff000000000000000000000000000000000000000000000000909316908416179190911790558516159050611dd05760898054859190600290611dab9084906201000090046001600160601b03166171f8565b92506101000a8154816001600160601b0302191690836001600160601b031602179055505b611de433308a6001600160601b0316614966565b335f818152608f60205260409020547fef31107568890496c8f16fec1278e709d23f1444e004e7973a9403880c28d91790611e2190600190617217565b604080519182526001600160601b038088166020840152808b1691830191909152871660608201526080015b60405180910390a2505050505092915050565b5f8281527f02dd7bc7dec4dceedda775e58dd541e08a116c6c53815c0bd028192f7b6268006020526040902060010154611e99816147c2565b6114d58383614c75565b611eab614d41565b611ebf5f67ffffffffffffffff8316614d6b565b15155f03611ef9576040517f0fa1af0e00000000000000000000000000000000000000000000000000000000815260040160405180910390fd5b604080516060810182525f602080830182815283850183815267ffffffffffffffff8781168087526003805460018101825581885288517fc2575a0e9e593c00f959f8c92f12db2869c3395a3b0502d05e2516446f71f85b9091018054965195519190941673ffffffffffffffffffffffffffffffffffffffff1990961695909517600160401b6001600160601b0395861602176001600160a01b0316600160a01b94909516939093029390931790555481845260028352928590208390558451908152908101829052919290917fdd8aaf98a662995c3720dc78ea3773142e7d32c94f523a7d651e932ba0c44f8a91015b60405180910390a1505050565b6001600160a01b038116331461203a576040517f6697b23200000000000000000000000000000000000000000000000000000000815260040160405180910390fd5b6120448282614d76565b505050565b5f612052612875565b7f52c63247e1f47db19d5ce0460030c497f067ca4cebf71ba98eeadabe20bace025461207e91906171f8565b905090565b67ffffffffffffffff8082165f90815260466020908152604080832081518083019092525460ff808216835261010090910416918101829052606093909291908111156120d2576120d2616a2a565b6040519080825280602002602001820160405280156120fb578160200160208202803683370190505b5090505f5b826020015160ff1681101561214957825161211d908260ff614e1a565b82828151811061212f5761212f617147565b60ff90921660209283029190910190910152600101612100565b509392505050565b606061207e5f614e43565b7ff146182d150a5b368b6d283f87aeae1f25c21b02ff55cf16848704ade176a5cb612186816147c2565b61218e614e4f565b50565b6121996145b4565b805147905f5b818167ffffffffffffffff1610156121ed576121dd848267ffffffffffffffff16815181106121d0576121d0617147565b6020026020010151614ec1565b6121e68161716f565b905061219f565b505f6121f98347617217565b905080156114d557608854600160601b900464ffffffffff165f908152608d6020526040812080548392906122389084906001600160601b03166171f8565b92506101000a8154816001600160601b0302191690836001600160601b0316021790555050505050565b61226a6145b4565b6122726149fa565b6088546001600160601b03811690600160601b900464ffffffffff165f80612298614fe1565b90925090505f608c816122ac60018761722a565b64ffffffffff16815260208082019290925260409081015f2081518083019092525467ffffffffffffffff8082168352600160401b909104811692820183905290925084161015612329576040517f4851faea00000000000000000000000000000000000000000000000000000000815260040160405180910390fd5b64ffffffffff84165f818152608d602090815260408083208151808301835290546001600160601b038082168352600160601b91829004811683860152958552608e8452938290208251808401909352548086168084529490048516928201929092528151919390929116111561243957815181515f916123aa918a61501c565b825184519192505f9183916123be916171d9565b6123c891906171d9565b90506001600160601b038116156124225780608d5f6123e88b6001617247565b64ffffffffff16815260208101919091526040015f2080546bffffffffffffffffffffffff19166001600160601b03929092169190911790555b505067ffffffffffffffff8416602084015261254e565b815181516001600160601b03918216911611156124fa57805182515f91612460918a6152fc565b835183519192505f918391612474916171d9565b61247e91906171d9565b90506001600160601b038116156124225780608e5f61249e8b6001617247565b64ffffffffff16815260208101919091526040015f2080546bffffffffffffffffffffffff19166001600160601b03929092169190911790556124e1818a6171f8565b9850505067ffffffffffffffff8416602084015261254e565b81516001600160601b03165f0361253d576040517fc2e5347d00000000000000000000000000000000000000000000000000000000815260040160405180910390fd5b67ffffffffffffffff851660208401525b60208101516001600160601b031615612578576125783082602001516001600160601b03166155be565b80516001600160601b0316156125ba57805161259490886171d9565b608880546bffffffffffffffffffffffff19166001600160601b03929092169190911790555b6040805160608101825260895461ffff811682526001600160601b03620100008204811660208401819052600160701b9092041692820192909252901561266f5780602001518160400181815161261191906171f8565b6001600160601b039081169091525f60208401528251608980546040860151909316600160701b027fffffffffffff000000000000000000000000000000000000000000000000000090931661ffff90921691909117919091179055505b67ffffffffffffffff808716855264ffffffffff88165f908152608c6020908152604090912086518154928801518416600160401b027fffffffffffffffffffffffffffffffff000000000000000000000000000000009093169316929092171790556126dd876001617247565b6088600c6101000a81548164ffffffffff021916908364ffffffffff1602179055505050505050505050565b61271161560b565b61271a826156db565b6127248282615705565b5050565b5f612731615806565b507f360894a13ba1a3210667c828492db98dca3e2076cc3735a920a3ca505d382bbc90565b604080516060810182525f808252602082018190529181019190915261277b82615868565b60408051606081018252915467ffffffffffffffff811683526001600160601b03600160401b820481166020850152600160a01b909104169082015292915050565b6040517f573c1ce000000000000000000000000000000000000000000000000000000000815267ffffffffffffffff831660048201526001600160a01b03821660248201525f908190819081908190819081906110009063573c1ce09060440160e0604051808303815f875af1158015612839573d5f803e3d5ffd5b505050506040513d601f19601f8201168201806040525081019061285d9190617264565b959f949e50929c50909a509850965090945092505050565b60408051606081018252608a5461ffff811682526201000081046001600160601b031660208301819052600160701b90910464ffffffffff16928201839052915f906128c19042617217565b905080156129525781515f906127109061ffff166001600160601b0386166129077f52c63247e1f47db19d5ce0460030c497f067ca4cebf71ba98eeadabe20bace025490565b61291191906172b3565b61291b919061719b565b61292591906171c6565b90505f6301e13380612937848461719b565b61294191906171c6565b905061294d81866171f8565b945050505b505090565b61295f6145b4565b7f359946d964cb1f92e24841dd25d0e8706f1ab6dd13500522367deddd927658d8612989816147c2565b6129916149fa565b608a546201000090046001600160601b031680156129dc576129b38382614b7a565b608a80547fffffffffffffffffffffffffffffffffffff000000000000000000000000ffff1690555b608954600160701b90046001600160601b03168015612a2957612a00308583614966565b608980547fffffffffffff000000000000000000000000ffffffffffffffffffffffffffff1690555b60408051838152602081018390527fd9787bf70d3926a4a81c52cba8799d18903ce0132aaa4b7de9e92dc893303a7f91015b60405180910390a150505050565b612a716145b4565b7f1d770361ad1ba5c90793f5d8711778cd963118207b8b46db0f36c72a65b0b451612a9b816147c2565b67ffffffffffffffff82165f9081526005602052604090205460ff16612ad45760405163194fdc7f60e31b815260040160405180910390fd5b5f612ade83615868565b8054909150600160a01b90046001600160601b03165f819003612b145760405163a88ee57760e01b815260040160405180910390fd5b612b2784826001600160601b03166158e7565b5081546001600160a01b03168255608880548291905f906122389084906001600160601b03166171d9565b5f612b5b6145b4565b335f908152608f602052604081208054909190829086908110612b8057612b80617147565b5f91825260208083206040805160808101825293909101546001600160601b038082168552600160601b82041684840152600160c01b810464ffffffffff16848301819052600160e81b90910461ffff1660608501528452608c825280842081518083019092525467ffffffffffffffff808216808452600160401b9092041692820192909252919350909103612c43576040517ffc08f5f200000000000000000000000000000000000000000000000000000000815260040160405180910390fd5b5f612c4c615970565b509050612c576159dc565b60ff168260200151612c6991906172c6565b67ffffffffffffffff168167ffffffffffffffff161015612cb6576040517fba9bead700000000000000000000000000000000000000000000000000000000815260040160405180910390fd5b612cc084886147cc565b826020015194505f866001600160a01b0316866001600160601b03166040515f6040518083038185875af1925050503d805f8114612d19576040519150601f19603f3d011682016040523d82523d5f602084013e612d1e565b606091505b5050905080612d59576040517f90b8ec1800000000000000000000000000000000000000000000000000000000815260040160405180910390fd5b604080518981526001600160601b038816602082015233917f53a80b7fa2025e3acb298abd7e222b36ce5d6a1425e7a6e53b451aac0c6e5a219101611e4d565b7ff146182d150a5b368b6d283f87aeae1f25c21b02ff55cf16848704ade176a5cb612dc3816147c2565b61218e615a00565b7f13172b8201242833f26d88301b6e27aa2235ec2d9b2c92a1ed33678f0ee068fa612df5816147c2565b60c88261ffff161115612e34576040517ffc5bee1200000000000000000000000000000000000000000000000000000000815260040160405180910390fd5b608a5461ffff90811690831603612e5e5760405163a88ee57760e01b815260040160405180910390fd5b612e666149fa565b608a805461ffff191661ffff84169081179091556040519081527f756367c310578acc96b78fcf4141ddb3cf532982d1342ec193f34a3600b9ae65906020015b60405180910390a15050565b7f52c63247e1f47db19d5ce0460030c497f067ca4cebf71ba98eeadabe20bace0480546060917f52c63247e1f47db19d5ce0460030c497f067ca4cebf71ba98eeadabe20bace00916113e190617115565b612f0b6145b4565b6001600160601b03341115612f4c576040517f1132981b00000000000000000000000000000000000000000000000000000000815260040160405180910390fd5b6088546001600160601b031669010f0cf064dd59200000811015612f9c576040517f500625f400000000000000000000000000000000000000000000000000000000815260040160405180910390fd5b612fa634826171f8565b608880546bffffffffffffffffffffffff19166001600160601b039283161790819055600160601b900464ffffffffff165f908152608d6020526040812080543493919291612ff7918591166171f8565b92506101000a8154816001600160601b0302191690836001600160601b031602179055507f04e75fda068b8e114d7658bdff74280a0fd65586b7e026a034eae29dd5a9e68b3483604051612ea69291909182526001600160a01b0316602082015260400190565b613066615a5b565b600454815f5b818110156133e95784848281811061308657613086617147565b905060600201604001602081019061309e9190616c51565b15613220575f6130d48686848181106130b9576130b9617147565b6130cf9260206060909202019081019150616d20565b615868565b805467ffffffffffffffff165f9081526005602052604090205490915060ff16156131125760405163194fdc7f60e31b815260040160405180910390fd5b8054600160401b90046001600160601b03165f87878581811061313757613137617147565b905060600201602001602081019061314f9190616ff7565b61315990836171f8565b835473ffffffffffffffffffffffff00000000000000001916600160401b6001600160601b0383811691820292909217865591925061319a90841688617217565b6131a491906172b3565b95508787858181106131b8576131b8617147565b6131ce9260206060909202019081019150616d20565b6040516001600160601b038316815267ffffffffffffffff91909116907fcfaa637aecf1e60e723842980c95e1f0a7ca0a264e46647e4656b98f7293e33b9060200160405180910390a25050506133e1565b5f60025f87878581811061323657613236617147565b61324c9260206060909202019081019150616d20565b67ffffffffffffffff1667ffffffffffffffff1681526020019081526020015f20549050805f0361327d57506133e1565b5f600361328b600184617217565b8154811061329b5761329b617147565b5f91825260208220018054909250600160401b90046001600160601b0316908181036132ca57505050506133e1565b5f8989878181106132dd576132dd617147565b90506060020160200160208101906132f59190616ff7565b9050826001600160601b0316816001600160601b0316101561331e5761331b81846171d9565b91505b83546001600160601b03808416600160401b810273ffffffffffffffffffffffff00000000000000001990931692909217865561335d9085168a617217565b61336791906172b3565b975089898781811061337b5761337b617147565b6133919260206060909202019081019150616d20565b6040516001600160601b038416815267ffffffffffffffff91909116907fcfaa637aecf1e60e723842980c95e1f0a7ca0a264e46647e4656b98f7293e33b9060200160405180910390a250505050505b60010161306c565b50506004555050565b6088545f9071010000000000000000000000000000000000900460ff16613445576040517ff4574cf700000000000000000000000000000000000000000000000000000000815260040160405180910390fd5b61344d6149fa565b335f908152608b602052604081205460ff1661349057608954612710906134819061ffff166001600160601b03881661719b565b61348b91906171c6565b613492565b5f5b90505f61349f82876171d9565b90506134aa8161450f565b9250826001600160601b03165f036134d55760405163a88ee57760e01b815260040160405180910390fd5b846001600160601b0316836001600160601b03161015613521576040517f641963a400000000000000000000000000000000000000000000000000000000815260040160405180910390fd5b608854600160601b900464ffffffffff165f908152608d6020526040902080546001600160601b03908116908516811015613588576040517fed8ff24700000000000000000000000000000000000000000000000000000000815260040160405180910390fd5b61359285826171d9565b82546bffffffffffffffffffffffff19166001600160601b039182161783556135c090339030908b16614966565b6135d330846001600160601b03166155be565b6001600160601b0384161561362c5760898054859190600e90613607908490600160701b90046001600160601b03166171f8565b92506101000a8154816001600160601b0302191690836001600160601b031602179055505b5f866001600160a01b0316866001600160601b03166040515f6040518083038185875af1925050503d805f811461367e576040519150601f19603f3d011682016040523d82523d5f602084013e613683565b606091505b50509050806136be576040517f90b8ec1800000000000000000000000000000000000000000000000000000000815260040160405180910390fd5b50505050509392505050565b5f33611470818585614966565b6136e081615a85565b67ffffffffffffffff81165f9081526002602052604081205490819003613733576040517f30812d4200000000000000000000000000000000000000000000000000000000815260040160405180910390fd5b5f6003613741600184617217565b8154811061375157613751617147565b5f91825260209182902060408051606081018252929091015467ffffffffffffffff811683526001600160601b03600160401b82048116948401859052600160a01b90910416908201529150156137bb5760405163194fdc7f60e31b815260040160405180910390fd5b60408101516001600160601b0316156137e75760405163194fdc7f60e31b815260040160405180910390fd5b600380545f91906137fa90600190617217565b8154811061380a5761380a617147565b5f9182526020808320909101805467ffffffffffffffff168352600290915260409091208490559050806003613841600186617217565b8154811061385157613851617147565b5f918252602080832084549201805467ffffffffffffffff93841667ffffffffffffffff19821681178355865473ffffffffffffffffffffffffffffffffffffffff1990921617600160401b918290046001600160601b039081169092021780835595546001600160a01b03909616600160a01b9687900490911690950294909417909355861681526002909152604081205560038054806138f5576138f56172e6565b5f8281526020812082015f199081018290559091019091556139219067ffffffffffffffff8616615b5b565b5060405167ffffffffffffffff851681527f8712d9d347359238729023dc8640e38f0d4f8ad25d0e079c2208a885a51a023f90602001612a5b565b6088545f9071010000000000000000000000000000000000900460ff1661398257505f90565b608854600160601b900464ffffffffff165f908152608d602052604090205461207e906001600160601b03166142b1565b6139bb6145b4565b6003545f908190815b81811015613b24575f600382815481106139e0576139e0617147565b5f91825260208083206040805160608101825291909301805467ffffffffffffffff81168084526001600160601b03600160401b8304811695850195909552600160a01b9091049093169382019390935291935090919081908190613a4590306127bd565b5050604089015194975090955093505f9150839050613a6485876172b3565b613a6e91906172b3565b9050816001600160601b0316816001600160601b03161115613ac357613a9482826171d9565b613a9e908c6171f8565b87546001600160a01b0316600160a01b6001600160601b038416021788559a50613b12565b816001600160601b0316816001600160601b03161015613b1257613ae781836171d9565b613af1908b6171f8565b87546001600160a01b0316600160a01b6001600160601b0384160217885599505b505050505050508060010190506139c4565b505f836001600160601b03161180613b4457505f826001600160601b0316115b15613b92576088548290613b629085906001600160601b03166171f8565b613b6c91906171d9565b608880546bffffffffffffffffffffffff19166001600160601b03929092169190911790555b604080516001600160601b038086168252841660208201527fcf2aa50876cdfbb541206f89af0ee78d44a2abf8d328e37fa4917f982149848a9101611feb565b7ff0c57e16840df040f15088dc2f81fe391c3923bec73e23a9662efc9c229c6a008054600160401b810460ff16159067ffffffffffffffff165f81158015613c175750825b90505f8267ffffffffffffffff166001148015613c335750303b155b905081158015613c41575080155b15613c78576040517ff92ee8a900000000000000000000000000000000000000000000000000000000815260040160405180910390fd5b845467ffffffffffffffff191660011785558315613ca757845468ff00000000000000001916600160401b1785555b613caf615b66565b613d236040518060400160405280601381526020017f4b696e747375205374616b6564204d6f6e6164000000000000000000000000008152506040518060400160405280600481526020017f734d4f4e00000000000000000000000000000000000000000000000000000000815250615b6e565b613d2b615b66565b613d33615b80565b613d3d5f87614c75565b50613d687f902b1971fb3d9217703fb59d9a8bf53ee64da1be6756f20cebc090dd4c37f7d887614c75565b50613d937fe1777bd22f637fc57eadcf9d877079117b44537a53059b1670036696018f564c87614c75565b50613dbe7fbb12ed6b435a5fce787412ceb233935082e39147d977bc587eb74d0f97f48d2c87614c75565b50613de97f1d770361ad1ba5c90793f5d8711778cd963118207b8b46db0f36c72a65b0b45187614c75565b50613e147f13172b8201242833f26d88301b6e27aa2235ec2d9b2c92a1ed33678f0ee068fa87614c75565b50613e3f7f13172b8201242833f26d88301b6e27aa2235ec2d9b2c92a1ed33678f0ee068fa80615b90565b613e697f359946d964cb1f92e24841dd25d0e8706f1ab6dd13500522367deddd927658d887614c75565b50613e947f359946d964cb1f92e24841dd25d0e8706f1ab6dd13500522367deddd927658d880615b90565b613ebe7f78a7a80e95d53cedc2e84890fb7aaf754249c544050913a3263a2abf9d66f53887614c75565b50613ee97f78a7a80e95d53cedc2e84890fb7aaf754249c544050913a3263a2abf9d66f53880615b90565b613f137f1ea2b19b7ab22acb68ebeb58b5cb9eab43e3e119ebbd3159fdcddfc5b8c538b887614c75565b50613f3e7f1ea2b19b7ab22acb68ebeb58b5cb9eab43e3e119ebbd3159fdcddfc5b8c538b880615b90565b613f687ff146182d150a5b368b6d283f87aeae1f25c21b02ff55cf16848704ade176a5cb87614c75565b50613f937fe4e31aec9ff1a347fb72ff05400e9d48f9f3a53213176eb3d32d3f8fa4697c1687614c75565b50608880547fffffffffffffffffffffffffffff000000000000ffffffffffffffffffffffff16710100000000010000000000000000000000001790556040805160608101825260c88082525f602083015264ffffffffff421691909201819052608a80547fffffffffffffffffffffffffff0000000000000000000000000000000000000016600160701b90920291909117909117905560898054600561ffff19909116179055831561408657845468ff000000000000000019168555604051600181527fc7f505b2f371ae2175ee4913f4499e1f2633a7b5936321eed1cdaeb6115181d29060200160405180910390a15b505050505050565b6140966145b4565b805147905f5b818167ffffffffffffffff1610156140ea576140da848267ffffffffffffffff16815181106140cd576140cd617147565b6020026020010151615c31565b6140e38161716f565b905061409c565b505f6140f68347617217565b9050805f036141185760405163a88ee57760e01b815260040160405180910390fd5b608880548291905f906141359084906001600160601b03166171f8565b82546101009290920a6001600160601b03818102199093169183160217909155608854600160601b900464ffffffffff165f908152608d6020526040812080548594509092612238918591166171f8565b5f8281527f02dd7bc7dec4dceedda775e58dd541e08a116c6c53815c0bd028192f7b62680060205260409020600101546141bf816147c2565b6114d58383614d76565b6141d1615cd6565b67ffffffffffffffff81165f9081526005602052604090205460ff161561420b5760405163a88ee57760e01b815260040160405180910390fd5b5f61421582615868565b805460048054929350600160401b9091046001600160601b0316915f9061423d908490617217565b9091555050805473ffffffffffffffffffffffff00000000000000001916815567ffffffffffffffff82165f81815260056020908152604091829020805460ff1916600117905590519182527fa46b2e9bd92f27216c46d5a9772c39431f3f381285ee1dacb1f1034fe603b10b9101612ea6565b6088545f906001600160601b03168082036142ce57829150614301565b806142d7612049565b6001600160601b0316846001600160601b03166142f4919061719b565b6142fe91906171c6565b91505b50919050565b60606003805480602002602001604051908101604052809291908181526020015f905b82821015614387575f848152602090819020604080516060810182529185015467ffffffffffffffff811683526001600160601b03600160401b8204811684860152600160a01b909104169082015282526001909201910161432a565b50505050905090565b5f806060806144296003805480602002602001604051908101604052809291908181526020015f905b82821015614416575f848152602090819020604080516060810182529185015467ffffffffffffffff811683526001600160601b03600160401b8204811684860152600160a01b90910416908201528252600190920191016143b9565b50505050866001600160601b0316615d00565b93509350935093509193509193565b7f13172b8201242833f26d88301b6e27aa2235ec2d9b2c92a1ed33678f0ee068fa614462816147c2565b60328261ffff1611156144a1576040517ffc5bee1200000000000000000000000000000000000000000000000000000000815260040160405180910390fd5b60895461ffff908116908316036144cb5760405163a88ee57760e01b815260040160405180910390fd5b6089805461ffff191661ffff84169081179091556040519081527f0531f91c02fe1dc8b306233f5edba5c1b65a79a064d26a40b6082bc9d887ecba90602001612ea6565b5f80614519612049565b6001600160601b03169050805f0361453357829150614301565b60885481906142f4906001600160601b0390811690861661719b565b608f602052815f5260405f208181548110614568575f80fd5b5f918252602090912001546001600160601b038082169350600160601b8204169150600160c01b810464ffffffffff1690600160e81b900461ffff1684565b6120448383836001615edf565b7fcd5ed15c6e187e77e9aee88184c21f4f2182ab5827cb3b7e07fbedcd63f033005460ff1615614610576040517fd93c066500000000000000000000000000000000000000000000000000000000815260040160405180910390fd5b565b67ffffffffffffffff82165f90815260466020908152604080832081518083019092525460ff8082168352610100909104811692820183905290929190841610614660578160200151614662565b825b90508060ff165f036146745750505050565b5f5b8160ff1681101561474c575f614691845f01518360ff614e1a565b6040517faed2ee7300000000000000000000000000000000000000000000000000000000815267ffffffffffffffff8816600482015260ff821660248201529091505f906110009063aed2ee73906044016020604051808303815f875af11580156146fe573d5f803e3d5ffd5b505050506040513d601f19601f8201168201806040525081019061472291906172fa565b90508061474257604051633f48ffd960e21b815260040160405180910390fd5b5050600101614676565b50815161475b908260ff614e1a565b60ff168252602082018051829190614774908390617315565b60ff90811690915267ffffffffffffffff9095165f90815260466020908152604090912084518154929095015187166101000261ffff19909216949096169390931792909217909355505050565b61218e8133616008565b81545f906147dc90600190617217565b9050808214614919578281815481106147f7576147f7617147565b905f5260205f200183838154811061481157614811617147565b5f91825260209091208254910180546bffffffffffffffffffffffff1981166001600160601b0393841690811783558454600160601b908190049094169093027fffffffffffffffff00000000000000000000000000000000000000000000000090911690921791909117808255825464ffffffffff600160c01b9182900416027fffffff0000000000ffffffffffffffffffffffffffffffffffffffffffffffff821681178355925461ffff600160e81b9182900416027fff0000ffffffffffffffffffffffffffffffffffffffffffffffffffffffffff9093167fff00000000000000ffffffffffffffffffffffffffffffffffffffffffffffff909116179190911790555b82805480614929576149296172e6565b5f8281526020902081015f1990810180547fff00000000000000000000000000000000000000000000000000000000000000169055019055505050565b6001600160a01b0383166149ad576040517f96c6fd1e0000000000000000000000000000000000000000000000000000000081525f60048201526024015b60405180910390fd5b6001600160a01b0382166149ef576040517fec442f050000000000000000000000000000000000000000000000000000000081525f60048201526024016149a4565b612044838383616094565b60408051606081018252608a5461ffff811682526201000081046001600160601b03166020830152600160701b900464ffffffffff16918101829052905f90614a439042617217565b90508015612724575f61271061ffff16835f015161ffff1684602001516001600160601b0316614a917f52c63247e1f47db19d5ce0460030c497f067ca4cebf71ba98eeadabe20bace025490565b614a9b91906172b3565b614aa5919061719b565b614aaf91906171c6565b90505f6301e13380614ac1848461719b565b614acb91906171c6565b90508084602001516001600160601b0316614ae691906172b3565b6001600160601b0316602085018190524264ffffffffff16604086018190529451608a805461ffff9092167fffffffffffffffffffffffffffffffffffff00000000000000000000000000009092169190911762010000909202919091177fffffffffffffffffffffffffff0000000000ffffffffffffffffffffffffffff16600160701b90950294909417909355505050565b6001600160a01b038216614bbc576040517fec442f050000000000000000000000000000000000000000000000000000000081525f60048201526024016149a4565b6127245f8383616094565b6001600160a01b038381165f9081527f52c63247e1f47db19d5ce0460030c497f067ca4cebf71ba98eeadabe20bace0160209081526040808320938616835292905220545f198110156114d55781811015614c67576040517ffb8f41b20000000000000000000000000000000000000000000000000000000081526001600160a01b038416600482015260248101829052604481018390526064016149a4565b6114d584848484035f615edf565b5f8281527f02dd7bc7dec4dceedda775e58dd541e08a116c6c53815c0bd028192f7b626800602081815260408084206001600160a01b038616855290915282205460ff16614d38575f848152602082815260408083206001600160a01b03871684529091529020805460ff19166001179055614cee3390565b6001600160a01b0316836001600160a01b0316857f2f8788117e7eff1d82e926ec794901d17c78024a50270940304540a733656f0d60405160405180910390a4600191505061138a565b5f91505061138a565b7f902b1971fb3d9217703fb59d9a8bf53ee64da1be6756f20cebc090dd4c37f7d861218e816147c2565b5f611acd83836161f9565b5f8281527f02dd7bc7dec4dceedda775e58dd541e08a116c6c53815c0bd028192f7b626800602081815260408084206001600160a01b038616855290915282205460ff1615614d38575f848152602082815260408083206001600160a01b0387168085529252808320805460ff1916905551339287917ff6391f5c32d9c69d2a47ea670b442974b53935d1edc7fd64eb21e047a839171b9190a4600191505061138a565b5f8160ff168360ff168560ff16614e3191906172b3565b614e3b919061732e565b949350505050565b60605f611acd83616245565b614e5761629e565b7fcd5ed15c6e187e77e9aee88184c21f4f2182ab5827cb3b7e07fbedcd63f03300805460ff191681557f5db9ee0a495bf2e6ff9c91a7834c1ba4fdd244a5e8aa4e537bd38aeae4b073aa335b6040516001600160a01b03909116815260200160405180910390a150565b67ffffffffffffffff81165f9081526047602052604090205460ff16614f13576040517f78297a8c00000000000000000000000000000000000000000000000000000000815260040160405180910390fd5b6040517faed2ee7300000000000000000000000000000000000000000000000000000000815267ffffffffffffffff8216600482015260ff60248201525f906110009063aed2ee73906044016020604051808303815f875af1158015614f7b573d5f803e3d5ffd5b505050506040513d601f19601f82011682018060405250810190614f9f91906172fa565b905080614fbf57604051633f48ffd960e21b815260040160405180910390fd5b5067ffffffffffffffff165f908152604760205260409020805460ff19169055565b5f805f80614fed615970565b9150915081935080615009576150048460016172c6565b615014565b6150148460026172c6565b925050509091565b6004545f9080820361505a576040517f098404de00000000000000000000000000000000000000000000000000000000815260040160405180910390fd5b5f6003805480602002602001604051908101604052809291908181526020015f905b828210156150d9575f848152602090819020604080516060810182529185015467ffffffffffffffff811683526001600160601b03600160401b8204811684860152600160a01b909104169082015282526001909201910161507c565b5050505090505f806150ff8388886150f191906171d9565b6001600160601b0316615d00565b9350509250505f878961511291906171d9565b6001600160601b031690505f836001600160601b0316821061513d57836001600160601b031661513f565b815b90505f61514c8284617217565b86519091505f5b818110156152ec575f8087838151811061516f5761516f617147565b60200260200101516001600160601b03161161518b575f6151cd565b876001600160601b03168783815181106151a7576151a7617147565b60200260200101516001600160601b0316866151c3919061719b565b6151cd91906171c6565b90505f8085116151dd575f61521a565b8a8a84815181106151f0576151f0617147565b6020026020010151602001516001600160601b031686615210919061719b565b61521a91906171c6565b90505f61522782846172b3565b90506001600160601b038116156152de57808b858151811061524b5761524b617147565b60200260200101516040015161526191906171f8565b6003858154811061527457615274617147565b905f5260205f20015f0160146101000a8154816001600160601b0302191690836001600160601b031602179055506152d18b85815181106152b7576152b7617147565b60200260200101515f0151826001600160601b03166162f9565b6152db818e6171f8565b9c505b505050806001019050615153565b5050505050505050509392505050565b5f806003805480602002602001604051908101604052809291908181526020015f905b8282101561537c575f848152602090819020604080516060810182529185015467ffffffffffffffff811683526001600160601b03600160401b8204811684860152600160a01b909104169082015282526001909201910161531f565b5050505090505f806153948388876150f191906171d9565b5092505091505f86886153a791906171d9565b6001600160601b031690505f836001600160601b031682106153d257836001600160601b03166153d4565b815b90505f6153e18284617217565b6088549091505f9083906153ff908c906001600160601b03166171d9565b6001600160601b03166154129190617217565b87519091505f5b818110156152ec575f8088838151811061543557615435617147565b60200260200101516001600160601b031611615451575f615493565b886001600160601b031688838151811061546d5761546d617147565b60200260200101516001600160601b031687615489919061719b565b61549391906171c6565b90505f8086116154a3575f6154ea565b84828c85815181106154b7576154b7617147565b6020026020010151604001516001600160601b03166154d69190617217565b6154e0908861719b565b6154ea91906171c6565b90505f6154f782846172b3565b90506001600160601b038116156155b057808c858151811061551b5761551b617147565b60200260200101516040015161553191906171d9565b6003858154811061554457615544617147565b5f91825260209091200180546001600160601b0392909216600160a01b026001600160a01b0390921691909117905561557d818e6171f8565b9c506155ae8c858151811061559457615594617147565b60200260200101515f0151826001600160601b03166163a1565b505b505050806001019050615419565b6001600160a01b038216615600576040517f96c6fd1e0000000000000000000000000000000000000000000000000000000081525f60048201526024016149a4565b612724825f83616094565b306001600160a01b037f00000000000000000000000000000000000000000000000000000000000000001614806156a457507f00000000000000000000000000000000000000000000000000000000000000006001600160a01b03166156987f360894a13ba1a3210667c828492db98dca3e2076cc3735a920a3ca505d382bbc546001600160a01b031690565b6001600160a01b031614155b15614610576040517fe07c8dba00000000000000000000000000000000000000000000000000000000815260040160405180910390fd5b7f1ea2b19b7ab22acb68ebeb58b5cb9eab43e3e119ebbd3159fdcddfc5b8c538b8612724816147c2565b816001600160a01b03166352d1902d6040518163ffffffff1660e01b8152600401602060405180830381865afa92505050801561575f575060408051601f3d908101601f1916820190925261575c91810190617341565b60015b6157a0576040517f4c9c8ce30000000000000000000000000000000000000000000000000000000081526001600160a01b03831660048201526024016149a4565b7f360894a13ba1a3210667c828492db98dca3e2076cc3735a920a3ca505d382bbc81146157fc576040517faa1d49a4000000000000000000000000000000000000000000000000000000008152600481018290526024016149a4565b612044838361649f565b306001600160a01b037f00000000000000000000000000000000000000000000000000000000000000001614614610576040517fe07c8dba00000000000000000000000000000000000000000000000000000000815260040160405180910390fd5b67ffffffffffffffff81165f908152600260205260408120548082036158ba576040517f30812d4200000000000000000000000000000000000000000000000000000000815260040160405180910390fd5b60036158c7600183617217565b815481106158d7576158d7617147565b905f5260205f2001915050919050565b67ffffffffffffffff82165f9081526047602052604081205460ff161561593a576040517f500389a000000000000000000000000000000000000000000000000000000000815260040160405180910390fd5b5060ff6159488383836164f4565b67ffffffffffffffff9092165f908152604760205260409020805460ff191660011790555090565b5f806110006001600160a01b031663757991a86040518163ffffffff1660e01b815260040160408051808303815f875af11580156159b0573d5f803e3d5ffd5b505050506040513d601f19601f820116820180604052508101906159d49190617358565b915091509091565b5f46608f036159eb5750600790565b46617a69036159fa5750600790565b50600190565b615a086145b4565b7fcd5ed15c6e187e77e9aee88184c21f4f2182ab5827cb3b7e07fbedcd63f03300805460ff191660011781557f62e78cea01bee320cd4e420270b5ea74000d11b0c9f74754ebdbfc544b05a25833614ea3565b7fe1777bd22f637fc57eadcf9d877079117b44537a53059b1670036696018f564c61218e816147c2565b7f1d770361ad1ba5c90793f5d8711778cd963118207b8b46db0f36c72a65b0b451615aaf816147c2565b67ffffffffffffffff82165f90815260466020526040812054610100900460ff161115615b08576040517f4d078c7100000000000000000000000000000000000000000000000000000000815260040160405180910390fd5b67ffffffffffffffff82165f9081526047602052604090205460ff1615612724576040517f4d078c7100000000000000000000000000000000000000000000000000000000815260040160405180910390fd5b5f611acd83836165a9565b614610616683565b615b76616683565b61272482826166e5565b615b88616683565b614610616748565b7f02dd7bc7dec4dceedda775e58dd541e08a116c6c53815c0bd028192f7b6268005f615be9845f9081527f02dd7bc7dec4dceedda775e58dd541e08a116c6c53815c0bd028192f7b626800602052604090206001015490565b5f85815260208490526040808220600101869055519192508491839187917fbd79b86ffe0ab8e8776151514217cd7cacd52c909f66475c3af44e129f0b00ff9190a450505050565b6040517fa76e2ca500000000000000000000000000000000000000000000000000000000815267ffffffffffffffff821660048201525f906110009063a76e2ca5906024016020604051808303815f875af1158015615c92573d5f803e3d5ffd5b505050506040513d601f19601f82011682018060405250810190615cb691906172fa565b90508061272457604051633f48ffd960e21b815260040160405180910390fd5b7fbb12ed6b435a5fce787412ceb233935082e39147d977bc587eb74d0f97f48d2c61218e816147c2565b60045482515f91829160609182918067ffffffffffffffff811115615d2757615d27616a2a565b604051908082528060200260200182016040528015615d50578160200160208202803683370190505b5093508067ffffffffffffffff811115615d6c57615d6c616a2a565b604051908082528060200260200182016040528015615d95578160200160208202803683370190505b5092505f5b81811015615ed3575f898281518110615db557615db5617147565b6020026020010151604001516001600160601b031690505f808511615dda575f615e17565b848a8c8581518110615dee57615dee617147565b6020026020010151602001516001600160601b0316615e0d919061719b565b615e1791906171c6565b905080821115615e73575f615e2c8284617217565b9050615e38818b6171f8565b995080888581518110615e4d57615e4d617147565b60200260200101906001600160601b031690816001600160601b03168152505050615ec9565b81811115615ec9575f615e868383617217565b9050615e92818a6171f8565b985080878581518110615ea757615ea7617147565b60200260200101906001600160601b031690816001600160601b031681525050505b5050600101615d9a565b50505092959194509250565b7f52c63247e1f47db19d5ce0460030c497f067ca4cebf71ba98eeadabe20bace006001600160a01b038516615f42576040517fe602df050000000000000000000000000000000000000000000000000000000081525f60048201526024016149a4565b6001600160a01b038416615f84576040517f94280d620000000000000000000000000000000000000000000000000000000081525f60048201526024016149a4565b6001600160a01b038086165f9081526001830160209081526040808320938816835292905220839055811561600157836001600160a01b0316856001600160a01b03167f8c5be1e5ebec7d5bd14f71427d1e84f3dd0314c0f7b2291e5b200ac8c7c3b92585604051615ff891815260200190565b60405180910390a35b5050505050565b5f8281527f02dd7bc7dec4dceedda775e58dd541e08a116c6c53815c0bd028192f7b626800602090815260408083206001600160a01b038516845290915290205460ff16612724576040517fe2517d3f0000000000000000000000000000000000000000000000000000000081526001600160a01b0382166004820152602481018390526044016149a4565b7f52c63247e1f47db19d5ce0460030c497f067ca4cebf71ba98eeadabe20bace006001600160a01b0384166160e15781816002015f8282546160d691906172b3565b9091555061616a9050565b6001600160a01b0384165f908152602082905260409020548281101561614c576040517fe450d38c0000000000000000000000000000000000000000000000000000000081526001600160a01b038616600482015260248101829052604481018490526064016149a4565b6001600160a01b0385165f9081526020839052604090209083900390555b6001600160a01b0383166161885760028101805483900390556161a6565b6001600160a01b0383165f9081526020829052604090208054830190555b826001600160a01b0316846001600160a01b03167fddf252ad1be2c89b69c2b068fc378daa952ba7f163c4a11628f55a4df523b3ef846040516161eb91815260200190565b60405180910390a350505050565b5f81815260018301602052604081205461623e57508154600181810184555f84815260208082209093018490558454848252828601909352604090209190915561138a565b505f61138a565b6060815f0180548060200260200160405190810160405280929190818152602001828054801561629257602002820191905f5260205f20905b81548152602001906001019080831161627e575b50505050509050919050565b7fcd5ed15c6e187e77e9aee88184c21f4f2182ab5827cb3b7e07fbedcd63f033005460ff16614610576040517f8dfc202b00000000000000000000000000000000000000000000000000000000815260040160405180910390fd5b6040517f84994fec00000000000000000000000000000000000000000000000000000000815267ffffffffffffffff831660048201525f90611000906384994fec90849060240160206040518083038185885af115801561635c573d5f803e3d5ffd5b50505050506040513d601f19601f8201168201806040525081019061638191906172fa565b90508061204457604051633f48ffd960e21b815260040160405180910390fd5b67ffffffffffffffff82165f9081526046602090815260408083208151808301909252805460ff808216845261010090910416928201839052917fffffffffffffffffffffffffffffffffffffffffffffffffffffffffffffff0101616433576040517f500389a000000000000000000000000000000000000000000000000000000000815260040160405180910390fd5b616446815f0151826020015160ff614e1a565b9250806020015160016164599190617385565b825460ff91909116610100027fffffffffffffffffffffffffffffffffffffffffffffffffffffffffffff00ff9091161782556164978585856164f4565b505092915050565b6164a88261677b565b6040516001600160a01b038316907fbc7cd75a20ee27fd9adebab32041f755214dbc6bffa90cc0225b39da2e5c2d3b905f90a28051156164ec576120448282616817565b612724616889565b6040517f5cf4151400000000000000000000000000000000000000000000000000000000815267ffffffffffffffff841660048201526024810183905260ff821660448201525f9061100090635cf41514906064016020604051808303815f875af1158015616565573d5f803e3d5ffd5b505050506040513d601f19601f8201168201806040525081019061658991906172fa565b9050806114d557604051633f48ffd960e21b815260040160405180910390fd5b5f8181526001830160205260408120548015614d38575f6165cb600183617217565b85549091505f906165de90600190617217565b905080821461663d575f865f0182815481106165fc576165fc617147565b905f5260205f200154905080875f01848154811061661c5761661c617147565b5f918252602080832090910192909255918252600188019052604090208390555b855486908061664e5761664e6172e6565b600190038181905f5260205f20015f90559055856001015f8681526020019081526020015f205f90556001935050505061138a565b7ff0c57e16840df040f15088dc2f81fe391c3923bec73e23a9662efc9c229c6a0054600160401b900460ff16614610576040517fd7e6bcf800000000000000000000000000000000000000000000000000000000815260040160405180910390fd5b6166ed616683565b7f52c63247e1f47db19d5ce0460030c497f067ca4cebf71ba98eeadabe20bace007f52c63247e1f47db19d5ce0460030c497f067ca4cebf71ba98eeadabe20bace0361673984826173e2565b50600481016114d583826173e2565b616750616683565b7fcd5ed15c6e187e77e9aee88184c21f4f2182ab5827cb3b7e07fbedcd63f03300805460ff19169055565b806001600160a01b03163b5f036167c9576040517f4c9c8ce30000000000000000000000000000000000000000000000000000000081526001600160a01b03821660048201526024016149a4565b7f360894a13ba1a3210667c828492db98dca3e2076cc3735a920a3ca505d382bbc805473ffffffffffffffffffffffffffffffffffffffff19166001600160a01b0392909216919091179055565b60605f80846001600160a01b031684604051616833919061749d565b5f60405180830381855af49150503d805f811461686b576040519150601f19603f3d011682016040523d82523d5f602084013e616870565b606091505b50915091506168808583836168c1565b95945050505050565b3415614610576040517fb398979f00000000000000000000000000000000000000000000000000000000815260040160405180910390fd5b6060826168d6576168d182616936565b611acd565b81511580156168ed57506001600160a01b0384163b155b1561692f576040517f9996b3150000000000000000000000000000000000000000000000000000000081526001600160a01b03851660048201526024016149a4565b5080611acd565b8051156169465780518082602001fd5b6040517f1425ea4200000000000000000000000000000000000000000000000000000000815260040160405180910390fd5b5f60208284031215616988575f80fd5b81357fffffffff0000000000000000000000000000000000000000000000000000000081168114611acd575f80fd5b602081525f82518060208401528060208501604085015e5f604082850101526040601f19601f83011684010191505092915050565b6001600160a01b038116811461218e575f80fd5b5f8060408385031215616a11575f80fd5b8235616a1c816169ec565b946020939093013593505050565b634e487b7160e01b5f52604160045260245ffd5b604051601f8201601f1916810167ffffffffffffffff81118282101715616a6757616a67616a2a565b604052919050565b67ffffffffffffffff8116811461218e575f80fd5b5f82601f830112616a93575f80fd5b813567ffffffffffffffff811115616aad57616aad616a2a565b8060051b616abd60208201616a3e565b91825260208185018101929081019086841115616ad8575f80fd5b6020860192505b83831015616b03578235616af281616a6f565b825260209283019290910190616adf565b9695505050505050565b5f8060408385031215616b1e575f80fd5b823567ffffffffffffffff811115616b34575f80fd5b616b4085828601616a84565b925050602083013560ff81168114616b56575f80fd5b809150509250929050565b5f60208284031215616b71575f80fd5b8135611acd816169ec565b602080825282518282018190525f918401906040840190835b81811015616bf65783516001600160601b0381511684526001600160601b03602082015116602085015264ffffffffff604082015116604085015261ffff606082015116606085015250608083019250602084019350600181019050616b95565b509095945050505050565b801515811461218e575f80fd5b5f8060408385031215616c1f575f80fd5b8235616c2a816169ec565b91506020830135616b5681616c01565b5f60208284031215616c4a575f80fd5b5035919050565b5f60208284031215616c61575f80fd5b8135611acd81616c01565b80356001600160601b0381168114616c82575f80fd5b919050565b5f8060408385031215616c98575f80fd5b616ca183616c6c565b91506020830135616b56816169ec565b5f805f60608486031215616cc3575f80fd5b8335616cce816169ec565b92506020840135616cde816169ec565b929592945050506040919091013590565b5f8060408385031215616d00575f80fd5b616d0983616c6c565b9150616d1760208401616c6c565b90509250929050565b5f60208284031215616d30575f80fd5b8135611acd81616a6f565b5f8060408385031215616d4c575f80fd5b823591506020830135616b56816169ec565b602080825282518282018190525f918401906040840190835b81811015616bf657835160ff16835260209384019390920191600101616d77565b602080825282518282018190525f918401906040840190835b81811015616bf6578351835260209384019390920191600101616db1565b5f60208284031215616ddf575f80fd5b813567ffffffffffffffff811115616df5575f80fd5b614e3b84828501616a84565b5f8060408385031215616e12575f80fd5b8235616e1d816169ec565b9150602083013567ffffffffffffffff811115616e38575f80fd5b8301601f81018513616e48575f80fd5b803567ffffffffffffffff811115616e6257616e62616a2a565b616e756020601f19601f84011601616a3e565b818152866020838501011115616e89575f80fd5b816020840160208301375f602083830101528093505050509250929050565b6060810161138a828467ffffffffffffffff81511682526001600160601b0360208201511660208301526001600160601b0360408201511660408301525050565b5f8060408385031215616efa575f80fd5b8235616ca181616a6f565b5f60208284031215616f15575f80fd5b813561ffff81168114611acd575f80fd5b5f8060208385031215616f37575f80fd5b823567ffffffffffffffff811115616f4d575f80fd5b8301601f81018513616f5d575f80fd5b803567ffffffffffffffff811115616f73575f80fd5b856020606083028401011115616f87575f80fd5b6020919091019590945092505050565b5f805f60608486031215616fa9575f80fd5b616fb284616c6c565b9250616fc060208501616c6c565b91506040840135616fd0816169ec565b809150509250925092565b5f8060408385031215616fec575f80fd5b8235616ca1816169ec565b5f60208284031215617007575f80fd5b611acd82616c6c565b602080825282518282018190525f918401906040840190835b81811015616bf65761706f83855167ffffffffffffffff81511682526001600160601b0360208201511660208301526001600160601b0360408201511660408301525050565b6020939093019260609290920191600101617029565b5f8151808452602084019350602083015f5b828110156170be5781516001600160601b0316865260209586019590910190600101617097565b5093949350505050565b6001600160601b03851681526001600160601b0384166020820152608060408201525f6170f86080830185617085565b828103606084015261710a8185617085565b979650505050505050565b600181811c9082168061712957607f821691505b60208210810361430157634e487b7160e01b5f52602260045260245ffd5b634e487b7160e01b5f52603260045260245ffd5b634e487b7160e01b5f52601160045260245ffd5b5f67ffffffffffffffff821667ffffffffffffffff81036171925761719261715b565b60010192915050565b808202811582820484141761138a5761138a61715b565b634e487b7160e01b5f52601260045260245ffd5b5f826171d4576171d46171b2565b500490565b6001600160601b03828116828216039081111561138a5761138a61715b565b6001600160601b03818116838216019081111561138a5761138a61715b565b8181038181111561138a5761138a61715b565b64ffffffffff828116828216039081111561138a5761138a61715b565b64ffffffffff818116838216019081111561138a5761138a61715b565b5f805f805f805f60e0888a03121561727a575f80fd5b5050855160208701516040880151606089015160808a015160a08b015160c0909b0151949c939b50919990985090965094509092509050565b8082018082111561138a5761138a61715b565b67ffffffffffffffff818116838216019081111561138a5761138a61715b565b634e487b7160e01b5f52603160045260245ffd5b5f6020828403121561730a575f80fd5b8151611acd81616c01565b60ff828116828216039081111561138a5761138a61715b565b5f8261733c5761733c6171b2565b500690565b5f60208284031215617351575f80fd5b5051919050565b5f8060408385031215617369575f80fd5b825161737481616a6f565b6020840151909250616b5681616c01565b60ff818116838216019081111561138a5761138a61715b565b601f82111561204457805f5260205f20601f840160051c810160208510156173c35750805b601f840160051c820191505b81811015616001575f81556001016173cf565b815167ffffffffffffffff8111156173fc576173fc616a2a565b6174108161740a8454617115565b8461739e565b6020601f821160018114617442575f831561742b5750848201515b5f19600385901b1c1916600184901b178455616001565b5f84815260208120601f198516915b828110156174715787850151825560209485019460019092019101617451565b508482101561748e57868401515f19600387901b60f8161c191681555b50505050600190811b01905550565b5f82518060208501845e5f92019182525091905056fea2646970667358221220b74aed1657258c81141ae8980590c8a2a3496b7144e45cf5f225ce9482e330ab64736f6c634300081a0033","linkReferences":{}},"methodIdentifiers":{"DEFAULT_ADMIN_ROLE()":"a217fddf","MINIMUM_CONTRIBUTE_THRESHOLD()":"86bb1d6e","ROLE_ADD_NODE()":"22fd4ad5","ROLE_DISABLE_NODE()":"e8ce8922","ROLE_FEE_CLAIMER()":"06c7dbc4","ROLE_FEE_EXEMPTION()":"a30fefe1","ROLE_FEE_SETTER()":"1b8e0db6","ROLE_PAUSE()":"4ff0241a","ROLE_REMOVE_NODE()":"5838b2fe","ROLE_TOGGLE_INSTANT_UNLOCK()":"4c3a045c","ROLE_UPDATE_WEIGHTS()":"63311d3d","ROLE_UPGRADE()":"2a7d8acb","UPGRADE_INTERFACE_VERSION()":"ad3cb1cc","addNode(uint64)":"337b2b6e","allowance(address,address)":"dd62ed3e","approve(address,uint256)":"095ea7b3","balanceOf(address)":"70a08231","batchDepositRequests(uint256)":"77654f34","batchSubmissions(uint256)":"78f908e1","batchWithdrawRequests(uint256)":"4beae6e3","cancelUnlockRequest(uint256)":"1610247b","claimProtocolFees(address)":"69ce6d47","compound(uint64[])":"cf5e2743","contributeToPool(address)":"a0e3cdd6","convertToAssets(uint96)":"fb9848e4","convertToShares(uint96)":"df235fe6","currentBatchId()":"0a763da1","decimals()":"313ce567","deposit(uint96,address)":"1c3477dd","disableNode(uint64)":"d8a9fe50","getAllUserUnlockRequests(address)":"0b52f7b1","getDelegator(uint64,address)":"573c1ce0","getExitFeeBips()":"fde73f7d","getImbalances(uint96)":"f6516e7f","getInstantUnlockableShares()":"b6f12b94","getManagementFeeBips()":"bf7df8e0","getMintableProtocolShares()":"615bfc45","getNodeIds()":"3e367afa","getNodes()":"e29581aa","getRoleAdmin(bytes32)":"248a9ca3","getWithdrawIds(uint64)":"3b5b4765","getWithdrawIdsSize(uint64)":"7a6d59d5","grantRole(bytes32,address)":"2f2ff15d","hasRole(bytes32,address)":"91d14854","initialize(address)":"c4d66de8","instantUnlock(uint96,uint96,address)":"a4bd422c","isExitFeeExempt(address)":"0bf14d9b","isForceWithdrawPending(uint64)":"2584601f","isInstantUnlockEnabled()":"4a8a268f","isNodeDisabled(uint64)":"d6531de5","name()":"06fdde03","nodes(uint256)":"1c53c280","pause()":"8456cb59","paused()":"5c975abb","proxiableUUID()":"52d1902d","redeem(uint256,address)":"7bde82f2","removeNode(uint64)":"aedf6d51","renounceRole(bytes32,address)":"36568abe","requestUnlock(uint96,uint96)":"24f67e18","revokeRole(bytes32,address)":"d547741f","setExitFee(uint16)":"f75b0404","setExitFeeExemption(address,bool)":"15230e80","setInstantUnlock(bool)":"19ddf95b","setManagementFee(uint16)":"8dd09af3","submitBatch()":"46115383","supportsInterface(bytes4)":"01ffc9a7","sweep(uint64[],uint8)":"0a9f9ee2","sweepForced(uint64[])":"43abcf32","symbol()":"95d89b41","syncStaking()":"c36f9857","totalPooled()":"6ec21cc8","totalShares()":"3a98ef39","totalSupply()":"18160ddd","totalWeight()":"96c82e57","transfer(address,uint256)":"a9059cbb","transferFrom(address,address,uint256)":"23b872dd","unbondDisableNode(uint64)":"733897b7","unpause()":"3f4ba83a","updateWeights((uint64,uint96,bool)[])":"a4b0b5a3","upgradeToAndCall(address,bytes)":"4f1ef286","userUnlockRequests(address,uint256)":"fd012e34","viewNodeByNodeId(uint64)":"540a26f3"},"id":40}