{"abi":[{"type":"receive","stateMutability":"payable"},{"type":"function","name":"DEFAULT_ADMIN_ROLE","inputs":[],"outputs":[{"name":"","type":"bytes32","internalType":"bytes32"}],"stateMutability":"view"},{"type":"function","name":"MINIMUM_CONTRIBUTE_THRESHOLD","inputs":[],"outputs":[{"name":"","type":"uint256","internalType":"uint256"}],"stateMutability":"view"},{"type":"function","name":"ROLE_ADD_NODE","inputs":[],"outputs":[{"name":"","type":"bytes32","internalType":"bytes32"}],"stateMutability":"view"},{"type":"function","name":"ROLE_DISABLE_NODE","inputs":[],"outputs":[{"name":"","type":"bytes32","internalType":"bytes32"}],"stateMutability":"view"},{"type":"function","name":"ROLE_FEE_CLAIMER","inputs":[],"outputs":[{"name":"","type":"bytes32","internalType":"bytes32"}],"stateMutability":"view"},{"type":"function","name":"ROLE_FEE_EXEMPTION","inputs":[],"outputs":[{"name":"","type":"bytes32","internalType":"bytes32"}],"stateMutability":"view"},{"type":"function","name":"ROLE_FEE_SETTER","inputs":[],"outputs":[{"name":"","type":"bytes32","internalType":"bytes32"}],"stateMutability":"view"},{"type":"function","name":"ROLE_PAUSE","inputs":[],"outputs":[{"name":"","type":"bytes32","internalType":"bytes32"}],"stateMutability":"view"},{"type":"function","name":"ROLE_REMOVE_NODE","inputs":[],"outputs":[{"name":"","type":"bytes32","internalType":"bytes32"}],"stateMutability":"view"},{"type":"function","name":"ROLE_TOGGLE_INSTANT_UNLOCK","inputs":[],"outputs":[{"name":"","type":"bytes32","internalType":"bytes32"}],"stateMutability":"view"},{"type":"function","name":"ROLE_UPDATE_WEIGHTS","inputs":[],"outputs":[{"name":"","type":"bytes32","internalType":"bytes32"}],"stateMutability":"view"},{"type":"function","name":"ROLE_UPGRADE","inputs":[],"outputs":[{"name":"","type":"bytes32","internalType":"bytes32"}],"stateMutability":"view"},{"type":"function","name":"UPGRADE_INTERFACE_VERSION","inputs":[],"outputs":[{"name":"","type":"string","internalType":"string"}],"stateMutability":"view"},{"type":"function","name":"addNode","inputs":[{"name":"nodeId","type":"uint64","internalType":"uint64"}],"outputs":[],"stateMutability":"nonpayable"},{"type":"function","name":"allowance","inputs":[{"name":"owner","type":"address","internalType":"address"},{"name":"spender","type":"address","internalType":"address"}],"outputs":[{"name":"","type":"uint256","internalType":"uint256"}],"stateMutability":"view"},{"type":"function","name":"approve","inputs":[{"name":"spender","type":"address","internalType":"address"},{"name":"value","type":"uint256","internalType":"uint256"}],"outputs":[{"name":"","type":"bool","internalType":"bool"}],"stateMutability":"nonpayable"},{"type":"function","name":"balanceOf","inputs":[{"name":"account","type":"address","internalType":"address"}],"outputs":[{"name":"","type":"uint256","internalType":"uint256"}],"stateMutability":"view"},{"type":"function","name":"batchDepositRequests","inputs":[{"name":"","type":"uint256","internalType":"uint256"}],"outputs":[{"name":"assets","type":"uint96","internalType":"uint96"},{"name":"shares","type":"uint96","internalType":"uint96"}],"stateMutability":"view"},{"type":"function","name":"batchSubmissions","inputs":[{"name":"","type":"uint256","internalType":"uint256"}],"outputs":[{"name":"submissionEpoch","type":"uint64","internalType":"uint64"},{"name":"activationEpoch","type":"uint64","internalType":"uint64"}],"stateMutability":"view"},{"type":"function","name":"batchWithdrawRequests","inputs":[{"name":"","type":"uint256","internalType":"uint256"}],"outputs":[{"name":"assets","type":"uint96","internalType":"uint96"},{"name":"shares","type":"uint96","internalType":"uint96"}],"stateMutability":"view"},{"type":"function","name":"cancelUnlockRequest","inputs":[{"name":"unlockIndex","type":"uint256","internalType":"uint256"}],"outputs":[],"stateMutability":"nonpayable"},{"type":"function","name":"compound","inputs":[{"name":"nodeIds","type":"uint64[]","internalType":"uint64[]"}],"outputs":[],"stateMutability":"nonpayable"},{"type":"function","name":"contributeToPool","inputs":[{"name":"benefactor","type":"address","internalType":"address"}],"outputs":[],"stateMutability":"payable"},{"type":"function","name":"convertToAssets","inputs":[{"name":"shares","type":"uint96","internalType":"uint96"}],"outputs":[{"name":"assets","type":"uint96","internalType":"uint96"}],"stateMutability":"view"},{"type":"function","name":"convertToShares","inputs":[{"name":"assets","type":"uint96","internalType":"uint96"}],"outputs":[{"name":"shares","type":"uint96","internalType":"uint96"}],"stateMutability":"view"},{"type":"function","name":"currentBatchId","inputs":[],"outputs":[{"name":"","type":"uint40","internalType":"uint40"}],"stateMutability":"view"},{"type":"function","name":"decimals","inputs":[],"outputs":[{"name":"","type":"uint8","internalType":"uint8"}],"stateMutability":"view"},{"type":"function","name":"deposit","inputs":[{"name":"minShares","type":"uint96","internalType":"uint96"},{"name":"receiver","type":"address","internalType":"address"}],"outputs":[{"name":"shares","type":"uint96","internalType":"uint96"}],"stateMutability":"payable"},{"type":"function","name":"disableNode","inputs":[{"name":"nodeId","type":"uint64","internalType":"uint64"}],"outputs":[],"stateMutability":"nonpayable"},{"type":"function","name":"getAllUserUnlockRequests","inputs":[{"name":"user","type":"address","internalType":"address"}],"outputs":[{"name":"","type":"tuple[]","internalType":"struct StakedMonad.UnlockRequest[]","components":[{"name":"shares","type":"uint96","internalType":"uint96"},{"name":"spotValue","type":"uint96","internalType":"uint96"},{"name":"batchId","type":"uint40","internalType":"uint40"},{"name":"exitFeeInBips","type":"uint16","internalType":"uint16"}]}],"stateMutability":"view"},{"type":"function","name":"getDelegator","inputs":[{"name":"val_id","type":"uint64","internalType":"uint64"},{"name":"delegator","type":"address","internalType":"address"}],"outputs":[{"name":"stake","type":"uint256","internalType":"uint256"},{"name":"acc_reward_per_token","type":"uint256","internalType":"uint256"},{"name":"rewards","type":"uint256","internalType":"uint256"},{"name":"delta_stake","type":"uint256","internalType":"uint256"},{"name":"next_delta_stake","type":"uint256","internalType":"uint256"},{"name":"delta_epoch","type":"uint256","internalType":"uint256"},{"name":"next_delta_epoch","type":"uint256","internalType":"uint256"}],"stateMutability":"view"},{"type":"function","name":"getExitFeeBips","inputs":[],"outputs":[{"name":"","type":"uint16","internalType":"uint16"}],"stateMutability":"view"},{"type":"function","name":"getImbalances","inputs":[{"name":"newTotalStaked","type":"uint96","internalType":"uint96"}],"outputs":[{"name":"overAllocation","type":"uint96","internalType":"uint96"},{"name":"underAllocation","type":"uint96","internalType":"uint96"},{"name":"overAllocations","type":"uint96[]","internalType":"uint96[]"},{"name":"underAllocations","type":"uint96[]","internalType":"uint96[]"}],"stateMutability":"view"},{"type":"function","name":"getInstantUnlockableShares","inputs":[],"outputs":[{"name":"","type":"uint96","internalType":"uint96"}],"stateMutability":"view"},{"type":"function","name":"getManagementFeeBips","inputs":[],"outputs":[{"name":"","type":"uint16","internalType":"uint16"}],"stateMutability":"view"},{"type":"function","name":"getMintableProtocolShares","inputs":[],"outputs":[{"name":"shares","type":"uint96","internalType":"uint96"}],"stateMutability":"view"},{"type":"function","name":"getNodeIds","inputs":[],"outputs":[{"name":"","type":"uint256[]","internalType":"uint256[]"}],"stateMutability":"view"},{"type":"function","name":"getNodes","inputs":[],"outputs":[{"name":"","type":"tuple[]","internalType":"struct Registry.Node[]","components":[{"name":"id","type":"uint64","internalType":"uint64"},{"name":"weight","type":"uint96","internalType":"uint96"},{"name":"staked","type":"uint96","internalType":"uint96"}]}],"stateMutability":"view"},{"type":"function","name":"getRoleAdmin","inputs":[{"name":"role","type":"bytes32","internalType":"bytes32"}],"outputs":[{"name":"","type":"bytes32","internalType":"bytes32"}],"stateMutability":"view"},{"type":"function","name":"getWithdrawIds","inputs":[{"name":"val_id","type":"uint64","internalType":"uint64"}],"outputs":[{"name":"","type":"uint8[]","internalType":"uint8[]"}],"stateMutability":"view"},{"type":"function","name":"getWithdrawIdsSize","inputs":[{"name":"val_id","type":"uint64","internalType":"uint64"}],"outputs":[{"name":"","type":"uint256","internalType":"uint256"}],"stateMutability":"view"},{"type":"function","name":"grantRole","inputs":[{"name":"role","type":"bytes32","internalType":"bytes32"},{"name":"account","type":"address","internalType":"address"}],"outputs":[],"stateMutability":"nonpayable"},{"type":"function","name":"hasRole","inputs":[{"name":"role","type":"bytes32","internalType":"bytes32"},{"name":"account","type":"address","internalType":"address"}],"outputs":[{"name":"","type":"bool","internalType":"bool"}],"stateMutability":"view"},{"type":"function","name":"initialize","inputs":[{"name":"admin","type":"address","internalType":"address"}],"outputs":[],"stateMutability":"payable"},{"type":"function","name":"instantUnlock","inputs":[{"name":"shares","type":"uint96","internalType":"uint96"},{"name":"minSpotValue","type":"uint96","internalType":"uint96"},{"name":"receiver","type":"address","internalType":"address"}],"outputs":[{"name":"spotValue","type":"uint96","internalType":"uint96"}],"stateMutability":"nonpayable"},{"type":"function","name":"isExitFeeExempt","inputs":[{"name":"","type":"address","internalType":"address"}],"outputs":[{"name":"","type":"bool","internalType":"bool"}],"stateMutability":"view"},{"type":"function","name":"isForceWithdrawPending","inputs":[{"name":"val_id","type":"uint64","internalType":"uint64"}],"outputs":[{"name":"","type":"bool","internalType":"bool"}],"stateMutability":"view"},{"type":"function","name":"isInstantUnlockEnabled","inputs":[],"outputs":[{"name":"","type":"bool","internalType":"bool"}],"stateMutability":"view"},{"type":"function","name":"isNodeDisabled","inputs":[{"name":"","type":"uint64","internalType":"uint64"}],"outputs":[{"name":"","type":"bool","internalType":"bool"}],"stateMutability":"view"},{"type":"function","name":"mintProtocolShares","inputs":[{"name":"to","type":"address","internalType":"address"}],"outputs":[],"stateMutability":"nonpayable"},{"type":"function","name":"name","inputs":[],"outputs":[{"name":"","type":"string","internalType":"string"}],"stateMutability":"view"},{"type":"function","name":"nodes","inputs":[{"name":"","type":"uint256","internalType":"uint256"}],"outputs":[{"name":"id","type":"uint64","internalType":"uint64"},{"name":"weight","type":"uint96","internalType":"uint96"},{"name":"staked","type":"uint96","internalType":"uint96"}],"stateMutability":"view"},{"type":"function","name":"pause","inputs":[],"outputs":[],"stateMutability":"nonpayable"},{"type":"function","name":"paused","inputs":[],"outputs":[{"name":"","type":"bool","internalType":"bool"}],"stateMutability":"view"},{"type":"function","name":"proxiableUUID","inputs":[],"outputs":[{"name":"","type":"bytes32","internalType":"bytes32"}],"stateMutability":"view"},{"type":"function","name":"redeem","inputs":[{"name":"unlockIndex","type":"uint256","internalType":"uint256"},{"name":"receiver","type":"address","internalType":"address payable"}],"outputs":[{"name":"assets","type":"uint96","internalType":"uint96"}],"stateMutability":"nonpayable"},{"type":"function","name":"removeNode","inputs":[{"name":"nodeId","type":"uint64","internalType":"uint64"}],"outputs":[],"stateMutability":"nonpayable"},{"type":"function","name":"renounceRole","inputs":[{"name":"role","type":"bytes32","internalType":"bytes32"},{"name":"callerConfirmation","type":"address","internalType":"address"}],"outputs":[],"stateMutability":"nonpayable"},{"type":"function","name":"requestUnlock","inputs":[{"name":"shares","type":"uint96","internalType":"uint96"},{"name":"minSpotValue","type":"uint96","internalType":"uint96"}],"outputs":[],"stateMutability":"nonpayable"},{"type":"function","name":"revokeRole","inputs":[{"name":"role","type":"bytes32","internalType":"bytes32"},{"name":"account","type":"address","internalType":"address"}],"outputs":[],"stateMutability":"nonpayable"},{"type":"function","name":"setExitFee","inputs":[{"name":"newFee","type":"uint16","internalType":"uint16"}],"outputs":[],"stateMutability":"nonpayable"},{"type":"function","name":"setExitFeeExemption","inputs":[{"name":"user","type":"address","internalType":"address"},{"name":"isExempt","type":"bool","internalType":"bool"}],"outputs":[],"stateMutability":"nonpayable"},{"type":"function","name":"setInstantUnlock","inputs":[{"name":"isEnabled","type":"bool","internalType":"bool"}],"outputs":[],"stateMutability":"nonpayable"},{"type":"function","name":"setManagementFee","inputs":[{"name":"newFee","type":"uint16","internalType":"uint16"}],"outputs":[],"stateMutability":"nonpayable"},{"type":"function","name":"submitBatch","inputs":[],"outputs":[],"stateMutability":"nonpayable"},{"type":"function","name":"supportsInterface","inputs":[{"name":"interfaceId","type":"bytes4","internalType":"bytes4"}],"outputs":[{"name":"","type":"bool","internalType":"bool"}],"stateMutability":"view"},{"type":"function","name":"sweep","inputs":[{"name":"nodeIds","type":"uint64[]","internalType":"uint64[]"},{"name":"maxWithdrawsPerNode","type":"uint8","internalType":"uint8"}],"outputs":[],"stateMutability":"nonpayable"},{"type":"function","name":"sweepForced","inputs":[{"name":"nodeIds","type":"uint64[]","internalType":"uint64[]"}],"outputs":[],"stateMutability":"nonpayable"},{"type":"function","name":"symbol","inputs":[],"outputs":[{"name":"","type":"string","internalType":"string"}],"stateMutability":"view"},{"type":"function","name":"syncStaking","inputs":[],"outputs":[],"stateMutability":"nonpayable"},{"type":"function","name":"totalPooled","inputs":[],"outputs":[{"name":"","type":"uint96","internalType":"uint96"}],"stateMutability":"view"},{"type":"function","name":"totalShares","inputs":[],"outputs":[{"name":"","type":"uint96","internalType":"uint96"}],"stateMutability":"view"},{"type":"function","name":"totalSupply","inputs":[],"outputs":[{"name":"","type":"uint256","internalType":"uint256"}],"stateMutability":"view"},{"type":"function","name":"totalWeight","inputs":[],"outputs":[{"name":"","type":"uint256","internalType":"uint256"}],"stateMutability":"view"},{"type":"function","name":"transfer","inputs":[{"name":"to","type":"address","internalType":"address"},{"name":"value","type":"uint256","internalType":"uint256"}],"outputs":[{"name":"","type":"bool","internalType":"bool"}],"stateMutability":"nonpayable"},{"type":"function","name":"transferFrom","inputs":[{"name":"from","type":"address","internalType":"address"},{"name":"to","type":"address","internalType":"address"},{"name":"value","type":"uint256","internalType":"uint256"}],"outputs":[{"name":"","type":"bool","internalType":"bool"}],"stateMutability":"nonpayable"},{"type":"function","name":"unbondDisableNode","inputs":[{"name":"nodeId","type":"uint64","internalType":"uint64"}],"outputs":[],"stateMutability":"nonpayable"},{"type":"function","name":"unpause","inputs":[],"outputs":[],"stateMutability":"nonpayable"},{"type":"function","name":"updateWeights","inputs":[{"name":"weightDeltas","type":"tuple[]","internalType":"struct Registry.WeightDelta[]","components":[{"name":"nodeId","type":"uint64","internalType":"uint64"},{"name":"delta","type":"uint96","internalType":"uint96"},{"name":"isIncreasing","type":"bool","internalType":"bool"}]}],"outputs":[],"stateMutability":"nonpayable"},{"type":"function","name":"upgradeToAndCall","inputs":[{"name":"newImplementation","type":"address","internalType":"address"},{"name":"data","type":"bytes","internalType":"bytes"}],"outputs":[],"stateMutability":"payable"},{"type":"function","name":"userUnlockRequests","inputs":[{"name":"","type":"address","internalType":"address"},{"name":"","type":"uint256","internalType":"uint256"}],"outputs":[{"name":"shares","type":"uint96","internalType":"uint96"},{"name":"spotValue","type":"uint96","internalType":"uint96"},{"name":"batchId","type":"uint40","internalType":"uint40"},{"name":"exitFeeInBips","type":"uint16","internalType":"uint16"}],"stateMutability":"view"},{"type":"function","name":"viewNodeByNodeId","inputs":[{"name":"nodeId","type":"uint64","internalType":"uint64"}],"outputs":[{"name":"node","type":"tuple","internalType":"struct Registry.Node","components":[{"name":"id","type":"uint64","internalType":"uint64"},{"name":"weight","type":"uint96","internalType":"uint96"},{"name":"staked","type":"uint96","internalType":"uint96"}]}],"stateMutability":"view"},{"type":"event","name":"Approval","inputs":[{"name":"owner","type":"address","indexed":true,"internalType":"address"},{"name":"spender","type":"address","indexed":true,"internalType":"address"},{"name":"value","type":"uint256","indexed":false,"internalType":"uint256"}],"anonymous":false},{"type":"event","name":"BatchSent","inputs":[{"name":"batchId","type":"uint256","indexed":false,"internalType":"uint256"},{"name":"shares","type":"uint256","indexed":false,"internalType":"uint256"},{"name":"spotValue","type":"uint256","indexed":false,"internalType":"uint256"}],"anonymous":false},{"type":"event","name":"Contribution","inputs":[{"name":"amount","type":"uint256","indexed":false,"internalType":"uint256"},{"name":"benefactor","type":"address","indexed":false,"internalType":"address"}],"anonymous":false},{"type":"event","name":"ExitFeeAdjusted","inputs":[{"name":"newFee","type":"uint256","indexed":false,"internalType":"uint256"}],"anonymous":false},{"type":"event","name":"FeesWithdrawn","inputs":[{"name":"managementFeeShares","type":"uint256","indexed":false,"internalType":"uint256"},{"name":"exitFeeShares","type":"uint256","indexed":false,"internalType":"uint256"}],"anonymous":false},{"type":"event","name":"Initialized","inputs":[{"name":"version","type":"uint64","indexed":false,"internalType":"uint64"}],"anonymous":false},{"type":"event","name":"ManagementFeeAdjusted","inputs":[{"name":"newFee","type":"uint256","indexed":false,"internalType":"uint256"}],"anonymous":false},{"type":"event","name":"NodeAdded","inputs":[{"name":"nodeId","type":"uint64","indexed":false,"internalType":"uint64"},{"name":"index","type":"uint256","indexed":false,"internalType":"uint256"}],"anonymous":false},{"type":"event","name":"NodeDisabled","inputs":[{"name":"nodeId","type":"uint64","indexed":false,"internalType":"uint64"}],"anonymous":false},{"type":"event","name":"NodeRemoved","inputs":[{"name":"nodeId","type":"uint64","indexed":false,"internalType":"uint64"}],"anonymous":false},{"type":"event","name":"NodeUpdated","inputs":[{"name":"nodeId","type":"uint64","indexed":true,"internalType":"uint64"},{"name":"newWeight","type":"uint256","indexed":false,"internalType":"uint256"}],"anonymous":false},{"type":"event","name":"Paused","inputs":[{"name":"account","type":"address","indexed":false,"internalType":"address"}],"anonymous":false},{"type":"event","name":"RoleAdminChanged","inputs":[{"name":"role","type":"bytes32","indexed":true,"internalType":"bytes32"},{"name":"previousAdminRole","type":"bytes32","indexed":true,"internalType":"bytes32"},{"name":"newAdminRole","type":"bytes32","indexed":true,"internalType":"bytes32"}],"anonymous":false},{"type":"event","name":"RoleGranted","inputs":[{"name":"role","type":"bytes32","indexed":true,"internalType":"bytes32"},{"name":"account","type":"address","indexed":true,"internalType":"address"},{"name":"sender","type":"address","indexed":true,"internalType":"address"}],"anonymous":false},{"type":"event","name":"RoleRevoked","inputs":[{"name":"role","type":"bytes32","indexed":true,"internalType":"bytes32"},{"name":"account","type":"address","indexed":true,"internalType":"address"},{"name":"sender","type":"address","indexed":true,"internalType":"address"}],"anonymous":false},{"type":"event","name":"Sync","inputs":[{"name":"rewarded","type":"uint256","indexed":false,"internalType":"uint256"},{"name":"slashed","type":"uint256","indexed":false,"internalType":"uint256"}],"anonymous":false},{"type":"event","name":"Transfer","inputs":[{"name":"from","type":"address","indexed":true,"internalType":"address"},{"name":"to","type":"address","indexed":true,"internalType":"address"},{"name":"value","type":"uint256","indexed":false,"internalType":"uint256"}],"anonymous":false},{"type":"event","name":"UnlockCancelled","inputs":[{"name":"staker","type":"address","indexed":true,"internalType":"address"},{"name":"unlockId","type":"uint256","indexed":false,"internalType":"uint256"}],"anonymous":false},{"type":"event","name":"UnlockRedeemed","inputs":[{"name":"staker","type":"address","indexed":true,"internalType":"address"},{"name":"unlockId","type":"uint256","indexed":false,"internalType":"uint256"},{"name":"amount","type":"uint256","indexed":false,"internalType":"uint256"}],"anonymous":false},{"type":"event","name":"UnlockRequested","inputs":[{"name":"staker","type":"address","indexed":true,"internalType":"address"},{"name":"unlockId","type":"uint256","indexed":false,"internalType":"uint256"},{"name":"shares","type":"uint256","indexed":false,"internalType":"uint256"},{"name":"spotValue","type":"uint256","indexed":false,"internalType":"uint256"},{"name":"toll","type":"uint256","indexed":false,"internalType":"uint256"}],"anonymous":false},{"type":"event","name":"Unpaused","inputs":[{"name":"account","type":"address","indexed":false,"internalType":"address"}],"anonymous":false},{"type":"event","name":"Upgraded","inputs":[{"name":"implementation","type":"address","indexed":true,"internalType":"address"}],"anonymous":false},{"type":"error","name":"AccessControlBadConfirmation","inputs":[]},{"type":"error","name":"AccessControlUnauthorizedAccount","inputs":[{"name":"account","type":"address","internalType":"address"},{"name":"neededRole","type":"bytes32","internalType":"bytes32"}]},{"type":"error","name":"ActiveNode","inputs":[]},{"type":"error","name":"AddressEmptyCode","inputs":[{"name":"target","type":"address","internalType":"address"}]},{"type":"error","name":"BatchNotSubmitted","inputs":[]},{"type":"error","name":"CancellationWindowClosed","inputs":[]},{"type":"error","name":"DepositOverflow","inputs":[]},{"type":"error","name":"DuplicateNode","inputs":[]},{"type":"error","name":"ERC1967InvalidImplementation","inputs":[{"name":"implementation","type":"address","internalType":"address"}]},{"type":"error","name":"ERC1967NonPayable","inputs":[]},{"type":"error","name":"ERC20InsufficientAllowance","inputs":[{"name":"spender","type":"address","internalType":"address"},{"name":"allowance","type":"uint256","internalType":"uint256"},{"name":"needed","type":"uint256","internalType":"uint256"}]},{"type":"error","name":"ERC20InsufficientBalance","inputs":[{"name":"sender","type":"address","internalType":"address"},{"name":"balance","type":"uint256","internalType":"uint256"},{"name":"needed","type":"uint256","internalType":"uint256"}]},{"type":"error","name":"ERC20InvalidApprover","inputs":[{"name":"approver","type":"address","internalType":"address"}]},{"type":"error","name":"ERC20InvalidReceiver","inputs":[{"name":"receiver","type":"address","internalType":"address"}]},{"type":"error","name":"ERC20InvalidSender","inputs":[{"name":"sender","type":"address","internalType":"address"}]},{"type":"error","name":"ERC20InvalidSpender","inputs":[{"name":"spender","type":"address","internalType":"address"}]},{"type":"error","name":"EmptyBatch","inputs":[]},{"type":"error","name":"EnforcedPause","inputs":[]},{"type":"error","name":"ExpectedPause","inputs":[]},{"type":"error","name":"FailedInnerCall","inputs":[]},{"type":"error","name":"FeeTooLarge","inputs":[]},{"type":"error","name":"InstantUnlockDisabled","inputs":[]},{"type":"error","name":"InstantUnlockThreshold","inputs":[]},{"type":"error","name":"InsufficientPendingWithdrawals","inputs":[]},{"type":"error","name":"InvalidInitialization","inputs":[]},{"type":"error","name":"InvalidNode","inputs":[]},{"type":"error","name":"MaxPendingWithdrawals","inputs":[]},{"type":"error","name":"MinimumBatchDelay","inputs":[]},{"type":"error","name":"MinimumContributeThreshold","inputs":[]},{"type":"error","name":"MinimumDeposit","inputs":[]},{"type":"error","name":"MinimumUnlock","inputs":[]},{"type":"error","name":"NoChange","inputs":[]},{"type":"error","name":"NotInitializing","inputs":[]},{"type":"error","name":"PendingWithdrawals","inputs":[]},{"type":"error","name":"PrecompileCallFailed","inputs":[]},{"type":"error","name":"TransferFailed","inputs":[]},{"type":"error","name":"UUPSUnauthorizedCallContext","inputs":[]},{"type":"error","name":"UUPSUnsupportedProxiableUUID","inputs":[{"name":"slot","type":"bytes32","internalType":"bytes32"}]},{"type":"error","name":"WithdrawDelay","inputs":[]},{"type":"error","name":"ZeroTotalWeight","inputs":[]}],"bytecode":{"object":"0x60a0604052306080523480156012575f80fd5b5060805161756f6100395f395f81816156a7015281816156d001526158a2015261756f5ff3fe60806040526004361061056c575f3560e01c8063615bfc45116102c4578063a4bd422c1161017b578063d6531de5116100dc578063e8ce892211610092578063fb9848e41161006d578063fb9848e414611267578063fd012e3414611286578063fde73f7d146112e0575f80fd5b8063e8ce8922146111e6578063f6516e7f14611219578063f75b040414611248575f80fd5b8063dd62ed3e116100c2578063dd62ed3e14611143578063df235fe6146111a6578063e29581aa146111c5575f80fd5b8063d6531de5146110f6578063d8a9fe5014611124575f80fd5b8063bf7df8e011610131578063c4d66de811610117578063c4d66de8146110a5578063cf5e2743146110b8578063d547741f146110d7575f80fd5b8063bf7df8e01461106a578063c36f985714611091575f80fd5b8063ad3cb1cc11610161578063ad3cb1cc14610fef578063aedf6d5114611037578063b6f12b9414611056575f80fd5b8063a4bd422c14610fb1578063a9059cbb14610fd0575f80fd5b806386bb1d6e11610225578063a03f83dd116101db578063a217fddf116101c1578063a217fddf14610f4c578063a30fefe114610f5f578063a4b0b5a314610f92575f80fd5b8063a03f83dd14610f1a578063a0e3cdd614610f39575f80fd5b806391d148541161020b57806391d1485414610e8e57806395d89b4114610ef157806396c82e5714610f05575f80fd5b806386bb1d6e14610e525780638dd09af314610e6f575f80fd5b806377654f341161027a5780637a6d59d5116102605780637a6d59d514610de25780637bde82f214610e1f5780638456cb5914610e3e575f80fd5b806377654f3414610d4257806378f908e114610d81575f80fd5b80636ec21cc8116102aa5780636ec21cc814610cb157806370a0823114610cd0578063733897b714610d23575f80fd5b8063615bfc4514610c6a57806363311d3d14610c7e575f80fd5b80632a7d8acb1161042357806346115383116103845780634ff0241a1161033a578063573c1ce011610315578063573c1ce014610bad5780635838b2fe14610c015780635c975abb14610c34575f80fd5b80634ff0241a14610b3a57806352d1902d14610b6d578063540a26f314610b81575f80fd5b80634beae6e31161036a5780634beae6e314610a955780634c3a045c14610af45780634f1ef28614610b27575f80fd5b80634611538314610a535780634a8a268f14610a67575f80fd5b80633a98ef39116103d95780633e367afa116103bf5780633e367afa146109ff5780633f4ba83a14610a2057806343abcf3214610a34575f80fd5b80633a98ef39146109bf5780633b5b4765146109d3575f80fd5b8063313ce56711610409578063313ce56714610966578063337b2b6e1461098157806336568abe146109a0575f80fd5b80632a7d8acb146109145780632f2ff15d14610947575f80fd5b806318160ddd116104cd57806322fd4ad511610483578063248a9ca311610469578063248a9ca31461087057806324f67e18146108bd5780632584601f146108dc575f80fd5b806322fd4ad51461081e57806323b872dd14610851575f80fd5b80631b8e0db6116104b35780631b8e0db6146107715780631c3477dd146107a45780631c53c280146107cf575f80fd5b806318160ddd1461071f57806319ddf95b14610752575f80fd5b80630a9f9ee2116105225780630bf14d9b116105085780630bf14d9b146106b357806315230e80146106e15780631610247b14610700575f80fd5b80630a9f9ee2146106665780630b52f7b114610687575f80fd5b806306fdde031161055257806306fdde03146105ec578063095ea7b31461060d5780630a763da11461062c575f80fd5b806301ffc9a71461057757806306c7dbc4146105ab575f80fd5b3661057357005b5f80fd5b348015610582575f80fd5b506105966105913660046169fe565b6112f8565b60405190151581526020015b60405180910390f35b3480156105b6575f80fd5b506105de7f359946d964cb1f92e24841dd25d0e8706f1ab6dd13500522367deddd927658d881565b6040519081526020016105a2565b3480156105f7575f80fd5b50610600611390565b6040516105a29190616a3d565b348015610618575f80fd5b50610596610627366004616a86565b611463565b348015610637575f80fd5b5060885461065090600160601b900464ffffffffff1681565b60405164ffffffffff90911681526020016105a2565b348015610671575f80fd5b50610685610680366004616b93565b61147a565b005b348015610692575f80fd5b506106a66106a1366004616be7565b6114db565b6040516105a29190616c02565b3480156106be575f80fd5b506105966106cd366004616be7565b608b6020525f908152604090205460ff1681565b3480156106ec575f80fd5b506106856106fb366004616c94565b611589565b34801561070b575f80fd5b5061068561071a366004616cc0565b6115de565b34801561072a575f80fd5b507f52c63247e1f47db19d5ce0460030c497f067ca4cebf71ba98eeadabe20bace02546105de565b34801561075d575f80fd5b5061068561076c366004616cd7565b61187c565b34801561077c575f80fd5b506105de7f13172b8201242833f26d88301b6e27aa2235ec2d9b2c92a1ed33678f0ee068fa81565b6107b76107b2366004616d0d565b6118ee565b6040516001600160601b0390911681526020016105a2565b3480156107da575f80fd5b506107ee6107e9366004616cc0565b611a6b565b6040805167ffffffffffffffff90941684526001600160601b0392831660208501529116908201526060016105a2565b348015610829575f80fd5b506105de7f902b1971fb3d9217703fb59d9a8bf53ee64da1be6756f20cebc090dd4c37f7d881565b34801561085c575f80fd5b5061059661086b366004616d37565b611aaf565b34801561087b575f80fd5b506105de61088a366004616cc0565b5f9081527f02dd7bc7dec4dceedda775e58dd541e08a116c6c53815c0bd028192f7b626800602052604090206001015490565b3480156108c8575f80fd5b506106856108d7366004616d75565b611ad4565b3480156108e7575f80fd5b506105966108f6366004616da6565b67ffffffffffffffff165f9081526047602052604090205460ff1690565b34801561091f575f80fd5b506105de7f1ea2b19b7ab22acb68ebeb58b5cb9eab43e3e119ebbd3159fdcddfc5b8c538b881565b348015610952575f80fd5b50610685610961366004616dc1565b611ee4565b348015610971575f80fd5b50604051601281526020016105a2565b34801561098c575f80fd5b5061068561099b366004616da6565b611f27565b3480156109ab575f80fd5b506106856109ba366004616dc1565b61207c565b3480156109ca575f80fd5b506107b76120cd565b3480156109de575f80fd5b506109f26109ed366004616da6565b612107565b6040516105a29190616de4565b348015610a0a575f80fd5b50610a136121d5565b6040516105a29190616e1e565b348015610a2b575f80fd5b506106856121e0565b348015610a3f575f80fd5b50610685610a4e366004616e55565b612215565b348015610a5e575f80fd5b506106856122e6565b348015610a72575f80fd5b506088546105969071010000000000000000000000000000000000900460ff1681565b348015610aa0575f80fd5b50610ad4610aaf366004616cc0565b608e6020525f90815260409020546001600160601b0380821691600160601b90041682565b604080516001600160601b039384168152929091166020830152016105a2565b348015610aff575f80fd5b506105de7fe4e31aec9ff1a347fb72ff05400e9d48f9f3a53213176eb3d32d3f8fa4697c1681565b610685610b35366004616e87565b61278d565b348015610b45575f80fd5b506105de7ff146182d150a5b368b6d283f87aeae1f25c21b02ff55cf16848704ade176a5cb81565b348015610b78575f80fd5b506105de6127ac565b348015610b8c575f80fd5b50610ba0610b9b366004616da6565b6127da565b6040516105a29190616f2e565b348015610bb8575f80fd5b50610bcc610bc7366004616f6f565b612841565b604080519788526020880196909652948601939093526060850191909152608084015260a083015260c082015260e0016105a2565b348015610c0c575f80fd5b506105de7f1d770361ad1ba5c90793f5d8711778cd963118207b8b46db0f36c72a65b0b45181565b348015610c3f575f80fd5b507fcd5ed15c6e187e77e9aee88184c21f4f2182ab5827cb3b7e07fbedcd63f033005460ff16610596565b348015610c75575f80fd5b506107b76128f8565b348015610c89575f80fd5b506105de7fe1777bd22f637fc57eadcf9d877079117b44537a53059b1670036696018f564c81565b348015610cbc575f80fd5b506088546107b7906001600160601b031681565b348015610cdb575f80fd5b506105de610cea366004616be7565b6001600160a01b03165f9081527f52c63247e1f47db19d5ce0460030c497f067ca4cebf71ba98eeadabe20bace00602052604090205490565b348015610d2e575f80fd5b50610685610d3d366004616da6565b6129da565b348015610d4d575f80fd5b50610ad4610d5c366004616cc0565b608d6020525f90815260409020546001600160601b0380821691600160601b90041682565b348015610d8c575f80fd5b50610dc1610d9b366004616cc0565b608c6020525f908152604090205467ffffffffffffffff80821691600160401b90041682565b6040805167ffffffffffffffff9384168152929091166020830152016105a2565b348015610ded575f80fd5b506105de610dfc366004616da6565b67ffffffffffffffff165f90815260466020526040902054610100900460ff1690565b348015610e2a575f80fd5b506107b7610e39366004616dc1565b612ac3565b348015610e49575f80fd5b50610685612d18565b348015610e5d575f80fd5b506105de69010f0cf064dd5920000081565b348015610e7a575f80fd5b50610685610e89366004616f8b565b612d4a565b348015610e99575f80fd5b50610596610ea8366004616dc1565b5f9182527f02dd7bc7dec4dceedda775e58dd541e08a116c6c53815c0bd028192f7b626800602090815260408084206001600160a01b0393909316845291905290205460ff1690565b348015610efc575f80fd5b50610600612e31565b348015610f10575f80fd5b506105de60045481565b348015610f25575f80fd5b50610685610f34366004616be7565b612e82565b610685610f47366004616be7565b612f94565b348015610f57575f80fd5b506105de5f81565b348015610f6a575f80fd5b506105de7f78a7a80e95d53cedc2e84890fb7aaf754249c544050913a3263a2abf9d66f53881565b348015610f9d575f80fd5b50610685610fac366004616fac565b6130ef565b348015610fbc575f80fd5b506107b7610fcb36600461701d565b613483565b348015610fdb575f80fd5b50610596610fea366004616a86565b61375b565b348015610ffa575f80fd5b506106006040518060400160405280600581526020017f352e302e3000000000000000000000000000000000000000000000000000000081525081565b348015611042575f80fd5b50610685611051366004616da6565b613768565b348015611061575f80fd5b506107b76139ed565b348015611075575f80fd5b50608a5461ffff165b60405161ffff90911681526020016105a2565b34801561109c575f80fd5b50610685613a44565b6106856110b3366004616be7565b613c63565b3480156110c3575f80fd5b506106856110d2366004616e55565b61411f565b3480156110e2575f80fd5b506106856110f1366004616dc1565b614217565b348015611101575f80fd5b50610596611110366004616da6565b60056020525f908152604090205460ff1681565b34801561112f575f80fd5b5061068561113e366004616da6565b61425a565b34801561114e575f80fd5b506105de61115d366004617061565b6001600160a01b039182165f9081527f52c63247e1f47db19d5ce0460030c497f067ca4cebf71ba98eeadabe20bace016020908152604080832093909416825291909152205490565b3480156111b1575f80fd5b506107b76111c036600461707d565b614342565b3480156111d0575f80fd5b506111d9614398565b6040516105a29190617096565b3480156111f1575f80fd5b506105de7fbb12ed6b435a5fce787412ceb233935082e39147d977bc587eb74d0f97f48d2c81565b348015611224575f80fd5b5061123861123336600461707d565b614421565b6040516105a2949392919061714e565b348015611253575f80fd5b50610685611262366004616f8b565b6144c9565b348015611272575f80fd5b506107b761128136600461707d565b6145a0565b348015611291575f80fd5b506112a56112a0366004616a86565b6145e0565b604080516001600160601b03958616815294909316602085015264ffffffffff9091169183019190915261ffff1660608201526080016105a2565b3480156112eb575f80fd5b5060895461ffff1661107e565b5f7fffffffff0000000000000000000000000000000000000000000000000000000082167f7965db0b00000000000000000000000000000000000000000000000000000000148061138a57507f01ffc9a7000000000000000000000000000000000000000000000000000000007fffffffff000000000000000000000000000000000000000000000000000000008316145b92915050565b7f52c63247e1f47db19d5ce0460030c497f067ca4cebf71ba98eeadabe20bace0380546060917f52c63247e1f47db19d5ce0460030c497f067ca4cebf71ba98eeadabe20bace00916113e19061719b565b80601f016020809104026020016040519081016040528092919081815260200182805461140d9061719b565b80156114585780601f1061142f57610100808354040283529160200191611458565b820191905f5260205f20905b81548152906001019060200180831161143b57829003601f168201915b505050505091505090565b5f33611470818585614638565b5060019392505050565b611482614645565b81515f5b818167ffffffffffffffff1610156114d5576114c5848267ffffffffffffffff16815181106114b7576114b76171cd565b6020026020010151846146a3565b6114ce816171f5565b9050611486565b50505050565b6001600160a01b0381165f908152608f60209081526040808320805482518185028101850190935280835260609492939192909184015b8282101561157e575f84815260209081902060408051608081018252918501546001600160601b038082168452600160601b82041683850152600160c01b810464ffffffffff1691830191909152600160e81b900461ffff166060820152825260019092019101611512565b505050509050919050565b7f78a7a80e95d53cedc2e84890fb7aaf754249c544050913a3263a2abf9d66f5386115b381614853565b506001600160a01b03919091165f908152608b60205260409020805460ff1916911515919091179055565b6115e6614645565b335f908152608f60205260408120805490919082908490811061160b5761160b6171cd565b5f9182526020918290206040805160808101825292909101546001600160601b038082168452600160601b80830490911694840194909452600160c01b810464ffffffffff908116928401839052600160e81b90910461ffff16606084015260885492945092909104909116146116ae576040517fdcb958f400000000000000000000000000000000000000000000000000000000815260040160405180910390fd5b606081015181515f91612710916116d29161ffff16906001600160601b0316617221565b6116dc919061724c565b90505f81835f01516116ee919061725f565b60408085015164ffffffffff165f908152608e6020908152908290208251808401909352546001600160601b03808216808552600160601b909204168383015290860151929350909190829061174590839061725f565b6001600160601b031690525060208101805183919061176590839061725f565b6001600160601b0390811690915260408087015164ffffffffff165f908152608e602090815291902084518154928601518416600160601b027fffffffffffffffff00000000000000000000000000000000000000000000000090931690841617919091179055841615905061181e57608980548491906002906117f99084906201000090046001600160601b031661725f565b92506101000a8154816001600160601b0302191690836001600160601b031602179055505b611828858761485d565b61183f3033865f01516001600160601b03166149f7565b60405186815233907fd1bbb16d648df2dfd0b1b3d88a5bc3f262e0323d3af8fd678115b4f1e7b4b88a9060200160405180910390a2505050505050565b7fe4e31aec9ff1a347fb72ff05400e9d48f9f3a53213176eb3d32d3f8fa4697c166118a681614853565b506088805491151571010000000000000000000000000000000000027fffffffffffffffffffffffffffff00ffffffffffffffffffffffffffffffffff909216919091179055565b5f6118f7614645565b6001600160601b03341115611938576040517f1132981b00000000000000000000000000000000000000000000000000000000815260040160405180910390fd5b611940614a8b565b61194934614342565b9050806001600160601b03165f036119745760405163a88ee57760e01b815260040160405180910390fd5b826001600160601b0316816001600160601b031610156119c0576040517fc635a9f200000000000000000000000000000000000000000000000000000000815260040160405180910390fd5b6119d382826001600160601b0316614c0b565b608880543491905f906119f09084906001600160601b031661727e565b82546101009290920a6001600160601b03818102199093169183160217909155608854600160601b900464ffffffffff165f908152608d6020526040812080543494509092611a419185911661727e565b92506101000a8154816001600160601b0302191690836001600160601b0316021790555092915050565b60038181548110611a7a575f80fd5b5f9182526020909120015467ffffffffffffffff811691506001600160601b03600160401b8204811691600160a01b90041683565b5f33611abc858285614c58565b611ac78585856149f7565b60019150505b9392505050565b611adc614645565b611ae4614a8b565b335f908152608b6020526040812054819060ff16611b285760895461ffff169150612710611b1b836001600160601b038716617221565b611b25919061724c565b90505b5f611b33828661725f565b90505f611b3f826145a0565b9050806001600160601b03165f03611b6a5760405163a88ee57760e01b815260040160405180910390fd5b846001600160601b0316816001600160601b03161015611bb6576040517f641963a400000000000000000000000000000000000000000000000000000000815260040160405180910390fd5b5f6088600c9054906101000a900464ffffffffff169050608f5f336001600160a01b03166001600160a01b031681526020019081526020015f206040518060800160405280896001600160601b03168152602001846001600160601b031681526020018364ffffffffff1681526020018761ffff16815250908060018154018082558091505060019003905f5260205f20015f909190919091505f820151815f015f6101000a8154816001600160601b0302191690836001600160601b031602179055506020820151815f01600c6101000a8154816001600160601b0302191690836001600160601b031602179055506040820151815f0160186101000a81548164ffffffffff021916908364ffffffffff1602179055506060820151815f01601d6101000a81548161ffff021916908361ffff16021790555050505f608e5f8364ffffffffff1681526020019081526020015f206040518060400160405290815f82015f9054906101000a90046001600160601b03166001600160601b03166001600160601b031681526020015f8201600c9054906101000a90046001600160601b03166001600160601b03166001600160601b031681525050905082815f01818151611d84919061727e565b6001600160601b0316905250602081018051859190611da490839061727e565b6001600160601b0390811690915264ffffffffff84165f908152608e6020908152604090912084518154928601518416600160601b027fffffffffffffffff000000000000000000000000000000000000000000000000909316908416179190911790558616159050611e5a5760898054869190600290611e359084906201000090046001600160601b031661727e565b92506101000a8154816001600160601b0302191690836001600160601b031602179055505b611e6e33308a6001600160601b03166149f7565b335f818152608f60205260409020547fef31107568890496c8f16fec1278e709d23f1444e004e7973a9403880c28d91790611eab9060019061729d565b604080519182526001600160601b0388811660208401528781168383015289166060830152519081900360800190a25050505050505050565b5f8281527f02dd7bc7dec4dceedda775e58dd541e08a116c6c53815c0bd028192f7b6268006020526040902060010154611f1d81614853565b6114d58383614d06565b611f2f614dd2565b611f435f67ffffffffffffffff8316614dfc565b15155f03611f7d576040517f0fa1af0e00000000000000000000000000000000000000000000000000000000815260040160405180910390fd5b604080516060810182525f602080830182815283850183815267ffffffffffffffff8781168087526003805460018101825581885288517fc2575a0e9e593c00f959f8c92f12db2869c3395a3b0502d05e2516446f71f85b9091018054965195519190941673ffffffffffffffffffffffffffffffffffffffff1990961695909517600160401b6001600160601b0395861602176001600160a01b0316600160a01b94909516939093029390931790555481845260028352928590208390558451908152908101829052919290917fdd8aaf98a662995c3720dc78ea3773142e7d32c94f523a7d651e932ba0c44f8a91015b60405180910390a1505050565b6001600160a01b03811633146120be576040517f6697b23200000000000000000000000000000000000000000000000000000000815260040160405180910390fd5b6120c88282614e07565b505050565b5f6120d66128f8565b7f52c63247e1f47db19d5ce0460030c497f067ca4cebf71ba98eeadabe20bace0254612102919061727e565b905090565b67ffffffffffffffff8082165f90815260466020908152604080832081518083019092525460ff8082168352610100909104169181018290526060939092919081111561215657612156616ab0565b60405190808252806020026020018201604052801561217f578160200160208202803683370190505b5090505f5b826020015160ff168110156121cd5782516121a1908260ff614eab565b8282815181106121b3576121b36171cd565b60ff90921660209283029190910190910152600101612184565b509392505050565b60606121025f614ed4565b7ff146182d150a5b368b6d283f87aeae1f25c21b02ff55cf16848704ade176a5cb61220a81614853565b612212614ee0565b50565b61221d614645565b805147905f5b818167ffffffffffffffff16101561227157612261848267ffffffffffffffff1681518110612254576122546171cd565b6020026020010151614f52565b61226a816171f5565b9050612223565b505f61227d834761729d565b905080156114d557608854600160601b900464ffffffffff165f908152608d6020526040812080548392906122bc9084906001600160601b031661727e565b92506101000a8154816001600160601b0302191690836001600160601b0316021790555050505050565b6122ee614645565b6122f6614a8b565b6088546001600160601b03811690600160601b900464ffffffffff165f8061231c615072565b90925090505f608c816123306001876172b0565b64ffffffffff16815260208082019290925260409081015f2081518083019092525467ffffffffffffffff8082168352600160401b9091048116928201839052909250841610156123ad576040517f4851faea00000000000000000000000000000000000000000000000000000000815260040160405180910390fd5b64ffffffffff84165f818152608d602090815260408083208151808301835290546001600160601b038082168352600160601b91829004811683860152958552608e845293829020825180840190935254808616808452949004851692820192909252815191939092911611156124bd57815181515f9161242e918a6150ad565b825184519192505f9183916124429161725f565b61244c919061725f565b90506001600160601b038116156124a65780608d5f61246c8b60016172cd565b64ffffffffff16815260208101919091526040015f2080546bffffffffffffffffffffffff19166001600160601b03929092169190911790555b505067ffffffffffffffff841660208401526125d2565b815181516001600160601b039182169116111561257e57805182515f916124e4918a61538d565b835183519192505f9183916124f89161725f565b612502919061725f565b90506001600160601b038116156124a65780608e5f6125228b60016172cd565b64ffffffffff16815260208101919091526040015f2080546bffffffffffffffffffffffff19166001600160601b0392909216919091179055612565818a61727e565b9850505067ffffffffffffffff841660208401526125d2565b81516001600160601b03165f036125c1576040517fc2e5347d00000000000000000000000000000000000000000000000000000000815260040160405180910390fd5b67ffffffffffffffff851660208401525b60208101516001600160601b0316156125fc576125fc3082602001516001600160601b031661564f565b80516001600160601b03161561263e578051612618908861725f565b608880546bffffffffffffffffffffffff19166001600160601b03929092169190911790555b6040805160608101825260895461ffff811682526001600160601b03620100008204811660208401819052600160701b909204169282019290925290156126f357806020015181604001818151612695919061727e565b6001600160601b039081169091525f60208401528251608980546040860151909316600160701b027fffffffffffff000000000000000000000000000000000000000000000000000090931661ffff90921691909117919091179055505b67ffffffffffffffff808716855264ffffffffff88165f908152608c6020908152604090912086518154928801518416600160401b027fffffffffffffffffffffffffffffffff000000000000000000000000000000009093169316929092171790556127618760016172cd565b6088600c6101000a81548164ffffffffff021916908364ffffffffff1602179055505050505050505050565b61279561569c565b61279e8261576c565b6127a88282615796565b5050565b5f6127b5615897565b507f360894a13ba1a3210667c828492db98dca3e2076cc3735a920a3ca505d382bbc90565b604080516060810182525f80825260208201819052918101919091526127ff826158f9565b60408051606081018252915467ffffffffffffffff811683526001600160601b03600160401b820481166020850152600160a01b909104169082015292915050565b6040517f573c1ce000000000000000000000000000000000000000000000000000000000815267ffffffffffffffff831660048201526001600160a01b03821660248201525f908190819081908190819081906110009063573c1ce09060440160e060405180830381865afa1580156128bc573d5f803e3d5ffd5b505050506040513d601f19601f820116820180604052508101906128e091906172ea565b959f949e50929c50909a509850965090945092505050565b60408051606081018252608a5461ffff811682526201000081046001600160601b031660208301819052600160701b90910464ffffffffff16928201839052915f90612944904261729d565b905080156129d55781515f906127109061ffff166001600160601b03861661298a7f52c63247e1f47db19d5ce0460030c497f067ca4cebf71ba98eeadabe20bace025490565b6129949190617339565b61299e9190617221565b6129a8919061724c565b90505f6301e133806129ba8484617221565b6129c4919061724c565b90506129d0818661727e565b945050505b505090565b6129e2614645565b7f1d770361ad1ba5c90793f5d8711778cd963118207b8b46db0f36c72a65b0b451612a0c81614853565b67ffffffffffffffff82165f9081526005602052604090205460ff16612a455760405163194fdc7f60e31b815260040160405180910390fd5b5f612a4f836158f9565b8054909150600160a01b90046001600160601b03165f819003612a855760405163a88ee57760e01b815260040160405180910390fd5b612a9884826001600160601b0316615978565b5081546001600160a01b03168255608880548291905f906122bc9084906001600160601b031661725f565b5f612acc614645565b335f908152608f602052604081208054909190829086908110612af157612af16171cd565b5f91825260208083206040805160808101825293909101546001600160601b038082168552600160601b82041684840152600160c01b810464ffffffffff16848301819052600160e81b90910461ffff1660608501528452608c825280842081518083019092525467ffffffffffffffff808216808452600160401b9092041692820192909252919350909103612bb4576040517ffc08f5f200000000000000000000000000000000000000000000000000000000815260040160405180910390fd5b5f612bbd6159d9565b509050612bc8615a44565b60ff168260200151612bda919061734c565b67ffffffffffffffff168167ffffffffffffffff161015612c27576040517fba9bead700000000000000000000000000000000000000000000000000000000815260040160405180910390fd5b612c31848861485d565b826020015194505f866001600160a01b0316866001600160601b03166040515f6040518083038185875af1925050503d805f8114612c8a576040519150601f19603f3d011682016040523d82523d5f602084013e612c8f565b606091505b5050905080612cca576040517f90b8ec1800000000000000000000000000000000000000000000000000000000815260040160405180910390fd5b604080518981526001600160601b038816602082015233917f53a80b7fa2025e3acb298abd7e222b36ce5d6a1425e7a6e53b451aac0c6e5a21910160405180910390a2505050505092915050565b7ff146182d150a5b368b6d283f87aeae1f25c21b02ff55cf16848704ade176a5cb612d4281614853565b612212615a86565b7f13172b8201242833f26d88301b6e27aa2235ec2d9b2c92a1ed33678f0ee068fa612d7481614853565b60c88261ffff161115612db3576040517ffc5bee1200000000000000000000000000000000000000000000000000000000815260040160405180910390fd5b608a5461ffff90811690831603612ddd5760405163a88ee57760e01b815260040160405180910390fd5b612de5614a8b565b608a805461ffff191661ffff84169081179091556040519081527f756367c310578acc96b78fcf4141ddb3cf532982d1342ec193f34a3600b9ae65906020015b60405180910390a15050565b7f52c63247e1f47db19d5ce0460030c497f067ca4cebf71ba98eeadabe20bace0480546060917f52c63247e1f47db19d5ce0460030c497f067ca4cebf71ba98eeadabe20bace00916113e19061719b565b612e8a614645565b7f359946d964cb1f92e24841dd25d0e8706f1ab6dd13500522367deddd927658d8612eb481614853565b612ebc614a8b565b608a546201000090046001600160601b03168015612f0757612ede8382614c0b565b608a80547fffffffffffffffffffffffffffffffffffff000000000000000000000000ffff1690555b608954600160701b90046001600160601b03168015612f5457612f2b3085836149f7565b608980547fffffffffffff000000000000000000000000ffffffffffffffffffffffffffff1690555b60408051838152602081018390527fd9787bf70d3926a4a81c52cba8799d18903ce0132aaa4b7de9e92dc893303a7f91015b60405180910390a150505050565b612f9c614645565b6001600160601b03341115612fdd576040517f1132981b00000000000000000000000000000000000000000000000000000000815260040160405180910390fd5b6088546001600160601b031669010f0cf064dd5920000081101561302d576040517f500625f400000000000000000000000000000000000000000000000000000000815260040160405180910390fd5b613037348261727e565b608880546bffffffffffffffffffffffff19166001600160601b039283161790819055600160601b900464ffffffffff165f908152608d60205260408120805434939192916130889185911661727e565b92506101000a8154816001600160601b0302191690836001600160601b031602179055507f04e75fda068b8e114d7658bdff74280a0fd65586b7e026a034eae29dd5a9e68b3483604051612e259291909182526001600160a01b0316602082015260400190565b6130f7615ae1565b600454815f5b8181101561347a57848482818110613117576131176171cd565b905060600201604001602081019061312f9190616cd7565b156132b1575f61316586868481811061314a5761314a6171cd565b6131609260206060909202019081019150616da6565b6158f9565b805467ffffffffffffffff165f9081526005602052604090205490915060ff16156131a35760405163194fdc7f60e31b815260040160405180910390fd5b8054600160401b90046001600160601b03165f8787858181106131c8576131c86171cd565b90506060020160200160208101906131e0919061707d565b6131ea908361727e565b835473ffffffffffffffffffffffff00000000000000001916600160401b6001600160601b0383811691820292909217865591925061322b9084168861729d565b6132359190617339565b9550878785818110613249576132496171cd565b61325f9260206060909202019081019150616da6565b6040516001600160601b038316815267ffffffffffffffff91909116907fcfaa637aecf1e60e723842980c95e1f0a7ca0a264e46647e4656b98f7293e33b9060200160405180910390a2505050613472565b5f60025f8787858181106132c7576132c76171cd565b6132dd9260206060909202019081019150616da6565b67ffffffffffffffff1667ffffffffffffffff1681526020019081526020015f20549050805f0361330e5750613472565b5f600361331c60018461729d565b8154811061332c5761332c6171cd565b5f91825260208220018054909250600160401b90046001600160601b03169081810361335b5750505050613472565b5f89898781811061336e5761336e6171cd565b9050606002016020016020810190613386919061707d565b9050826001600160601b0316816001600160601b031610156133af576133ac818461725f565b91505b83546001600160601b03808416600160401b810273ffffffffffffffffffffffff0000000000000000199093169290921786556133ee9085168a61729d565b6133f89190617339565b975089898781811061340c5761340c6171cd565b6134229260206060909202019081019150616da6565b6040516001600160601b038416815267ffffffffffffffff91909116907fcfaa637aecf1e60e723842980c95e1f0a7ca0a264e46647e4656b98f7293e33b9060200160405180910390a250505050505b6001016130fd565b50506004555050565b6088545f9071010000000000000000000000000000000000900460ff166134d6576040517ff4574cf700000000000000000000000000000000000000000000000000000000815260040160405180910390fd5b6134de614a8b565b335f908152608b602052604081205460ff1661352157608954612710906135129061ffff166001600160601b038816617221565b61351c919061724c565b613523565b5f5b90505f613530828761725f565b905061353b816145a0565b9250826001600160601b03165f036135665760405163a88ee57760e01b815260040160405180910390fd5b846001600160601b0316836001600160601b031610156135b2576040517f641963a400000000000000000000000000000000000000000000000000000000815260040160405180910390fd5b608854600160601b900464ffffffffff165f908152608d6020526040902080546001600160601b03908116908516811015613619576040517fed8ff24700000000000000000000000000000000000000000000000000000000815260040160405180910390fd5b613623858261725f565b82546bffffffffffffffffffffffff19166001600160601b0391821617835561365190339030908b166149f7565b61366430846001600160601b031661564f565b6001600160601b038416156136bd5760898054859190600e90613698908490600160701b90046001600160601b031661727e565b92506101000a8154816001600160601b0302191690836001600160601b031602179055505b5f866001600160a01b0316866001600160601b03166040515f6040518083038185875af1925050503d805f811461370f576040519150601f19603f3d011682016040523d82523d5f602084013e613714565b606091505b505090508061374f576040517f90b8ec1800000000000000000000000000000000000000000000000000000000815260040160405180910390fd5b50505050509392505050565b5f336114708185856149f7565b61377181615b0b565b67ffffffffffffffff81165f90815260026020526040812054908190036137c4576040517f30812d4200000000000000000000000000000000000000000000000000000000815260040160405180910390fd5b5f60036137d260018461729d565b815481106137e2576137e26171cd565b5f91825260209182902060408051606081018252929091015467ffffffffffffffff811683526001600160601b03600160401b82048116948401859052600160a01b909104169082015291501561384c5760405163194fdc7f60e31b815260040160405180910390fd5b60408101516001600160601b0316156138785760405163194fdc7f60e31b815260040160405180910390fd5b600380545f919061388b9060019061729d565b8154811061389b5761389b6171cd565b5f9182526020808320909101805467ffffffffffffffff1683526002909152604090912084905590508060036138d260018661729d565b815481106138e2576138e26171cd565b5f918252602080832084549201805467ffffffffffffffff93841667ffffffffffffffff19821681178355865473ffffffffffffffffffffffffffffffffffffffff1990921617600160401b918290046001600160601b039081169092021780835595546001600160a01b03909616600160a01b9687900490911690950294909417909355861681526002909152604081205560038054806139865761398661736c565b5f8281526020812082015f199081018290559091019091556139b29067ffffffffffffffff8616615be1565b5060405167ffffffffffffffff851681527f8712d9d347359238729023dc8640e38f0d4f8ad25d0e079c2208a885a51a023f90602001612f86565b6088545f9071010000000000000000000000000000000000900460ff16613a1357505f90565b608854600160601b900464ffffffffff165f908152608d6020526040902054612102906001600160601b0316614342565b613a4c614645565b6003545f908190815b81811015613bb5575f60038281548110613a7157613a716171cd565b5f91825260208083206040805160608101825291909301805467ffffffffffffffff81168084526001600160601b03600160401b8304811695850195909552600160a01b9091049093169382019390935291935090919081908190613ad69030612841565b5050604089015194975090955093505f9150839050613af58587617339565b613aff9190617339565b9050816001600160601b0316816001600160601b03161115613b5457613b25828261725f565b613b2f908c61727e565b87546001600160a01b0316600160a01b6001600160601b038416021788559a50613ba3565b816001600160601b0316816001600160601b03161015613ba357613b78818361725f565b613b82908b61727e565b87546001600160a01b0316600160a01b6001600160601b0384160217885599505b50505050505050806001019050613a55565b505f836001600160601b03161180613bd557505f826001600160601b0316115b15613c23576088548290613bf39085906001600160601b031661727e565b613bfd919061725f565b608880546bffffffffffffffffffffffff19166001600160601b03929092169190911790555b604080516001600160601b038086168252841660208201527fcf2aa50876cdfbb541206f89af0ee78d44a2abf8d328e37fa4917f982149848a910161206f565b7ff0c57e16840df040f15088dc2f81fe391c3923bec73e23a9662efc9c229c6a008054600160401b810460ff16159067ffffffffffffffff165f81158015613ca85750825b90505f8267ffffffffffffffff166001148015613cc45750303b155b905081158015613cd2575080155b15613d09576040517ff92ee8a900000000000000000000000000000000000000000000000000000000815260040160405180910390fd5b845467ffffffffffffffff191660011785558315613d3857845468ff00000000000000001916600160401b1785555b613d40615bec565b613db46040518060400160405280601381526020017f4b696e747375205374616b6564204d6f6e6164000000000000000000000000008152506040518060400160405280600481526020017f734d4f4e00000000000000000000000000000000000000000000000000000000815250615bf4565b613dbc615bec565b613dc4615c06565b613dce5f87614d06565b50613df97f902b1971fb3d9217703fb59d9a8bf53ee64da1be6756f20cebc090dd4c37f7d887614d06565b50613e247fe1777bd22f637fc57eadcf9d877079117b44537a53059b1670036696018f564c87614d06565b50613e4f7fbb12ed6b435a5fce787412ceb233935082e39147d977bc587eb74d0f97f48d2c87614d06565b50613e7a7f1d770361ad1ba5c90793f5d8711778cd963118207b8b46db0f36c72a65b0b45187614d06565b50613ea57f13172b8201242833f26d88301b6e27aa2235ec2d9b2c92a1ed33678f0ee068fa87614d06565b50613ed07f13172b8201242833f26d88301b6e27aa2235ec2d9b2c92a1ed33678f0ee068fa80615c16565b613efa7f359946d964cb1f92e24841dd25d0e8706f1ab6dd13500522367deddd927658d887614d06565b50613f257f359946d964cb1f92e24841dd25d0e8706f1ab6dd13500522367deddd927658d880615c16565b613f4f7f78a7a80e95d53cedc2e84890fb7aaf754249c544050913a3263a2abf9d66f53887614d06565b50613f7a7f78a7a80e95d53cedc2e84890fb7aaf754249c544050913a3263a2abf9d66f53880615c16565b613fa47f1ea2b19b7ab22acb68ebeb58b5cb9eab43e3e119ebbd3159fdcddfc5b8c538b887614d06565b50613fcf7f1ea2b19b7ab22acb68ebeb58b5cb9eab43e3e119ebbd3159fdcddfc5b8c538b880615c16565b613ff97ff146182d150a5b368b6d283f87aeae1f25c21b02ff55cf16848704ade176a5cb87614d06565b506140247fe4e31aec9ff1a347fb72ff05400e9d48f9f3a53213176eb3d32d3f8fa4697c1687614d06565b50608880547fffffffffffffffffffffffffffff000000000000ffffffffffffffffffffffff16710100000000010000000000000000000000001790556040805160608101825260c88082525f602083015264ffffffffff421691909201819052608a80547fffffffffffffffffffffffffff0000000000000000000000000000000000000016600160701b90920291909117909117905560898054600561ffff19909116179055831561411757845468ff000000000000000019168555604051600181527fc7f505b2f371ae2175ee4913f4499e1f2633a7b5936321eed1cdaeb6115181d29060200160405180910390a15b505050505050565b614127614645565b805147905f5b818167ffffffffffffffff16101561417b5761416b848267ffffffffffffffff168151811061415e5761415e6171cd565b6020026020010151615cb7565b614174816171f5565b905061412d565b505f614187834761729d565b9050805f036141a95760405163a88ee57760e01b815260040160405180910390fd5b608880548291905f906141c69084906001600160601b031661727e565b82546101009290920a6001600160601b03818102199093169183160217909155608854600160601b900464ffffffffff165f908152608d60205260408120805485945090926122bc9185911661727e565b5f8281527f02dd7bc7dec4dceedda775e58dd541e08a116c6c53815c0bd028192f7b626800602052604090206001015461425081614853565b6114d58383614e07565b614262615d5c565b67ffffffffffffffff81165f9081526005602052604090205460ff161561429c5760405163a88ee57760e01b815260040160405180910390fd5b5f6142a6826158f9565b805460048054929350600160401b9091046001600160601b0316915f906142ce90849061729d565b9091555050805473ffffffffffffffffffffffff00000000000000001916815567ffffffffffffffff82165f81815260056020908152604091829020805460ff1916600117905590519182527fa46b2e9bd92f27216c46d5a9772c39431f3f381285ee1dacb1f1034fe603b10b9101612e25565b6088545f906001600160601b031680820361435f57829150614392565b806143686120cd565b6001600160601b0316846001600160601b03166143859190617221565b61438f919061724c565b91505b50919050565b60606003805480602002602001604051908101604052809291908181526020015f905b82821015614418575f848152602090819020604080516060810182529185015467ffffffffffffffff811683526001600160601b03600160401b8204811684860152600160a01b90910416908201528252600190920191016143bb565b50505050905090565b5f806060806144ba6003805480602002602001604051908101604052809291908181526020015f905b828210156144a7575f848152602090819020604080516060810182529185015467ffffffffffffffff811683526001600160601b03600160401b8204811684860152600160a01b909104169082015282526001909201910161444a565b50505050866001600160601b0316615d86565b93509350935093509193509193565b7f13172b8201242833f26d88301b6e27aa2235ec2d9b2c92a1ed33678f0ee068fa6144f381614853565b60328261ffff161115614532576040517ffc5bee1200000000000000000000000000000000000000000000000000000000815260040160405180910390fd5b60895461ffff9081169083160361455c5760405163a88ee57760e01b815260040160405180910390fd5b6089805461ffff191661ffff84169081179091556040519081527f0531f91c02fe1dc8b306233f5edba5c1b65a79a064d26a40b6082bc9d887ecba90602001612e25565b5f806145aa6120cd565b6001600160601b03169050805f036145c457829150614392565b6088548190614385906001600160601b03908116908616617221565b608f602052815f5260405f2081815481106145f9575f80fd5b5f918252602090912001546001600160601b038082169350600160601b8204169150600160c01b810464ffffffffff1690600160e81b900461ffff1684565b6120c88383836001615f65565b7fcd5ed15c6e187e77e9aee88184c21f4f2182ab5827cb3b7e07fbedcd63f033005460ff16156146a1576040517fd93c066500000000000000000000000000000000000000000000000000000000815260040160405180910390fd5b565b67ffffffffffffffff82165f90815260466020908152604080832081518083019092525460ff80821683526101009091048116928201839052909291908416106146f15781602001516146f3565b825b90508060ff165f036147055750505050565b5f5b8160ff168110156147dd575f614722845f01518360ff614eab565b6040517faed2ee7300000000000000000000000000000000000000000000000000000000815267ffffffffffffffff8816600482015260ff821660248201529091505f906110009063aed2ee73906044016020604051808303815f875af115801561478f573d5f803e3d5ffd5b505050506040513d601f19601f820116820180604052508101906147b39190617380565b9050806147d357604051633f48ffd960e21b815260040160405180910390fd5b5050600101614707565b5081516147ec908260ff614eab565b60ff16825260208201805182919061480590839061739b565b60ff90811690915267ffffffffffffffff9095165f90815260466020908152604090912084518154929095015187166101000261ffff19909216949096169390931792909217909355505050565b612212813361608e565b81545f9061486d9060019061729d565b90508082146149aa57828181548110614888576148886171cd565b905f5260205f20018383815481106148a2576148a26171cd565b5f91825260209091208254910180546bffffffffffffffffffffffff1981166001600160601b0393841690811783558454600160601b908190049094169093027fffffffffffffffff00000000000000000000000000000000000000000000000090911690921791909117808255825464ffffffffff600160c01b9182900416027fffffff0000000000ffffffffffffffffffffffffffffffffffffffffffffffff821681178355925461ffff600160e81b9182900416027fff0000ffffffffffffffffffffffffffffffffffffffffffffffffffffffffff9093167fff00000000000000ffffffffffffffffffffffffffffffffffffffffffffffff909116179190911790555b828054806149ba576149ba61736c565b5f8281526020902081015f1990810180547fff00000000000000000000000000000000000000000000000000000000000000169055019055505050565b6001600160a01b038316614a3e576040517f96c6fd1e0000000000000000000000000000000000000000000000000000000081525f60048201526024015b60405180910390fd5b6001600160a01b038216614a80576040517fec442f050000000000000000000000000000000000000000000000000000000081525f6004820152602401614a35565b6120c883838361611a565b60408051606081018252608a5461ffff811682526201000081046001600160601b03166020830152600160701b900464ffffffffff16918101829052905f90614ad4904261729d565b905080156127a8575f61271061ffff16835f015161ffff1684602001516001600160601b0316614b227f52c63247e1f47db19d5ce0460030c497f067ca4cebf71ba98eeadabe20bace025490565b614b2c9190617339565b614b369190617221565b614b40919061724c565b90505f6301e13380614b528484617221565b614b5c919061724c565b90508084602001516001600160601b0316614b779190617339565b6001600160601b0316602085018190524264ffffffffff16604086018190529451608a805461ffff9092167fffffffffffffffffffffffffffffffffffff00000000000000000000000000009092169190911762010000909202919091177fffffffffffffffffffffffffff0000000000ffffffffffffffffffffffffffff16600160701b90950294909417909355505050565b6001600160a01b038216614c4d576040517fec442f050000000000000000000000000000000000000000000000000000000081525f6004820152602401614a35565b6127a85f838361611a565b6001600160a01b038381165f9081527f52c63247e1f47db19d5ce0460030c497f067ca4cebf71ba98eeadabe20bace0160209081526040808320938616835292905220545f198110156114d55781811015614cf8576040517ffb8f41b20000000000000000000000000000000000000000000000000000000081526001600160a01b03841660048201526024810182905260448101839052606401614a35565b6114d584848484035f615f65565b5f8281527f02dd7bc7dec4dceedda775e58dd541e08a116c6c53815c0bd028192f7b626800602081815260408084206001600160a01b038616855290915282205460ff16614dc9575f848152602082815260408083206001600160a01b03871684529091529020805460ff19166001179055614d7f3390565b6001600160a01b0316836001600160a01b0316857f2f8788117e7eff1d82e926ec794901d17c78024a50270940304540a733656f0d60405160405180910390a4600191505061138a565b5f91505061138a565b7f902b1971fb3d9217703fb59d9a8bf53ee64da1be6756f20cebc090dd4c37f7d861221281614853565b5f611acd838361627f565b5f8281527f02dd7bc7dec4dceedda775e58dd541e08a116c6c53815c0bd028192f7b626800602081815260408084206001600160a01b038616855290915282205460ff1615614dc9575f848152602082815260408083206001600160a01b0387168085529252808320805460ff1916905551339287917ff6391f5c32d9c69d2a47ea670b442974b53935d1edc7fd64eb21e047a839171b9190a4600191505061138a565b5f8160ff168360ff168560ff16614ec29190617339565b614ecc91906173b4565b949350505050565b60605f611acd836162cb565b614ee8616324565b7fcd5ed15c6e187e77e9aee88184c21f4f2182ab5827cb3b7e07fbedcd63f03300805460ff191681557f5db9ee0a495bf2e6ff9c91a7834c1ba4fdd244a5e8aa4e537bd38aeae4b073aa335b6040516001600160a01b03909116815260200160405180910390a150565b67ffffffffffffffff81165f9081526047602052604090205460ff16614fa4576040517f78297a8c00000000000000000000000000000000000000000000000000000000815260040160405180910390fd5b6040517faed2ee7300000000000000000000000000000000000000000000000000000000815267ffffffffffffffff8216600482015260ff60248201525f906110009063aed2ee73906044016020604051808303815f875af115801561500c573d5f803e3d5ffd5b505050506040513d601f19601f820116820180604052508101906150309190617380565b90508061505057604051633f48ffd960e21b815260040160405180910390fd5b5067ffffffffffffffff165f908152604760205260409020805460ff19169055565b5f805f8061507e6159d9565b915091508193508061509a5761509584600161734c565b6150a5565b6150a584600261734c565b925050509091565b6004545f908082036150eb576040517f098404de00000000000000000000000000000000000000000000000000000000815260040160405180910390fd5b5f6003805480602002602001604051908101604052809291908181526020015f905b8282101561516a575f848152602090819020604080516060810182529185015467ffffffffffffffff811683526001600160601b03600160401b8204811684860152600160a01b909104169082015282526001909201910161510d565b5050505090505f80615190838888615182919061725f565b6001600160601b0316615d86565b9350509250505f87896151a3919061725f565b6001600160601b031690505f836001600160601b031682106151ce57836001600160601b03166151d0565b815b90505f6151dd828461729d565b86519091505f5b8181101561537d575f80878381518110615200576152006171cd565b60200260200101516001600160601b03161161521c575f61525e565b876001600160601b0316878381518110615238576152386171cd565b60200260200101516001600160601b0316866152549190617221565b61525e919061724c565b90505f80851161526e575f6152ab565b8a8a8481518110615281576152816171cd565b6020026020010151602001516001600160601b0316866152a19190617221565b6152ab919061724c565b90505f6152b88284617339565b90506001600160601b0381161561536f57808b85815181106152dc576152dc6171cd565b6020026020010151604001516152f2919061727e565b60038581548110615305576153056171cd565b905f5260205f20015f0160146101000a8154816001600160601b0302191690836001600160601b031602179055506153628b8581518110615348576153486171cd565b60200260200101515f0151826001600160601b031661637f565b61536c818e61727e565b9c505b5050508060010190506151e4565b5050505050505050509392505050565b5f806003805480602002602001604051908101604052809291908181526020015f905b8282101561540d575f848152602090819020604080516060810182529185015467ffffffffffffffff811683526001600160601b03600160401b8204811684860152600160a01b90910416908201528252600190920191016153b0565b5050505090505f80615425838887615182919061725f565b5092505091505f8688615438919061725f565b6001600160601b031690505f836001600160601b0316821061546357836001600160601b0316615465565b815b90505f615472828461729d565b6088549091505f908390615490908c906001600160601b031661725f565b6001600160601b03166154a3919061729d565b87519091505f5b8181101561537d575f808883815181106154c6576154c66171cd565b60200260200101516001600160601b0316116154e2575f615524565b886001600160601b03168883815181106154fe576154fe6171cd565b60200260200101516001600160601b03168761551a9190617221565b615524919061724c565b90505f808611615534575f61557b565b84828c8581518110615548576155486171cd565b6020026020010151604001516001600160601b0316615567919061729d565b6155719088617221565b61557b919061724c565b90505f6155888284617339565b90506001600160601b0381161561564157808c85815181106155ac576155ac6171cd565b6020026020010151604001516155c2919061725f565b600385815481106155d5576155d56171cd565b5f91825260209091200180546001600160601b0392909216600160a01b026001600160a01b0390921691909117905561560e818e61727e565b9c5061563f8c8581518110615625576156256171cd565b60200260200101515f0151826001600160601b0316616427565b505b5050508060010190506154aa565b6001600160a01b038216615691576040517f96c6fd1e0000000000000000000000000000000000000000000000000000000081525f6004820152602401614a35565b6127a8825f8361611a565b306001600160a01b037f000000000000000000000000000000000000000000000000000000000000000016148061573557507f00000000000000000000000000000000000000000000000000000000000000006001600160a01b03166157297f360894a13ba1a3210667c828492db98dca3e2076cc3735a920a3ca505d382bbc546001600160a01b031690565b6001600160a01b031614155b156146a1576040517fe07c8dba00000000000000000000000000000000000000000000000000000000815260040160405180910390fd5b7f1ea2b19b7ab22acb68ebeb58b5cb9eab43e3e119ebbd3159fdcddfc5b8c538b86127a881614853565b816001600160a01b03166352d1902d6040518163ffffffff1660e01b8152600401602060405180830381865afa9250505080156157f0575060408051601f3d908101601f191682019092526157ed918101906173c7565b60015b615831576040517f4c9c8ce30000000000000000000000000000000000000000000000000000000081526001600160a01b0383166004820152602401614a35565b7f360894a13ba1a3210667c828492db98dca3e2076cc3735a920a3ca505d382bbc811461588d576040517faa1d49a400000000000000000000000000000000000000000000000000000000815260048101829052602401614a35565b6120c88383616525565b306001600160a01b037f000000000000000000000000000000000000000000000000000000000000000016146146a1576040517fe07c8dba00000000000000000000000000000000000000000000000000000000815260040160405180910390fd5b67ffffffffffffffff81165f9081526002602052604081205480820361594b576040517f30812d4200000000000000000000000000000000000000000000000000000000815260040160405180910390fd5b600361595860018361729d565b81548110615968576159686171cd565b905f5260205f2001915050919050565b67ffffffffffffffff82165f9081526047602052604081205460ff16156159cb576040517f500389a000000000000000000000000000000000000000000000000000000000815260040160405180910390fd5b5060ff61138a83838361657a565b5f806110006001600160a01b031663757991a86040518163ffffffff1660e01b81526004016040805180830381865afa158015615a18573d5f803e3d5ffd5b505050506040513d601f19601f82011682018060405250810190615a3c91906173de565b915091509091565b5f46608f03615a535750600790565b4661279f03615a625750600190565b466175bf03615a715750600190565b46617a6903615a805750600790565b50600190565b615a8e614645565b7fcd5ed15c6e187e77e9aee88184c21f4f2182ab5827cb3b7e07fbedcd63f03300805460ff191660011781557f62e78cea01bee320cd4e420270b5ea74000d11b0c9f74754ebdbfc544b05a25833614f34565b7fe1777bd22f637fc57eadcf9d877079117b44537a53059b1670036696018f564c61221281614853565b7f1d770361ad1ba5c90793f5d8711778cd963118207b8b46db0f36c72a65b0b451615b3581614853565b67ffffffffffffffff82165f90815260466020526040812054610100900460ff161115615b8e576040517f4d078c7100000000000000000000000000000000000000000000000000000000815260040160405180910390fd5b67ffffffffffffffff82165f9081526047602052604090205460ff16156127a8576040517f4d078c7100000000000000000000000000000000000000000000000000000000815260040160405180910390fd5b5f611acd838361662f565b6146a1616709565b615bfc616709565b6127a8828261676b565b615c0e616709565b6146a16167ce565b7f02dd7bc7dec4dceedda775e58dd541e08a116c6c53815c0bd028192f7b6268005f615c6f845f9081527f02dd7bc7dec4dceedda775e58dd541e08a116c6c53815c0bd028192f7b626800602052604090206001015490565b5f85815260208490526040808220600101869055519192508491839187917fbd79b86ffe0ab8e8776151514217cd7cacd52c909f66475c3af44e129f0b00ff9190a450505050565b6040517fa76e2ca500000000000000000000000000000000000000000000000000000000815267ffffffffffffffff821660048201525f906110009063a76e2ca5906024016020604051808303815f875af1158015615d18573d5f803e3d5ffd5b505050506040513d601f19601f82011682018060405250810190615d3c9190617380565b9050806127a857604051633f48ffd960e21b815260040160405180910390fd5b7fbb12ed6b435a5fce787412ceb233935082e39147d977bc587eb74d0f97f48d2c61221281614853565b60045482515f91829160609182918067ffffffffffffffff811115615dad57615dad616ab0565b604051908082528060200260200182016040528015615dd6578160200160208202803683370190505b5093508067ffffffffffffffff811115615df257615df2616ab0565b604051908082528060200260200182016040528015615e1b578160200160208202803683370190505b5092505f5b81811015615f59575f898281518110615e3b57615e3b6171cd565b6020026020010151604001516001600160601b031690505f808511615e60575f615e9d565b848a8c8581518110615e7457615e746171cd565b6020026020010151602001516001600160601b0316615e939190617221565b615e9d919061724c565b905080821115615ef9575f615eb2828461729d565b9050615ebe818b61727e565b995080888581518110615ed357615ed36171cd565b60200260200101906001600160601b031690816001600160601b03168152505050615f4f565b81811115615f4f575f615f0c838361729d565b9050615f18818a61727e565b985080878581518110615f2d57615f2d6171cd565b60200260200101906001600160601b031690816001600160601b031681525050505b5050600101615e20565b50505092959194509250565b7f52c63247e1f47db19d5ce0460030c497f067ca4cebf71ba98eeadabe20bace006001600160a01b038516615fc8576040517fe602df050000000000000000000000000000000000000000000000000000000081525f6004820152602401614a35565b6001600160a01b03841661600a576040517f94280d620000000000000000000000000000000000000000000000000000000081525f6004820152602401614a35565b6001600160a01b038086165f9081526001830160209081526040808320938816835292905220839055811561608757836001600160a01b0316856001600160a01b03167f8c5be1e5ebec7d5bd14f71427d1e84f3dd0314c0f7b2291e5b200ac8c7c3b9258560405161607e91815260200190565b60405180910390a35b5050505050565b5f8281527f02dd7bc7dec4dceedda775e58dd541e08a116c6c53815c0bd028192f7b626800602090815260408083206001600160a01b038516845290915290205460ff166127a8576040517fe2517d3f0000000000000000000000000000000000000000000000000000000081526001600160a01b038216600482015260248101839052604401614a35565b7f52c63247e1f47db19d5ce0460030c497f067ca4cebf71ba98eeadabe20bace006001600160a01b0384166161675781816002015f82825461615c9190617339565b909155506161f09050565b6001600160a01b0384165f90815260208290526040902054828110156161d2576040517fe450d38c0000000000000000000000000000000000000000000000000000000081526001600160a01b03861660048201526024810182905260448101849052606401614a35565b6001600160a01b0385165f9081526020839052604090209083900390555b6001600160a01b03831661620e57600281018054839003905561622c565b6001600160a01b0383165f9081526020829052604090208054830190555b826001600160a01b0316846001600160a01b03167fddf252ad1be2c89b69c2b068fc378daa952ba7f163c4a11628f55a4df523b3ef8460405161627191815260200190565b60405180910390a350505050565b5f8181526001830160205260408120546162c457508154600181810184555f84815260208082209093018490558454848252828601909352604090209190915561138a565b505f61138a565b6060815f0180548060200260200160405190810160405280929190818152602001828054801561631857602002820191905f5260205f20905b815481526020019060010190808311616304575b50505050509050919050565b7fcd5ed15c6e187e77e9aee88184c21f4f2182ab5827cb3b7e07fbedcd63f033005460ff166146a1576040517f8dfc202b00000000000000000000000000000000000000000000000000000000815260040160405180910390fd5b6040517f84994fec00000000000000000000000000000000000000000000000000000000815267ffffffffffffffff831660048201525f90611000906384994fec90849060240160206040518083038185885af11580156163e2573d5f803e3d5ffd5b50505050506040513d601f19601f820116820180604052508101906164079190617380565b9050806120c857604051633f48ffd960e21b815260040160405180910390fd5b67ffffffffffffffff82165f9081526046602090815260408083208151808301909252805460ff808216845261010090910416928201839052917fffffffffffffffffffffffffffffffffffffffffffffffffffffffffffffff01016164b9576040517f500389a000000000000000000000000000000000000000000000000000000000815260040160405180910390fd5b6164cc815f0151826020015160ff614eab565b9250806020015160016164df919061740b565b825460ff91909116610100027fffffffffffffffffffffffffffffffffffffffffffffffffffffffffffff00ff90911617825561651d85858561657a565b505092915050565b61652e82616801565b6040516001600160a01b038316907fbc7cd75a20ee27fd9adebab32041f755214dbc6bffa90cc0225b39da2e5c2d3b905f90a2805115616572576120c8828261689d565b6127a861690f565b6040517f5cf4151400000000000000000000000000000000000000000000000000000000815267ffffffffffffffff841660048201526024810183905260ff821660448201525f9061100090635cf41514906064016020604051808303815f875af11580156165eb573d5f803e3d5ffd5b505050506040513d601f19601f8201168201806040525081019061660f9190617380565b9050806114d557604051633f48ffd960e21b815260040160405180910390fd5b5f8181526001830160205260408120548015614dc9575f61665160018361729d565b85549091505f906166649060019061729d565b90508082146166c3575f865f018281548110616682576166826171cd565b905f5260205f200154905080875f0184815481106166a2576166a26171cd565b5f918252602080832090910192909255918252600188019052604090208390555b85548690806166d4576166d461736c565b600190038181905f5260205f20015f90559055856001015f8681526020019081526020015f205f90556001935050505061138a565b7ff0c57e16840df040f15088dc2f81fe391c3923bec73e23a9662efc9c229c6a0054600160401b900460ff166146a1576040517fd7e6bcf800000000000000000000000000000000000000000000000000000000815260040160405180910390fd5b616773616709565b7f52c63247e1f47db19d5ce0460030c497f067ca4cebf71ba98eeadabe20bace007f52c63247e1f47db19d5ce0460030c497f067ca4cebf71ba98eeadabe20bace036167bf8482617468565b50600481016114d58382617468565b6167d6616709565b7fcd5ed15c6e187e77e9aee88184c21f4f2182ab5827cb3b7e07fbedcd63f03300805460ff19169055565b806001600160a01b03163b5f0361684f576040517f4c9c8ce30000000000000000000000000000000000000000000000000000000081526001600160a01b0382166004820152602401614a35565b7f360894a13ba1a3210667c828492db98dca3e2076cc3735a920a3ca505d382bbc805473ffffffffffffffffffffffffffffffffffffffff19166001600160a01b0392909216919091179055565b60605f80846001600160a01b0316846040516168b99190617523565b5f60405180830381855af49150503d805f81146168f1576040519150601f19603f3d011682016040523d82523d5f602084013e6168f6565b606091505b5091509150616906858383616947565b95945050505050565b34156146a1576040517fb398979f00000000000000000000000000000000000000000000000000000000815260040160405180910390fd5b60608261695c57616957826169bc565b611acd565b815115801561697357506001600160a01b0384163b155b156169b5576040517f9996b3150000000000000000000000000000000000000000000000000000000081526001600160a01b0385166004820152602401614a35565b5080611acd565b8051156169cc5780518082602001fd5b6040517f1425ea4200000000000000000000000000000000000000000000000000000000815260040160405180910390fd5b5f60208284031215616a0e575f80fd5b81357fffffffff0000000000000000000000000000000000000000000000000000000081168114611acd575f80fd5b602081525f82518060208401528060208501604085015e5f604082850101526040601f19601f83011684010191505092915050565b6001600160a01b0381168114612212575f80fd5b5f8060408385031215616a97575f80fd5b8235616aa281616a72565b946020939093013593505050565b634e487b7160e01b5f52604160045260245ffd5b604051601f8201601f1916810167ffffffffffffffff81118282101715616aed57616aed616ab0565b604052919050565b67ffffffffffffffff81168114612212575f80fd5b5f82601f830112616b19575f80fd5b813567ffffffffffffffff811115616b3357616b33616ab0565b8060051b616b4360208201616ac4565b91825260208185018101929081019086841115616b5e575f80fd5b6020860192505b83831015616b89578235616b7881616af5565b825260209283019290910190616b65565b9695505050505050565b5f8060408385031215616ba4575f80fd5b823567ffffffffffffffff811115616bba575f80fd5b616bc685828601616b0a565b925050602083013560ff81168114616bdc575f80fd5b809150509250929050565b5f60208284031215616bf7575f80fd5b8135611acd81616a72565b602080825282518282018190525f918401906040840190835b81811015616c7c5783516001600160601b0381511684526001600160601b03602082015116602085015264ffffffffff604082015116604085015261ffff606082015116606085015250608083019250602084019350600181019050616c1b565b509095945050505050565b8015158114612212575f80fd5b5f8060408385031215616ca5575f80fd5b8235616cb081616a72565b91506020830135616bdc81616c87565b5f60208284031215616cd0575f80fd5b5035919050565b5f60208284031215616ce7575f80fd5b8135611acd81616c87565b80356001600160601b0381168114616d08575f80fd5b919050565b5f8060408385031215616d1e575f80fd5b616d2783616cf2565b91506020830135616bdc81616a72565b5f805f60608486031215616d49575f80fd5b8335616d5481616a72565b92506020840135616d6481616a72565b929592945050506040919091013590565b5f8060408385031215616d86575f80fd5b616d8f83616cf2565b9150616d9d60208401616cf2565b90509250929050565b5f60208284031215616db6575f80fd5b8135611acd81616af5565b5f8060408385031215616dd2575f80fd5b823591506020830135616bdc81616a72565b602080825282518282018190525f918401906040840190835b81811015616c7c57835160ff16835260209384019390920191600101616dfd565b602080825282518282018190525f918401906040840190835b81811015616c7c578351835260209384019390920191600101616e37565b5f60208284031215616e65575f80fd5b813567ffffffffffffffff811115616e7b575f80fd5b614ecc84828501616b0a565b5f8060408385031215616e98575f80fd5b8235616ea381616a72565b9150602083013567ffffffffffffffff811115616ebe575f80fd5b8301601f81018513616ece575f80fd5b803567ffffffffffffffff811115616ee857616ee8616ab0565b616efb6020601f19601f84011601616ac4565b818152866020838501011115616f0f575f80fd5b816020840160208301375f602083830101528093505050509250929050565b6060810161138a828467ffffffffffffffff81511682526001600160601b0360208201511660208301526001600160601b0360408201511660408301525050565b5f8060408385031215616f80575f80fd5b8235616d2781616af5565b5f60208284031215616f9b575f80fd5b813561ffff81168114611acd575f80fd5b5f8060208385031215616fbd575f80fd5b823567ffffffffffffffff811115616fd3575f80fd5b8301601f81018513616fe3575f80fd5b803567ffffffffffffffff811115616ff9575f80fd5b85602060608302840101111561700d575f80fd5b6020919091019590945092505050565b5f805f6060848603121561702f575f80fd5b61703884616cf2565b925061704660208501616cf2565b9150604084013561705681616a72565b809150509250925092565b5f8060408385031215617072575f80fd5b8235616d2781616a72565b5f6020828403121561708d575f80fd5b611acd82616cf2565b602080825282518282018190525f918401906040840190835b81811015616c7c576170f583855167ffffffffffffffff81511682526001600160601b0360208201511660208301526001600160601b0360408201511660408301525050565b60209390930192606092909201916001016170af565b5f8151808452602084019350602083015f5b828110156171445781516001600160601b031686526020958601959091019060010161711d565b5093949350505050565b6001600160601b03851681526001600160601b0384166020820152608060408201525f61717e608083018561710b565b8281036060840152617190818561710b565b979650505050505050565b600181811c908216806171af57607f821691505b60208210810361439257634e487b7160e01b5f52602260045260245ffd5b634e487b7160e01b5f52603260045260245ffd5b634e487b7160e01b5f52601160045260245ffd5b5f67ffffffffffffffff821667ffffffffffffffff8103617218576172186171e1565b60010192915050565b808202811582820484141761138a5761138a6171e1565b634e487b7160e01b5f52601260045260245ffd5b5f8261725a5761725a617238565b500490565b6001600160601b03828116828216039081111561138a5761138a6171e1565b6001600160601b03818116838216019081111561138a5761138a6171e1565b8181038181111561138a5761138a6171e1565b64ffffffffff828116828216039081111561138a5761138a6171e1565b64ffffffffff818116838216019081111561138a5761138a6171e1565b5f805f805f805f60e0888a031215617300575f80fd5b5050855160208701516040880151606089015160808a015160a08b015160c0909b0151949c939b50919990985090965094509092509050565b8082018082111561138a5761138a6171e1565b67ffffffffffffffff818116838216019081111561138a5761138a6171e1565b634e487b7160e01b5f52603160045260245ffd5b5f60208284031215617390575f80fd5b8151611acd81616c87565b60ff828116828216039081111561138a5761138a6171e1565b5f826173c2576173c2617238565b500690565b5f602082840312156173d7575f80fd5b5051919050565b5f80604083850312156173ef575f80fd5b82516173fa81616af5565b6020840151909250616bdc81616c87565b60ff818116838216019081111561138a5761138a6171e1565b601f8211156120c857805f5260205f20601f840160051c810160208510156174495750805b601f840160051c820191505b81811015616087575f8155600101617455565b815167ffffffffffffffff81111561748257617482616ab0565b61749681617490845461719b565b84617424565b6020601f8211600181146174c8575f83156174b15750848201515b5f19600385901b1c1916600184901b178455616087565b5f84815260208120601f198516915b828110156174f757878501518255602094850194600190920191016174d7565b508482101561751457868401515f19600387901b60f8161c191681555b50505050600190811b01905550565b5f82518060208501845e5f92019182525091905056fea26469706673582212207121ee4fc16710e7b685eb9bdb198731302a12dc991563dea072332b904143c464736f6c634300081a0033","linkReferences":{}},"methodIdentifiers":{"DEFAULT_ADMIN_ROLE()":"a217fddf","MINIMUM_CONTRIBUTE_THRESHOLD()":"86bb1d6e","ROLE_ADD_NODE()":"22fd4ad5","ROLE_DISABLE_NODE()":"e8ce8922","ROLE_FEE_CLAIMER()":"06c7dbc4","ROLE_FEE_EXEMPTION()":"a30fefe1","ROLE_FEE_SETTER()":"1b8e0db6","ROLE_PAUSE()":"4ff0241a","ROLE_REMOVE_NODE()":"5838b2fe","ROLE_TOGGLE_INSTANT_UNLOCK()":"4c3a045c","ROLE_UPDATE_WEIGHTS()":"63311d3d","ROLE_UPGRADE()":"2a7d8acb","UPGRADE_INTERFACE_VERSION()":"ad3cb1cc","addNode(uint64)":"337b2b6e","allowance(address,address)":"dd62ed3e","approve(address,uint256)":"095ea7b3","balanceOf(address)":"70a08231","batchDepositRequests(uint256)":"77654f34","batchSubmissions(uint256)":"78f908e1","batchWithdrawRequests(uint256)":"4beae6e3","cancelUnlockRequest(uint256)":"1610247b","compound(uint64[])":"cf5e2743","contributeToPool(address)":"a0e3cdd6","convertToAssets(uint96)":"fb9848e4","convertToShares(uint96)":"df235fe6","currentBatchId()":"0a763da1","decimals()":"313ce567","deposit(uint96,address)":"1c3477dd","disableNode(uint64)":"d8a9fe50","getAllUserUnlockRequests(address)":"0b52f7b1","getDelegator(uint64,address)":"573c1ce0","getExitFeeBips()":"fde73f7d","getImbalances(uint96)":"f6516e7f","getInstantUnlockableShares()":"b6f12b94","getManagementFeeBips()":"bf7df8e0","getMintableProtocolShares()":"615bfc45","getNodeIds()":"3e367afa","getNodes()":"e29581aa","getRoleAdmin(bytes32)":"248a9ca3","getWithdrawIds(uint64)":"3b5b4765","getWithdrawIdsSize(uint64)":"7a6d59d5","grantRole(bytes32,address)":"2f2ff15d","hasRole(bytes32,address)":"91d14854","initialize(address)":"c4d66de8","instantUnlock(uint96,uint96,address)":"a4bd422c","isExitFeeExempt(address)":"0bf14d9b","isForceWithdrawPending(uint64)":"2584601f","isInstantUnlockEnabled()":"4a8a268f","isNodeDisabled(uint64)":"d6531de5","mintProtocolShares(address)":"a03f83dd","name()":"06fdde03","nodes(uint256)":"1c53c280","pause()":"8456cb59","paused()":"5c975abb","proxiableUUID()":"52d1902d","redeem(uint256,address)":"7bde82f2","removeNode(uint64)":"aedf6d51","renounceRole(bytes32,address)":"36568abe","requestUnlock(uint96,uint96)":"24f67e18","revokeRole(bytes32,address)":"d547741f","setExitFee(uint16)":"f75b0404","setExitFeeExemption(address,bool)":"15230e80","setInstantUnlock(bool)":"19ddf95b","setManagementFee(uint16)":"8dd09af3","submitBatch()":"46115383","supportsInterface(bytes4)":"01ffc9a7","sweep(uint64[],uint8)":"0a9f9ee2","sweepForced(uint64[])":"43abcf32","symbol()":"95d89b41","syncStaking()":"c36f9857","totalPooled()":"6ec21cc8","totalShares()":"3a98ef39","totalSupply()":"18160ddd","totalWeight()":"96c82e57","transfer(address,uint256)":"a9059cbb","transferFrom(address,address,uint256)":"23b872dd","unbondDisableNode(uint64)":"733897b7","unpause()":"3f4ba83a","updateWeights((uint64,uint96,bool)[])":"a4b0b5a3","upgradeToAndCall(address,bytes)":"4f1ef286","userUnlockRequests(address,uint256)":"fd012e34","viewNodeByNodeId(uint64)":"540a26f3"},"id":40}