{"abi":[{"type":"constructor","inputs":[],"stateMutability":"nonpayable"},{"type":"receive","stateMutability":"payable"},{"type":"function","name":"DEFAULT_ADMIN_ROLE","inputs":[],"outputs":[{"name":"","type":"bytes32","internalType":"bytes32"}],"stateMutability":"view"},{"type":"function","name":"MINIMUM_CONTRIBUTE_THRESHOLD","inputs":[],"outputs":[{"name":"","type":"uint256","internalType":"uint256"}],"stateMutability":"view"},{"type":"function","name":"ROLE_ADD_NODE","inputs":[],"outputs":[{"name":"","type":"bytes32","internalType":"bytes32"}],"stateMutability":"view"},{"type":"function","name":"ROLE_DISABLE_NODE","inputs":[],"outputs":[{"name":"","type":"bytes32","internalType":"bytes32"}],"stateMutability":"view"},{"type":"function","name":"ROLE_FEE_CLAIMER","inputs":[],"outputs":[{"name":"","type":"bytes32","internalType":"bytes32"}],"stateMutability":"view"},{"type":"function","name":"ROLE_FEE_EXEMPTION","inputs":[],"outputs":[{"name":"","type":"bytes32","internalType":"bytes32"}],"stateMutability":"view"},{"type":"function","name":"ROLE_FEE_SETTER","inputs":[],"outputs":[{"name":"","type":"bytes32","internalType":"bytes32"}],"stateMutability":"view"},{"type":"function","name":"ROLE_PAUSE","inputs":[],"outputs":[{"name":"","type":"bytes32","internalType":"bytes32"}],"stateMutability":"view"},{"type":"function","name":"ROLE_REMOVE_NODE","inputs":[],"outputs":[{"name":"","type":"bytes32","internalType":"bytes32"}],"stateMutability":"view"},{"type":"function","name":"ROLE_TOGGLE_INSTANT_UNLOCK","inputs":[],"outputs":[{"name":"","type":"bytes32","internalType":"bytes32"}],"stateMutability":"view"},{"type":"function","name":"ROLE_UPDATE_WEIGHTS","inputs":[],"outputs":[{"name":"","type":"bytes32","internalType":"bytes32"}],"stateMutability":"view"},{"type":"function","name":"ROLE_UPGRADE","inputs":[],"outputs":[{"name":"","type":"bytes32","internalType":"bytes32"}],"stateMutability":"view"},{"type":"function","name":"UPGRADE_INTERFACE_VERSION","inputs":[],"outputs":[{"name":"","type":"string","internalType":"string"}],"stateMutability":"view"},{"type":"function","name":"addNode","inputs":[{"name":"nodeId","type":"uint64","internalType":"uint64"}],"outputs":[],"stateMutability":"nonpayable"},{"type":"function","name":"allowance","inputs":[{"name":"owner","type":"address","internalType":"address"},{"name":"spender","type":"address","internalType":"address"}],"outputs":[{"name":"","type":"uint256","internalType":"uint256"}],"stateMutability":"view"},{"type":"function","name":"approve","inputs":[{"name":"spender","type":"address","internalType":"address"},{"name":"value","type":"uint256","internalType":"uint256"}],"outputs":[{"name":"","type":"bool","internalType":"bool"}],"stateMutability":"nonpayable"},{"type":"function","name":"balanceOf","inputs":[{"name":"account","type":"address","internalType":"address"}],"outputs":[{"name":"","type":"uint256","internalType":"uint256"}],"stateMutability":"view"},{"type":"function","name":"batchDepositRequests","inputs":[{"name":"","type":"uint256","internalType":"uint256"}],"outputs":[{"name":"assets","type":"uint96","internalType":"uint96"},{"name":"shares","type":"uint96","internalType":"uint96"}],"stateMutability":"view"},{"type":"function","name":"batchSubmissions","inputs":[{"name":"","type":"uint256","internalType":"uint256"}],"outputs":[{"name":"submissionEpoch","type":"uint64","internalType":"uint64"},{"name":"activationEpoch","type":"uint64","internalType":"uint64"}],"stateMutability":"view"},{"type":"function","name":"batchWithdrawRequests","inputs":[{"name":"","type":"uint256","internalType":"uint256"}],"outputs":[{"name":"assets","type":"uint96","internalType":"uint96"},{"name":"shares","type":"uint96","internalType":"uint96"}],"stateMutability":"view"},{"type":"function","name":"cancelUnlockRequest","inputs":[{"name":"unlockIndex","type":"uint256","internalType":"uint256"}],"outputs":[],"stateMutability":"nonpayable"},{"type":"function","name":"claimProtocolFees","inputs":[{"name":"to","type":"address","internalType":"address"}],"outputs":[],"stateMutability":"nonpayable"},{"type":"function","name":"compound","inputs":[{"name":"nodeIds","type":"uint64[]","internalType":"uint64[]"}],"outputs":[],"stateMutability":"nonpayable"},{"type":"function","name":"contributeToPool","inputs":[{"name":"benefactor","type":"address","internalType":"address"}],"outputs":[],"stateMutability":"payable"},{"type":"function","name":"convertToAssets","inputs":[{"name":"shares","type":"uint96","internalType":"uint96"}],"outputs":[{"name":"assets","type":"uint96","internalType":"uint96"}],"stateMutability":"view"},{"type":"function","name":"convertToShares","inputs":[{"name":"assets","type":"uint96","internalType":"uint96"}],"outputs":[{"name":"shares","type":"uint96","internalType":"uint96"}],"stateMutability":"view"},{"type":"function","name":"currentBatchId","inputs":[],"outputs":[{"name":"","type":"uint40","internalType":"uint40"}],"stateMutability":"view"},{"type":"function","name":"decimals","inputs":[],"outputs":[{"name":"","type":"uint8","internalType":"uint8"}],"stateMutability":"view"},{"type":"function","name":"deposit","inputs":[{"name":"minShares","type":"uint96","internalType":"uint96"},{"name":"receiver","type":"address","internalType":"address"}],"outputs":[{"name":"shares","type":"uint96","internalType":"uint96"}],"stateMutability":"payable"},{"type":"function","name":"disableNode","inputs":[{"name":"nodeId","type":"uint64","internalType":"uint64"}],"outputs":[],"stateMutability":"nonpayable"},{"type":"function","name":"getAllUserUnlockRequests","inputs":[{"name":"user","type":"address","internalType":"address"}],"outputs":[{"name":"","type":"tuple[]","internalType":"struct StakedMonad.UnlockRequest[]","components":[{"name":"shares","type":"uint96","internalType":"uint96"},{"name":"spotValue","type":"uint96","internalType":"uint96"},{"name":"batchId","type":"uint40","internalType":"uint40"},{"name":"exitFeeInBips","type":"uint16","internalType":"uint16"}]}],"stateMutability":"view"},{"type":"function","name":"getDelegator","inputs":[{"name":"val_id","type":"uint64","internalType":"uint64"},{"name":"delegator","type":"address","internalType":"address"}],"outputs":[{"name":"stake","type":"uint256","internalType":"uint256"},{"name":"acc_reward_per_token","type":"uint256","internalType":"uint256"},{"name":"rewards","type":"uint256","internalType":"uint256"},{"name":"delta_stake","type":"uint256","internalType":"uint256"},{"name":"next_delta_stake","type":"uint256","internalType":"uint256"},{"name":"delta_epoch","type":"uint256","internalType":"uint256"},{"name":"next_delta_epoch","type":"uint256","internalType":"uint256"}],"stateMutability":"nonpayable"},{"type":"function","name":"getExitFeeBips","inputs":[],"outputs":[{"name":"","type":"uint16","internalType":"uint16"}],"stateMutability":"view"},{"type":"function","name":"getImbalances","inputs":[{"name":"newTotalStaked","type":"uint96","internalType":"uint96"}],"outputs":[{"name":"overAllocation","type":"uint96","internalType":"uint96"},{"name":"underAllocation","type":"uint96","internalType":"uint96"},{"name":"overAllocations","type":"uint96[]","internalType":"uint96[]"},{"name":"underAllocations","type":"uint96[]","internalType":"uint96[]"}],"stateMutability":"view"},{"type":"function","name":"getInstantUnlockableShares","inputs":[],"outputs":[{"name":"","type":"uint96","internalType":"uint96"}],"stateMutability":"view"},{"type":"function","name":"getManagementFeeBips","inputs":[],"outputs":[{"name":"","type":"uint16","internalType":"uint16"}],"stateMutability":"view"},{"type":"function","name":"getMintableProtocolShares","inputs":[],"outputs":[{"name":"shares","type":"uint96","internalType":"uint96"}],"stateMutability":"view"},{"type":"function","name":"getNodeIds","inputs":[],"outputs":[{"name":"","type":"uint256[]","internalType":"uint256[]"}],"stateMutability":"view"},{"type":"function","name":"getNodes","inputs":[],"outputs":[{"name":"","type":"tuple[]","internalType":"struct Registry.Node[]","components":[{"name":"id","type":"uint64","internalType":"uint64"},{"name":"weight","type":"uint96","internalType":"uint96"},{"name":"staked","type":"uint96","internalType":"uint96"}]}],"stateMutability":"view"},{"type":"function","name":"getRoleAdmin","inputs":[{"name":"role","type":"bytes32","internalType":"bytes32"}],"outputs":[{"name":"","type":"bytes32","internalType":"bytes32"}],"stateMutability":"view"},{"type":"function","name":"getWithdrawIds","inputs":[{"name":"val_id","type":"uint64","internalType":"uint64"}],"outputs":[{"name":"","type":"uint8[]","internalType":"uint8[]"}],"stateMutability":"view"},{"type":"function","name":"getWithdrawIdsSize","inputs":[{"name":"val_id","type":"uint64","internalType":"uint64"}],"outputs":[{"name":"","type":"uint256","internalType":"uint256"}],"stateMutability":"view"},{"type":"function","name":"grantRole","inputs":[{"name":"role","type":"bytes32","internalType":"bytes32"},{"name":"account","type":"address","internalType":"address"}],"outputs":[],"stateMutability":"nonpayable"},{"type":"function","name":"hasRole","inputs":[{"name":"role","type":"bytes32","internalType":"bytes32"},{"name":"account","type":"address","internalType":"address"}],"outputs":[{"name":"","type":"bool","internalType":"bool"}],"stateMutability":"view"},{"type":"function","name":"initialize","inputs":[{"name":"admin","type":"address","internalType":"address"}],"outputs":[],"stateMutability":"payable"},{"type":"function","name":"instantUnlock","inputs":[{"name":"shares","type":"uint96","internalType":"uint96"},{"name":"minSpotValue","type":"uint96","internalType":"uint96"},{"name":"receiver","type":"address","internalType":"address"}],"outputs":[{"name":"spotValue","type":"uint96","internalType":"uint96"}],"stateMutability":"nonpayable"},{"type":"function","name":"isExitFeeExempt","inputs":[{"name":"","type":"address","internalType":"address"}],"outputs":[{"name":"","type":"bool","internalType":"bool"}],"stateMutability":"view"},{"type":"function","name":"isForceWithdrawPending","inputs":[{"name":"val_id","type":"uint64","internalType":"uint64"}],"outputs":[{"name":"","type":"bool","internalType":"bool"}],"stateMutability":"view"},{"type":"function","name":"isInstantUnlockEnabled","inputs":[],"outputs":[{"name":"","type":"bool","internalType":"bool"}],"stateMutability":"view"},{"type":"function","name":"isNodeDisabled","inputs":[{"name":"","type":"uint64","internalType":"uint64"}],"outputs":[{"name":"","type":"bool","internalType":"bool"}],"stateMutability":"view"},{"type":"function","name":"name","inputs":[],"outputs":[{"name":"","type":"string","internalType":"string"}],"stateMutability":"view"},{"type":"function","name":"nodes","inputs":[{"name":"","type":"uint256","internalType":"uint256"}],"outputs":[{"name":"id","type":"uint64","internalType":"uint64"},{"name":"weight","type":"uint96","internalType":"uint96"},{"name":"staked","type":"uint96","internalType":"uint96"}],"stateMutability":"view"},{"type":"function","name":"pause","inputs":[],"outputs":[],"stateMutability":"nonpayable"},{"type":"function","name":"paused","inputs":[],"outputs":[{"name":"","type":"bool","internalType":"bool"}],"stateMutability":"view"},{"type":"function","name":"proxiableUUID","inputs":[],"outputs":[{"name":"","type":"bytes32","internalType":"bytes32"}],"stateMutability":"view"},{"type":"function","name":"redeem","inputs":[{"name":"unlockIndex","type":"uint256","internalType":"uint256"},{"name":"receiver","type":"address","internalType":"address payable"}],"outputs":[{"name":"assets","type":"uint96","internalType":"uint96"}],"stateMutability":"nonpayable"},{"type":"function","name":"removeNode","inputs":[{"name":"nodeId","type":"uint64","internalType":"uint64"}],"outputs":[],"stateMutability":"nonpayable"},{"type":"function","name":"renounceRole","inputs":[{"name":"role","type":"bytes32","internalType":"bytes32"},{"name":"callerConfirmation","type":"address","internalType":"address"}],"outputs":[],"stateMutability":"nonpayable"},{"type":"function","name":"requestUnlock","inputs":[{"name":"shares","type":"uint96","internalType":"uint96"},{"name":"minSpotValue","type":"uint96","internalType":"uint96"}],"outputs":[{"name":"spotValue","type":"uint96","internalType":"uint96"}],"stateMutability":"nonpayable"},{"type":"function","name":"revokeRole","inputs":[{"name":"role","type":"bytes32","internalType":"bytes32"},{"name":"account","type":"address","internalType":"address"}],"outputs":[],"stateMutability":"nonpayable"},{"type":"function","name":"setExitFee","inputs":[{"name":"newFee","type":"uint16","internalType":"uint16"}],"outputs":[],"stateMutability":"nonpayable"},{"type":"function","name":"setExitFeeExemption","inputs":[{"name":"user","type":"address","internalType":"address"},{"name":"isExempt","type":"bool","internalType":"bool"}],"outputs":[],"stateMutability":"nonpayable"},{"type":"function","name":"setInstantUnlock","inputs":[{"name":"isEnabled","type":"bool","internalType":"bool"}],"outputs":[],"stateMutability":"nonpayable"},{"type":"function","name":"setManagementFee","inputs":[{"name":"newFee","type":"uint16","internalType":"uint16"}],"outputs":[],"stateMutability":"nonpayable"},{"type":"function","name":"submitBatch","inputs":[],"outputs":[],"stateMutability":"nonpayable"},{"type":"function","name":"supportsInterface","inputs":[{"name":"interfaceId","type":"bytes4","internalType":"bytes4"}],"outputs":[{"name":"","type":"bool","internalType":"bool"}],"stateMutability":"view"},{"type":"function","name":"sweep","inputs":[{"name":"nodeIds","type":"uint64[]","internalType":"uint64[]"},{"name":"maxWithdrawsPerNode","type":"uint8","internalType":"uint8"}],"outputs":[],"stateMutability":"nonpayable"},{"type":"function","name":"sweepForced","inputs":[{"name":"nodeIds","type":"uint64[]","internalType":"uint64[]"}],"outputs":[],"stateMutability":"nonpayable"},{"type":"function","name":"symbol","inputs":[],"outputs":[{"name":"","type":"string","internalType":"string"}],"stateMutability":"view"},{"type":"function","name":"totalPooled","inputs":[],"outputs":[{"name":"","type":"uint96","internalType":"uint96"}],"stateMutability":"view"},{"type":"function","name":"totalShares","inputs":[],"outputs":[{"name":"","type":"uint96","internalType":"uint96"}],"stateMutability":"view"},{"type":"function","name":"totalSupply","inputs":[],"outputs":[{"name":"","type":"uint256","internalType":"uint256"}],"stateMutability":"view"},{"type":"function","name":"totalWeight","inputs":[],"outputs":[{"name":"","type":"uint256","internalType":"uint256"}],"stateMutability":"view"},{"type":"function","name":"transfer","inputs":[{"name":"to","type":"address","internalType":"address"},{"name":"value","type":"uint256","internalType":"uint256"}],"outputs":[{"name":"","type":"bool","internalType":"bool"}],"stateMutability":"nonpayable"},{"type":"function","name":"transferFrom","inputs":[{"name":"from","type":"address","internalType":"address"},{"name":"to","type":"address","internalType":"address"},{"name":"value","type":"uint256","internalType":"uint256"}],"outputs":[{"name":"","type":"bool","internalType":"bool"}],"stateMutability":"nonpayable"},{"type":"function","name":"unbondDisableNode","inputs":[{"name":"nodeId","type":"uint64","internalType":"uint64"}],"outputs":[],"stateMutability":"nonpayable"},{"type":"function","name":"unpause","inputs":[],"outputs":[],"stateMutability":"nonpayable"},{"type":"function","name":"updateWeights","inputs":[{"name":"weightDeltas","type":"tuple[]","internalType":"struct Registry.WeightDelta[]","components":[{"name":"nodeId","type":"uint64","internalType":"uint64"},{"name":"delta","type":"uint96","internalType":"uint96"},{"name":"isIncreasing","type":"bool","internalType":"bool"}]}],"outputs":[],"stateMutability":"nonpayable"},{"type":"function","name":"upgradeToAndCall","inputs":[{"name":"newImplementation","type":"address","internalType":"address"},{"name":"data","type":"bytes","internalType":"bytes"}],"outputs":[],"stateMutability":"payable"},{"type":"function","name":"userUnlockRequests","inputs":[{"name":"","type":"address","internalType":"address"},{"name":"","type":"uint256","internalType":"uint256"}],"outputs":[{"name":"shares","type":"uint96","internalType":"uint96"},{"name":"spotValue","type":"uint96","internalType":"uint96"},{"name":"batchId","type":"uint40","internalType":"uint40"},{"name":"exitFeeInBips","type":"uint16","internalType":"uint16"}],"stateMutability":"view"},{"type":"function","name":"viewNodeByNodeId","inputs":[{"name":"nodeId","type":"uint64","internalType":"uint64"}],"outputs":[{"name":"node","type":"tuple","internalType":"struct Registry.Node","components":[{"name":"id","type":"uint64","internalType":"uint64"},{"name":"weight","type":"uint96","internalType":"uint96"},{"name":"staked","type":"uint96","internalType":"uint96"}]}],"stateMutability":"view"},{"type":"event","name":"Approval","inputs":[{"name":"owner","type":"address","indexed":true,"internalType":"address"},{"name":"spender","type":"address","indexed":true,"internalType":"address"},{"name":"value","type":"uint256","indexed":false,"internalType":"uint256"}],"anonymous":false},{"type":"event","name":"Contribution","inputs":[{"name":"amount","type":"uint256","indexed":false,"internalType":"uint256"},{"name":"benefactor","type":"address","indexed":false,"internalType":"address"}],"anonymous":false},{"type":"event","name":"ExitFeeAdjusted","inputs":[{"name":"newFee","type":"uint256","indexed":false,"internalType":"uint256"}],"anonymous":false},{"type":"event","name":"FeesWithdrawn","inputs":[{"name":"managementFeeShares","type":"uint256","indexed":false,"internalType":"uint256"},{"name":"exitFeeShares","type":"uint256","indexed":false,"internalType":"uint256"}],"anonymous":false},{"type":"event","name":"Initialized","inputs":[{"name":"version","type":"uint64","indexed":false,"internalType":"uint64"}],"anonymous":false},{"type":"event","name":"ManagementFeeAdjusted","inputs":[{"name":"newFee","type":"uint256","indexed":false,"internalType":"uint256"}],"anonymous":false},{"type":"event","name":"NodeAdded","inputs":[{"name":"nodeId","type":"uint64","indexed":false,"internalType":"uint64"},{"name":"index","type":"uint256","indexed":false,"internalType":"uint256"}],"anonymous":false},{"type":"event","name":"NodeDisabled","inputs":[{"name":"nodeId","type":"uint64","indexed":false,"internalType":"uint64"}],"anonymous":false},{"type":"event","name":"NodeRemoved","inputs":[{"name":"nodeId","type":"uint64","indexed":false,"internalType":"uint64"}],"anonymous":false},{"type":"event","name":"NodeUpdated","inputs":[{"name":"nodeId","type":"uint64","indexed":true,"internalType":"uint64"},{"name":"newWeight","type":"uint256","indexed":false,"internalType":"uint256"}],"anonymous":false},{"type":"event","name":"Paused","inputs":[{"name":"account","type":"address","indexed":false,"internalType":"address"}],"anonymous":false},{"type":"event","name":"RoleAdminChanged","inputs":[{"name":"role","type":"bytes32","indexed":true,"internalType":"bytes32"},{"name":"previousAdminRole","type":"bytes32","indexed":true,"internalType":"bytes32"},{"name":"newAdminRole","type":"bytes32","indexed":true,"internalType":"bytes32"}],"anonymous":false},{"type":"event","name":"RoleGranted","inputs":[{"name":"role","type":"bytes32","indexed":true,"internalType":"bytes32"},{"name":"account","type":"address","indexed":true,"internalType":"address"},{"name":"sender","type":"address","indexed":true,"internalType":"address"}],"anonymous":false},{"type":"event","name":"RoleRevoked","inputs":[{"name":"role","type":"bytes32","indexed":true,"internalType":"bytes32"},{"name":"account","type":"address","indexed":true,"internalType":"address"},{"name":"sender","type":"address","indexed":true,"internalType":"address"}],"anonymous":false},{"type":"event","name":"Transfer","inputs":[{"name":"from","type":"address","indexed":true,"internalType":"address"},{"name":"to","type":"address","indexed":true,"internalType":"address"},{"name":"value","type":"uint256","indexed":false,"internalType":"uint256"}],"anonymous":false},{"type":"event","name":"UnlockCancelled","inputs":[{"name":"staker","type":"address","indexed":true,"internalType":"address"},{"name":"unlockId","type":"uint256","indexed":false,"internalType":"uint256"}],"anonymous":false},{"type":"event","name":"UnlockRedeemed","inputs":[{"name":"staker","type":"address","indexed":true,"internalType":"address"},{"name":"unlockId","type":"uint256","indexed":false,"internalType":"uint256"},{"name":"amount","type":"uint256","indexed":false,"internalType":"uint256"}],"anonymous":false},{"type":"event","name":"UnlockRequested","inputs":[{"name":"staker","type":"address","indexed":true,"internalType":"address"},{"name":"unlockId","type":"uint256","indexed":false,"internalType":"uint256"},{"name":"shares","type":"uint256","indexed":false,"internalType":"uint256"},{"name":"spotValue","type":"uint256","indexed":false,"internalType":"uint256"},{"name":"toll","type":"uint256","indexed":false,"internalType":"uint256"}],"anonymous":false},{"type":"event","name":"Unpaused","inputs":[{"name":"account","type":"address","indexed":false,"internalType":"address"}],"anonymous":false},{"type":"event","name":"Upgraded","inputs":[{"name":"implementation","type":"address","indexed":true,"internalType":"address"}],"anonymous":false},{"type":"error","name":"AccessControlBadConfirmation","inputs":[]},{"type":"error","name":"AccessControlUnauthorizedAccount","inputs":[{"name":"account","type":"address","internalType":"address"},{"name":"neededRole","type":"bytes32","internalType":"bytes32"}]},{"type":"error","name":"ActiveNode","inputs":[]},{"type":"error","name":"AddressEmptyCode","inputs":[{"name":"target","type":"address","internalType":"address"}]},{"type":"error","name":"BatchNotSubmitted","inputs":[]},{"type":"error","name":"CancellationWindowClosed","inputs":[]},{"type":"error","name":"DepositOverflow","inputs":[]},{"type":"error","name":"DuplicateNode","inputs":[]},{"type":"error","name":"ERC1967InvalidImplementation","inputs":[{"name":"implementation","type":"address","internalType":"address"}]},{"type":"error","name":"ERC1967NonPayable","inputs":[]},{"type":"error","name":"ERC20InsufficientAllowance","inputs":[{"name":"spender","type":"address","internalType":"address"},{"name":"allowance","type":"uint256","internalType":"uint256"},{"name":"needed","type":"uint256","internalType":"uint256"}]},{"type":"error","name":"ERC20InsufficientBalance","inputs":[{"name":"sender","type":"address","internalType":"address"},{"name":"balance","type":"uint256","internalType":"uint256"},{"name":"needed","type":"uint256","internalType":"uint256"}]},{"type":"error","name":"ERC20InvalidApprover","inputs":[{"name":"approver","type":"address","internalType":"address"}]},{"type":"error","name":"ERC20InvalidReceiver","inputs":[{"name":"receiver","type":"address","internalType":"address"}]},{"type":"error","name":"ERC20InvalidSender","inputs":[{"name":"sender","type":"address","internalType":"address"}]},{"type":"error","name":"ERC20InvalidSpender","inputs":[{"name":"spender","type":"address","internalType":"address"}]},{"type":"error","name":"EmptyBatch","inputs":[]},{"type":"error","name":"EnforcedPause","inputs":[]},{"type":"error","name":"ExpectedPause","inputs":[]},{"type":"error","name":"FailedCall","inputs":[]},{"type":"error","name":"FeeTooLarge","inputs":[]},{"type":"error","name":"InstantUnlockDisabled","inputs":[]},{"type":"error","name":"InstantUnlockThreshold","inputs":[]},{"type":"error","name":"InsufficientPendingWithdrawals","inputs":[]},{"type":"error","name":"InvalidInitialization","inputs":[]},{"type":"error","name":"InvalidNode","inputs":[]},{"type":"error","name":"MaxPendingWithdrawals","inputs":[]},{"type":"error","name":"MinimumBatchDelay","inputs":[]},{"type":"error","name":"MinimumContributeThreshold","inputs":[]},{"type":"error","name":"MinimumDeposit","inputs":[]},{"type":"error","name":"MinimumUnlock","inputs":[]},{"type":"error","name":"NoChange","inputs":[]},{"type":"error","name":"NotInitializing","inputs":[]},{"type":"error","name":"PendingWithdrawals","inputs":[]},{"type":"error","name":"PrecompileCallFailed","inputs":[]},{"type":"error","name":"TransferFailed","inputs":[]},{"type":"error","name":"UUPSUnauthorizedCallContext","inputs":[]},{"type":"error","name":"UUPSUnsupportedProxiableUUID","inputs":[{"name":"slot","type":"bytes32","internalType":"bytes32"}]},{"type":"error","name":"WithdrawDelay","inputs":[]},{"type":"error","name":"ZeroTotalWeight","inputs":[]}],"bytecode":{"object":"0x60a060405230608052348015610013575f5ffd5b5061001c610021565b6100d3565b7ff0c57e16840df040f15088dc2f81fe391c3923bec73e23a9662efc9c229c6a00805468010000000000000000900460ff16156100715760405163f92ee8a960e01b815260040160405180910390fd5b80546001600160401b03908116146100d05780546001600160401b0319166001600160401b0390811782556040519081527fc7f505b2f371ae2175ee4913f4499e1f2633a7b5936321eed1cdaeb6115181d29060200160405180910390a15b50565b6080516172ab6100f95f395f81816153f00152818161541901526155eb01526172ab5ff3fe608060405260043610610561575f3560e01c80635c975abb116102c4578063a4b0b5a31161017b578063d6531de5116100dc578063e8ce892211610092578063fb9848e41161006d578063fb9848e414611248578063fd012e3414611267578063fde73f7d146112c1575f5ffd5b8063e8ce8922146111c7578063f6516e7f146111fa578063f75b040414611229575f5ffd5b8063dd62ed3e116100c2578063dd62ed3e14611124578063df235fe614611187578063e29581aa146111a6575f5ffd5b8063d6531de5146110d7578063d8a9fe5014611105575f5ffd5b8063b6f12b9411610131578063c4d66de811610117578063c4d66de814611086578063cf5e274314611099578063d547741f146110b8575f5ffd5b8063b6f12b941461104b578063bf7df8e01461105f575f5ffd5b8063a9059cbb11610161578063a9059cbb14610fc5578063ad3cb1cc14610fe4578063aedf6d511461102c575f5ffd5b8063a4b0b5a314610f87578063a4bd422c14610fa6575f5ffd5b80637bde82f21161022557806395d89b41116101db578063a0e3cdd6116101c1578063a0e3cdd614610f2e578063a217fddf14610f41578063a30fefe114610f54575f5ffd5b806395d89b4114610f0557806396c82e5714610f19575f5ffd5b806386bb1d6e1161020b57806386bb1d6e14610e665780638dd09af314610e8357806391d1485414610ea2575f5ffd5b80637bde82f214610e335780638456cb5914610e52575f5ffd5b806370a082311161027a57806377654f341161026057806377654f3414610d5657806378f908e114610d955780637a6d59d514610df6575f5ffd5b806370a0823114610ce4578063733897b714610d37575f5ffd5b806363311d3d116102aa57806363311d3d14610c7357806369ce6d4714610ca65780636ec21cc814610cc5575f5ffd5b80635c975abb14610c29578063615bfc4514610c5f575f5ffd5b80632a7d8acb1161041857806346115383116103795780634ff0241a1161032f578063540a26f311610315578063540a26f314610b76578063573c1ce014610ba25780635838b2fe14610bf6575f5ffd5b80634ff0241a14610b2f57806352d1902d14610b62575f5ffd5b80634beae6e31161035f5780634beae6e314610a8a5780634c3a045c14610ae95780634f1ef28614610b1c575f5ffd5b80634611538314610a485780634a8a268f14610a5c575f5ffd5b80633a98ef39116103ce5780633e367afa116103b45780633e367afa146109f45780633f4ba83a14610a1557806343abcf3214610a29575f5ffd5b80633a98ef39146109b45780633b5b4765146109c8575f5ffd5b8063313ce567116103fe578063313ce5671461095b578063337b2b6e1461097657806336568abe14610995575f5ffd5b80632a7d8acb146109095780632f2ff15d1461093c575f5ffd5b806318160ddd116104c257806322fd4ad511610478578063248a9ca31161045e578063248a9ca31461086557806324f67e18146108b25780632584601f146108d1575f5ffd5b806322fd4ad51461081357806323b872dd14610846575f5ffd5b80631b8e0db6116104a85780631b8e0db6146107665780631c3477dd146107995780631c53c280146107c4575f5ffd5b806318160ddd1461071457806319ddf95b14610747575f5ffd5b80630a9f9ee2116105175780630bf14d9b116104fd5780630bf14d9b146106a857806315230e80146106d65780631610247b146106f5575f5ffd5b80630a9f9ee21461065b5780630b52f7b11461067c575f5ffd5b806306fdde031161054757806306fdde03146105e1578063095ea7b3146106025780630a763da114610621575f5ffd5b806301ffc9a71461056c57806306c7dbc4146105a0575f5ffd5b3661056857005b5f5ffd5b348015610577575f5ffd5b5061058b61058636600461673a565b6112d9565b60405190151581526020015b60405180910390f35b3480156105ab575f5ffd5b506105d37f359946d964cb1f92e24841dd25d0e8706f1ab6dd13500522367deddd927658d881565b604051908152602001610597565b3480156105ec575f5ffd5b506105f5611371565b6040516105979190616779565b34801561060d575f5ffd5b5061058b61061c3660046167c2565b611444565b34801561062c575f5ffd5b5060885461064590600160601b900464ffffffffff1681565b60405164ffffffffff9091168152602001610597565b348015610666575f5ffd5b5061067a6106753660046168cf565b61145b565b005b348015610687575f5ffd5b5061069b610696366004616923565b6114bc565b604051610597919061693e565b3480156106b3575f5ffd5b5061058b6106c2366004616923565b608b6020525f908152604090205460ff1681565b3480156106e1575f5ffd5b5061067a6106f03660046169d0565b61156a565b348015610700575f5ffd5b5061067a61070f3660046169fc565b6115bf565b34801561071f575f5ffd5b507f52c63247e1f47db19d5ce0460030c497f067ca4cebf71ba98eeadabe20bace02546105d3565b348015610752575f5ffd5b5061067a610761366004616a13565b61185d565b348015610771575f5ffd5b506105d37f13172b8201242833f26d88301b6e27aa2235ec2d9b2c92a1ed33678f0ee068fa81565b6107ac6107a7366004616a49565b6118cf565b6040516001600160601b039091168152602001610597565b3480156107cf575f5ffd5b506107e36107de3660046169fc565b611a4c565b6040805167ffffffffffffffff90941684526001600160601b039283166020850152911690820152606001610597565b34801561081e575f5ffd5b506105d37f902b1971fb3d9217703fb59d9a8bf53ee64da1be6756f20cebc090dd4c37f7d881565b348015610851575f5ffd5b5061058b610860366004616a73565b611a90565b348015610870575f5ffd5b506105d361087f3660046169fc565b5f9081527f02dd7bc7dec4dceedda775e58dd541e08a116c6c53815c0bd028192f7b626800602052604090206001015490565b3480156108bd575f5ffd5b506107ac6108cc366004616ab1565b611ab5565b3480156108dc575f5ffd5b5061058b6108eb366004616ae2565b67ffffffffffffffff165f9081526047602052604090205460ff1690565b348015610914575f5ffd5b506105d37f1ea2b19b7ab22acb68ebeb58b5cb9eab43e3e119ebbd3159fdcddfc5b8c538b881565b348015610947575f5ffd5b5061067a610956366004616afd565b611e41565b348015610966575f5ffd5b5060405160128152602001610597565b348015610981575f5ffd5b5061067a610990366004616ae2565b611e84565b3480156109a0575f5ffd5b5061067a6109af366004616afd565b611fda565b3480156109bf575f5ffd5b506107ac61202b565b3480156109d3575f5ffd5b506109e76109e2366004616ae2565b612065565b6040516105979190616b20565b3480156109ff575f5ffd5b50610a08612133565b6040516105979190616b5a565b348015610a20575f5ffd5b5061067a61213e565b348015610a34575f5ffd5b5061067a610a43366004616b91565b612173565b348015610a53575f5ffd5b5061067a612244565b348015610a67575f5ffd5b5060885461058b9071010000000000000000000000000000000000900460ff1681565b348015610a95575f5ffd5b50610ac9610aa43660046169fc565b608e6020525f90815260409020546001600160601b0380821691600160601b90041682565b604080516001600160601b03938416815292909116602083015201610597565b348015610af4575f5ffd5b506105d37fe4e31aec9ff1a347fb72ff05400e9d48f9f3a53213176eb3d32d3f8fa4697c1681565b61067a610b2a366004616bc3565b6126eb565b348015610b3a575f5ffd5b506105d37ff146182d150a5b368b6d283f87aeae1f25c21b02ff55cf16848704ade176a5cb81565b348015610b6d575f5ffd5b506105d361270a565b348015610b81575f5ffd5b50610b95610b90366004616ae2565b612738565b6040516105979190616c6a565b348015610bad575f5ffd5b50610bc1610bbc366004616cab565b61279f565b604080519788526020880196909652948601939093526060850191909152608084015260a083015260c082015260e001610597565b348015610c01575f5ffd5b506105d37f1d770361ad1ba5c90793f5d8711778cd963118207b8b46db0f36c72a65b0b45181565b348015610c34575f5ffd5b507fcd5ed15c6e187e77e9aee88184c21f4f2182ab5827cb3b7e07fbedcd63f033005460ff1661058b565b348015610c6a575f5ffd5b506107ac612857565b348015610c7e575f5ffd5b506105d37fe1777bd22f637fc57eadcf9d877079117b44537a53059b1670036696018f564c81565b348015610cb1575f5ffd5b5061067a610cc0366004616923565b612939565b348015610cd0575f5ffd5b506088546107ac906001600160601b031681565b348015610cef575f5ffd5b506105d3610cfe366004616923565b6001600160a01b03165f9081527f52c63247e1f47db19d5ce0460030c497f067ca4cebf71ba98eeadabe20bace00602052604090205490565b348015610d42575f5ffd5b5061067a610d51366004616ae2565b612a4b565b348015610d61575f5ffd5b50610ac9610d703660046169fc565b608d6020525f90815260409020546001600160601b0380821691600160601b90041682565b348015610da0575f5ffd5b50610dd5610daf3660046169fc565b608c6020525f908152604090205467ffffffffffffffff80821691600160401b90041682565b6040805167ffffffffffffffff938416815292909116602083015201610597565b348015610e01575f5ffd5b506105d3610e10366004616ae2565b67ffffffffffffffff165f90815260466020526040902054610100900460ff1690565b348015610e3e575f5ffd5b506107ac610e4d366004616afd565b612b1c565b348015610e5d575f5ffd5b5061067a612d63565b348015610e71575f5ffd5b506105d369010f0cf064dd5920000081565b348015610e8e575f5ffd5b5061067a610e9d366004616cc7565b612d95565b348015610ead575f5ffd5b5061058b610ebc366004616afd565b5f9182527f02dd7bc7dec4dceedda775e58dd541e08a116c6c53815c0bd028192f7b626800602090815260408084206001600160a01b0393909316845291905290205460ff1690565b348015610f10575f5ffd5b506105f5612e7c565b348015610f24575f5ffd5b506105d360045481565b61067a610f3c366004616923565b612ecd565b348015610f4c575f5ffd5b506105d35f81565b348015610f5f575f5ffd5b506105d37f78a7a80e95d53cedc2e84890fb7aaf754249c544050913a3263a2abf9d66f53881565b348015610f92575f5ffd5b5061067a610fa1366004616ce8565b613028565b348015610fb1575f5ffd5b506107ac610fc0366004616d59565b6133bc565b348015610fd0575f5ffd5b5061058b610fdf3660046167c2565b6136d8565b348015610fef575f5ffd5b506105f56040518060400160405280600581526020017f352e302e3000000000000000000000000000000000000000000000000000000081525081565b348015611037575f5ffd5b5061067a611046366004616ae2565b6136e5565b348015611056575f5ffd5b506107ac61396a565b34801561106a575f5ffd5b50608a5461ffff165b60405161ffff9091168152602001610597565b61067a611094366004616923565b6139c1565b3480156110a4575f5ffd5b5061067a6110b3366004616b91565b613e68565b3480156110c3575f5ffd5b5061067a6110d2366004616afd565b613f60565b3480156110e2575f5ffd5b5061058b6110f1366004616ae2565b60056020525f908152604090205460ff1681565b348015611110575f5ffd5b5061067a61111f366004616ae2565b613fa3565b34801561112f575f5ffd5b506105d361113e366004616d9d565b6001600160a01b039182165f9081527f52c63247e1f47db19d5ce0460030c497f067ca4cebf71ba98eeadabe20bace016020908152604080832093909416825291909152205490565b348015611192575f5ffd5b506107ac6111a1366004616db9565b61408b565b3480156111b1575f5ffd5b506111ba6140e1565b6040516105979190616dd2565b3480156111d2575f5ffd5b506105d37fbb12ed6b435a5fce787412ceb233935082e39147d977bc587eb74d0f97f48d2c81565b348015611205575f5ffd5b50611219611214366004616db9565b61416a565b6040516105979493929190616e8a565b348015611234575f5ffd5b5061067a611243366004616cc7565b614212565b348015611253575f5ffd5b506107ac611262366004616db9565b6142e9565b348015611272575f5ffd5b506112866112813660046167c2565b614329565b604080516001600160601b03958616815294909316602085015264ffffffffff9091169183019190915261ffff166060820152608001610597565b3480156112cc575f5ffd5b5060895461ffff16611073565b5f7fffffffff0000000000000000000000000000000000000000000000000000000082167f7965db0b00000000000000000000000000000000000000000000000000000000148061136b57507f01ffc9a7000000000000000000000000000000000000000000000000000000007fffffffff000000000000000000000000000000000000000000000000000000008316145b92915050565b7f52c63247e1f47db19d5ce0460030c497f067ca4cebf71ba98eeadabe20bace0380546060917f52c63247e1f47db19d5ce0460030c497f067ca4cebf71ba98eeadabe20bace00916113c290616ed7565b80601f01602080910402602001604051908101604052809291908181526020018280546113ee90616ed7565b80156114395780601f1061141057610100808354040283529160200191611439565b820191905f5260205f20905b81548152906001019060200180831161141c57829003601f168201915b505050505091505090565b5f33611451818585614381565b5060019392505050565b61146361438e565b81515f5b818167ffffffffffffffff1610156114b6576114a6848267ffffffffffffffff168151811061149857611498616f09565b6020026020010151846143ec565b6114af81616f31565b9050611467565b50505050565b6001600160a01b0381165f908152608f60209081526040808320805482518185028101850190935280835260609492939192909184015b8282101561155f575f84815260209081902060408051608081018252918501546001600160601b038082168452600160601b82041683850152600160c01b810464ffffffffff1691830191909152600160e81b900461ffff1660608201528252600190920191016114f3565b505050509050919050565b7f78a7a80e95d53cedc2e84890fb7aaf754249c544050913a3263a2abf9d66f5386115948161459c565b506001600160a01b03919091165f908152608b60205260409020805460ff1916911515919091179055565b6115c761438e565b335f908152608f6020526040812080549091908290849081106115ec576115ec616f09565b5f9182526020918290206040805160808101825292909101546001600160601b038082168452600160601b80830490911694840194909452600160c01b810464ffffffffff908116928401839052600160e81b90910461ffff166060840152608854929450929091049091161461168f576040517fdcb958f400000000000000000000000000000000000000000000000000000000815260040160405180910390fd5b606081015181515f91612710916116b39161ffff16906001600160601b0316616f5d565b6116bd9190616f88565b90505f81835f01516116cf9190616f9b565b60408085015164ffffffffff165f908152608e6020908152908290208251808401909352546001600160601b03808216808552600160601b9092041683830152908601519293509091908290611726908390616f9b565b6001600160601b0316905250602081018051839190611746908390616f9b565b6001600160601b0390811690915260408087015164ffffffffff165f908152608e602090815291902084518154928601518416600160601b027fffffffffffffffff0000000000000000000000000000000000000000000000009093169084161791909117905584161590506117ff57608980548491906002906117da9084906201000090046001600160601b0316616f9b565b92506101000a8154816001600160601b0302191690836001600160601b031602179055505b61180985876145a6565b6118203033865f01516001600160601b0316614740565b60405186815233907fd1bbb16d648df2dfd0b1b3d88a5bc3f262e0323d3af8fd678115b4f1e7b4b88a9060200160405180910390a2505050505050565b7fe4e31aec9ff1a347fb72ff05400e9d48f9f3a53213176eb3d32d3f8fa4697c166118878161459c565b506088805491151571010000000000000000000000000000000000027fffffffffffffffffffffffffffff00ffffffffffffffffffffffffffffffffff909216919091179055565b5f6118d861438e565b6001600160601b03341115611919576040517f1132981b00000000000000000000000000000000000000000000000000000000815260040160405180910390fd5b6119216147d4565b61192a3461408b565b9050806001600160601b03165f036119555760405163a88ee57760e01b815260040160405180910390fd5b826001600160601b0316816001600160601b031610156119a1576040517fc635a9f200000000000000000000000000000000000000000000000000000000815260040160405180910390fd5b6119b482826001600160601b0316614954565b608880543491905f906119d19084906001600160601b0316616fba565b82546101009290920a6001600160601b03818102199093169183160217909155608854600160601b900464ffffffffff165f908152608d6020526040812080543494509092611a2291859116616fba565b92506101000a8154816001600160601b0302191690836001600160601b0316021790555092915050565b60038181548110611a5b575f80fd5b5f9182526020909120015467ffffffffffffffff811691506001600160601b03600160401b8204811691600160a01b90041683565b5f33611a9d8582856149a1565b611aa8858585614740565b60019150505b9392505050565b5f611abe61438e565b611ac66147d4565b335f908152608b6020526040812054819060ff16611b0a5760895461ffff169150612710611afd836001600160601b038816616f5d565b611b079190616f88565b90505b5f611b158287616f9b565b9050611b20816142e9565b9350836001600160601b03165f03611b4b5760405163a88ee57760e01b815260040160405180910390fd5b846001600160601b0316846001600160601b03161015611b97576040517f641963a400000000000000000000000000000000000000000000000000000000815260040160405180910390fd5b608854335f908152608f6020908152604080832081516080810183526001600160601b03808d1682528a811682860190815264ffffffffff600160601b98899004811684870181815261ffff808f16606088019081528854600181018a55988c528a8c209751979098018054955192519851909116600160e81b027fff0000ffffffffffffffffffffffffffffffffffffffffffffffffffffffffff98909416600160c01b02979097167fff00000000000000ffffffffffffffffffffffffffffffffffffffffffffffff9186168c027fffffffffffffffff0000000000000000000000000000000000000000000000009095169686169690961793909317929092169390931792909217909255808552608e8452938290208251808401909352548082168084529590041691810191909152909186908290611cdb908390616fba565b6001600160601b0316905250602081018051849190611cfb908390616fba565b6001600160601b0390811690915264ffffffffff84165f908152608e6020908152604090912084518154928601518416600160601b027fffffffffffffffff000000000000000000000000000000000000000000000000909316908416179190911790558516159050611db15760898054859190600290611d8c9084906201000090046001600160601b0316616fba565b92506101000a8154816001600160601b0302191690836001600160601b031602179055505b611dc533308a6001600160601b0316614740565b335f818152608f60205260409020547fef31107568890496c8f16fec1278e709d23f1444e004e7973a9403880c28d91790611e0290600190616fd9565b604080519182526001600160601b038088166020840152808b1691830191909152871660608201526080015b60405180910390a2505050505092915050565b5f8281527f02dd7bc7dec4dceedda775e58dd541e08a116c6c53815c0bd028192f7b6268006020526040902060010154611e7a8161459c565b6114b68383614a4f565b611e8c614b1b565b611ea05f67ffffffffffffffff8316614b45565b15155f03611eda576040517f0fa1af0e00000000000000000000000000000000000000000000000000000000815260040160405180910390fd5b604080516060810182525f602080830182815283850183815267ffffffffffffffff8781168087526003805460018101825581885288517fc2575a0e9e593c00f959f8c92f12db2869c3395a3b0502d05e2516446f71f85b9091018054965195519190941673ffffffffffffffffffffffffffffffffffffffff1990961695909517600160401b6001600160601b0395861602176001600160a01b0316600160a01b949095169390930293909317905554818452600283529285902083905584519081529081018290528351929391927fdd8aaf98a662995c3720dc78ea3773142e7d32c94f523a7d651e932ba0c44f8a929181900390910190a1505050565b6001600160a01b038116331461201c576040517f6697b23200000000000000000000000000000000000000000000000000000000815260040160405180910390fd5b6120268282614b50565b505050565b5f612034612857565b7f52c63247e1f47db19d5ce0460030c497f067ca4cebf71ba98eeadabe20bace02546120609190616fba565b905090565b67ffffffffffffffff8082165f90815260466020908152604080832081518083019092525460ff808216835261010090910416918101829052606093909291908111156120b4576120b46167ec565b6040519080825280602002602001820160405280156120dd578160200160208202803683370190505b5090505f5b826020015160ff1681101561212b5782516120ff908260ff614bf4565b82828151811061211157612111616f09565b60ff909216602092830291909101909101526001016120e2565b509392505050565b60606120605f614c1d565b7ff146182d150a5b368b6d283f87aeae1f25c21b02ff55cf16848704ade176a5cb6121688161459c565b612170614c29565b50565b61217b61438e565b805147905f5b818167ffffffffffffffff1610156121cf576121bf848267ffffffffffffffff16815181106121b2576121b2616f09565b6020026020010151614c9b565b6121c881616f31565b9050612181565b505f6121db8347616fd9565b905080156114b657608854600160601b900464ffffffffff165f908152608d60205260408120805483929061221a9084906001600160601b0316616fba565b92506101000a8154816001600160601b0302191690836001600160601b0316021790555050505050565b61224c61438e565b6122546147d4565b6088546001600160601b03811690600160601b900464ffffffffff165f8061227a614dbb565b90925090505f608c8161228e600187616fec565b64ffffffffff16815260208082019290925260409081015f2081518083019092525467ffffffffffffffff8082168352600160401b90910481169282018390529092508416101561230b576040517f4851faea00000000000000000000000000000000000000000000000000000000815260040160405180910390fd5b64ffffffffff84165f818152608d602090815260408083208151808301835290546001600160601b038082168352600160601b91829004811683860152958552608e8452938290208251808401909352548086168084529490048516928201929092528151919390929116111561241b57815181515f9161238c918a614df6565b825184519192505f9183916123a091616f9b565b6123aa9190616f9b565b90506001600160601b038116156124045780608d5f6123ca8b6001617009565b64ffffffffff16815260208101919091526040015f2080546bffffffffffffffffffffffff19166001600160601b03929092169190911790555b505067ffffffffffffffff84166020840152612530565b815181516001600160601b03918216911611156124dc57805182515f91612442918a6150d6565b835183519192505f91839161245691616f9b565b6124609190616f9b565b90506001600160601b038116156124045780608e5f6124808b6001617009565b64ffffffffff16815260208101919091526040015f2080546bffffffffffffffffffffffff19166001600160601b03929092169190911790556124c3818a616fba565b9850505067ffffffffffffffff84166020840152612530565b81516001600160601b03165f0361251f576040517fc2e5347d00000000000000000000000000000000000000000000000000000000815260040160405180910390fd5b67ffffffffffffffff851660208401525b60208101516001600160601b03161561255a5761255a3082602001516001600160601b0316615398565b80516001600160601b03161561259c5780516125769088616f9b565b608880546bffffffffffffffffffffffff19166001600160601b03929092169190911790555b6040805160608101825260895461ffff811682526001600160601b03620100008204811660208401819052600160701b90920416928201929092529015612651578060200151816040018181516125f39190616fba565b6001600160601b039081169091525f60208401528251608980546040860151909316600160701b027fffffffffffff000000000000000000000000000000000000000000000000000090931661ffff90921691909117919091179055505b67ffffffffffffffff808716855264ffffffffff88165f908152608c6020908152604090912086518154928801518416600160401b027fffffffffffffffffffffffffffffffff000000000000000000000000000000009093169316929092171790556126bf876001617009565b6088600c6101000a81548164ffffffffff021916908364ffffffffff1602179055505050505050505050565b6126f36153e5565b6126fc826154b5565b61270682826154df565b5050565b5f6127136155e0565b507f360894a13ba1a3210667c828492db98dca3e2076cc3735a920a3ca505d382bbc90565b604080516060810182525f808252602082018190529181019190915261275d82615642565b60408051606081018252915467ffffffffffffffff811683526001600160601b03600160401b820481166020850152600160a01b909104169082015292915050565b6040517f573c1ce000000000000000000000000000000000000000000000000000000000815267ffffffffffffffff831660048201526001600160a01b03821660248201525f908190819081908190819081906110009063573c1ce09060440160e0604051808303815f875af115801561281b573d5f5f3e3d5ffd5b505050506040513d601f19601f8201168201806040525081019061283f9190617026565b959f949e50929c50909a509850965090945092505050565b60408051606081018252608a5461ffff811682526201000081046001600160601b031660208301819052600160701b90910464ffffffffff16928201839052915f906128a39042616fd9565b905080156129345781515f906127109061ffff166001600160601b0386166128e97f52c63247e1f47db19d5ce0460030c497f067ca4cebf71ba98eeadabe20bace025490565b6128f39190617075565b6128fd9190616f5d565b6129079190616f88565b90505f6301e133806129198484616f5d565b6129239190616f88565b905061292f8186616fba565b945050505b505090565b61294161438e565b7f359946d964cb1f92e24841dd25d0e8706f1ab6dd13500522367deddd927658d861296b8161459c565b6129736147d4565b608a546201000090046001600160601b031680156129be576129958382614954565b608a80547fffffffffffffffffffffffffffffffffffff000000000000000000000000ffff1690555b608954600160701b90046001600160601b03168015612a0b576129e2308583614740565b608980547fffffffffffff000000000000000000000000ffffffffffffffffffffffffffff1690555b60408051838152602081018390527fd9787bf70d3926a4a81c52cba8799d18903ce0132aaa4b7de9e92dc893303a7f91015b60405180910390a150505050565b612a5361438e565b7f1d770361ad1ba5c90793f5d8711778cd963118207b8b46db0f36c72a65b0b451612a7d8161459c565b67ffffffffffffffff82165f9081526005602052604090205460ff16612ab65760405163194fdc7f60e31b815260040160405180910390fd5b5f612ac083615642565b8054909150600160a01b90046001600160601b03165f819003612af65760405163a88ee57760e01b815260040160405180910390fd5b612b0984826001600160601b03166156c1565b505080546001600160a01b031690555050565b5f612b2561438e565b335f908152608f602052604081208054909190829086908110612b4a57612b4a616f09565b5f91825260208083206040805160808101825293909101546001600160601b038082168552600160601b82041684840152600160c01b810464ffffffffff16848301819052600160e81b90910461ffff1660608501528452608c825280842081518083019092525467ffffffffffffffff808216808452600160401b9092041692820192909252919350909103612c0d576040517ffc08f5f200000000000000000000000000000000000000000000000000000000815260040160405180910390fd5b5f612c1661574a565b509050612c216157b6565b60ff168260200151612c339190617088565b67ffffffffffffffff168167ffffffffffffffff161015612c80576040517fba9bead700000000000000000000000000000000000000000000000000000000815260040160405180910390fd5b612c8a84886145a6565b826020015194505f866001600160a01b0316866001600160601b03166040515f6040518083038185875af1925050503d805f8114612ce3576040519150601f19603f3d011682016040523d82523d5f602084013e612ce8565b606091505b5050905080612d23576040517f90b8ec1800000000000000000000000000000000000000000000000000000000815260040160405180910390fd5b604080518981526001600160601b038816602082015233917f53a80b7fa2025e3acb298abd7e222b36ce5d6a1425e7a6e53b451aac0c6e5a219101611e2e565b7ff146182d150a5b368b6d283f87aeae1f25c21b02ff55cf16848704ade176a5cb612d8d8161459c565b6121706157e9565b7f13172b8201242833f26d88301b6e27aa2235ec2d9b2c92a1ed33678f0ee068fa612dbf8161459c565b60c88261ffff161115612dfe576040517ffc5bee1200000000000000000000000000000000000000000000000000000000815260040160405180910390fd5b608a5461ffff90811690831603612e285760405163a88ee57760e01b815260040160405180910390fd5b612e306147d4565b608a805461ffff191661ffff84169081179091556040519081527f756367c310578acc96b78fcf4141ddb3cf532982d1342ec193f34a3600b9ae65906020015b60405180910390a15050565b7f52c63247e1f47db19d5ce0460030c497f067ca4cebf71ba98eeadabe20bace0480546060917f52c63247e1f47db19d5ce0460030c497f067ca4cebf71ba98eeadabe20bace00916113c290616ed7565b612ed561438e565b6001600160601b03341115612f16576040517f1132981b00000000000000000000000000000000000000000000000000000000815260040160405180910390fd5b6088546001600160601b031669010f0cf064dd59200000811015612f66576040517f500625f400000000000000000000000000000000000000000000000000000000815260040160405180910390fd5b612f703482616fba565b608880546bffffffffffffffffffffffff19166001600160601b039283161790819055600160601b900464ffffffffff165f908152608d6020526040812080543493919291612fc191859116616fba565b92506101000a8154816001600160601b0302191690836001600160601b031602179055507f04e75fda068b8e114d7658bdff74280a0fd65586b7e026a034eae29dd5a9e68b3483604051612e709291909182526001600160a01b0316602082015260400190565b613030615844565b600454815f5b818110156133b35784848281811061305057613050616f09565b90506060020160400160208101906130689190616a13565b156131ea575f61309e86868481811061308357613083616f09565b6130999260206060909202019081019150616ae2565b615642565b805467ffffffffffffffff165f9081526005602052604090205490915060ff16156130dc5760405163194fdc7f60e31b815260040160405180910390fd5b8054600160401b90046001600160601b03165f87878581811061310157613101616f09565b90506060020160200160208101906131199190616db9565b6131239083616fba565b835473ffffffffffffffffffffffff00000000000000001916600160401b6001600160601b0383811691820292909217865591925061316490841688616fd9565b61316e9190617075565b955087878581811061318257613182616f09565b6131989260206060909202019081019150616ae2565b6040516001600160601b038316815267ffffffffffffffff91909116907fcfaa637aecf1e60e723842980c95e1f0a7ca0a264e46647e4656b98f7293e33b9060200160405180910390a25050506133ab565b5f60025f87878581811061320057613200616f09565b6132169260206060909202019081019150616ae2565b67ffffffffffffffff1667ffffffffffffffff1681526020019081526020015f20549050805f0361324757506133ab565b5f6003613255600184616fd9565b8154811061326557613265616f09565b5f91825260208220018054909250600160401b90046001600160601b03169081810361329457505050506133ab565b5f8989878181106132a7576132a7616f09565b90506060020160200160208101906132bf9190616db9565b9050826001600160601b0316816001600160601b031610156132e8576132e58184616f9b565b91505b83546001600160601b03808416600160401b810273ffffffffffffffffffffffff0000000000000000199093169290921786556133279085168a616fd9565b6133319190617075565b975089898781811061334557613345616f09565b61335b9260206060909202019081019150616ae2565b6040516001600160601b038416815267ffffffffffffffff91909116907fcfaa637aecf1e60e723842980c95e1f0a7ca0a264e46647e4656b98f7293e33b9060200160405180910390a250505050505b600101613036565b50506004555050565b5f6133c561438e565b60885471010000000000000000000000000000000000900460ff16613416576040517ff4574cf700000000000000000000000000000000000000000000000000000000815260040160405180910390fd5b61341e6147d4565b335f908152608b602052604081205460ff1661346157608954612710906134529061ffff166001600160601b038816616f5d565b61345c9190616f88565b613463565b5f5b90505f6134708287616f9b565b905061347b816142e9565b9250826001600160601b03165f036134a65760405163a88ee57760e01b815260040160405180910390fd5b846001600160601b0316836001600160601b031610156134f2576040517f641963a400000000000000000000000000000000000000000000000000000000815260040160405180910390fd5b608854600160601b900464ffffffffff165f908152608d6020526040902080546001600160601b03908116908516811015613559576040517fed8ff24700000000000000000000000000000000000000000000000000000000815260040160405180910390fd5b6135638582616f9b565b82546bffffffffffffffffffffffff19166001600160601b039182161783556088805487925f9161359691859116616f9b565b92506101000a8154816001600160601b0302191690836001600160601b031602179055506135ce33308a6001600160601b0316614740565b6135e130846001600160601b0316615398565b6001600160601b0384161561363a5760898054859190600e90613615908490600160701b90046001600160601b0316616fba565b92506101000a8154816001600160601b0302191690836001600160601b031602179055505b5f866001600160a01b0316866001600160601b03166040515f6040518083038185875af1925050503d805f811461368c576040519150601f19603f3d011682016040523d82523d5f602084013e613691565b606091505b50509050806136cc576040517f90b8ec1800000000000000000000000000000000000000000000000000000000815260040160405180910390fd5b50505050509392505050565b5f33611451818585614740565b6136ee8161586e565b67ffffffffffffffff81165f9081526002602052604081205490819003613741576040517f30812d4200000000000000000000000000000000000000000000000000000000815260040160405180910390fd5b5f600361374f600184616fd9565b8154811061375f5761375f616f09565b5f91825260209182902060408051606081018252929091015467ffffffffffffffff811683526001600160601b03600160401b82048116948401859052600160a01b90910416908201529150156137c95760405163194fdc7f60e31b815260040160405180910390fd5b60408101516001600160601b0316156137f55760405163194fdc7f60e31b815260040160405180910390fd5b600380545f919061380890600190616fd9565b8154811061381857613818616f09565b5f9182526020808320909101805467ffffffffffffffff16835260029091526040909120849055905080600361384f600186616fd9565b8154811061385f5761385f616f09565b5f918252602080832084549201805467ffffffffffffffff93841667ffffffffffffffff19821681178355865473ffffffffffffffffffffffffffffffffffffffff1990921617600160401b918290046001600160601b039081169092021780835595546001600160a01b03909616600160a01b968790049091169095029490941790935586168152600290915260408120556003805480613903576139036170a8565b5f8281526020812082015f1990810182905590910190915561392f9067ffffffffffffffff8616615944565b5060405167ffffffffffffffff851681527f8712d9d347359238729023dc8640e38f0d4f8ad25d0e079c2208a885a51a023f90602001612a3d565b6088545f9071010000000000000000000000000000000000900460ff1661399057505f90565b608854600160601b900464ffffffffff165f908152608d6020526040902054612060906001600160601b031661408b565b5f6139ca61594f565b805490915060ff600160401b820416159067ffffffffffffffff165f811580156139f15750825b90505f8267ffffffffffffffff166001148015613a0d5750303b155b905081158015613a1b575080155b15613a52576040517ff92ee8a900000000000000000000000000000000000000000000000000000000815260040160405180910390fd5b845467ffffffffffffffff191660011785558315613a8157845468ff00000000000000001916600160401b1785555b613a89615977565b613afd6040518060400160405280601381526020017f4b696e747375205374616b6564204d6f6e6164000000000000000000000000008152506040518060400160405280600481526020017f734d4f4e0000000000000000000000000000000000000000000000000000000081525061597f565b613b05615977565b613b0d615977565b613b175f87614a4f565b50613b427f902b1971fb3d9217703fb59d9a8bf53ee64da1be6756f20cebc090dd4c37f7d887614a4f565b50613b6d7fe1777bd22f637fc57eadcf9d877079117b44537a53059b1670036696018f564c87614a4f565b50613b987fbb12ed6b435a5fce787412ceb233935082e39147d977bc587eb74d0f97f48d2c87614a4f565b50613bc37f1d770361ad1ba5c90793f5d8711778cd963118207b8b46db0f36c72a65b0b45187614a4f565b50613bee7f13172b8201242833f26d88301b6e27aa2235ec2d9b2c92a1ed33678f0ee068fa87614a4f565b50613c197f13172b8201242833f26d88301b6e27aa2235ec2d9b2c92a1ed33678f0ee068fa80615991565b613c437f359946d964cb1f92e24841dd25d0e8706f1ab6dd13500522367deddd927658d887614a4f565b50613c6e7f359946d964cb1f92e24841dd25d0e8706f1ab6dd13500522367deddd927658d880615991565b613c987f78a7a80e95d53cedc2e84890fb7aaf754249c544050913a3263a2abf9d66f53887614a4f565b50613cc37f78a7a80e95d53cedc2e84890fb7aaf754249c544050913a3263a2abf9d66f53880615991565b613ced7f1ea2b19b7ab22acb68ebeb58b5cb9eab43e3e119ebbd3159fdcddfc5b8c538b887614a4f565b50613d187f1ea2b19b7ab22acb68ebeb58b5cb9eab43e3e119ebbd3159fdcddfc5b8c538b880615991565b613d427ff146182d150a5b368b6d283f87aeae1f25c21b02ff55cf16848704ade176a5cb87614a4f565b50613d6d7fe4e31aec9ff1a347fb72ff05400e9d48f9f3a53213176eb3d32d3f8fa4697c1687614a4f565b50608880547fffffffffffffffffffffffffffff000000000000ffffffffffffffffffffffff16710100000000010000000000000000000000001790556040805160608101825260c88082525f602083015264ffffffffff421691909201819052608a80547fffffffffffffffffffffffffff0000000000000000000000000000000000000016600160701b90920291909117909117905560898054600561ffff199091161790558315613e6057845468ff000000000000000019168555604051600181527fc7f505b2f371ae2175ee4913f4499e1f2633a7b5936321eed1cdaeb6115181d29060200160405180910390a15b505050505050565b613e7061438e565b805147905f5b818167ffffffffffffffff161015613ec457613eb4848267ffffffffffffffff1681518110613ea757613ea7616f09565b6020026020010151615a32565b613ebd81616f31565b9050613e76565b505f613ed08347616fd9565b9050805f03613ef25760405163a88ee57760e01b815260040160405180910390fd5b608880548291905f90613f0f9084906001600160601b0316616fba565b82546101009290920a6001600160601b03818102199093169183160217909155608854600160601b900464ffffffffff165f908152608d602052604081208054859450909261221a91859116616fba565b5f8281527f02dd7bc7dec4dceedda775e58dd541e08a116c6c53815c0bd028192f7b6268006020526040902060010154613f998161459c565b6114b68383614b50565b613fab615ad7565b67ffffffffffffffff81165f9081526005602052604090205460ff1615613fe55760405163a88ee57760e01b815260040160405180910390fd5b5f613fef82615642565b805460048054929350600160401b9091046001600160601b0316915f90614017908490616fd9565b9091555050805473ffffffffffffffffffffffff00000000000000001916815567ffffffffffffffff82165f81815260056020908152604091829020805460ff1916600117905590519182527fa46b2e9bd92f27216c46d5a9772c39431f3f381285ee1dacb1f1034fe603b10b9101612e70565b6088545f906001600160601b03168082036140a8578291506140db565b806140b161202b565b6001600160601b0316846001600160601b03166140ce9190616f5d565b6140d89190616f88565b91505b50919050565b60606003805480602002602001604051908101604052809291908181526020015f905b82821015614161575f848152602090819020604080516060810182529185015467ffffffffffffffff811683526001600160601b03600160401b8204811684860152600160a01b9091041690820152825260019092019101614104565b50505050905090565b5f5f6060806142036003805480602002602001604051908101604052809291908181526020015f905b828210156141f0575f848152602090819020604080516060810182529185015467ffffffffffffffff811683526001600160601b03600160401b8204811684860152600160a01b9091041690820152825260019092019101614193565b50505050866001600160601b0316615b01565b93509350935093509193509193565b7f13172b8201242833f26d88301b6e27aa2235ec2d9b2c92a1ed33678f0ee068fa61423c8161459c565b60328261ffff16111561427b576040517ffc5bee1200000000000000000000000000000000000000000000000000000000815260040160405180910390fd5b60895461ffff908116908316036142a55760405163a88ee57760e01b815260040160405180910390fd5b6089805461ffff191661ffff84169081179091556040519081527f0531f91c02fe1dc8b306233f5edba5c1b65a79a064d26a40b6082bc9d887ecba90602001612e70565b5f5f6142f361202b565b6001600160601b03169050805f0361430d578291506140db565b60885481906140ce906001600160601b03908116908616616f5d565b608f602052815f5260405f208181548110614342575f80fd5b5f918252602090912001546001600160601b038082169350600160601b8204169150600160c01b810464ffffffffff1690600160e81b900461ffff1684565b6120268383836001615ce0565b7fcd5ed15c6e187e77e9aee88184c21f4f2182ab5827cb3b7e07fbedcd63f033005460ff16156143ea576040517fd93c066500000000000000000000000000000000000000000000000000000000815260040160405180910390fd5b565b67ffffffffffffffff82165f90815260466020908152604080832081518083019092525460ff808216835261010090910481169282018390529092919084161061443a57816020015161443c565b825b90508060ff165f0361444e5750505050565b5f5b8160ff16811015614526575f61446b845f01518360ff614bf4565b6040517faed2ee7300000000000000000000000000000000000000000000000000000000815267ffffffffffffffff8816600482015260ff821660248201529091505f906110009063aed2ee73906044016020604051808303815f875af11580156144d8573d5f5f3e3d5ffd5b505050506040513d601f19601f820116820180604052508101906144fc91906170bc565b90508061451c57604051633f48ffd960e21b815260040160405180910390fd5b5050600101614450565b508151614535908260ff614bf4565b60ff16825260208201805182919061454e9083906170d7565b60ff90811690915267ffffffffffffffff9095165f90815260466020908152604090912084518154929095015187166101000261ffff19909216949096169390931792909217909355505050565b6121708133615e09565b81545f906145b690600190616fd9565b90508082146146f3578281815481106145d1576145d1616f09565b905f5260205f20018383815481106145eb576145eb616f09565b5f91825260209091208254910180546bffffffffffffffffffffffff1981166001600160601b0393841690811783558454600160601b908190049094169093027fffffffffffffffff00000000000000000000000000000000000000000000000090911690921791909117808255825464ffffffffff600160c01b9182900416027fffffff0000000000ffffffffffffffffffffffffffffffffffffffffffffffff821681178355925461ffff600160e81b9182900416027fff0000ffffffffffffffffffffffffffffffffffffffffffffffffffffffffff9093167fff00000000000000ffffffffffffffffffffffffffffffffffffffffffffffff909116179190911790555b82805480614703576147036170a8565b5f8281526020902081015f1990810180547fff00000000000000000000000000000000000000000000000000000000000000169055019055505050565b6001600160a01b038316614787576040517f96c6fd1e0000000000000000000000000000000000000000000000000000000081525f60048201526024015b60405180910390fd5b6001600160a01b0382166147c9576040517fec442f050000000000000000000000000000000000000000000000000000000081525f600482015260240161477e565b612026838383615e95565b60408051606081018252608a5461ffff811682526201000081046001600160601b03166020830152600160701b900464ffffffffff16918101829052905f9061481d9042616fd9565b90508015612706575f61271061ffff16835f015161ffff1684602001516001600160601b031661486b7f52c63247e1f47db19d5ce0460030c497f067ca4cebf71ba98eeadabe20bace025490565b6148759190617075565b61487f9190616f5d565b6148899190616f88565b90505f6301e1338061489b8484616f5d565b6148a59190616f88565b90508084602001516001600160601b03166148c09190617075565b6001600160601b0316602085018190524264ffffffffff16604086018190529451608a805461ffff9092167fffffffffffffffffffffffffffffffffffff00000000000000000000000000009092169190911762010000909202919091177fffffffffffffffffffffffffff0000000000ffffffffffffffffffffffffffff16600160701b90950294909417909355505050565b6001600160a01b038216614996576040517fec442f050000000000000000000000000000000000000000000000000000000081525f600482015260240161477e565b6127065f8383615e95565b6001600160a01b038381165f9081527f52c63247e1f47db19d5ce0460030c497f067ca4cebf71ba98eeadabe20bace0160209081526040808320938616835292905220545f198110156114b65781811015614a41576040517ffb8f41b20000000000000000000000000000000000000000000000000000000081526001600160a01b0384166004820152602481018290526044810183905260640161477e565b6114b684848484035f615ce0565b5f8281527f02dd7bc7dec4dceedda775e58dd541e08a116c6c53815c0bd028192f7b626800602081815260408084206001600160a01b038616855290915282205460ff16614b12575f848152602082815260408083206001600160a01b03871684529091529020805460ff19166001179055614ac83390565b6001600160a01b0316836001600160a01b0316857f2f8788117e7eff1d82e926ec794901d17c78024a50270940304540a733656f0d60405160405180910390a4600191505061136b565b5f91505061136b565b7f902b1971fb3d9217703fb59d9a8bf53ee64da1be6756f20cebc090dd4c37f7d86121708161459c565b5f611aae8383615ffa565b5f8281527f02dd7bc7dec4dceedda775e58dd541e08a116c6c53815c0bd028192f7b626800602081815260408084206001600160a01b038616855290915282205460ff1615614b12575f848152602082815260408083206001600160a01b0387168085529252808320805460ff1916905551339287917ff6391f5c32d9c69d2a47ea670b442974b53935d1edc7fd64eb21e047a839171b9190a4600191505061136b565b5f8160ff168360ff168560ff16614c0b9190617075565b614c1591906170f0565b949350505050565b60605f611aae83616046565b614c3161609f565b7fcd5ed15c6e187e77e9aee88184c21f4f2182ab5827cb3b7e07fbedcd63f03300805460ff191681557f5db9ee0a495bf2e6ff9c91a7834c1ba4fdd244a5e8aa4e537bd38aeae4b073aa335b6040516001600160a01b03909116815260200160405180910390a150565b67ffffffffffffffff81165f9081526047602052604090205460ff16614ced576040517f78297a8c00000000000000000000000000000000000000000000000000000000815260040160405180910390fd5b6040517faed2ee7300000000000000000000000000000000000000000000000000000000815267ffffffffffffffff8216600482015260ff60248201525f906110009063aed2ee73906044016020604051808303815f875af1158015614d55573d5f5f3e3d5ffd5b505050506040513d601f19601f82011682018060405250810190614d7991906170bc565b905080614d9957604051633f48ffd960e21b815260040160405180910390fd5b5067ffffffffffffffff165f908152604760205260409020805460ff19169055565b5f5f5f5f614dc761574a565b9150915081935080614de357614dde846001617088565b614dee565b614dee846002617088565b925050509091565b6004545f90808203614e34576040517f098404de00000000000000000000000000000000000000000000000000000000815260040160405180910390fd5b5f6003805480602002602001604051908101604052809291908181526020015f905b82821015614eb3575f848152602090819020604080516060810182529185015467ffffffffffffffff811683526001600160601b03600160401b8204811684860152600160a01b9091041690820152825260019092019101614e56565b5050505090505f5f614ed9838888614ecb9190616f9b565b6001600160601b0316615b01565b9350509250505f8789614eec9190616f9b565b6001600160601b031690505f836001600160601b03168210614f1757836001600160601b0316614f19565b815b90505f614f268284616fd9565b86519091505f5b818110156150c6575f5f878381518110614f4957614f49616f09565b60200260200101516001600160601b031611614f65575f614fa7565b876001600160601b0316878381518110614f8157614f81616f09565b60200260200101516001600160601b031686614f9d9190616f5d565b614fa79190616f88565b90505f5f8511614fb7575f614ff4565b8a8a8481518110614fca57614fca616f09565b6020026020010151602001516001600160601b031686614fea9190616f5d565b614ff49190616f88565b90505f6150018284617075565b90506001600160601b038116156150b857808b858151811061502557615025616f09565b60200260200101516040015161503b9190616fba565b6003858154811061504e5761504e616f09565b905f5260205f20015f0160146101000a8154816001600160601b0302191690836001600160601b031602179055506150ab8b858151811061509157615091616f09565b60200260200101515f0151826001600160601b03166160fa565b6150b5818e616fba565b9c505b505050806001019050614f2d565b5050505050505050509392505050565b5f5f6003805480602002602001604051908101604052809291908181526020015f905b82821015615156575f848152602090819020604080516060810182529185015467ffffffffffffffff811683526001600160601b03600160401b8204811684860152600160a01b90910416908201528252600190920191016150f9565b5050505090505f5f61516e838887614ecb9190616f9b565b5092505091505f86886151819190616f9b565b6001600160601b031690505f836001600160601b031682106151ac57836001600160601b03166151ae565b815b90505f6151bb8284616fd9565b6088549091505f9083906151d9908c906001600160601b0316616f9b565b6001600160601b03166151ec9190616fd9565b87519091505f5b818110156150c6575f5f88838151811061520f5761520f616f09565b60200260200101516001600160601b03161161522b575f61526d565b886001600160601b031688838151811061524757615247616f09565b60200260200101516001600160601b0316876152639190616f5d565b61526d9190616f88565b90505f5f861161527d575f6152c4565b84828c858151811061529157615291616f09565b6020026020010151604001516001600160601b03166152b09190616fd9565b6152ba9088616f5d565b6152c49190616f88565b90505f6152d18284617075565b90506001600160601b0381161561538a57808c85815181106152f5576152f5616f09565b60200260200101516040015161530b9190616f9b565b6003858154811061531e5761531e616f09565b5f91825260209091200180546001600160601b0392909216600160a01b026001600160a01b03909216919091179055615357818e616fba565b9c506153888c858151811061536e5761536e616f09565b60200260200101515f0151826001600160601b03166161a2565b505b5050508060010190506151f3565b6001600160a01b0382166153da576040517f96c6fd1e0000000000000000000000000000000000000000000000000000000081525f600482015260240161477e565b612706825f83615e95565b306001600160a01b037f000000000000000000000000000000000000000000000000000000000000000016148061547e57507f00000000000000000000000000000000000000000000000000000000000000006001600160a01b03166154727f360894a13ba1a3210667c828492db98dca3e2076cc3735a920a3ca505d382bbc546001600160a01b031690565b6001600160a01b031614155b156143ea576040517fe07c8dba00000000000000000000000000000000000000000000000000000000815260040160405180910390fd5b7f1ea2b19b7ab22acb68ebeb58b5cb9eab43e3e119ebbd3159fdcddfc5b8c538b86127068161459c565b816001600160a01b03166352d1902d6040518163ffffffff1660e01b8152600401602060405180830381865afa925050508015615539575060408051601f3d908101601f1916820190925261553691810190617103565b60015b61557a576040517f4c9c8ce30000000000000000000000000000000000000000000000000000000081526001600160a01b038316600482015260240161477e565b7f360894a13ba1a3210667c828492db98dca3e2076cc3735a920a3ca505d382bbc81146155d6576040517faa1d49a40000000000000000000000000000000000000000000000000000000081526004810182905260240161477e565b61202683836162a0565b306001600160a01b037f000000000000000000000000000000000000000000000000000000000000000016146143ea576040517fe07c8dba00000000000000000000000000000000000000000000000000000000815260040160405180910390fd5b67ffffffffffffffff81165f90815260026020526040812054808203615694576040517f30812d4200000000000000000000000000000000000000000000000000000000815260040160405180910390fd5b60036156a1600183616fd9565b815481106156b1576156b1616f09565b905f5260205f2001915050919050565b67ffffffffffffffff82165f9081526047602052604081205460ff1615615714576040517f500389a000000000000000000000000000000000000000000000000000000000815260040160405180910390fd5b5060ff6157228383836162f5565b67ffffffffffffffff9092165f908152604760205260409020805460ff191660011790555090565b5f5f6110006001600160a01b031663757991a86040518163ffffffff1660e01b815260040160408051808303815f875af115801561578a573d5f5f3e3d5ffd5b505050506040513d601f19601f820116820180604052508101906157ae919061711a565b915091509091565b5f46608f036157c55750600190565b4661279f036157d45750600190565b466175bf036157e35750600190565b50600190565b6157f161438e565b7fcd5ed15c6e187e77e9aee88184c21f4f2182ab5827cb3b7e07fbedcd63f03300805460ff191660011781557f62e78cea01bee320cd4e420270b5ea74000d11b0c9f74754ebdbfc544b05a25833614c7d565b7fe1777bd22f637fc57eadcf9d877079117b44537a53059b1670036696018f564c6121708161459c565b7f1d770361ad1ba5c90793f5d8711778cd963118207b8b46db0f36c72a65b0b4516158988161459c565b67ffffffffffffffff82165f90815260466020526040812054610100900460ff1611156158f1576040517f4d078c7100000000000000000000000000000000000000000000000000000000815260040160405180910390fd5b67ffffffffffffffff82165f9081526047602052604090205460ff1615612706576040517f4d078c7100000000000000000000000000000000000000000000000000000000815260040160405180910390fd5b5f611aae83836163aa565b5f807ff0c57e16840df040f15088dc2f81fe391c3923bec73e23a9662efc9c229c6a0061136b565b6143ea616484565b615987616484565b61270682826164c2565b7f02dd7bc7dec4dceedda775e58dd541e08a116c6c53815c0bd028192f7b6268005f6159ea845f9081527f02dd7bc7dec4dceedda775e58dd541e08a116c6c53815c0bd028192f7b626800602052604090206001015490565b5f85815260208490526040808220600101869055519192508491839187917fbd79b86ffe0ab8e8776151514217cd7cacd52c909f66475c3af44e129f0b00ff9190a450505050565b6040517fa76e2ca500000000000000000000000000000000000000000000000000000000815267ffffffffffffffff821660048201525f906110009063a76e2ca5906024016020604051808303815f875af1158015615a93573d5f5f3e3d5ffd5b505050506040513d601f19601f82011682018060405250810190615ab791906170bc565b90508061270657604051633f48ffd960e21b815260040160405180910390fd5b7fbb12ed6b435a5fce787412ceb233935082e39147d977bc587eb74d0f97f48d2c6121708161459c565b60045482515f91829160609182918067ffffffffffffffff811115615b2857615b286167ec565b604051908082528060200260200182016040528015615b51578160200160208202803683370190505b5093508067ffffffffffffffff811115615b6d57615b6d6167ec565b604051908082528060200260200182016040528015615b96578160200160208202803683370190505b5092505f5b81811015615cd4575f898281518110615bb657615bb6616f09565b6020026020010151604001516001600160601b031690505f5f8511615bdb575f615c18565b848a8c8581518110615bef57615bef616f09565b6020026020010151602001516001600160601b0316615c0e9190616f5d565b615c189190616f88565b905080821115615c74575f615c2d8284616fd9565b9050615c39818b616fba565b995080888581518110615c4e57615c4e616f09565b60200260200101906001600160601b031690816001600160601b03168152505050615cca565b81811115615cca575f615c878383616fd9565b9050615c93818a616fba565b985080878581518110615ca857615ca8616f09565b60200260200101906001600160601b031690816001600160601b031681525050505b5050600101615b9b565b50505092959194509250565b7f52c63247e1f47db19d5ce0460030c497f067ca4cebf71ba98eeadabe20bace006001600160a01b038516615d43576040517fe602df050000000000000000000000000000000000000000000000000000000081525f600482015260240161477e565b6001600160a01b038416615d85576040517f94280d620000000000000000000000000000000000000000000000000000000081525f600482015260240161477e565b6001600160a01b038086165f90815260018301602090815260408083209388168352929052208390558115615e0257836001600160a01b0316856001600160a01b03167f8c5be1e5ebec7d5bd14f71427d1e84f3dd0314c0f7b2291e5b200ac8c7c3b92585604051615df991815260200190565b60405180910390a35b5050505050565b5f8281527f02dd7bc7dec4dceedda775e58dd541e08a116c6c53815c0bd028192f7b626800602090815260408083206001600160a01b038516845290915290205460ff16612706576040517fe2517d3f0000000000000000000000000000000000000000000000000000000081526001600160a01b03821660048201526024810183905260440161477e565b7f52c63247e1f47db19d5ce0460030c497f067ca4cebf71ba98eeadabe20bace006001600160a01b038416615ee25781816002015f828254615ed79190617075565b90915550615f6b9050565b6001600160a01b0384165f9081526020829052604090205482811015615f4d576040517fe450d38c0000000000000000000000000000000000000000000000000000000081526001600160a01b0386166004820152602481018290526044810184905260640161477e565b6001600160a01b0385165f9081526020839052604090209083900390555b6001600160a01b038316615f89576002810180548390039055615fa7565b6001600160a01b0383165f9081526020829052604090208054830190555b826001600160a01b0316846001600160a01b03167fddf252ad1be2c89b69c2b068fc378daa952ba7f163c4a11628f55a4df523b3ef84604051615fec91815260200190565b60405180910390a350505050565b5f81815260018301602052604081205461603f57508154600181810184555f84815260208082209093018490558454848252828601909352604090209190915561136b565b505f61136b565b6060815f0180548060200260200160405190810160405280929190818152602001828054801561609357602002820191905f5260205f20905b81548152602001906001019080831161607f575b50505050509050919050565b7fcd5ed15c6e187e77e9aee88184c21f4f2182ab5827cb3b7e07fbedcd63f033005460ff166143ea576040517f8dfc202b00000000000000000000000000000000000000000000000000000000815260040160405180910390fd5b6040517f84994fec00000000000000000000000000000000000000000000000000000000815267ffffffffffffffff831660048201525f90611000906384994fec90849060240160206040518083038185885af115801561615d573d5f5f3e3d5ffd5b50505050506040513d601f19601f8201168201806040525081019061618291906170bc565b90508061202657604051633f48ffd960e21b815260040160405180910390fd5b67ffffffffffffffff82165f9081526046602090815260408083208151808301909252805460ff808216845261010090910416928201839052917fffffffffffffffffffffffffffffffffffffffffffffffffffffffffffffff0101616234576040517f500389a000000000000000000000000000000000000000000000000000000000815260040160405180910390fd5b616247815f0151826020015160ff614bf4565b92508060200151600161625a9190617147565b825460ff91909116610100027fffffffffffffffffffffffffffffffffffffffffffffffffffffffffffff00ff9091161782556162988585856162f5565b505092915050565b6162a982616525565b6040516001600160a01b038316907fbc7cd75a20ee27fd9adebab32041f755214dbc6bffa90cc0225b39da2e5c2d3b905f90a28051156162ed5761202682826165c1565b612706616633565b6040517f5cf4151400000000000000000000000000000000000000000000000000000000815267ffffffffffffffff841660048201526024810183905260ff821660448201525f9061100090635cf41514906064016020604051808303815f875af1158015616366573d5f5f3e3d5ffd5b505050506040513d601f19601f8201168201806040525081019061638a91906170bc565b9050806114b657604051633f48ffd960e21b815260040160405180910390fd5b5f8181526001830160205260408120548015614b12575f6163cc600183616fd9565b85549091505f906163df90600190616fd9565b905080821461643e575f865f0182815481106163fd576163fd616f09565b905f5260205f200154905080875f01848154811061641d5761641d616f09565b5f918252602080832090910192909255918252600188019052604090208390555b855486908061644f5761644f6170a8565b600190038181905f5260205f20015f90559055856001015f8681526020019081526020015f205f90556001935050505061136b565b61648c61666b565b6143ea576040517fd7e6bcf800000000000000000000000000000000000000000000000000000000815260040160405180910390fd5b6164ca616484565b7f52c63247e1f47db19d5ce0460030c497f067ca4cebf71ba98eeadabe20bace007f52c63247e1f47db19d5ce0460030c497f067ca4cebf71ba98eeadabe20bace0361651684826171a4565b50600481016114b683826171a4565b806001600160a01b03163b5f03616573576040517f4c9c8ce30000000000000000000000000000000000000000000000000000000081526001600160a01b038216600482015260240161477e565b7f360894a13ba1a3210667c828492db98dca3e2076cc3735a920a3ca505d382bbc805473ffffffffffffffffffffffffffffffffffffffff19166001600160a01b0392909216919091179055565b60605f5f846001600160a01b0316846040516165dd919061725f565b5f60405180830381855af49150503d805f8114616615576040519150601f19603f3d011682016040523d82523d5f602084013e61661a565b606091505b509150915061662a858383616684565b95945050505050565b34156143ea576040517fb398979f00000000000000000000000000000000000000000000000000000000815260040160405180910390fd5b5f61667461594f565b54600160401b900460ff16919050565b60608261669957616694826166f9565b611aae565b81511580156166b057506001600160a01b0384163b155b156166f2576040517f9996b3150000000000000000000000000000000000000000000000000000000081526001600160a01b038516600482015260240161477e565b5080611aae565b80511561670857805160208201fd5b6040517fd6bda27500000000000000000000000000000000000000000000000000000000815260040160405180910390fd5b5f6020828403121561674a575f5ffd5b81357fffffffff0000000000000000000000000000000000000000000000000000000081168114611aae575f5ffd5b602081525f82518060208401528060208501604085015e5f604082850101526040601f19601f83011684010191505092915050565b6001600160a01b0381168114612170575f5ffd5b5f5f604083850312156167d3575f5ffd5b82356167de816167ae565b946020939093013593505050565b634e487b7160e01b5f52604160045260245ffd5b604051601f8201601f1916810167ffffffffffffffff81118282101715616829576168296167ec565b604052919050565b67ffffffffffffffff81168114612170575f5ffd5b5f82601f830112616855575f5ffd5b813567ffffffffffffffff81111561686f5761686f6167ec565b8060051b61687f60208201616800565b9182526020818501810192908101908684111561689a575f5ffd5b6020860192505b838310156168c55782356168b481616831565b8252602092830192909101906168a1565b9695505050505050565b5f5f604083850312156168e0575f5ffd5b823567ffffffffffffffff8111156168f6575f5ffd5b61690285828601616846565b925050602083013560ff81168114616918575f5ffd5b809150509250929050565b5f60208284031215616933575f5ffd5b8135611aae816167ae565b602080825282518282018190525f918401906040840190835b818110156169b85783516001600160601b0381511684526001600160601b03602082015116602085015264ffffffffff604082015116604085015261ffff606082015116606085015250608083019250602084019350600181019050616957565b509095945050505050565b8015158114612170575f5ffd5b5f5f604083850312156169e1575f5ffd5b82356169ec816167ae565b91506020830135616918816169c3565b5f60208284031215616a0c575f5ffd5b5035919050565b5f60208284031215616a23575f5ffd5b8135611aae816169c3565b80356001600160601b0381168114616a44575f5ffd5b919050565b5f5f60408385031215616a5a575f5ffd5b616a6383616a2e565b91506020830135616918816167ae565b5f5f5f60608486031215616a85575f5ffd5b8335616a90816167ae565b92506020840135616aa0816167ae565b929592945050506040919091013590565b5f5f60408385031215616ac2575f5ffd5b616acb83616a2e565b9150616ad960208401616a2e565b90509250929050565b5f60208284031215616af2575f5ffd5b8135611aae81616831565b5f5f60408385031215616b0e575f5ffd5b823591506020830135616918816167ae565b602080825282518282018190525f918401906040840190835b818110156169b857835160ff16835260209384019390920191600101616b39565b602080825282518282018190525f918401906040840190835b818110156169b8578351835260209384019390920191600101616b73565b5f60208284031215616ba1575f5ffd5b813567ffffffffffffffff811115616bb7575f5ffd5b614c1584828501616846565b5f5f60408385031215616bd4575f5ffd5b8235616bdf816167ae565b9150602083013567ffffffffffffffff811115616bfa575f5ffd5b8301601f81018513616c0a575f5ffd5b803567ffffffffffffffff811115616c2457616c246167ec565b616c376020601f19601f84011601616800565b818152866020838501011115616c4b575f5ffd5b816020840160208301375f602083830101528093505050509250929050565b6060810161136b828467ffffffffffffffff81511682526001600160601b0360208201511660208301526001600160601b0360408201511660408301525050565b5f5f60408385031215616cbc575f5ffd5b8235616a6381616831565b5f60208284031215616cd7575f5ffd5b813561ffff81168114611aae575f5ffd5b5f5f60208385031215616cf9575f5ffd5b823567ffffffffffffffff811115616d0f575f5ffd5b8301601f81018513616d1f575f5ffd5b803567ffffffffffffffff811115616d35575f5ffd5b856020606083028401011115616d49575f5ffd5b6020919091019590945092505050565b5f5f5f60608486031215616d6b575f5ffd5b616d7484616a2e565b9250616d8260208501616a2e565b91506040840135616d92816167ae565b809150509250925092565b5f5f60408385031215616dae575f5ffd5b8235616a63816167ae565b5f60208284031215616dc9575f5ffd5b611aae82616a2e565b602080825282518282018190525f918401906040840190835b818110156169b857616e3183855167ffffffffffffffff81511682526001600160601b0360208201511660208301526001600160601b0360408201511660408301525050565b6020939093019260609290920191600101616deb565b5f8151808452602084019350602083015f5b82811015616e805781516001600160601b0316865260209586019590910190600101616e59565b5093949350505050565b6001600160601b03851681526001600160601b0384166020820152608060408201525f616eba6080830185616e47565b8281036060840152616ecc8185616e47565b979650505050505050565b600181811c90821680616eeb57607f821691505b6020821081036140db57634e487b7160e01b5f52602260045260245ffd5b634e487b7160e01b5f52603260045260245ffd5b634e487b7160e01b5f52601160045260245ffd5b5f67ffffffffffffffff821667ffffffffffffffff8103616f5457616f54616f1d565b60010192915050565b808202811582820484141761136b5761136b616f1d565b634e487b7160e01b5f52601260045260245ffd5b5f82616f9657616f96616f74565b500490565b6001600160601b03828116828216039081111561136b5761136b616f1d565b6001600160601b03818116838216019081111561136b5761136b616f1d565b8181038181111561136b5761136b616f1d565b64ffffffffff828116828216039081111561136b5761136b616f1d565b64ffffffffff818116838216019081111561136b5761136b616f1d565b5f5f5f5f5f5f5f60e0888a03121561703c575f5ffd5b5050855160208701516040880151606089015160808a015160a08b015160c0909b0151949c939b50919990985090965094509092509050565b8082018082111561136b5761136b616f1d565b67ffffffffffffffff818116838216019081111561136b5761136b616f1d565b634e487b7160e01b5f52603160045260245ffd5b5f602082840312156170cc575f5ffd5b8151611aae816169c3565b60ff828116828216039081111561136b5761136b616f1d565b5f826170fe576170fe616f74565b500690565b5f60208284031215617113575f5ffd5b5051919050565b5f5f6040838503121561712b575f5ffd5b825161713681616831565b6020840151909250616918816169c3565b60ff818116838216019081111561136b5761136b616f1d565b601f82111561202657805f5260205f20601f840160051c810160208510156171855750805b601f840160051c820191505b81811015615e02575f8155600101617191565b815167ffffffffffffffff8111156171be576171be6167ec565b6171d2816171cc8454616ed7565b84617160565b6020601f821160018114617204575f83156171ed5750848201515b5f19600385901b1c1916600184901b178455615e02565b5f84815260208120601f198516915b828110156172335787850151825560209485019460019092019101617213565b508482101561725057868401515f19600387901b60f8161c191681555b50505050600190811b01905550565b5f82518060208501845e5f92019182525091905056fea26469706673582212208f7f67b22d98493efcff52a06bd4be88ad86d54362bd0007fd694247eafd44b564736f6c634300081e0033","linkReferences":{}},"methodIdentifiers":{"DEFAULT_ADMIN_ROLE()":"a217fddf","MINIMUM_CONTRIBUTE_THRESHOLD()":"86bb1d6e","ROLE_ADD_NODE()":"22fd4ad5","ROLE_DISABLE_NODE()":"e8ce8922","ROLE_FEE_CLAIMER()":"06c7dbc4","ROLE_FEE_EXEMPTION()":"a30fefe1","ROLE_FEE_SETTER()":"1b8e0db6","ROLE_PAUSE()":"4ff0241a","ROLE_REMOVE_NODE()":"5838b2fe","ROLE_TOGGLE_INSTANT_UNLOCK()":"4c3a045c","ROLE_UPDATE_WEIGHTS()":"63311d3d","ROLE_UPGRADE()":"2a7d8acb","UPGRADE_INTERFACE_VERSION()":"ad3cb1cc","addNode(uint64)":"337b2b6e","allowance(address,address)":"dd62ed3e","approve(address,uint256)":"095ea7b3","balanceOf(address)":"70a08231","batchDepositRequests(uint256)":"77654f34","batchSubmissions(uint256)":"78f908e1","batchWithdrawRequests(uint256)":"4beae6e3","cancelUnlockRequest(uint256)":"1610247b","claimProtocolFees(address)":"69ce6d47","compound(uint64[])":"cf5e2743","contributeToPool(address)":"a0e3cdd6","convertToAssets(uint96)":"fb9848e4","convertToShares(uint96)":"df235fe6","currentBatchId()":"0a763da1","decimals()":"313ce567","deposit(uint96,address)":"1c3477dd","disableNode(uint64)":"d8a9fe50","getAllUserUnlockRequests(address)":"0b52f7b1","getDelegator(uint64,address)":"573c1ce0","getExitFeeBips()":"fde73f7d","getImbalances(uint96)":"f6516e7f","getInstantUnlockableShares()":"b6f12b94","getManagementFeeBips()":"bf7df8e0","getMintableProtocolShares()":"615bfc45","getNodeIds()":"3e367afa","getNodes()":"e29581aa","getRoleAdmin(bytes32)":"248a9ca3","getWithdrawIds(uint64)":"3b5b4765","getWithdrawIdsSize(uint64)":"7a6d59d5","grantRole(bytes32,address)":"2f2ff15d","hasRole(bytes32,address)":"91d14854","initialize(address)":"c4d66de8","instantUnlock(uint96,uint96,address)":"a4bd422c","isExitFeeExempt(address)":"0bf14d9b","isForceWithdrawPending(uint64)":"2584601f","isInstantUnlockEnabled()":"4a8a268f","isNodeDisabled(uint64)":"d6531de5","name()":"06fdde03","nodes(uint256)":"1c53c280","pause()":"8456cb59","paused()":"5c975abb","proxiableUUID()":"52d1902d","redeem(uint256,address)":"7bde82f2","removeNode(uint64)":"aedf6d51","renounceRole(bytes32,address)":"36568abe","requestUnlock(uint96,uint96)":"24f67e18","revokeRole(bytes32,address)":"d547741f","setExitFee(uint16)":"f75b0404","setExitFeeExemption(address,bool)":"15230e80","setInstantUnlock(bool)":"19ddf95b","setManagementFee(uint16)":"8dd09af3","submitBatch()":"46115383","supportsInterface(bytes4)":"01ffc9a7","sweep(uint64[],uint8)":"0a9f9ee2","sweepForced(uint64[])":"43abcf32","symbol()":"95d89b41","totalPooled()":"6ec21cc8","totalShares()":"3a98ef39","totalSupply()":"18160ddd","totalWeight()":"96c82e57","transfer(address,uint256)":"a9059cbb","transferFrom(address,address,uint256)":"23b872dd","unbondDisableNode(uint64)":"733897b7","unpause()":"3f4ba83a","updateWeights((uint64,uint96,bool)[])":"a4b0b5a3","upgradeToAndCall(address,bytes)":"4f1ef286","userUnlockRequests(address,uint256)":"fd012e34","viewNodeByNodeId(uint64)":"540a26f3"},"id":57}