{"abi":[{"type":"constructor","inputs":[],"stateMutability":"nonpayable"},{"type":"receive","stateMutability":"payable"},{"type":"function","name":"DEFAULT_ADMIN_ROLE","inputs":[],"outputs":[{"name":"","type":"bytes32","internalType":"bytes32"}],"stateMutability":"view"},{"type":"function","name":"MINIMUM_CONTRIBUTE_THRESHOLD","inputs":[],"outputs":[{"name":"","type":"uint256","internalType":"uint256"}],"stateMutability":"view"},{"type":"function","name":"ROLE_ADD_NODE","inputs":[],"outputs":[{"name":"","type":"bytes32","internalType":"bytes32"}],"stateMutability":"view"},{"type":"function","name":"ROLE_DISABLE_NODE","inputs":[],"outputs":[{"name":"","type":"bytes32","internalType":"bytes32"}],"stateMutability":"view"},{"type":"function","name":"ROLE_FEE_CLAIMER","inputs":[],"outputs":[{"name":"","type":"bytes32","internalType":"bytes32"}],"stateMutability":"view"},{"type":"function","name":"ROLE_FEE_EXEMPTION","inputs":[],"outputs":[{"name":"","type":"bytes32","internalType":"bytes32"}],"stateMutability":"view"},{"type":"function","name":"ROLE_FEE_SETTER","inputs":[],"outputs":[{"name":"","type":"bytes32","internalType":"bytes32"}],"stateMutability":"view"},{"type":"function","name":"ROLE_PAUSE","inputs":[],"outputs":[{"name":"","type":"bytes32","internalType":"bytes32"}],"stateMutability":"view"},{"type":"function","name":"ROLE_REMOVE_NODE","inputs":[],"outputs":[{"name":"","type":"bytes32","internalType":"bytes32"}],"stateMutability":"view"},{"type":"function","name":"ROLE_UPDATE_WEIGHTS","inputs":[],"outputs":[{"name":"","type":"bytes32","internalType":"bytes32"}],"stateMutability":"view"},{"type":"function","name":"ROLE_UPGRADE","inputs":[],"outputs":[{"name":"","type":"bytes32","internalType":"bytes32"}],"stateMutability":"view"},{"type":"function","name":"UPGRADE_INTERFACE_VERSION","inputs":[],"outputs":[{"name":"","type":"string","internalType":"string"}],"stateMutability":"view"},{"type":"function","name":"addNode","inputs":[{"name":"nodeId","type":"uint64","internalType":"uint64"}],"outputs":[],"stateMutability":"nonpayable"},{"type":"function","name":"allowance","inputs":[{"name":"owner","type":"address","internalType":"address"},{"name":"spender","type":"address","internalType":"address"}],"outputs":[{"name":"","type":"uint256","internalType":"uint256"}],"stateMutability":"view"},{"type":"function","name":"approve","inputs":[{"name":"spender","type":"address","internalType":"address"},{"name":"value","type":"uint256","internalType":"uint256"}],"outputs":[{"name":"","type":"bool","internalType":"bool"}],"stateMutability":"nonpayable"},{"type":"function","name":"balanceOf","inputs":[{"name":"account","type":"address","internalType":"address"}],"outputs":[{"name":"","type":"uint256","internalType":"uint256"}],"stateMutability":"view"},{"type":"function","name":"batchDepositRequests","inputs":[{"name":"","type":"uint256","internalType":"uint256"}],"outputs":[{"name":"assets","type":"uint96","internalType":"uint96"},{"name":"shares","type":"uint96","internalType":"uint96"}],"stateMutability":"view"},{"type":"function","name":"batchSubmissions","inputs":[{"name":"","type":"uint256","internalType":"uint256"}],"outputs":[{"name":"submissionEpoch","type":"uint64","internalType":"uint64"},{"name":"activationEpoch","type":"uint64","internalType":"uint64"}],"stateMutability":"view"},{"type":"function","name":"batchWithdrawRequests","inputs":[{"name":"","type":"uint256","internalType":"uint256"}],"outputs":[{"name":"assets","type":"uint96","internalType":"uint96"},{"name":"shares","type":"uint96","internalType":"uint96"}],"stateMutability":"view"},{"type":"function","name":"cancelUnlockRequest","inputs":[{"name":"unlockIndex","type":"uint256","internalType":"uint256"}],"outputs":[],"stateMutability":"nonpayable"},{"type":"function","name":"claimProtocolFees","inputs":[{"name":"to","type":"address","internalType":"address"}],"outputs":[],"stateMutability":"nonpayable"},{"type":"function","name":"compound","inputs":[{"name":"nodeIds","type":"uint64[]","internalType":"uint64[]"}],"outputs":[],"stateMutability":"nonpayable"},{"type":"function","name":"contributeToPool","inputs":[{"name":"benefactor","type":"address","internalType":"address"}],"outputs":[],"stateMutability":"payable"},{"type":"function","name":"convertToAssets","inputs":[{"name":"shares","type":"uint96","internalType":"uint96"}],"outputs":[{"name":"assets","type":"uint96","internalType":"uint96"}],"stateMutability":"view"},{"type":"function","name":"convertToShares","inputs":[{"name":"assets","type":"uint96","internalType":"uint96"}],"outputs":[{"name":"shares","type":"uint96","internalType":"uint96"}],"stateMutability":"view"},{"type":"function","name":"currentBatchId","inputs":[],"outputs":[{"name":"","type":"uint40","internalType":"uint40"}],"stateMutability":"view"},{"type":"function","name":"decimals","inputs":[],"outputs":[{"name":"","type":"uint8","internalType":"uint8"}],"stateMutability":"view"},{"type":"function","name":"deposit","inputs":[{"name":"minShares","type":"uint96","internalType":"uint96"},{"name":"receiver","type":"address","internalType":"address"}],"outputs":[{"name":"shares","type":"uint96","internalType":"uint96"}],"stateMutability":"payable"},{"type":"function","name":"disableNode","inputs":[{"name":"nodeId","type":"uint64","internalType":"uint64"}],"outputs":[],"stateMutability":"nonpayable"},{"type":"function","name":"getAllUserUnlockRequests","inputs":[{"name":"user","type":"address","internalType":"address"}],"outputs":[{"name":"","type":"tuple[]","internalType":"struct StakedMonad.UnlockRequest[]","components":[{"name":"shares","type":"uint96","internalType":"uint96"},{"name":"spotValue","type":"uint96","internalType":"uint96"},{"name":"batchId","type":"uint40","internalType":"uint40"},{"name":"exitFeeInBips","type":"uint16","internalType":"uint16"}]}],"stateMutability":"view"},{"type":"function","name":"getDelegator","inputs":[{"name":"val_id","type":"uint64","internalType":"uint64"},{"name":"delegator","type":"address","internalType":"address"}],"outputs":[{"name":"stake","type":"uint256","internalType":"uint256"},{"name":"acc_reward_per_token","type":"uint256","internalType":"uint256"},{"name":"rewards","type":"uint256","internalType":"uint256"},{"name":"delta_stake","type":"uint256","internalType":"uint256"},{"name":"next_delta_stake","type":"uint256","internalType":"uint256"},{"name":"delta_epoch","type":"uint256","internalType":"uint256"},{"name":"next_delta_epoch","type":"uint256","internalType":"uint256"}],"stateMutability":"nonpayable"},{"type":"function","name":"getExitFeeBips","inputs":[],"outputs":[{"name":"","type":"uint16","internalType":"uint16"}],"stateMutability":"view"},{"type":"function","name":"getImbalances","inputs":[{"name":"newTotalStaked","type":"uint96","internalType":"uint96"}],"outputs":[{"name":"overAllocation","type":"uint96","internalType":"uint96"},{"name":"underAllocation","type":"uint96","internalType":"uint96"},{"name":"overAllocations","type":"uint96[]","internalType":"uint96[]"},{"name":"underAllocations","type":"uint96[]","internalType":"uint96[]"}],"stateMutability":"view"},{"type":"function","name":"getManagementFeeBips","inputs":[],"outputs":[{"name":"","type":"uint16","internalType":"uint16"}],"stateMutability":"view"},{"type":"function","name":"getMintableProtocolShares","inputs":[],"outputs":[{"name":"shares","type":"uint96","internalType":"uint96"}],"stateMutability":"view"},{"type":"function","name":"getNodeIds","inputs":[],"outputs":[{"name":"","type":"uint256[]","internalType":"uint256[]"}],"stateMutability":"view"},{"type":"function","name":"getNodes","inputs":[],"outputs":[{"name":"","type":"tuple[]","internalType":"struct Registry.Node[]","components":[{"name":"id","type":"uint64","internalType":"uint64"},{"name":"weight","type":"uint96","internalType":"uint96"},{"name":"staked","type":"uint96","internalType":"uint96"}]}],"stateMutability":"view"},{"type":"function","name":"getRoleAdmin","inputs":[{"name":"role","type":"bytes32","internalType":"bytes32"}],"outputs":[{"name":"","type":"bytes32","internalType":"bytes32"}],"stateMutability":"view"},{"type":"function","name":"getWithdrawIds","inputs":[{"name":"val_id","type":"uint64","internalType":"uint64"}],"outputs":[{"name":"","type":"uint8[]","internalType":"uint8[]"}],"stateMutability":"view"},{"type":"function","name":"getWithdrawIdsSize","inputs":[{"name":"val_id","type":"uint64","internalType":"uint64"}],"outputs":[{"name":"","type":"uint256","internalType":"uint256"}],"stateMutability":"view"},{"type":"function","name":"grantRole","inputs":[{"name":"role","type":"bytes32","internalType":"bytes32"},{"name":"account","type":"address","internalType":"address"}],"outputs":[],"stateMutability":"nonpayable"},{"type":"function","name":"hasRole","inputs":[{"name":"role","type":"bytes32","internalType":"bytes32"},{"name":"account","type":"address","internalType":"address"}],"outputs":[{"name":"","type":"bool","internalType":"bool"}],"stateMutability":"view"},{"type":"function","name":"initialize","inputs":[{"name":"admin","type":"address","internalType":"address"}],"outputs":[],"stateMutability":"payable"},{"type":"function","name":"isExitFeeExempt","inputs":[{"name":"","type":"address","internalType":"address"}],"outputs":[{"name":"","type":"bool","internalType":"bool"}],"stateMutability":"view"},{"type":"function","name":"isForceWithdrawPending","inputs":[{"name":"val_id","type":"uint64","internalType":"uint64"}],"outputs":[{"name":"","type":"bool","internalType":"bool"}],"stateMutability":"view"},{"type":"function","name":"isNodeDisabled","inputs":[{"name":"","type":"uint64","internalType":"uint64"}],"outputs":[{"name":"","type":"bool","internalType":"bool"}],"stateMutability":"view"},{"type":"function","name":"name","inputs":[],"outputs":[{"name":"","type":"string","internalType":"string"}],"stateMutability":"view"},{"type":"function","name":"nodes","inputs":[{"name":"","type":"uint256","internalType":"uint256"}],"outputs":[{"name":"id","type":"uint64","internalType":"uint64"},{"name":"weight","type":"uint96","internalType":"uint96"},{"name":"staked","type":"uint96","internalType":"uint96"}],"stateMutability":"view"},{"type":"function","name":"pause","inputs":[],"outputs":[],"stateMutability":"nonpayable"},{"type":"function","name":"paused","inputs":[],"outputs":[{"name":"","type":"bool","internalType":"bool"}],"stateMutability":"view"},{"type":"function","name":"proxiableUUID","inputs":[],"outputs":[{"name":"","type":"bytes32","internalType":"bytes32"}],"stateMutability":"view"},{"type":"function","name":"redeem","inputs":[{"name":"unlockIndex","type":"uint256","internalType":"uint256"},{"name":"receiver","type":"address","internalType":"address payable"}],"outputs":[{"name":"assets","type":"uint96","internalType":"uint96"}],"stateMutability":"nonpayable"},{"type":"function","name":"removeNode","inputs":[{"name":"nodeId","type":"uint64","internalType":"uint64"}],"outputs":[],"stateMutability":"nonpayable"},{"type":"function","name":"renounceRole","inputs":[{"name":"role","type":"bytes32","internalType":"bytes32"},{"name":"callerConfirmation","type":"address","internalType":"address"}],"outputs":[],"stateMutability":"nonpayable"},{"type":"function","name":"requestUnlock","inputs":[{"name":"shares","type":"uint96","internalType":"uint96"},{"name":"minSpotValue","type":"uint96","internalType":"uint96"}],"outputs":[{"name":"spotValue","type":"uint96","internalType":"uint96"}],"stateMutability":"nonpayable"},{"type":"function","name":"revokeRole","inputs":[{"name":"role","type":"bytes32","internalType":"bytes32"},{"name":"account","type":"address","internalType":"address"}],"outputs":[],"stateMutability":"nonpayable"},{"type":"function","name":"setExitFee","inputs":[{"name":"newFee","type":"uint16","internalType":"uint16"}],"outputs":[],"stateMutability":"nonpayable"},{"type":"function","name":"setExitFeeExemption","inputs":[{"name":"user","type":"address","internalType":"address"},{"name":"isExempt","type":"bool","internalType":"bool"}],"outputs":[],"stateMutability":"nonpayable"},{"type":"function","name":"setManagementFee","inputs":[{"name":"newFee","type":"uint16","internalType":"uint16"}],"outputs":[],"stateMutability":"nonpayable"},{"type":"function","name":"submitBatch","inputs":[],"outputs":[],"stateMutability":"nonpayable"},{"type":"function","name":"supportsInterface","inputs":[{"name":"interfaceId","type":"bytes4","internalType":"bytes4"}],"outputs":[{"name":"","type":"bool","internalType":"bool"}],"stateMutability":"view"},{"type":"function","name":"sweep","inputs":[{"name":"nodeIds","type":"uint64[]","internalType":"uint64[]"},{"name":"maxWithdrawsPerNode","type":"uint8","internalType":"uint8"}],"outputs":[],"stateMutability":"nonpayable"},{"type":"function","name":"sweepForced","inputs":[{"name":"nodeIds","type":"uint64[]","internalType":"uint64[]"}],"outputs":[],"stateMutability":"nonpayable"},{"type":"function","name":"symbol","inputs":[],"outputs":[{"name":"","type":"string","internalType":"string"}],"stateMutability":"view"},{"type":"function","name":"totalPooled","inputs":[],"outputs":[{"name":"","type":"uint96","internalType":"uint96"}],"stateMutability":"view"},{"type":"function","name":"totalShares","inputs":[],"outputs":[{"name":"","type":"uint96","internalType":"uint96"}],"stateMutability":"view"},{"type":"function","name":"totalSupply","inputs":[],"outputs":[{"name":"","type":"uint256","internalType":"uint256"}],"stateMutability":"view"},{"type":"function","name":"totalWeight","inputs":[],"outputs":[{"name":"","type":"uint256","internalType":"uint256"}],"stateMutability":"view"},{"type":"function","name":"transfer","inputs":[{"name":"to","type":"address","internalType":"address"},{"name":"value","type":"uint256","internalType":"uint256"}],"outputs":[{"name":"","type":"bool","internalType":"bool"}],"stateMutability":"nonpayable"},{"type":"function","name":"transferFrom","inputs":[{"name":"from","type":"address","internalType":"address"},{"name":"to","type":"address","internalType":"address"},{"name":"value","type":"uint256","internalType":"uint256"}],"outputs":[{"name":"","type":"bool","internalType":"bool"}],"stateMutability":"nonpayable"},{"type":"function","name":"unbondDisableNode","inputs":[{"name":"nodeId","type":"uint64","internalType":"uint64"}],"outputs":[],"stateMutability":"nonpayable"},{"type":"function","name":"unpause","inputs":[],"outputs":[],"stateMutability":"nonpayable"},{"type":"function","name":"updateWeights","inputs":[{"name":"weightDeltas","type":"tuple[]","internalType":"struct Registry.WeightDelta[]","components":[{"name":"nodeId","type":"uint64","internalType":"uint64"},{"name":"delta","type":"uint96","internalType":"uint96"},{"name":"isIncreasing","type":"bool","internalType":"bool"}]}],"outputs":[],"stateMutability":"nonpayable"},{"type":"function","name":"upgradeToAndCall","inputs":[{"name":"newImplementation","type":"address","internalType":"address"},{"name":"data","type":"bytes","internalType":"bytes"}],"outputs":[],"stateMutability":"payable"},{"type":"function","name":"userUnlockRequests","inputs":[{"name":"","type":"address","internalType":"address"},{"name":"","type":"uint256","internalType":"uint256"}],"outputs":[{"name":"shares","type":"uint96","internalType":"uint96"},{"name":"spotValue","type":"uint96","internalType":"uint96"},{"name":"batchId","type":"uint40","internalType":"uint40"},{"name":"exitFeeInBips","type":"uint16","internalType":"uint16"}],"stateMutability":"view"},{"type":"function","name":"viewNodeByNodeId","inputs":[{"name":"nodeId","type":"uint64","internalType":"uint64"}],"outputs":[{"name":"node","type":"tuple","internalType":"struct Registry.Node","components":[{"name":"id","type":"uint64","internalType":"uint64"},{"name":"weight","type":"uint96","internalType":"uint96"},{"name":"staked","type":"uint96","internalType":"uint96"}]}],"stateMutability":"view"},{"type":"event","name":"Approval","inputs":[{"name":"owner","type":"address","indexed":true,"internalType":"address"},{"name":"spender","type":"address","indexed":true,"internalType":"address"},{"name":"value","type":"uint256","indexed":false,"internalType":"uint256"}],"anonymous":false},{"type":"event","name":"Contribution","inputs":[{"name":"amount","type":"uint256","indexed":false,"internalType":"uint256"},{"name":"benefactor","type":"address","indexed":false,"internalType":"address"}],"anonymous":false},{"type":"event","name":"ExitFeeAdjusted","inputs":[{"name":"newFee","type":"uint256","indexed":false,"internalType":"uint256"}],"anonymous":false},{"type":"event","name":"FeesWithdrawn","inputs":[{"name":"managementFeeShares","type":"uint256","indexed":false,"internalType":"uint256"},{"name":"exitFeeShares","type":"uint256","indexed":false,"internalType":"uint256"}],"anonymous":false},{"type":"event","name":"Initialized","inputs":[{"name":"version","type":"uint64","indexed":false,"internalType":"uint64"}],"anonymous":false},{"type":"event","name":"ManagementFeeAdjusted","inputs":[{"name":"newFee","type":"uint256","indexed":false,"internalType":"uint256"}],"anonymous":false},{"type":"event","name":"NodeAdded","inputs":[{"name":"nodeId","type":"uint64","indexed":false,"internalType":"uint64"},{"name":"index","type":"uint256","indexed":false,"internalType":"uint256"}],"anonymous":false},{"type":"event","name":"NodeDisabled","inputs":[{"name":"nodeId","type":"uint64","indexed":false,"internalType":"uint64"}],"anonymous":false},{"type":"event","name":"NodeRemoved","inputs":[{"name":"nodeId","type":"uint64","indexed":false,"internalType":"uint64"}],"anonymous":false},{"type":"event","name":"NodeUpdated","inputs":[{"name":"nodeId","type":"uint64","indexed":true,"internalType":"uint64"},{"name":"newWeight","type":"uint256","indexed":false,"internalType":"uint256"}],"anonymous":false},{"type":"event","name":"Paused","inputs":[{"name":"account","type":"address","indexed":false,"internalType":"address"}],"anonymous":false},{"type":"event","name":"RoleAdminChanged","inputs":[{"name":"role","type":"bytes32","indexed":true,"internalType":"bytes32"},{"name":"previousAdminRole","type":"bytes32","indexed":true,"internalType":"bytes32"},{"name":"newAdminRole","type":"bytes32","indexed":true,"internalType":"bytes32"}],"anonymous":false},{"type":"event","name":"RoleGranted","inputs":[{"name":"role","type":"bytes32","indexed":true,"internalType":"bytes32"},{"name":"account","type":"address","indexed":true,"internalType":"address"},{"name":"sender","type":"address","indexed":true,"internalType":"address"}],"anonymous":false},{"type":"event","name":"RoleRevoked","inputs":[{"name":"role","type":"bytes32","indexed":true,"internalType":"bytes32"},{"name":"account","type":"address","indexed":true,"internalType":"address"},{"name":"sender","type":"address","indexed":true,"internalType":"address"}],"anonymous":false},{"type":"event","name":"Transfer","inputs":[{"name":"from","type":"address","indexed":true,"internalType":"address"},{"name":"to","type":"address","indexed":true,"internalType":"address"},{"name":"value","type":"uint256","indexed":false,"internalType":"uint256"}],"anonymous":false},{"type":"event","name":"UnlockCancelled","inputs":[{"name":"staker","type":"address","indexed":true,"internalType":"address"},{"name":"unlockId","type":"uint256","indexed":false,"internalType":"uint256"}],"anonymous":false},{"type":"event","name":"UnlockRedeemed","inputs":[{"name":"staker","type":"address","indexed":true,"internalType":"address"},{"name":"unlockId","type":"uint256","indexed":false,"internalType":"uint256"},{"name":"amount","type":"uint256","indexed":false,"internalType":"uint256"}],"anonymous":false},{"type":"event","name":"UnlockRequested","inputs":[{"name":"staker","type":"address","indexed":true,"internalType":"address"},{"name":"unlockId","type":"uint256","indexed":false,"internalType":"uint256"},{"name":"shares","type":"uint256","indexed":false,"internalType":"uint256"},{"name":"spotValue","type":"uint256","indexed":false,"internalType":"uint256"},{"name":"toll","type":"uint256","indexed":false,"internalType":"uint256"}],"anonymous":false},{"type":"event","name":"Unpaused","inputs":[{"name":"account","type":"address","indexed":false,"internalType":"address"}],"anonymous":false},{"type":"event","name":"Upgraded","inputs":[{"name":"implementation","type":"address","indexed":true,"internalType":"address"}],"anonymous":false},{"type":"error","name":"AccessControlBadConfirmation","inputs":[]},{"type":"error","name":"AccessControlUnauthorizedAccount","inputs":[{"name":"account","type":"address","internalType":"address"},{"name":"neededRole","type":"bytes32","internalType":"bytes32"}]},{"type":"error","name":"ActiveNode","inputs":[]},{"type":"error","name":"AddressEmptyCode","inputs":[{"name":"target","type":"address","internalType":"address"}]},{"type":"error","name":"BatchNotSubmitted","inputs":[]},{"type":"error","name":"CancellationWindowClosed","inputs":[]},{"type":"error","name":"DepositOverflow","inputs":[]},{"type":"error","name":"DuplicateNode","inputs":[]},{"type":"error","name":"ERC1967InvalidImplementation","inputs":[{"name":"implementation","type":"address","internalType":"address"}]},{"type":"error","name":"ERC1967NonPayable","inputs":[]},{"type":"error","name":"ERC20InsufficientAllowance","inputs":[{"name":"spender","type":"address","internalType":"address"},{"name":"allowance","type":"uint256","internalType":"uint256"},{"name":"needed","type":"uint256","internalType":"uint256"}]},{"type":"error","name":"ERC20InsufficientBalance","inputs":[{"name":"sender","type":"address","internalType":"address"},{"name":"balance","type":"uint256","internalType":"uint256"},{"name":"needed","type":"uint256","internalType":"uint256"}]},{"type":"error","name":"ERC20InvalidApprover","inputs":[{"name":"approver","type":"address","internalType":"address"}]},{"type":"error","name":"ERC20InvalidReceiver","inputs":[{"name":"receiver","type":"address","internalType":"address"}]},{"type":"error","name":"ERC20InvalidSender","inputs":[{"name":"sender","type":"address","internalType":"address"}]},{"type":"error","name":"ERC20InvalidSpender","inputs":[{"name":"spender","type":"address","internalType":"address"}]},{"type":"error","name":"EmptyBatch","inputs":[]},{"type":"error","name":"EnforcedPause","inputs":[]},{"type":"error","name":"ExpectedPause","inputs":[]},{"type":"error","name":"FailedCall","inputs":[]},{"type":"error","name":"FeeTooLarge","inputs":[]},{"type":"error","name":"InsufficientPendingWithdrawals","inputs":[]},{"type":"error","name":"InvalidInitialization","inputs":[]},{"type":"error","name":"InvalidNode","inputs":[]},{"type":"error","name":"MaxPendingWithdrawals","inputs":[]},{"type":"error","name":"MinimumBatchDelay","inputs":[]},{"type":"error","name":"MinimumContributeThreshold","inputs":[]},{"type":"error","name":"MinimumDeposit","inputs":[]},{"type":"error","name":"MinimumUnlock","inputs":[]},{"type":"error","name":"NoChange","inputs":[]},{"type":"error","name":"NotInitializing","inputs":[]},{"type":"error","name":"PendingWithdrawals","inputs":[]},{"type":"error","name":"PrecompileCallFailed","inputs":[]},{"type":"error","name":"TransferFailed","inputs":[]},{"type":"error","name":"UUPSUnauthorizedCallContext","inputs":[]},{"type":"error","name":"UUPSUnsupportedProxiableUUID","inputs":[{"name":"slot","type":"bytes32","internalType":"bytes32"}]},{"type":"error","name":"WithdrawDelay","inputs":[]},{"type":"error","name":"ZeroTotalWeight","inputs":[]}],"bytecode":{"object":"0x60a060405230608052348015610013575f5ffd5b5061001c610021565b6100d3565b7ff0c57e16840df040f15088dc2f81fe391c3923bec73e23a9662efc9c229c6a00805468010000000000000000900460ff16156100715760405163f92ee8a960e01b815260040160405180910390fd5b80546001600160401b03908116146100d05780546001600160401b0319166001600160401b0390811782556040519081527fc7f505b2f371ae2175ee4913f4499e1f2633a7b5936321eed1cdaeb6115181d29060200160405180910390a15b50565b608051616e926100f95f395f8181614f7701528181614fa001526151720152616e925ff3fe6080604052600436106104ee575f3560e01c8063615bfc4511610285578063a4b0b5a311610156578063d8a9fe50116100d1578063f6516e7f11610087578063fb9848e41161006d578063fb9848e414611160578063fd012e341461117f578063fde73f7d146111d9575f5ffd5b8063f6516e7f14611112578063f75b040414611141575f5ffd5b8063df235fe6116100b7578063df235fe61461109f578063e29581aa146110be578063e8ce8922146110df575f5ffd5b8063d8a9fe501461101d578063dd62ed3e1461103c575f5ffd5b8063bf7df8e011610126578063cf5e27431161010c578063cf5e274314610fb1578063d547741f14610fd0578063d6531de514610fef575f5ffd5b8063bf7df8e014610f77578063c4d66de814610f9e575f5ffd5b8063a4b0b5a314610ed2578063a9059cbb14610ef1578063ad3cb1cc14610f10578063aedf6d5114610f58575f5ffd5b80637bde82f21161020057806395d89b41116101b6578063a0e3cdd61161019c578063a0e3cdd614610e79578063a217fddf14610e8c578063a30fefe114610e9f575f5ffd5b806395d89b4114610e5057806396c82e5714610e64575f5ffd5b806386bb1d6e116101e657806386bb1d6e14610db15780638dd09af314610dce57806391d1485414610ded575f5ffd5b80637bde82f214610d7e5780638456cb5914610d9d575f5ffd5b806370a082311161025557806377654f341161023b57806377654f3414610c8257806378f908e114610cc15780637a6d59d514610d22575f5ffd5b806370a0823114610c10578063733897b714610c63575f5ffd5b8063615bfc4514610b8b57806363311d3d14610b9f57806369ce6d4714610bd25780636ec21cc814610bf1575f5ffd5b80632a7d8acb116103bf57806343abcf321161033a57806352d1902d116102f0578063573c1ce0116102d6578063573c1ce014610ace5780635838b2fe14610b225780635c975abb14610b55575f5ffd5b806352d1902d14610a8e578063540a26f314610aa2575f5ffd5b80634beae6e3116103205780634beae6e3146109e95780634f1ef28614610a485780634ff0241a14610a5b575f5ffd5b806343abcf32146109b657806346115383146109d5575f5ffd5b806336568abe1161038f5780633b5b4765116103755780633b5b4765146109555780633e367afa146109815780633f4ba83a146109a2575f5ffd5b806336568abe146109225780633a98ef3914610941575f5ffd5b80632a7d8acb146108965780632f2ff15d146108c9578063313ce567146108e8578063337b2b6e14610903575f5ffd5b80631610247b1161046957806322fd4ad51161041f578063248a9ca311610405578063248a9ca3146107d357806324f67e18146108205780632584601f1461083f575f5ffd5b806322fd4ad51461078157806323b872dd146107b4575f5ffd5b80631b8e0db61161044f5780631b8e0db6146106d45780631c3477dd146107075780631c53c28014610732575f5ffd5b80631610247b1461068257806318160ddd146106a1575f5ffd5b80630a763da1116104be5780630b52f7b1116104a45780630b52f7b1146106095780630bf14d9b1461063557806315230e8014610663575f5ffd5b80630a763da1146105ae5780630a9f9ee2146105e8575f5ffd5b806301ffc9a7146104f957806306c7dbc41461052d57806306fdde031461056e578063095ea7b31461058f575f5ffd5b366104f557005b5f5ffd5b348015610504575f5ffd5b50610518610513366004616365565b6111f1565b60405190151581526020015b60405180910390f35b348015610538575f5ffd5b506105607f359946d964cb1f92e24841dd25d0e8706f1ab6dd13500522367deddd927658d881565b604051908152602001610524565b348015610579575f5ffd5b50610582611289565b60405161052491906163a4565b34801561059a575f5ffd5b506105186105a93660046163ed565b61135c565b3480156105b9575f5ffd5b506046546105d290600160601b900464ffffffffff1681565b60405164ffffffffff9091168152602001610524565b3480156105f3575f5ffd5b506106076106023660046164fa565b611373565b005b348015610614575f5ffd5b5061062861062336600461654e565b6113d4565b6040516105249190616569565b348015610640575f5ffd5b5061051861064f36600461654e565b60496020525f908152604090205460ff1681565b34801561066e575f5ffd5b5061060761067d3660046165fb565b611482565b34801561068d575f5ffd5b5061060761069c366004616627565b6114d7565b3480156106ac575f5ffd5b507f52c63247e1f47db19d5ce0460030c497f067ca4cebf71ba98eeadabe20bace0254610560565b3480156106df575f5ffd5b506105607f13172b8201242833f26d88301b6e27aa2235ec2d9b2c92a1ed33678f0ee068fa81565b61071a610715366004616659565b611775565b6040516001600160601b039091168152602001610524565b34801561073d575f5ffd5b5061075161074c366004616627565b6118f2565b6040805167ffffffffffffffff90941684526001600160601b039283166020850152911690820152606001610524565b34801561078c575f5ffd5b506105607f902b1971fb3d9217703fb59d9a8bf53ee64da1be6756f20cebc090dd4c37f7d881565b3480156107bf575f5ffd5b506105186107ce366004616683565b611936565b3480156107de575f5ffd5b506105606107ed366004616627565b5f9081527f02dd7bc7dec4dceedda775e58dd541e08a116c6c53815c0bd028192f7b626800602052604090206001015490565b34801561082b575f5ffd5b5061071a61083a3660046166c1565b61195b565b34801561084a575f5ffd5b506105186108593660046166f2565b67ffffffffffffffff165f9081527fd5d321e774be746819c1749e69f27b3f3e063f791b56826404d788d5a63ed601602052604090205460ff1690565b3480156108a1575f5ffd5b506105607f1ea2b19b7ab22acb68ebeb58b5cb9eab43e3e119ebbd3159fdcddfc5b8c538b881565b3480156108d4575f5ffd5b506106076108e336600461670d565b611ce7565b3480156108f3575f5ffd5b5060405160128152602001610524565b34801561090e575f5ffd5b5061060761091d3660046166f2565b611d2a565b34801561092d575f5ffd5b5061060761093c36600461670d565b611e80565b34801561094c575f5ffd5b5061071a611ed1565b348015610960575f5ffd5b5061097461096f3660046166f2565b611f0b565b6040516105249190616730565b34801561098c575f5ffd5b50610995611ffa565b604051610524919061676a565b3480156109ad575f5ffd5b50610607612005565b3480156109c1575f5ffd5b506106076109d03660046167a1565b61203a565b3480156109e0575f5ffd5b5061060761210b565b3480156109f4575f5ffd5b50610a28610a03366004616627565b604c6020525f90815260409020546001600160601b0380821691600160601b90041682565b604080516001600160601b03938416815292909116602083015201610524565b610607610a563660046167d3565b6125b2565b348015610a66575f5ffd5b506105607ff146182d150a5b368b6d283f87aeae1f25c21b02ff55cf16848704ade176a5cb81565b348015610a99575f5ffd5b506105606125d1565b348015610aad575f5ffd5b50610ac1610abc3660046166f2565b6125ff565b604051610524919061687a565b348015610ad9575f5ffd5b50610aed610ae83660046168bb565b612666565b604080519788526020880196909652948601939093526060850191909152608084015260a083015260c082015260e001610524565b348015610b2d575f5ffd5b506105607f1d770361ad1ba5c90793f5d8711778cd963118207b8b46db0f36c72a65b0b45181565b348015610b60575f5ffd5b507fcd5ed15c6e187e77e9aee88184c21f4f2182ab5827cb3b7e07fbedcd63f033005460ff16610518565b348015610b96575f5ffd5b5061071a61271e565b348015610baa575f5ffd5b506105607fe1777bd22f637fc57eadcf9d877079117b44537a53059b1670036696018f564c81565b348015610bdd575f5ffd5b50610607610bec36600461654e565b612800565b348015610bfc575f5ffd5b5060465461071a906001600160601b031681565b348015610c1b575f5ffd5b50610560610c2a36600461654e565b6001600160a01b03165f9081527f52c63247e1f47db19d5ce0460030c497f067ca4cebf71ba98eeadabe20bace00602052604090205490565b348015610c6e575f5ffd5b50610607610c7d3660046166f2565b612912565b348015610c8d575f5ffd5b50610a28610c9c366004616627565b604b6020525f90815260409020546001600160601b0380821691600160601b90041682565b348015610ccc575f5ffd5b50610d01610cdb366004616627565b604a6020525f908152604090205467ffffffffffffffff80821691600160401b90041682565b6040805167ffffffffffffffff938416815292909116602083015201610524565b348015610d2d575f5ffd5b50610560610d3c3660046166f2565b67ffffffffffffffff165f9081527fd5d321e774be746819c1749e69f27b3f3e063f791b56826404d788d5a63ed6006020526040902054610100900460ff1690565b348015610d89575f5ffd5b5061071a610d9836600461670d565b6129e3565b348015610da8575f5ffd5b50610607612c2a565b348015610dbc575f5ffd5b5061056069010f0cf064dd5920000081565b348015610dd9575f5ffd5b50610607610de83660046168d7565b612c5c565b348015610df8575f5ffd5b50610518610e0736600461670d565b5f9182527f02dd7bc7dec4dceedda775e58dd541e08a116c6c53815c0bd028192f7b626800602090815260408084206001600160a01b0393909316845291905290205460ff1690565b348015610e5b575f5ffd5b50610582612d43565b348015610e6f575f5ffd5b5061056060045481565b610607610e8736600461654e565b612d94565b348015610e97575f5ffd5b506105605f81565b348015610eaa575f5ffd5b506105607f78a7a80e95d53cedc2e84890fb7aaf754249c544050913a3263a2abf9d66f53881565b348015610edd575f5ffd5b50610607610eec3660046168f8565b612eef565b348015610efc575f5ffd5b50610518610f0b3660046163ed565b613283565b348015610f1b575f5ffd5b506105826040518060400160405280600581526020017f352e302e3000000000000000000000000000000000000000000000000000000081525081565b348015610f63575f5ffd5b50610607610f723660046166f2565b613290565b348015610f82575f5ffd5b5060485461ffff165b60405161ffff9091168152602001610524565b610607610fac36600461654e565b613515565b348015610fbc575f5ffd5b50610607610fcb3660046167a1565b61398b565b348015610fdb575f5ffd5b50610607610fea36600461670d565b613a83565b348015610ffa575f5ffd5b506105186110093660046166f2565b60056020525f908152604090205460ff1681565b348015611028575f5ffd5b506106076110373660046166f2565b613ac6565b348015611047575f5ffd5b50610560611056366004616969565b6001600160a01b039182165f9081527f52c63247e1f47db19d5ce0460030c497f067ca4cebf71ba98eeadabe20bace016020908152604080832093909416825291909152205490565b3480156110aa575f5ffd5b5061071a6110b9366004616985565b613bae565b3480156110c9575f5ffd5b506110d2613c04565b604051610524919061699e565b3480156110ea575f5ffd5b506105607fbb12ed6b435a5fce787412ceb233935082e39147d977bc587eb74d0f97f48d2c81565b34801561111d575f5ffd5b5061113161112c366004616985565b613c8d565b6040516105249493929190616a56565b34801561114c575f5ffd5b5061060761115b3660046168d7565b613d35565b34801561116b575f5ffd5b5061071a61117a366004616985565b613e0c565b34801561118a575f5ffd5b5061119e6111993660046163ed565b613e4c565b604080516001600160601b03958616815294909316602085015264ffffffffff9091169183019190915261ffff166060820152608001610524565b3480156111e4575f5ffd5b5060475461ffff16610f8b565b5f7fffffffff0000000000000000000000000000000000000000000000000000000082167f7965db0b00000000000000000000000000000000000000000000000000000000148061128357507f01ffc9a7000000000000000000000000000000000000000000000000000000007fffffffff000000000000000000000000000000000000000000000000000000008316145b92915050565b7f52c63247e1f47db19d5ce0460030c497f067ca4cebf71ba98eeadabe20bace0380546060917f52c63247e1f47db19d5ce0460030c497f067ca4cebf71ba98eeadabe20bace00916112da90616aa3565b80601f016020809104026020016040519081016040528092919081815260200182805461130690616aa3565b80156113515780601f1061132857610100808354040283529160200191611351565b820191905f5260205f20905b81548152906001019060200180831161133457829003601f168201915b505050505091505090565b5f33611369818585613ea4565b5060019392505050565b61137b613eb1565b81515f5b818167ffffffffffffffff1610156113ce576113be848267ffffffffffffffff16815181106113b0576113b0616ad5565b602002602001015184613f0f565b6113c781616afd565b905061137f565b50505050565b6001600160a01b0381165f908152604d60209081526040808320805482518185028101850190935280835260609492939192909184015b82821015611477575f84815260209081902060408051608081018252918501546001600160601b038082168452600160601b82041683850152600160c01b810464ffffffffff1691830191909152600160e81b900461ffff16606082015282526001909201910161140b565b505050509050919050565b7f78a7a80e95d53cedc2e84890fb7aaf754249c544050913a3263a2abf9d66f5386114ac816140dd565b506001600160a01b03919091165f908152604960205260409020805460ff1916911515919091179055565b6114df613eb1565b335f908152604d60205260408120805490919082908490811061150457611504616ad5565b5f9182526020918290206040805160808101825292909101546001600160601b038082168452600160601b80830490911694840194909452600160c01b810464ffffffffff908116928401839052600160e81b90910461ffff16606084015260465492945092909104909116146115a7576040517fdcb958f400000000000000000000000000000000000000000000000000000000815260040160405180910390fd5b606081015181515f91612710916115cb9161ffff16906001600160601b0316616b29565b6115d59190616b54565b90505f81835f01516115e79190616b67565b60408085015164ffffffffff165f908152604c6020908152908290208251808401909352546001600160601b03808216808552600160601b909204168383015290860151929350909190829061163e908390616b67565b6001600160601b031690525060208101805183919061165e908390616b67565b6001600160601b0390811690915260408087015164ffffffffff165f908152604c602090815291902084518154928601518416600160601b027fffffffffffffffff00000000000000000000000000000000000000000000000090931690841617919091179055841615905061171757604780548491906002906116f29084906201000090046001600160601b0316616b67565b92506101000a8154816001600160601b0302191690836001600160601b031602179055505b61172185876140e7565b6117383033865f01516001600160601b0316614281565b60405186815233907fd1bbb16d648df2dfd0b1b3d88a5bc3f262e0323d3af8fd678115b4f1e7b4b88a9060200160405180910390a2505050505050565b5f61177e613eb1565b6001600160601b033411156117bf576040517f1132981b00000000000000000000000000000000000000000000000000000000815260040160405180910390fd5b6117c7614315565b6117d034613bae565b9050806001600160601b03165f036117fb5760405163a88ee57760e01b815260040160405180910390fd5b826001600160601b0316816001600160601b03161015611847576040517fc635a9f200000000000000000000000000000000000000000000000000000000815260040160405180910390fd5b61185a82826001600160601b0316614495565b604680543491905f906118779084906001600160601b0316616b86565b82546101009290920a6001600160601b03818102199093169183160217909155604654600160601b900464ffffffffff165f908152604b60205260408120805434945090926118c891859116616b86565b92506101000a8154816001600160601b0302191690836001600160601b0316021790555092915050565b60038181548110611901575f80fd5b5f9182526020909120015467ffffffffffffffff811691506001600160601b03600160401b8204811691600160a01b90041683565b5f336119438582856144e2565b61194e858585614281565b60019150505b9392505050565b5f611964613eb1565b61196c614315565b335f90815260496020526040812054819060ff166119b05760475461ffff1691506127106119a3836001600160601b038816616b29565b6119ad9190616b54565b90505b5f6119bb8287616b67565b90506119c681613e0c565b9350836001600160601b03165f036119f15760405163a88ee57760e01b815260040160405180910390fd5b846001600160601b0316846001600160601b03161015611a3d576040517f641963a400000000000000000000000000000000000000000000000000000000815260040160405180910390fd5b604654335f908152604d6020908152604080832081516080810183526001600160601b03808d1682528a811682860190815264ffffffffff600160601b98899004811684870181815261ffff808f16606088019081528854600181018a55988c528a8c209751979098018054955192519851909116600160e81b027fff0000ffffffffffffffffffffffffffffffffffffffffffffffffffffffffff98909416600160c01b02979097167fff00000000000000ffffffffffffffffffffffffffffffffffffffffffffffff9186168c027fffffffffffffffff0000000000000000000000000000000000000000000000009095169686169690961793909317929092169390931792909217909255808552604c8452938290208251808401909352548082168084529590041691810191909152909186908290611b81908390616b86565b6001600160601b0316905250602081018051849190611ba1908390616b86565b6001600160601b0390811690915264ffffffffff84165f908152604c6020908152604090912084518154928601518416600160601b027fffffffffffffffff000000000000000000000000000000000000000000000000909316908416179190911790558516159050611c575760478054859190600290611c329084906201000090046001600160601b0316616b86565b92506101000a8154816001600160601b0302191690836001600160601b031602179055505b611c6b33308a6001600160601b0316614281565b335f818152604d60205260409020547fef31107568890496c8f16fec1278e709d23f1444e004e7973a9403880c28d91790611ca890600190616ba5565b604080519182526001600160601b038088166020840152808b1691830191909152871660608201526080015b60405180910390a2505050505092915050565b5f8281527f02dd7bc7dec4dceedda775e58dd541e08a116c6c53815c0bd028192f7b6268006020526040902060010154611d20816140dd565b6113ce8383614590565b611d3261465c565b611d465f67ffffffffffffffff8316614686565b15155f03611d80576040517f0fa1af0e00000000000000000000000000000000000000000000000000000000815260040160405180910390fd5b604080516060810182525f602080830182815283850183815267ffffffffffffffff8781168087526003805460018101825581885288517fc2575a0e9e593c00f959f8c92f12db2869c3395a3b0502d05e2516446f71f85b9091018054965195519190941673ffffffffffffffffffffffffffffffffffffffff1990961695909517600160401b6001600160601b0395861602176001600160a01b0316600160a01b949095169390930293909317905554818452600283529285902083905584519081529081018290528351929391927fdd8aaf98a662995c3720dc78ea3773142e7d32c94f523a7d651e932ba0c44f8a929181900390910190a1505050565b6001600160a01b0381163314611ec2576040517f6697b23200000000000000000000000000000000000000000000000000000000815260040160405180910390fd5b611ecc8282614691565b505050565b5f611eda61271e565b7f52c63247e1f47db19d5ce0460030c497f067ca4cebf71ba98eeadabe20bace0254611f069190616b86565b905090565b60605f7fd5d321e774be746819c1749e69f27b3f3e063f791b56826404d788d5a63ed60067ffffffffffffffff8085165f9081526020838152604080832081518083019092525460ff8082168352610100909104169181018290529394509091811115611f7a57611f7a616417565b604051908082528060200260200182016040528015611fa3578160200160208202803683370190505b5090505f5b826020015160ff16811015611ff1578251611fc5908260ff614735565b828281518110611fd757611fd7616ad5565b60ff90921660209283029190910190910152600101611fa8565b50949350505050565b6060611f065f61475e565b7ff146182d150a5b368b6d283f87aeae1f25c21b02ff55cf16848704ade176a5cb61202f816140dd565b61203761476a565b50565b612042613eb1565b805147905f5b818167ffffffffffffffff16101561209657612086848267ffffffffffffffff168151811061207957612079616ad5565b60200260200101516147dc565b61208f81616afd565b9050612048565b505f6120a28347616ba5565b905080156113ce57604654600160601b900464ffffffffff165f908152604b6020526040812080548392906120e19084906001600160601b0316616b86565b92506101000a8154816001600160601b0302191690836001600160601b0316021790555050505050565b612113613eb1565b61211b614315565b6046546001600160601b03811690600160601b900464ffffffffff165f80612141614942565b90925090505f604a81612155600187616bb8565b64ffffffffff16815260208082019290925260409081015f2081518083019092525467ffffffffffffffff8082168352600160401b9091048116928201839052909250841610156121d2576040517f4851faea00000000000000000000000000000000000000000000000000000000815260040160405180910390fd5b64ffffffffff84165f818152604b602090815260408083208151808301835290546001600160601b038082168352600160601b91829004811683860152958552604c845293829020825180840190935254808616808452949004851692820192909252815191939092911611156122e257815181515f91612253918a61497d565b825184519192505f91839161226791616b67565b6122719190616b67565b90506001600160601b038116156122cb5780604b5f6122918b6001616bd5565b64ffffffffff16815260208101919091526040015f2080546bffffffffffffffffffffffff19166001600160601b03929092169190911790555b505067ffffffffffffffff841660208401526123f7565b815181516001600160601b03918216911611156123a357805182515f91612309918a614c5d565b835183519192505f91839161231d91616b67565b6123279190616b67565b90506001600160601b038116156122cb5780604c5f6123478b6001616bd5565b64ffffffffff16815260208101919091526040015f2080546bffffffffffffffffffffffff19166001600160601b039290921691909117905561238a818a616b86565b9850505067ffffffffffffffff841660208401526123f7565b81516001600160601b03165f036123e6576040517fc2e5347d00000000000000000000000000000000000000000000000000000000815260040160405180910390fd5b67ffffffffffffffff851660208401525b60208101516001600160601b031615612421576124213082602001516001600160601b0316614f1f565b80516001600160601b03161561246357805161243d9088616b67565b604680546bffffffffffffffffffffffff19166001600160601b03929092169190911790555b6040805160608101825260475461ffff811682526001600160601b03620100008204811660208401819052600160701b90920416928201929092529015612518578060200151816040018181516124ba9190616b86565b6001600160601b039081169091525f60208401528251604780546040860151909316600160701b027fffffffffffff000000000000000000000000000000000000000000000000000090931661ffff90921691909117919091179055505b67ffffffffffffffff808716855264ffffffffff88165f908152604a6020908152604090912086518154928801518416600160401b027fffffffffffffffffffffffffffffffff00000000000000000000000000000000909316931692909217179055612586876001616bd5565b6046600c6101000a81548164ffffffffff021916908364ffffffffff1602179055505050505050505050565b6125ba614f6c565b6125c38261503c565b6125cd8282615066565b5050565b5f6125da615167565b507f360894a13ba1a3210667c828492db98dca3e2076cc3735a920a3ca505d382bbc90565b604080516060810182525f8082526020820181905291810191909152612624826151c9565b60408051606081018252915467ffffffffffffffff811683526001600160601b03600160401b820481166020850152600160a01b909104169082015292915050565b6040517f573c1ce000000000000000000000000000000000000000000000000000000000815267ffffffffffffffff831660048201526001600160a01b03821660248201525f908190819081908190819081906110009063573c1ce09060440160e0604051808303815f875af11580156126e2573d5f5f3e3d5ffd5b505050506040513d601f19601f820116820180604052508101906127069190616bf2565b959f949e50929c50909a509850965090945092505050565b6040805160608101825260485461ffff811682526201000081046001600160601b031660208301819052600160701b90910464ffffffffff16928201839052915f9061276a9042616ba5565b905080156127fb5781515f906127109061ffff166001600160601b0386166127b07f52c63247e1f47db19d5ce0460030c497f067ca4cebf71ba98eeadabe20bace025490565b6127ba9190616c41565b6127c49190616b29565b6127ce9190616b54565b90505f6301e133806127e08484616b29565b6127ea9190616b54565b90506127f68186616b86565b945050505b505090565b612808613eb1565b7f359946d964cb1f92e24841dd25d0e8706f1ab6dd13500522367deddd927658d8612832816140dd565b61283a614315565b6048546201000090046001600160601b031680156128855761285c8382614495565b604880547fffffffffffffffffffffffffffffffffffff000000000000000000000000ffff1690555b604754600160701b90046001600160601b031680156128d2576128a9308583614281565b604780547fffffffffffff000000000000000000000000ffffffffffffffffffffffffffff1690555b60408051838152602081018390527fd9787bf70d3926a4a81c52cba8799d18903ce0132aaa4b7de9e92dc893303a7f91015b60405180910390a150505050565b61291a613eb1565b7f1d770361ad1ba5c90793f5d8711778cd963118207b8b46db0f36c72a65b0b451612944816140dd565b67ffffffffffffffff82165f9081526005602052604090205460ff1661297d5760405163194fdc7f60e31b815260040160405180910390fd5b5f612987836151c9565b8054909150600160a01b90046001600160601b03165f8190036129bd5760405163a88ee57760e01b815260040160405180910390fd5b6129d084826001600160601b0316615248565b505080546001600160a01b031690555050565b5f6129ec613eb1565b335f908152604d602052604081208054909190829086908110612a1157612a11616ad5565b5f91825260208083206040805160808101825293909101546001600160601b038082168552600160601b82041684840152600160c01b810464ffffffffff16848301819052600160e81b90910461ffff1660608501528452604a825280842081518083019092525467ffffffffffffffff808216808452600160401b9092041692820192909252919350909103612ad4576040517ffc08f5f200000000000000000000000000000000000000000000000000000000815260040160405180910390fd5b5f612add615317565b509050612ae8615383565b60ff168260200151612afa9190616c54565b67ffffffffffffffff168167ffffffffffffffff161015612b47576040517fba9bead700000000000000000000000000000000000000000000000000000000815260040160405180910390fd5b612b5184886140e7565b826020015194505f866001600160a01b0316866001600160601b03166040515f6040518083038185875af1925050503d805f8114612baa576040519150601f19603f3d011682016040523d82523d5f602084013e612baf565b606091505b5050905080612bea576040517f90b8ec1800000000000000000000000000000000000000000000000000000000815260040160405180910390fd5b604080518981526001600160601b038816602082015233917f53a80b7fa2025e3acb298abd7e222b36ce5d6a1425e7a6e53b451aac0c6e5a219101611cd4565b7ff146182d150a5b368b6d283f87aeae1f25c21b02ff55cf16848704ade176a5cb612c54816140dd565b6120376153b6565b7f13172b8201242833f26d88301b6e27aa2235ec2d9b2c92a1ed33678f0ee068fa612c86816140dd565b60c88261ffff161115612cc5576040517ffc5bee1200000000000000000000000000000000000000000000000000000000815260040160405180910390fd5b60485461ffff90811690831603612cef5760405163a88ee57760e01b815260040160405180910390fd5b612cf7614315565b6048805461ffff191661ffff84169081179091556040519081527f756367c310578acc96b78fcf4141ddb3cf532982d1342ec193f34a3600b9ae65906020015b60405180910390a15050565b7f52c63247e1f47db19d5ce0460030c497f067ca4cebf71ba98eeadabe20bace0480546060917f52c63247e1f47db19d5ce0460030c497f067ca4cebf71ba98eeadabe20bace00916112da90616aa3565b612d9c613eb1565b6001600160601b03341115612ddd576040517f1132981b00000000000000000000000000000000000000000000000000000000815260040160405180910390fd5b6046546001600160601b031669010f0cf064dd59200000811015612e2d576040517f500625f400000000000000000000000000000000000000000000000000000000815260040160405180910390fd5b612e373482616b86565b604680546bffffffffffffffffffffffff19166001600160601b039283161790819055600160601b900464ffffffffff165f908152604b6020526040812080543493919291612e8891859116616b86565b92506101000a8154816001600160601b0302191690836001600160601b031602179055507f04e75fda068b8e114d7658bdff74280a0fd65586b7e026a034eae29dd5a9e68b3483604051612d379291909182526001600160a01b0316602082015260400190565b612ef7615411565b600454815f5b8181101561327a57848482818110612f1757612f17616ad5565b9050606002016040016020810190612f2f9190616c74565b156130b1575f612f65868684818110612f4a57612f4a616ad5565b612f6092602060609092020190810191506166f2565b6151c9565b805467ffffffffffffffff165f9081526005602052604090205490915060ff1615612fa35760405163194fdc7f60e31b815260040160405180910390fd5b8054600160401b90046001600160601b03165f878785818110612fc857612fc8616ad5565b9050606002016020016020810190612fe09190616985565b612fea9083616b86565b835473ffffffffffffffffffffffff00000000000000001916600160401b6001600160601b0383811691820292909217865591925061302b90841688616ba5565b6130359190616c41565b955087878581811061304957613049616ad5565b61305f92602060609092020190810191506166f2565b6040516001600160601b038316815267ffffffffffffffff91909116907fcfaa637aecf1e60e723842980c95e1f0a7ca0a264e46647e4656b98f7293e33b9060200160405180910390a2505050613272565b5f60025f8787858181106130c7576130c7616ad5565b6130dd92602060609092020190810191506166f2565b67ffffffffffffffff1667ffffffffffffffff1681526020019081526020015f20549050805f0361310e5750613272565b5f600361311c600184616ba5565b8154811061312c5761312c616ad5565b5f91825260208220018054909250600160401b90046001600160601b03169081810361315b5750505050613272565b5f89898781811061316e5761316e616ad5565b90506060020160200160208101906131869190616985565b9050826001600160601b0316816001600160601b031610156131af576131ac8184616b67565b91505b83546001600160601b03808416600160401b810273ffffffffffffffffffffffff0000000000000000199093169290921786556131ee9085168a616ba5565b6131f89190616c41565b975089898781811061320c5761320c616ad5565b61322292602060609092020190810191506166f2565b6040516001600160601b038416815267ffffffffffffffff91909116907fcfaa637aecf1e60e723842980c95e1f0a7ca0a264e46647e4656b98f7293e33b9060200160405180910390a250505050505b600101612efd565b50506004555050565b5f33611369818585614281565b6132998161543b565b67ffffffffffffffff81165f90815260026020526040812054908190036132ec576040517f30812d4200000000000000000000000000000000000000000000000000000000815260040160405180910390fd5b5f60036132fa600184616ba5565b8154811061330a5761330a616ad5565b5f91825260209182902060408051606081018252929091015467ffffffffffffffff811683526001600160601b03600160401b82048116948401859052600160a01b90910416908201529150156133745760405163194fdc7f60e31b815260040160405180910390fd5b60408101516001600160601b0316156133a05760405163194fdc7f60e31b815260040160405180910390fd5b600380545f91906133b390600190616ba5565b815481106133c3576133c3616ad5565b5f9182526020808320909101805467ffffffffffffffff1683526002909152604090912084905590508060036133fa600186616ba5565b8154811061340a5761340a616ad5565b5f918252602080832084549201805467ffffffffffffffff93841667ffffffffffffffff19821681178355865473ffffffffffffffffffffffffffffffffffffffff1990921617600160401b918290046001600160601b039081169092021780835595546001600160a01b03909616600160a01b9687900490911690950294909417909355861681526002909152604081205560038054806134ae576134ae616c8f565b5f8281526020812082015f199081018290559091019091556134da9067ffffffffffffffff861661554f565b5060405167ffffffffffffffff851681527f8712d9d347359238729023dc8640e38f0d4f8ad25d0e079c2208a885a51a023f90602001612904565b5f61351e61555a565b805490915060ff600160401b820416159067ffffffffffffffff165f811580156135455750825b90505f8267ffffffffffffffff1660011480156135615750303b155b90508115801561356f575080155b156135a6576040517ff92ee8a900000000000000000000000000000000000000000000000000000000815260040160405180910390fd5b845467ffffffffffffffff1916600117855583156135d557845468ff00000000000000001916600160401b1785555b6135dd615582565b6135e5615582565b6136596040518060400160405280601381526020017f4b696e747375205374616b6564204d6f6e6164000000000000000000000000008152506040518060400160405280600481526020017f734d4f4e0000000000000000000000000000000000000000000000000000000081525061558a565b613661615582565b613669615582565b6136735f87614590565b5061369e7f902b1971fb3d9217703fb59d9a8bf53ee64da1be6756f20cebc090dd4c37f7d887614590565b506136c97fe1777bd22f637fc57eadcf9d877079117b44537a53059b1670036696018f564c87614590565b506136f47fbb12ed6b435a5fce787412ceb233935082e39147d977bc587eb74d0f97f48d2c87614590565b5061371f7f1d770361ad1ba5c90793f5d8711778cd963118207b8b46db0f36c72a65b0b45187614590565b5061374a7f13172b8201242833f26d88301b6e27aa2235ec2d9b2c92a1ed33678f0ee068fa87614590565b506137757f13172b8201242833f26d88301b6e27aa2235ec2d9b2c92a1ed33678f0ee068fa8061559c565b61379f7f359946d964cb1f92e24841dd25d0e8706f1ab6dd13500522367deddd927658d887614590565b506137ca7f359946d964cb1f92e24841dd25d0e8706f1ab6dd13500522367deddd927658d88061559c565b6137f47f78a7a80e95d53cedc2e84890fb7aaf754249c544050913a3263a2abf9d66f53887614590565b5061381f7f78a7a80e95d53cedc2e84890fb7aaf754249c544050913a3263a2abf9d66f5388061559c565b6138497f1ea2b19b7ab22acb68ebeb58b5cb9eab43e3e119ebbd3159fdcddfc5b8c538b887614590565b506138747f1ea2b19b7ab22acb68ebeb58b5cb9eab43e3e119ebbd3159fdcddfc5b8c538b88061559c565b61389e7ff146182d150a5b368b6d283f87aeae1f25c21b02ff55cf16848704ade176a5cb87614590565b50604680547fffffffffffffffffffffffffffffff0000000000ffffffffffffffffffffffff16600160601b1790556040805160608101825260c88082525f60208301524264ffffffffff169190920181905260488054600160701b9092027fffffffffffffffffffffffffff000000000000000000000000000000000000009092169190911790911790556047805461ffff19166005179055831561398357845468ff000000000000000019168555604051600181527fc7f505b2f371ae2175ee4913f4499e1f2633a7b5936321eed1cdaeb6115181d29060200160405180910390a15b505050505050565b613993613eb1565b805147905f5b818167ffffffffffffffff1610156139e7576139d7848267ffffffffffffffff16815181106139ca576139ca616ad5565b602002602001015161563d565b6139e081616afd565b9050613999565b505f6139f38347616ba5565b9050805f03613a155760405163a88ee57760e01b815260040160405180910390fd5b604680548291905f90613a329084906001600160601b0316616b86565b82546101009290920a6001600160601b03818102199093169183160217909155604654600160601b900464ffffffffff165f908152604b60205260408120805485945090926120e191859116616b86565b5f8281527f02dd7bc7dec4dceedda775e58dd541e08a116c6c53815c0bd028192f7b6268006020526040902060010154613abc816140dd565b6113ce8383614691565b613ace6156e2565b67ffffffffffffffff81165f9081526005602052604090205460ff1615613b085760405163a88ee57760e01b815260040160405180910390fd5b5f613b12826151c9565b805460048054929350600160401b9091046001600160601b0316915f90613b3a908490616ba5565b9091555050805473ffffffffffffffffffffffff00000000000000001916815567ffffffffffffffff82165f81815260056020908152604091829020805460ff1916600117905590519182527fa46b2e9bd92f27216c46d5a9772c39431f3f381285ee1dacb1f1034fe603b10b9101612d37565b6046545f906001600160601b0316808203613bcb57829150613bfe565b80613bd4611ed1565b6001600160601b0316846001600160601b0316613bf19190616b29565b613bfb9190616b54565b91505b50919050565b60606003805480602002602001604051908101604052809291908181526020015f905b82821015613c84575f848152602090819020604080516060810182529185015467ffffffffffffffff811683526001600160601b03600160401b8204811684860152600160a01b9091041690820152825260019092019101613c27565b50505050905090565b5f5f606080613d266003805480602002602001604051908101604052809291908181526020015f905b82821015613d13575f848152602090819020604080516060810182529185015467ffffffffffffffff811683526001600160601b03600160401b8204811684860152600160a01b9091041690820152825260019092019101613cb6565b50505050866001600160601b031661570c565b93509350935093509193509193565b7f13172b8201242833f26d88301b6e27aa2235ec2d9b2c92a1ed33678f0ee068fa613d5f816140dd565b60328261ffff161115613d9e576040517ffc5bee1200000000000000000000000000000000000000000000000000000000815260040160405180910390fd5b60475461ffff90811690831603613dc85760405163a88ee57760e01b815260040160405180910390fd5b6047805461ffff191661ffff84169081179091556040519081527f0531f91c02fe1dc8b306233f5edba5c1b65a79a064d26a40b6082bc9d887ecba90602001612d37565b5f5f613e16611ed1565b6001600160601b03169050805f03613e3057829150613bfe565b6046548190613bf1906001600160601b03908116908616616b29565b604d602052815f5260405f208181548110613e65575f80fd5b5f918252602090912001546001600160601b038082169350600160601b8204169150600160c01b810464ffffffffff1690600160e81b900461ffff1684565b611ecc83838360016158eb565b7fcd5ed15c6e187e77e9aee88184c21f4f2182ab5827cb3b7e07fbedcd63f033005460ff1615613f0d576040517fd93c066500000000000000000000000000000000000000000000000000000000815260040160405180910390fd5b565b5f7fd5d321e774be746819c1749e69f27b3f3e063f791b56826404d788d5a63ed60067ffffffffffffffff84165f9081526020828152604080832081518083019092525460ff8082168352610100909104811692820183905293945092851610613f7d578160200151613f7f565b835b90508060ff165f03613f92575050505050565b5f5b8160ff1681101561406a575f613faf845f01518360ff614735565b6040517faed2ee7300000000000000000000000000000000000000000000000000000000815267ffffffffffffffff8916600482015260ff821660248201529091505f906110009063aed2ee73906044016020604051808303815f875af115801561401c573d5f5f3e3d5ffd5b505050506040513d601f19601f820116820180604052508101906140409190616ca3565b90508061406057604051633f48ffd960e21b815260040160405180910390fd5b5050600101613f94565b508151614079908260ff614735565b60ff168252602082018051829190614092908390616cbe565b60ff90811690915267ffffffffffffffff9096165f90815260209485526040902083518154959094015187166101000261ffff19909516939096169290921792909217909355505050565b6120378133615a14565b81545f906140f790600190616ba5565b90508082146142345782818154811061411257614112616ad5565b905f5260205f200183838154811061412c5761412c616ad5565b5f91825260209091208254910180546bffffffffffffffffffffffff1981166001600160601b0393841690811783558454600160601b908190049094169093027fffffffffffffffff00000000000000000000000000000000000000000000000090911690921791909117808255825464ffffffffff600160c01b9182900416027fffffff0000000000ffffffffffffffffffffffffffffffffffffffffffffffff821681178355925461ffff600160e81b9182900416027fff0000ffffffffffffffffffffffffffffffffffffffffffffffffffffffffff9093167fff00000000000000ffffffffffffffffffffffffffffffffffffffffffffffff909116179190911790555b8280548061424457614244616c8f565b5f8281526020902081015f1990810180547fff00000000000000000000000000000000000000000000000000000000000000169055019055505050565b6001600160a01b0383166142c8576040517f96c6fd1e0000000000000000000000000000000000000000000000000000000081525f60048201526024015b60405180910390fd5b6001600160a01b03821661430a576040517fec442f050000000000000000000000000000000000000000000000000000000081525f60048201526024016142bf565b611ecc838383615aa0565b6040805160608101825260485461ffff811682526201000081046001600160601b03166020830152600160701b900464ffffffffff16918101829052905f9061435e9042616ba5565b905080156125cd575f61271061ffff16835f015161ffff1684602001516001600160601b03166143ac7f52c63247e1f47db19d5ce0460030c497f067ca4cebf71ba98eeadabe20bace025490565b6143b69190616c41565b6143c09190616b29565b6143ca9190616b54565b90505f6301e133806143dc8484616b29565b6143e69190616b54565b90508084602001516001600160601b03166144019190616c41565b6001600160601b0316602085018190524264ffffffffff166040860181905294516048805461ffff9092167fffffffffffffffffffffffffffffffffffff00000000000000000000000000009092169190911762010000909202919091177fffffffffffffffffffffffffff0000000000ffffffffffffffffffffffffffff16600160701b90950294909417909355505050565b6001600160a01b0382166144d7576040517fec442f050000000000000000000000000000000000000000000000000000000081525f60048201526024016142bf565b6125cd5f8383615aa0565b6001600160a01b038381165f9081527f52c63247e1f47db19d5ce0460030c497f067ca4cebf71ba98eeadabe20bace0160209081526040808320938616835292905220545f198110156113ce5781811015614582576040517ffb8f41b20000000000000000000000000000000000000000000000000000000081526001600160a01b038416600482015260248101829052604481018390526064016142bf565b6113ce84848484035f6158eb565b5f8281527f02dd7bc7dec4dceedda775e58dd541e08a116c6c53815c0bd028192f7b626800602081815260408084206001600160a01b038616855290915282205460ff16614653575f848152602082815260408083206001600160a01b03871684529091529020805460ff191660011790556146093390565b6001600160a01b0316836001600160a01b0316857f2f8788117e7eff1d82e926ec794901d17c78024a50270940304540a733656f0d60405160405180910390a46001915050611283565b5f915050611283565b7f902b1971fb3d9217703fb59d9a8bf53ee64da1be6756f20cebc090dd4c37f7d8612037816140dd565b5f6119548383615c05565b5f8281527f02dd7bc7dec4dceedda775e58dd541e08a116c6c53815c0bd028192f7b626800602081815260408084206001600160a01b038616855290915282205460ff1615614653575f848152602082815260408083206001600160a01b0387168085529252808320805460ff1916905551339287917ff6391f5c32d9c69d2a47ea670b442974b53935d1edc7fd64eb21e047a839171b9190a46001915050611283565b5f8160ff168360ff168560ff1661474c9190616c41565b6147569190616cd7565b949350505050565b60605f61195483615c51565b614772615caa565b7fcd5ed15c6e187e77e9aee88184c21f4f2182ab5827cb3b7e07fbedcd63f03300805460ff191681557f5db9ee0a495bf2e6ff9c91a7834c1ba4fdd244a5e8aa4e537bd38aeae4b073aa335b6040516001600160a01b03909116815260200160405180910390a150565b67ffffffffffffffff81165f9081527fd5d321e774be746819c1749e69f27b3f3e063f791b56826404d788d5a63ed60160205260409020547fd5d321e774be746819c1749e69f27b3f3e063f791b56826404d788d5a63ed6009060ff1661486f576040517f78297a8c00000000000000000000000000000000000000000000000000000000815260040160405180910390fd5b6040517faed2ee7300000000000000000000000000000000000000000000000000000000815267ffffffffffffffff8316600482015260ff60248201525f906110009063aed2ee73906044016020604051808303815f875af11580156148d7573d5f5f3e3d5ffd5b505050506040513d601f19601f820116820180604052508101906148fb9190616ca3565b90508061491b57604051633f48ffd960e21b815260040160405180910390fd5b5067ffffffffffffffff9091165f908152600190910160205260409020805460ff19169055565b5f5f5f5f61494e615317565b915091508193508061496a57614965846001616c54565b614975565b614975846002616c54565b925050509091565b6004545f908082036149bb576040517f098404de00000000000000000000000000000000000000000000000000000000815260040160405180910390fd5b5f6003805480602002602001604051908101604052809291908181526020015f905b82821015614a3a575f848152602090819020604080516060810182529185015467ffffffffffffffff811683526001600160601b03600160401b8204811684860152600160a01b90910416908201528252600190920191016149dd565b5050505090505f5f614a60838888614a529190616b67565b6001600160601b031661570c565b9350509250505f8789614a739190616b67565b6001600160601b031690505f836001600160601b03168210614a9e57836001600160601b0316614aa0565b815b90505f614aad8284616ba5565b86519091505f5b81811015614c4d575f5f878381518110614ad057614ad0616ad5565b60200260200101516001600160601b031611614aec575f614b2e565b876001600160601b0316878381518110614b0857614b08616ad5565b60200260200101516001600160601b031686614b249190616b29565b614b2e9190616b54565b90505f5f8511614b3e575f614b7b565b8a8a8481518110614b5157614b51616ad5565b6020026020010151602001516001600160601b031686614b719190616b29565b614b7b9190616b54565b90505f614b888284616c41565b90506001600160601b03811615614c3f57808b8581518110614bac57614bac616ad5565b602002602001015160400151614bc29190616b86565b60038581548110614bd557614bd5616ad5565b905f5260205f20015f0160146101000a8154816001600160601b0302191690836001600160601b03160217905550614c328b8581518110614c1857614c18616ad5565b60200260200101515f0151826001600160601b0316615d05565b614c3c818e616b86565b9c505b505050806001019050614ab4565b5050505050505050509392505050565b5f5f6003805480602002602001604051908101604052809291908181526020015f905b82821015614cdd575f848152602090819020604080516060810182529185015467ffffffffffffffff811683526001600160601b03600160401b8204811684860152600160a01b9091041690820152825260019092019101614c80565b5050505090505f5f614cf5838887614a529190616b67565b5092505091505f8688614d089190616b67565b6001600160601b031690505f836001600160601b03168210614d3357836001600160601b0316614d35565b815b90505f614d428284616ba5565b6046549091505f908390614d60908c906001600160601b0316616b67565b6001600160601b0316614d739190616ba5565b87519091505f5b81811015614c4d575f5f888381518110614d9657614d96616ad5565b60200260200101516001600160601b031611614db2575f614df4565b886001600160601b0316888381518110614dce57614dce616ad5565b60200260200101516001600160601b031687614dea9190616b29565b614df49190616b54565b90505f5f8611614e04575f614e4b565b84828c8581518110614e1857614e18616ad5565b6020026020010151604001516001600160601b0316614e379190616ba5565b614e419088616b29565b614e4b9190616b54565b90505f614e588284616c41565b90506001600160601b03811615614f1157808c8581518110614e7c57614e7c616ad5565b602002602001015160400151614e929190616b67565b60038581548110614ea557614ea5616ad5565b5f91825260209091200180546001600160601b0392909216600160a01b026001600160a01b03909216919091179055614ede818e616b86565b9c50614f0f8c8581518110614ef557614ef5616ad5565b60200260200101515f0151826001600160601b0316615dad565b505b505050806001019050614d7a565b6001600160a01b038216614f61576040517f96c6fd1e0000000000000000000000000000000000000000000000000000000081525f60048201526024016142bf565b6125cd825f83615aa0565b306001600160a01b037f000000000000000000000000000000000000000000000000000000000000000016148061500557507f00000000000000000000000000000000000000000000000000000000000000006001600160a01b0316614ff97f360894a13ba1a3210667c828492db98dca3e2076cc3735a920a3ca505d382bbc546001600160a01b031690565b6001600160a01b031614155b15613f0d576040517fe07c8dba00000000000000000000000000000000000000000000000000000000815260040160405180910390fd5b7f1ea2b19b7ab22acb68ebeb58b5cb9eab43e3e119ebbd3159fdcddfc5b8c538b86125cd816140dd565b816001600160a01b03166352d1902d6040518163ffffffff1660e01b8152600401602060405180830381865afa9250505080156150c0575060408051601f3d908101601f191682019092526150bd91810190616cea565b60015b615101576040517f4c9c8ce30000000000000000000000000000000000000000000000000000000081526001600160a01b03831660048201526024016142bf565b7f360894a13ba1a3210667c828492db98dca3e2076cc3735a920a3ca505d382bbc811461515d576040517faa1d49a4000000000000000000000000000000000000000000000000000000008152600481018290526024016142bf565b611ecc8383615ecb565b306001600160a01b037f00000000000000000000000000000000000000000000000000000000000000001614613f0d576040517fe07c8dba00000000000000000000000000000000000000000000000000000000815260040160405180910390fd5b67ffffffffffffffff81165f9081526002602052604081205480820361521b576040517f30812d4200000000000000000000000000000000000000000000000000000000815260040160405180910390fd5b6003615228600183616ba5565b8154811061523857615238616ad5565b905f5260205f2001915050919050565b67ffffffffffffffff82165f9081527fd5d321e774be746819c1749e69f27b3f3e063f791b56826404d788d5a63ed60160205260408120547fd5d321e774be746819c1749e69f27b3f3e063f791b56826404d788d5a63ed6009060ff16156152dc576040517f500389a000000000000000000000000000000000000000000000000000000000815260040160405180910390fd5b60ff91506152eb848484615f20565b67ffffffffffffffff9093165f908152600193840160205260409020805460ff19169093179092555090565b5f5f6110006001600160a01b031663757991a86040518163ffffffff1660e01b815260040160408051808303815f875af1158015615357573d5f5f3e3d5ffd5b505050506040513d601f19601f8201168201806040525081019061537b9190616d01565b915091509091565b5f46608f036153925750600190565b4661279f036153a15750600190565b466175bf036153b05750600190565b50600190565b6153be613eb1565b7fcd5ed15c6e187e77e9aee88184c21f4f2182ab5827cb3b7e07fbedcd63f03300805460ff191660011781557f62e78cea01bee320cd4e420270b5ea74000d11b0c9f74754ebdbfc544b05a258336147be565b7fe1777bd22f637fc57eadcf9d877079117b44537a53059b1670036696018f564c612037816140dd565b7f1d770361ad1ba5c90793f5d8711778cd963118207b8b46db0f36c72a65b0b451615465816140dd565b67ffffffffffffffff82165f9081527fd5d321e774be746819c1749e69f27b3f3e063f791b56826404d788d5a63ed6006020526040812054610100900460ff1611156154dd576040517f4d078c7100000000000000000000000000000000000000000000000000000000815260040160405180910390fd5b67ffffffffffffffff82165f9081527fd5d321e774be746819c1749e69f27b3f3e063f791b56826404d788d5a63ed601602052604090205460ff16156125cd576040517f4d078c7100000000000000000000000000000000000000000000000000000000815260040160405180910390fd5b5f6119548383615fd5565b5f807ff0c57e16840df040f15088dc2f81fe391c3923bec73e23a9662efc9c229c6a00611283565b613f0d6160af565b6155926160af565b6125cd82826160ed565b7f02dd7bc7dec4dceedda775e58dd541e08a116c6c53815c0bd028192f7b6268005f6155f5845f9081527f02dd7bc7dec4dceedda775e58dd541e08a116c6c53815c0bd028192f7b626800602052604090206001015490565b5f85815260208490526040808220600101869055519192508491839187917fbd79b86ffe0ab8e8776151514217cd7cacd52c909f66475c3af44e129f0b00ff9190a450505050565b6040517fa76e2ca500000000000000000000000000000000000000000000000000000000815267ffffffffffffffff821660048201525f906110009063a76e2ca5906024016020604051808303815f875af115801561569e573d5f5f3e3d5ffd5b505050506040513d601f19601f820116820180604052508101906156c29190616ca3565b9050806125cd57604051633f48ffd960e21b815260040160405180910390fd5b7fbb12ed6b435a5fce787412ceb233935082e39147d977bc587eb74d0f97f48d2c612037816140dd565b60045482515f91829160609182918067ffffffffffffffff81111561573357615733616417565b60405190808252806020026020018201604052801561575c578160200160208202803683370190505b5093508067ffffffffffffffff81111561577857615778616417565b6040519080825280602002602001820160405280156157a1578160200160208202803683370190505b5092505f5b818110156158df575f8982815181106157c1576157c1616ad5565b6020026020010151604001516001600160601b031690505f5f85116157e6575f615823565b848a8c85815181106157fa576157fa616ad5565b6020026020010151602001516001600160601b03166158199190616b29565b6158239190616b54565b90508082111561587f575f6158388284616ba5565b9050615844818b616b86565b99508088858151811061585957615859616ad5565b60200260200101906001600160601b031690816001600160601b031681525050506158d5565b818111156158d5575f6158928383616ba5565b905061589e818a616b86565b9850808785815181106158b3576158b3616ad5565b60200260200101906001600160601b031690816001600160601b031681525050505b50506001016157a6565b50505092959194509250565b7f52c63247e1f47db19d5ce0460030c497f067ca4cebf71ba98eeadabe20bace006001600160a01b03851661594e576040517fe602df050000000000000000000000000000000000000000000000000000000081525f60048201526024016142bf565b6001600160a01b038416615990576040517f94280d620000000000000000000000000000000000000000000000000000000081525f60048201526024016142bf565b6001600160a01b038086165f90815260018301602090815260408083209388168352929052208390558115615a0d57836001600160a01b0316856001600160a01b03167f8c5be1e5ebec7d5bd14f71427d1e84f3dd0314c0f7b2291e5b200ac8c7c3b92585604051615a0491815260200190565b60405180910390a35b5050505050565b5f8281527f02dd7bc7dec4dceedda775e58dd541e08a116c6c53815c0bd028192f7b626800602090815260408083206001600160a01b038516845290915290205460ff166125cd576040517fe2517d3f0000000000000000000000000000000000000000000000000000000081526001600160a01b0382166004820152602481018390526044016142bf565b7f52c63247e1f47db19d5ce0460030c497f067ca4cebf71ba98eeadabe20bace006001600160a01b038416615aed5781816002015f828254615ae29190616c41565b90915550615b769050565b6001600160a01b0384165f9081526020829052604090205482811015615b58576040517fe450d38c0000000000000000000000000000000000000000000000000000000081526001600160a01b038616600482015260248101829052604481018490526064016142bf565b6001600160a01b0385165f9081526020839052604090209083900390555b6001600160a01b038316615b94576002810180548390039055615bb2565b6001600160a01b0383165f9081526020829052604090208054830190555b826001600160a01b0316846001600160a01b03167fddf252ad1be2c89b69c2b068fc378daa952ba7f163c4a11628f55a4df523b3ef84604051615bf791815260200190565b60405180910390a350505050565b5f818152600183016020526040812054615c4a57508154600181810184555f848152602080822090930184905584548482528286019093526040902091909155611283565b505f611283565b6060815f01805480602002602001604051908101604052809291908181526020018280548015615c9e57602002820191905f5260205f20905b815481526020019060010190808311615c8a575b50505050509050919050565b7fcd5ed15c6e187e77e9aee88184c21f4f2182ab5827cb3b7e07fbedcd63f033005460ff16613f0d576040517f8dfc202b00000000000000000000000000000000000000000000000000000000815260040160405180910390fd5b6040517f84994fec00000000000000000000000000000000000000000000000000000000815267ffffffffffffffff831660048201525f90611000906384994fec90849060240160206040518083038185885af1158015615d68573d5f5f3e3d5ffd5b50505050506040513d601f19601f82011682018060405250810190615d8d9190616ca3565b905080611ecc57604051633f48ffd960e21b815260040160405180910390fd5b67ffffffffffffffff82165f9081527fd5d321e774be746819c1749e69f27b3f3e063f791b56826404d788d5a63ed600602081815260408084208151808301909252805460ff808216845261010090910416928201839052917fffffffffffffffffffffffffffffffffffffffffffffffffffffffffffffff0101615e5e576040517f500389a000000000000000000000000000000000000000000000000000000000815260040160405180910390fd5b615e71815f0151826020015160ff614735565b935080602001516001615e849190616d2e565b825460ff91909116610100027fffffffffffffffffffffffffffffffffffffffffffffffffffffffffffff00ff909116178255615ec2868686615f20565b50505092915050565b615ed482616150565b6040516001600160a01b038316907fbc7cd75a20ee27fd9adebab32041f755214dbc6bffa90cc0225b39da2e5c2d3b905f90a2805115615f1857611ecc82826161ec565b6125cd61625e565b6040517f5cf4151400000000000000000000000000000000000000000000000000000000815267ffffffffffffffff841660048201526024810183905260ff821660448201525f9061100090635cf41514906064016020604051808303815f875af1158015615f91573d5f5f3e3d5ffd5b505050506040513d601f19601f82011682018060405250810190615fb59190616ca3565b9050806113ce57604051633f48ffd960e21b815260040160405180910390fd5b5f8181526001830160205260408120548015614653575f615ff7600183616ba5565b85549091505f9061600a90600190616ba5565b9050808214616069575f865f01828154811061602857616028616ad5565b905f5260205f200154905080875f01848154811061604857616048616ad5565b5f918252602080832090910192909255918252600188019052604090208390555b855486908061607a5761607a616c8f565b600190038181905f5260205f20015f90559055856001015f8681526020019081526020015f205f905560019350505050611283565b6160b7616296565b613f0d576040517fd7e6bcf800000000000000000000000000000000000000000000000000000000815260040160405180910390fd5b6160f56160af565b7f52c63247e1f47db19d5ce0460030c497f067ca4cebf71ba98eeadabe20bace007f52c63247e1f47db19d5ce0460030c497f067ca4cebf71ba98eeadabe20bace036161418482616d8b565b50600481016113ce8382616d8b565b806001600160a01b03163b5f0361619e576040517f4c9c8ce30000000000000000000000000000000000000000000000000000000081526001600160a01b03821660048201526024016142bf565b7f360894a13ba1a3210667c828492db98dca3e2076cc3735a920a3ca505d382bbc805473ffffffffffffffffffffffffffffffffffffffff19166001600160a01b0392909216919091179055565b60605f5f846001600160a01b0316846040516162089190616e46565b5f60405180830381855af49150503d805f8114616240576040519150601f19603f3d011682016040523d82523d5f602084013e616245565b606091505b50915091506162558583836162af565b95945050505050565b3415613f0d576040517fb398979f00000000000000000000000000000000000000000000000000000000815260040160405180910390fd5b5f61629f61555a565b54600160401b900460ff16919050565b6060826162c4576162bf82616324565b611954565b81511580156162db57506001600160a01b0384163b155b1561631d576040517f9996b3150000000000000000000000000000000000000000000000000000000081526001600160a01b03851660048201526024016142bf565b5080611954565b80511561633357805160208201fd5b6040517fd6bda27500000000000000000000000000000000000000000000000000000000815260040160405180910390fd5b5f60208284031215616375575f5ffd5b81357fffffffff0000000000000000000000000000000000000000000000000000000081168114611954575f5ffd5b602081525f82518060208401528060208501604085015e5f604082850101526040601f19601f83011684010191505092915050565b6001600160a01b0381168114612037575f5ffd5b5f5f604083850312156163fe575f5ffd5b8235616409816163d9565b946020939093013593505050565b634e487b7160e01b5f52604160045260245ffd5b604051601f8201601f1916810167ffffffffffffffff8111828210171561645457616454616417565b604052919050565b67ffffffffffffffff81168114612037575f5ffd5b5f82601f830112616480575f5ffd5b813567ffffffffffffffff81111561649a5761649a616417565b8060051b6164aa6020820161642b565b918252602081850181019290810190868411156164c5575f5ffd5b6020860192505b838310156164f05782356164df8161645c565b8252602092830192909101906164cc565b9695505050505050565b5f5f6040838503121561650b575f5ffd5b823567ffffffffffffffff811115616521575f5ffd5b61652d85828601616471565b925050602083013560ff81168114616543575f5ffd5b809150509250929050565b5f6020828403121561655e575f5ffd5b8135611954816163d9565b602080825282518282018190525f918401906040840190835b818110156165e35783516001600160601b0381511684526001600160601b03602082015116602085015264ffffffffff604082015116604085015261ffff606082015116606085015250608083019250602084019350600181019050616582565b509095945050505050565b8015158114612037575f5ffd5b5f5f6040838503121561660c575f5ffd5b8235616617816163d9565b91506020830135616543816165ee565b5f60208284031215616637575f5ffd5b5035919050565b80356001600160601b0381168114616654575f5ffd5b919050565b5f5f6040838503121561666a575f5ffd5b6166738361663e565b91506020830135616543816163d9565b5f5f5f60608486031215616695575f5ffd5b83356166a0816163d9565b925060208401356166b0816163d9565b929592945050506040919091013590565b5f5f604083850312156166d2575f5ffd5b6166db8361663e565b91506166e96020840161663e565b90509250929050565b5f60208284031215616702575f5ffd5b81356119548161645c565b5f5f6040838503121561671e575f5ffd5b823591506020830135616543816163d9565b602080825282518282018190525f918401906040840190835b818110156165e357835160ff16835260209384019390920191600101616749565b602080825282518282018190525f918401906040840190835b818110156165e3578351835260209384019390920191600101616783565b5f602082840312156167b1575f5ffd5b813567ffffffffffffffff8111156167c7575f5ffd5b61475684828501616471565b5f5f604083850312156167e4575f5ffd5b82356167ef816163d9565b9150602083013567ffffffffffffffff81111561680a575f5ffd5b8301601f8101851361681a575f5ffd5b803567ffffffffffffffff81111561683457616834616417565b6168476020601f19601f8401160161642b565b81815286602083850101111561685b575f5ffd5b816020840160208301375f602083830101528093505050509250929050565b60608101611283828467ffffffffffffffff81511682526001600160601b0360208201511660208301526001600160601b0360408201511660408301525050565b5f5f604083850312156168cc575f5ffd5b82356166738161645c565b5f602082840312156168e7575f5ffd5b813561ffff81168114611954575f5ffd5b5f5f60208385031215616909575f5ffd5b823567ffffffffffffffff81111561691f575f5ffd5b8301601f8101851361692f575f5ffd5b803567ffffffffffffffff811115616945575f5ffd5b856020606083028401011115616959575f5ffd5b6020919091019590945092505050565b5f5f6040838503121561697a575f5ffd5b8235616673816163d9565b5f60208284031215616995575f5ffd5b6119548261663e565b602080825282518282018190525f918401906040840190835b818110156165e3576169fd83855167ffffffffffffffff81511682526001600160601b0360208201511660208301526001600160601b0360408201511660408301525050565b60209390930192606092909201916001016169b7565b5f8151808452602084019350602083015f5b82811015616a4c5781516001600160601b0316865260209586019590910190600101616a25565b5093949350505050565b6001600160601b03851681526001600160601b0384166020820152608060408201525f616a866080830185616a13565b8281036060840152616a988185616a13565b979650505050505050565b600181811c90821680616ab757607f821691505b602082108103613bfe57634e487b7160e01b5f52602260045260245ffd5b634e487b7160e01b5f52603260045260245ffd5b634e487b7160e01b5f52601160045260245ffd5b5f67ffffffffffffffff821667ffffffffffffffff8103616b2057616b20616ae9565b60010192915050565b808202811582820484141761128357611283616ae9565b634e487b7160e01b5f52601260045260245ffd5b5f82616b6257616b62616b40565b500490565b6001600160601b03828116828216039081111561128357611283616ae9565b6001600160601b03818116838216019081111561128357611283616ae9565b8181038181111561128357611283616ae9565b64ffffffffff828116828216039081111561128357611283616ae9565b64ffffffffff818116838216019081111561128357611283616ae9565b5f5f5f5f5f5f5f60e0888a031215616c08575f5ffd5b5050855160208701516040880151606089015160808a015160a08b015160c0909b0151949c939b50919990985090965094509092509050565b8082018082111561128357611283616ae9565b67ffffffffffffffff818116838216019081111561128357611283616ae9565b5f60208284031215616c84575f5ffd5b8135611954816165ee565b634e487b7160e01b5f52603160045260245ffd5b5f60208284031215616cb3575f5ffd5b8151611954816165ee565b60ff828116828216039081111561128357611283616ae9565b5f82616ce557616ce5616b40565b500690565b5f60208284031215616cfa575f5ffd5b5051919050565b5f5f60408385031215616d12575f5ffd5b8251616d1d8161645c565b6020840151909250616543816165ee565b60ff818116838216019081111561128357611283616ae9565b601f821115611ecc57805f5260205f20601f840160051c81016020851015616d6c5750805b601f840160051c820191505b81811015615a0d575f8155600101616d78565b815167ffffffffffffffff811115616da557616da5616417565b616db981616db38454616aa3565b84616d47565b6020601f821160018114616deb575f8315616dd45750848201515b5f19600385901b1c1916600184901b178455615a0d565b5f84815260208120601f198516915b82811015616e1a5787850151825560209485019460019092019101616dfa565b5084821015616e3757868401515f19600387901b60f8161c191681555b50505050600190811b01905550565b5f82518060208501845e5f92019182525091905056fea2646970667358221220ee70ac97fc25dd04109f114991ea074edba0b8dee005a1776466888bc584ad9364736f6c634300081e0033","linkReferences":{}},"methodIdentifiers":{"DEFAULT_ADMIN_ROLE()":"a217fddf","MINIMUM_CONTRIBUTE_THRESHOLD()":"86bb1d6e","ROLE_ADD_NODE()":"22fd4ad5","ROLE_DISABLE_NODE()":"e8ce8922","ROLE_FEE_CLAIMER()":"06c7dbc4","ROLE_FEE_EXEMPTION()":"a30fefe1","ROLE_FEE_SETTER()":"1b8e0db6","ROLE_PAUSE()":"4ff0241a","ROLE_REMOVE_NODE()":"5838b2fe","ROLE_UPDATE_WEIGHTS()":"63311d3d","ROLE_UPGRADE()":"2a7d8acb","UPGRADE_INTERFACE_VERSION()":"ad3cb1cc","addNode(uint64)":"337b2b6e","allowance(address,address)":"dd62ed3e","approve(address,uint256)":"095ea7b3","balanceOf(address)":"70a08231","batchDepositRequests(uint256)":"77654f34","batchSubmissions(uint256)":"78f908e1","batchWithdrawRequests(uint256)":"4beae6e3","cancelUnlockRequest(uint256)":"1610247b","claimProtocolFees(address)":"69ce6d47","compound(uint64[])":"cf5e2743","contributeToPool(address)":"a0e3cdd6","convertToAssets(uint96)":"fb9848e4","convertToShares(uint96)":"df235fe6","currentBatchId()":"0a763da1","decimals()":"313ce567","deposit(uint96,address)":"1c3477dd","disableNode(uint64)":"d8a9fe50","getAllUserUnlockRequests(address)":"0b52f7b1","getDelegator(uint64,address)":"573c1ce0","getExitFeeBips()":"fde73f7d","getImbalances(uint96)":"f6516e7f","getManagementFeeBips()":"bf7df8e0","getMintableProtocolShares()":"615bfc45","getNodeIds()":"3e367afa","getNodes()":"e29581aa","getRoleAdmin(bytes32)":"248a9ca3","getWithdrawIds(uint64)":"3b5b4765","getWithdrawIdsSize(uint64)":"7a6d59d5","grantRole(bytes32,address)":"2f2ff15d","hasRole(bytes32,address)":"91d14854","initialize(address)":"c4d66de8","isExitFeeExempt(address)":"0bf14d9b","isForceWithdrawPending(uint64)":"2584601f","isNodeDisabled(uint64)":"d6531de5","name()":"06fdde03","nodes(uint256)":"1c53c280","pause()":"8456cb59","paused()":"5c975abb","proxiableUUID()":"52d1902d","redeem(uint256,address)":"7bde82f2","removeNode(uint64)":"aedf6d51","renounceRole(bytes32,address)":"36568abe","requestUnlock(uint96,uint96)":"24f67e18","revokeRole(bytes32,address)":"d547741f","setExitFee(uint16)":"f75b0404","setExitFeeExemption(address,bool)":"15230e80","setManagementFee(uint16)":"8dd09af3","submitBatch()":"46115383","supportsInterface(bytes4)":"01ffc9a7","sweep(uint64[],uint8)":"0a9f9ee2","sweepForced(uint64[])":"43abcf32","symbol()":"95d89b41","totalPooled()":"6ec21cc8","totalShares()":"3a98ef39","totalSupply()":"18160ddd","totalWeight()":"96c82e57","transfer(address,uint256)":"a9059cbb","transferFrom(address,address,uint256)":"23b872dd","unbondDisableNode(uint64)":"733897b7","unpause()":"3f4ba83a","updateWeights((uint64,uint96,bool)[])":"a4b0b5a3","upgradeToAndCall(address,bytes)":"4f1ef286","userUnlockRequests(address,uint256)":"fd012e34","viewNodeByNodeId(uint64)":"540a26f3"},"id":54}