{"abi":[{"type":"constructor","inputs":[],"stateMutability":"nonpayable"},{"type":"function","name":"create","inputs":[{"name":"splitterAdmin","type":"address","internalType":"address"}],"outputs":[{"name":"","type":"address","internalType":"address"}],"stateMutability":"nonpayable"},{"type":"event","name":"SplitterCreated","inputs":[{"name":"splitter","type":"address","indexed":false,"internalType":"address"}],"anonymous":false}],"bytecode":{"object":"0x6080604052348015600e575f5ffd5b5061191e8061001c5f395ff3fe608060405234801561000f575f5ffd5b5060043610610029575f3560e01c80639ed933181461002d575b5f5ffd5b61004061003b36600461010e565b610069565b60405173ffffffffffffffffffffffffffffffffffffffff909116815260200160405180910390f35b5f5f8260405161007890610101565b73ffffffffffffffffffffffffffffffffffffffff9091168152602001604051809103905ff0801580156100ae573d5f5f3e3d5ffd5b5060405173ffffffffffffffffffffffffffffffffffffffff821681529091507f6499ba0dcde9970f83357fecd0782918cffb6a9a97a10957ded519f11907efe59060200160405180910390a192915050565b6117a08061014983390190565b5f6020828403121561011e575f5ffd5b813573ffffffffffffffffffffffffffffffffffffffff81168114610141575f5ffd5b939250505056fe608060405234801561000f575f5ffd5b506040516117a03803806117a083398101604081905261002e9161016d565b6001805561003c5f826100c4565b506100677f735212744aaf538da4341f7b6ed94538b4af9d1e74b7a3d37658c0dfea0063fa826100c4565b506100927f1a3232fd004fbc3b1a462de2ee022093865fb982f02c27db782f8f406ff099c5826100c4565b506100bd7f36eea88e2a613da43e89b9a18d8ec6dad0577ab12f0367a5506fcb5d3e9d251e826100c4565b505061019a565b5f828152602081815260408083206001600160a01b038516845290915281205460ff16610164575f838152602081815260408083206001600160a01b03861684529091529020805460ff1916600117905561011c3390565b6001600160a01b0316826001600160a01b0316847f2f8788117e7eff1d82e926ec794901d17c78024a50270940304540a733656f0d60405160405180910390a4506001610167565b505f5b92915050565b5f6020828403121561017d575f5ffd5b81516001600160a01b0381168114610193575f5ffd5b9392505050565b6115f9806101a75f395ff3fe6080604052600436106100dc575f3560e01c8063420cbc201161007c57806391d148541161005757806391d1485414610273578063a217fddf146102b5578063befbc516146102c8578063d547741f146102fb575f5ffd5b8063420cbc20146101df578063626d6be214610212578063884c300614610245575f5ffd5b80632c68ded1116100b75780632c68ded11461016c5780632f2ff15d1461018d57806336568abe146101ac5780633ccfd60b146101cb575f5ffd5b806301ffc9a7146100e7578063248a9ca31461011b5780632682505614610157575f5ffd5b366100e357005b5f5ffd5b3480156100f2575f5ffd5b50610106610101366004610f57565b61031a565b60405190151581526020015b60405180910390f35b348015610126575f5ffd5b50610149610135366004610f9d565b5f9081526020819052604090206001015490565b604051908152602001610112565b348015610162575f5ffd5b5061014960045481565b348015610177575f5ffd5b5061018b6101863660046111b5565b6103b2565b005b348015610198575f5ffd5b5061018b6101a7366004611271565b610972565b3480156101b7575f5ffd5b5061018b6101c6366004611271565b61099c565b3480156101d6575f5ffd5b5061018b6109ed565b3480156101ea575f5ffd5b506101497f36eea88e2a613da43e89b9a18d8ec6dad0577ab12f0367a5506fcb5d3e9d251e81565b34801561021d575f5ffd5b506101497f1a3232fd004fbc3b1a462de2ee022093865fb982f02c27db782f8f406ff099c581565b348015610250575f5ffd5b5061026461025f366004610f9d565b610c4e565b604051610112939291906112c9565b34801561027e575f5ffd5b5061010661028d366004611271565b5f918252602082815260408084206001600160a01b0393909316845291905290205460ff1690565b3480156102c0575f5ffd5b506101495f81565b3480156102d3575f5ffd5b506101497f735212744aaf538da4341f7b6ed94538b4af9d1e74b7a3d37658c0dfea0063fa81565b348015610306575f5ffd5b5061018b610315366004611271565b610d06565b5f7fffffffff0000000000000000000000000000000000000000000000000000000082167f7965db0b0000000000000000000000000000000000000000000000000000000014806103ac57507f01ffc9a7000000000000000000000000000000000000000000000000000000007fffffffff000000000000000000000000000000000000000000000000000000008316145b92915050565b6103ba610d2a565b8151815181146104115760405162461bcd60e51b815260206004820152601460248201527f4d69736d61746368656420617267756d656e747300000000000000000000000060448201526064015b60405180910390fd5b6002545f5b8281101561090f575f858281518110610431576104316112fd565b60200260200101519050600a811061048b5760405162461bcd60e51b815260206004820152601360248201527f496e76616c69642073706c697420696e646578000000000000000000000000006044820152606401610408565b5f85838151811061049e5761049e6112fd565b6020026020010151905061271061ffff16815f015161ffff1611156105055760405162461bcd60e51b815260206004820152601260248201527f496e76616c69642073706c6974206269707300000000000000000000000000006044820152606401610408565b5f8281526003602090815260408083208151606081018352815461ffff811682526201000090046001600160a01b031693810193909352600181018054919284019161055090611311565b80601f016020809104026020016040519081016040528092919081815260200182805461057c90611311565b80156105c75780601f1061059e576101008083540402835291602001916105c7565b820191905f5260205f20905b8154815290600101906020018083116105aa57829003601f168201915b5050509190925250508351825192935061ffff908116926105ea9250168761135d565b6105f49190611370565b825190955061ffff161580159061060e5750805161ffff16155b156107005761063d7f735212744aaf538da4341f7b6ed94538b4af9d1e74b7a3d37658c0dfea0063fa33610d6d565b5f8381526003602090815260409182902084518154928601516001600160a01b031662010000027fffffffffffffffffffff0000000000000000000000000000000000000000000090931661ffff909116179190911781559083015183919060018201906106ab90826113ce565b5090505060045f81546106bd90611489565b909155506040517fd0ac721b4ab85e787dd3a05968c695d3902b95a2dde328f42d33cdbd0adfe9b6906106f390859085906114de565b60405180910390a1610901565b815161ffff161580156107175750805161ffff1615155b156107cd576107467f36eea88e2a613da43e89b9a18d8ec6dad0577ab12f0367a5506fcb5d3e9d251e33610d6d565b5f83815260036020526040812080547fffffffffffffffffffff00000000000000000000000000000000000000000000168155906107876001830182610f0d565b505060045f8154610797906114f6565b909155506040517f4d267bb6302fdb0059b698e794b49bb98eafc7b12b40d9ef3bf50381b98648c1906106f390859084906114de565b805161ffff16158015906107e55750815161ffff1615155b156108b9576108147f1a3232fd004fbc3b1a462de2ee022093865fb982f02c27db782f8f406ff099c533610d6d565b5f8381526003602090815260409182902084518154928601516001600160a01b031662010000027fffffffffffffffffffff0000000000000000000000000000000000000000000090931661ffff9091161791909117815590830151839190600182019061088290826113ce565b509050507f92cc86196bbbce49f7961ddc408146bd2da46bda8b338b9c86d755b75bd76fe38382846040516106f39392919061150b565b60405162461bcd60e51b815260206004820152600e60248201527f496e76616c6964207570646174650000000000000000000000000000000000006044820152606401610408565b505050806001019050610416565b5061271081146109615760405162461bcd60e51b815260206004820152601860248201527f496e73756666696369656e7420616c6c6f636174696f6e7300000000000000006044820152606401610408565b6002555061096e60018055565b5050565b5f8281526020819052604090206001015461098c81610dd8565b6109968383610de5565b50505050565b6001600160a01b03811633146109de576040517f6697b23200000000000000000000000000000000000000000000000000000000815260040160405180910390fd5b6109e88282610e8c565b505050565b6109f5610d2a565b60045447905f805b600a811015610c3e575f8181526003602090815260408083208151606081018352815461ffff811682526201000090046001600160a01b0316938101939093526001810180549192840191610a5190611311565b80601f0160208091040260200160405190810160405280929190818152602001828054610a7d90611311565b8015610ac85780601f10610a9f57610100808354040283529160200191610ac8565b820191905f5260205f20905b815481529060010190602001808311610aab57829003601f168201915b5050505050815250509050805f015161ffff165f03610ae75750610c36565b80515f9061271090610afd9061ffff168861153f565b610b079190611556565b90505f5f83602001516001600160a01b0316838560400151604051610b2c9190611575565b5f6040518083038185875af1925050503d805f8114610b66576040519150601f19603f3d011682016040523d82523d5f602084013e610b6b565b606091505b509150915081610bcd5780515f03610bc55760405162461bcd60e51b815260206004820152601e60248201527f5472616e73616374696f6e20657865637574696f6e20726576657274656400006044820152606401610408565b805181602001fd5b7f9f51a615c68fee2a41ff8e5a80895f4e150653bfddc365ef92f37fbac3107df1858560200151866040015186604051610c0a949392919061158b565b60405180910390a186610c1c87611489565b96508610610c31575050505050505050610c43565b505050505b6001016109fd565b505050505b610c4c60018055565b565b60036020525f90815260409020805460018201805461ffff831693620100009093046001600160a01b0316929190610c8590611311565b80601f0160208091040260200160405190810160405280929190818152602001828054610cb190611311565b8015610cfc5780601f10610cd357610100808354040283529160200191610cfc565b820191905f5260205f20905b815481529060010190602001808311610cdf57829003601f168201915b5050505050905083565b5f82815260208190526040902060010154610d2081610dd8565b6109968383610e8c565b600260015403610d66576040517f3ee5aeb500000000000000000000000000000000000000000000000000000000815260040160405180910390fd5b6002600155565b5f828152602081815260408083206001600160a01b038516845290915290205460ff1661096e576040517fe2517d3f0000000000000000000000000000000000000000000000000000000081526001600160a01b038216600482015260248101839052604401610408565b610de28133610d6d565b50565b5f828152602081815260408083206001600160a01b038516845290915281205460ff16610e85575f838152602081815260408083206001600160a01b03861684529091529020805460ff19166001179055610e3d3390565b6001600160a01b0316826001600160a01b0316847f2f8788117e7eff1d82e926ec794901d17c78024a50270940304540a733656f0d60405160405180910390a45060016103ac565b505f6103ac565b5f828152602081815260408083206001600160a01b038516845290915281205460ff1615610e85575f838152602081815260408083206001600160a01b0386168085529252808320805460ff1916905551339286917ff6391f5c32d9c69d2a47ea670b442974b53935d1edc7fd64eb21e047a839171b9190a45060016103ac565b508054610f1990611311565b5f825580601f10610f28575050565b601f0160209004905f5260205f2090810190610de291905b80821115610f53575f8155600101610f40565b5090565b5f60208284031215610f67575f5ffd5b81357fffffffff0000000000000000000000000000000000000000000000000000000081168114610f96575f5ffd5b9392505050565b5f60208284031215610fad575f5ffd5b5035919050565b634e487b7160e01b5f52604160045260245ffd5b6040516060810167ffffffffffffffff81118282101715610feb57610feb610fb4565b60405290565b604051601f8201601f1916810167ffffffffffffffff8111828210171561101a5761101a610fb4565b604052919050565b5f67ffffffffffffffff82111561103b5761103b610fb4565b5060051b60200190565b80356001600160a01b038116811461105b575f5ffd5b919050565b5f82601f83011261106f575f5ffd5b813561108261107d82611022565b610ff1565b8082825260208201915060208360051b8601019250858311156110a3575f5ffd5b602085015b838110156111ab57803567ffffffffffffffff8111156110c6575f5ffd5b86016060818903601f190112156110db575f5ffd5b6110e3610fc8565b602082013561ffff811681146110f7575f5ffd5b815261110560408301611045565b6020820152606082013567ffffffffffffffff811115611123575f5ffd5b60208184010192505088601f83011261113a575f5ffd5b813567ffffffffffffffff81111561115457611154610fb4565b6111676020601f19601f84011601610ff1565b8181528a602083860101111561117b575f5ffd5b816020850160208301375f60208383010152806040840152505080855250506020830192506020810190506110a8565b5095945050505050565b5f5f604083850312156111c6575f5ffd5b823567ffffffffffffffff8111156111dc575f5ffd5b8301601f810185136111ec575f5ffd5b80356111fa61107d82611022565b8082825260208201915060208360051b85010192508783111561121b575f5ffd5b6020840193505b8284101561123d578335825260209384019390910190611222565b9450505050602083013567ffffffffffffffff81111561125b575f5ffd5b61126785828601611060565b9150509250929050565b5f5f60408385031215611282575f5ffd5b8235915061129260208401611045565b90509250929050565b5f81518084528060208401602086015e5f602082860101526020601f19601f83011685010191505092915050565b61ffff841681526001600160a01b0383166020820152606060408201525f6112f4606083018461129b565b95945050505050565b634e487b7160e01b5f52603260045260245ffd5b600181811c9082168061132557607f821691505b60208210810361134357634e487b7160e01b5f52602260045260245ffd5b50919050565b634e487b7160e01b5f52601160045260245ffd5b818103818111156103ac576103ac611349565b808201808211156103ac576103ac611349565b601f8211156109e857805f5260205f20601f840160051c810160208510156113a85750805b601f840160051c820191505b818110156113c7575f81556001016113b4565b5050505050565b815167ffffffffffffffff8111156113e8576113e8610fb4565b6113fc816113f68454611311565b84611383565b6020601f82116001811461142e575f83156114175750848201515b5f19600385901b1c1916600184901b1784556113c7565b5f84815260208120601f198516915b8281101561145d578785015182556020948501946001909201910161143d565b508482101561147a57868401515f19600387901b60f8161c191681555b50505050600190811b01905550565b5f6001820161149a5761149a611349565b5060010190565b61ffff81511682526001600160a01b0360208201511660208301525f6040820151606060408501526114d6606085018261129b565b949350505050565b828152604060208201525f6114d660408301846114a1565b5f8161150457611504611349565b505f190190565b838152606060208201525f61152360608301856114a1565b828103604084015261153581856114a1565b9695505050505050565b80820281158282048414176103ac576103ac611349565b5f8261157057634e487b7160e01b5f52601260045260245ffd5b500490565b5f82518060208501845e5f920191825250919050565b8481526001600160a01b0384166020820152608060408201525f6115b2608083018561129b565b90508260608301529594505050505056fea2646970667358221220ea7105a278a10530bc05240b3ef418012d73b77a3f62ef616d02aee296a0a9b664736f6c634300081e0033a2646970667358221220e32945a94d99fe7330a9c3ef498ad6dd9423028c067449bba276010a207568ba64736f6c634300081e0033","linkReferences":{}},"methodIdentifiers":{"create(address)":"9ed93318"},"id":28}